S01B0000436F64657369676E53656D69706172616D45512E73726563A8
S214400000A85C0020950340001904400019044000F5
S2144000101904400019044000190440000000000084
S214400020000000000000000000000000190440002E
S2144000301904400000000000190440001904400064
S21440004019044000190440001904400019044000F7
S21440005019044000190440001904400019044000E7
S21440006019044000951140000000000019044000AB
S21440007019044000190440001904400019044000C7
S214400080591040001904400019044000190440006B
S21440009019044000190440001904400019044000A7
S2144000A01904400019044000190440001904400097
S2144000B01904400019044000000000000000000041
S2144000C000000000000000000000000000000000EB
S2144000D000000000000000000000000000000000DB
S2144000E000000000000000000000000000000000CB
S2144000F0000000000000000000000000190440005E
S214400100190440001904400010B5054C237833B953
S214400110044B13B10448AFF300800123237010BD95
S214400120D80900200000000014AC40000C4B43B13E
S2144001300C480D4910B5AFF300800C48036823B94E
S21440014010BD0A48036833B97047094B002BF7D0F7
S214400150BDE810401847064B002BF5D0184700BFA7
S2144001600000000014AC4000DC09002014AC400045
S2144001700000000080B582B000AF834B4FF4981269
S2144001805A60814B00225A636FF07F437B6002E0E7
S2144001907B68013B7B607C4B1B6A03F48073002BBF
S2144001A002D07B68002BF3D17B68002B01D1002363
S2144001B0E5E0754B05225A636FF07F437B6002E0B3
S2144001C07B68013B7B60704B1B6A03F48073002B9B
S2144001D002D07B68002BF3D17B68002B01D1002333
S2144001E0CDE0694B00225A636FF07F437B6002E0AC
S2144001F07B68013B7B60644B1B6A03F48073002B77
S21440020002D07B68002BF3D17B68002B01D1002302
S214400210B5E05D4B38225A636FF07F437B6002E067
S2144002207B68013B7B60584B1B6A03F48073002B52
S21440023002D07B68002BF3D17B68002B01D10023D2
S2144002409DE0514B01225A636FF07F437B6002E092
S2144002507B68013B7B604C4B1B6A03F48073002B2E
S21440026002D07B68002BF3D17B68002B01D10023A2
S21440027085E0454B2A225A636FF07F437B6002E05D
S2144002807B68013B7B60404B1B6A03F48073002B0A
S21440029002D07B68002BF3D17B68002B01D1002372
S2144002A06DE0394B31225A636FF07F437B6002E04A
S2144002B07B68013B7B60344B1B6A03F48073002BE6
S2144002C002D07B68002BF3D17B68002B01D1002342
S2144002D055E02D4B0B225A636FF07F437B6002E064
S2144002E07B68013B7B60284B1B6A03F48073002BC2
S2144002F002D07B68002BF3D17B68002B01D1002312
S2144003003DE0214BFF225A636FF07F437B6002E063
S2144003107B68013B7B601C4B1B6A03F48073002B9D
S21440032002D07B68002BF3D17B68002B01D10023E1
S21440033025E0154BFF225A636FF07F437B6002E057
S2144003407B68013B7B60104B1B6A03F48073002B79
S21440035002D07B68002BF3D17B68002B01D10023B1
S2144003600DE0094B02221A6000BF074B1B6A03F0E0
S2144003700103002BF9D00548054B98470123184642
S2144003800837BD4680BD00BF00C600408CA6400072
S214400390AD19400080B582B000AF164B7B60164B5F
S2144003A03B607A683B689A420CD007E03B681A1D6F
S2144003B03A607A68111D796012681A603B680F4A85
S2144003C09342F3D30E4B3B6004E03B681A1D3A6001
S2144003D000221A603B680B4A9342F6D30A4B7B6076
S2144003E00A4A7B6823F07F039360094B9847094B82
S2144003F09847FEE714AC400000000020D8090020D3
S214400400D8090020A42A00200000400000ED00E0AB
S214400410ED554000590B400080B400AFFEE70000A9
S21440042080B400AF034B044A1A6000BFBD465DF877
S214400430047B70470000002000127A0080B483B02E
S21440044000AF0346FB7197F90730002B0BDB0949D9
S21440045097F907305B09FA7902F01F02012000FA8B
S21440046002F241F8232000BF0C37BD465DF8047BFE
S214400470704700BF00E100E080B483B000AF0346A1
S2144004803960FB7197F90730002B0ADB0D4997F965
S21440049007303A68D2B21201D2B20B4483F8002336
S2144004A00AE00949FB7903F00F03043B3A68D2B2ED
S2144004B01201D2B20B441A7600BF0C37BD465DF827
S2144004C0047B704700E100E000ED00E090B587B0A7
S2144004D002AFF860B9607A603B60204B98474FF0B7
S2144004E0804380221A604FF080434FF4C4425A60E3
S2144004F03B6A00933B687A68B968F868184CA0472E
S2144005004FF0804380225A6100211020154B9847B7
S2144005101020154B98474FF0804300221A604FF04A
S21440052080424FF080431B6843F0010313604FF056
S21440053080424FF080431B6843F0100313604FF037
S21440054080424FF080431B6843F004031360074823
S214400550074B984700BF1437BD4690BD2D06400058
S21440056075054000790440003D044000A8A64000C0
S214400570AD19400080B487B000AFF860B9607A60CB
S2144005803B60294B7B614FF08042FB68C2F80831E4
S2144005904FF080423B6AC2F80C314FF08042FB6815
S2144005A0C2F818314FF080423B6AC2F81C314FF017
S2144005B080427B68C2F800314FF080423B6AC2F806
S2144005C004314FF080427B68C2F810314FF08042D1
S2144005D03B6AC2F81431BA687B699A607B693A6AAA
S2144005E0DA60BA687B699A617B693A6ADA613A6826
S2144005F07B691A607B693A6A5A603A687B691A6115
S2144006007B693A6A5A614FF0804340F20112C3F860
S21440061020217B6940F201121A6200BF1C37BD469A
S2144006205DF8047B704700BF0002004080B400AF16
S214400630144A144B5B6843F4C02343F01F035360D3
S214400640104A104B1B6F23F4C02323F00303136799
S2144006500C4A0C4B5B6F23F4C02323F00303536711
S214400660084A084B1B6F43F01C031367054A054BAB
S2144006705B6F23F01C03536700BFBD465DF8047BE9
S214400680704700BF000E0E4080B400AF074A074BCD
S2144006901B6843F470031360BFF34F8FBFF36F8F35
S2144006A000BFBD465DF8047B704700BF88ED00E0A4
S2144006B0F0B595B000AFF86087ED020AC7ED010AC5
S2144006C0D7ED017A9FEDC67AC7EE876AC54B16EE20
S2144006D0900A984703460C4644EC103BC24B98475A
S2144006E051EC100BC14C4FF00002C14BA0470346E3
S2144006F00C4618462146BF4CB5A3D3E90023A04775
S21440070003460C4619462246BB4B084611469847B8
S21440071003467B63D7ED0D7A9FEDB87AC7EE876ABE
S214400720B04B16EE900A984703460C4644EC113BF5
S2144007309FEDA90BB24B984752EC101BAE4B0846A8
S2144007401146984703463B63DFEDA56A97ED017A6D
S214400750C6EE877AB7EE007A77EE877AA14B17EE29
S214400760900A984703460C4644EC103B9E4B9847ED
S21440077051EC100B9D4C4FF000029D4BA04703469A
S2144007800C46184621469B4C91A3D3E90023A0472C
S21440079003460C4619462246974B0846114698474C
S2144007A0034607EE903AF1EE677AC7ED0B7AD7ED3F
S2144007B00B7A9FED927AC7EE876A8A4B16EE900ABE
S2144007C0984703460C4644EC113B9FED830B8C4BFD
S2144007D0984752EC101B884B0846114698470346EC
S2144007E0BB6297ED017ADFED7E6AC7EE267AB7EEFA
S2144007F0007A77EE877AC7ED097A7A4B786A984717
S21440080003460C4644EC103B774B984751EC100B94
S214400810764C4FF00002764BA04703460C461846EF
S2144008202146744C6AA3D3E90023A04703460C46EE
S21440083019462246704B08461146984703463B6287
S214400840D7ED027A9FED6F7A27EE877ADFED6E6AF4
S214400850C7EE267AC7ED077A97ED077ADFED6B6A23
S214400860C7EE267AB7EE007A37EE677A684BD3ED56
S214400870007A67EE277AC7ED067A5A4BF8699847AA
S21440088003460C4644EC103B624B984756EC105BD4
S214400890544B386B984702460B46544C28463146D4
S2144008A0A04703460C461D462646D7ED067A77EE09
S2144008B0A77A4C4B17EE900A984702460B464D4C8B
S2144008C028463146A04703460C46194622464A4B20
S2144008D008461146984703467B61424BF86998475D
S2144008E003460C4644EC103B4A4B984756EC105B8C
S2144008F03C4BB86A984702460B463C4C2846314625
S214400900A04703460C461D462646364B786A98470F
S21440091002460B46354C28463146A04703460C4611
S2144009201D462646D7ED067A77EEA77A2D4B17EE6C
S214400930900A984702460B462E4C28463146A0471A
S21440094003460C46194622462B4B08461146984706
S21440095003463B61304B1B78DBB2002B73D097EDE0
S214400960057AD7ED0C7A67EE277AC7ED107A4FF006
S2144009700003FB63D7ED057AB1EE677AD7ED0C7AC4
S21440098067EE277AC7ED0E7AD7ED056A97ED0C7AB3
S214400990C6EE877AB7EE007A77EE877AC7ED137A97
S2144009A0104BF869984703460C4644EC103B1B4BEB
S2144009B0984751EC100B0D4C4FF000024FF040435F
S2144009C0A04703460C461946224629E0AFF300806E
S2144009D01655B5BBB16B0240000000000000244035
S2144009E00000FA44314E4000711D4000D94E400090
S2144009F0000034402D514000895440000000204201
S214400A00791E4000DB0FC94000803B47DB0F494161
S214400A100C000020B11C4000FA090020F11B4000E9
S214400A20494B0846114698470346BB64D7ED056ACE
S214400A3097ED0C7AC6EE877AB7EE007A77EE677A4D
S214400A40C7ED117A47E0D7ED047AB1EE677AD7ED75
S214400A500A7A67EE277AC7ED107A4FF00003FB63F9
S214400A6097ED047AD7ED0A7A67EE277AC7ED0E7AC5
S214400A70D7ED046A97ED0A7AC6EE877AB7EE007A23
S214400A8077EE877AC7ED137A304BF8699847034676
S214400A900C4644EC103B2E4B984751EC100B2D4C1B
S214400AA04FF000024FF04043A04703460C4619461D
S214400AB02246254B0846114698470346BB64D7ED69
S214400AC0046A97ED0A7AC6EE877AB7EE007A77EE32
S214400AD0677AC7ED117AD7ED106A97ED137AC6EEAE
S214400AE0877AFB68C3ED007AFB680433D7ED0F6A5C
S214400AF097ED137AC6EE877AC3ED007AFB68083323
S214400B00D7ED0E6A97ED137AC6EE877AC3ED007A74
S214400B10FB680C33D7ED127AF1EE676A97ED137ADD
S214400B20C6EE877AC3ED007AFB681033D7ED117AAC
S214400B30F1EE676A97ED137AC6EE877AC3ED007AD0
S214400B4000BF5437BD46F0BD89544000314E40008A
S214400B50F11B4000D94E400090B5ADF6440D00AFB5
S214400B60B34B9847B34B9847B34BD3ED007AB34B50
S214400B7093ED007A07F61C03F0EE470AB0EE670ADC
S214400B801846AF4B984707F60C0307F61C0207F5C6
S214400B9000600121AB4CA047AB4B07F503621360E6
S214400BA0AA4B01221A70AA4B01221A70A94B0122A5
S214400BB01A70A94B01221A70A84B1B78DBB2002B87
S214400BC000F08480A64B1B78DBB2002B06D1A54BE9
S214400BD0C7F83C38A44BC7F8383805E0A34BC7F8ED
S214400BE03C38A34BC7F8383807F580634FF480721B
S214400BF01946D7F83C089F4B98470023A7F8363845
S214400C0024E0B7F83608B7F83638B7F8362807F588
S214400C10806192000A4492ED007A07F50362D2EDB5
S214400C20007A67EE277A39469A000A44C2ED007A7F
S214400C303A469B0013441A6807F5806183000B44CC
S214400C401A60B7F836380133A7F83638B7F836386A
S214400C50FF2BD6D907F5806207F5806107F500605F
S214400C604FF48073844CA0470023A7F834381DE027
S214400C70B7F83438B7F8342807F5806192000A444C
S214400C8092ED007AB7F83428394692000A44D2EDFD
S214400C90007A77EE277A07F580629B001344C3ED0F
S214400CA0007AB7F834380133A7F83438B7F8343810
S214400CB0FF2BDDD907F580634FF48072D7F83818DC
S214400CC018466E4B9847654B00221A70604B1B784F
S214400CD0DBB2002B1DD0584BD3ED007A574B93ED2B
S214400CE0007A07F61C03F0EE470AB0EE670A18468D
S214400CF0534B9847564B00221A704F4B1A68604B1E
S214400D001046984703460C461A4623465D485E49B9
S214400D1088474E4B1B78DBB2002B3DD0464BD3ED7D
S214400D20007A464B93ED007A07F61C03F0EE470A2E
S214400D30B0EE670A1846424B9847444B00221A705A
S214400D403E4B93ED007ADFED516AC7EE267AB7EE5A
S214400D50007A77EE877A4A4B17EE900A9847034612
S214400D600C4644EC103B4A4B984751EC100B494C10
S214400D704FF00002484BA04703460C461846214613
S214400D80464C29A3D3E90023A04703460C461A46FF
S214400D90234643483C4988472E4B1B78DBB2002B02
S214400DA01DD0254BD3ED007A244B93ED007A07F601
S214400DB01C03F0EE470AB0EE670A1846204B9847E9
S214400DC0244B00221A70374B1A682D4B1046984712
S214400DD003460C461A46234633482B4988471E4B43
S214400DE01B78DBB2002B1DD0134BD3ED007A134B90
S214400DF093ED007A07F61C03F0EE470AB0EE670A5A
S214400E0018460F4B9847144B00221A70274B1B78F6
S214400E10DBB2002B01D0264B00E0264B1946264875
S214400E20194B984700BFC7E61655B5BBB16B024095
S214400E3021044000BD0E40000400002008000020B1
S214400E40B106400055494000D9A58D3FF80900201D
S214400E50F7090020F9090020FB090020F4090020CA
S214400E60F50900207026002070120020700E002029
S214400E70700A0020A14640006D494000514740009E
S214400E80314E4000BCA64000D95640000000FA440F
S214400E90711D4000D94E4000000034402D514000A6
S214400EA0C8A640000C000020D8A64000FA09002042
S214400EB0E0A64000E8A64000ECA6400090B583B00F
S214400EC002AF184B9847184B9847184B4FF025429F
S214400ED01A60164B4FF400425A60154B9847154B14
S214400EE09847154B9847154B9847154B9847154BC1
S214400EF09847154B1B681B0D03F00F031946134804
S214400F00134B98474FF480730093124B124A134981
S214400F101348144CA0471448144B984700BF043756
S214400F20BD4690BD89064000710F400050140E40EB
S214400F30C9144000B5134000591840007D134000C6
S214400F40091740007501400088ED00E0F4A6400017
S214400F50ED194000700E0020701A0020700A002024
S214400F6070160020CD04400000A74000AD19400098
S214400F7080B485B000AF324B324A1A60324B334AA7
S214400F801A6000BF304B5B6903F08003002BF9D03A
S214400F902F4B9B6E03F08003002BF3D02C4B00228C
S214400FA09A622B4B2B4A9A6200BF294B9B6E03F0EA
S214400FB00203002BF9D0264A254B1B6B23F0700307
S214400FC013634FF40063FB6007E0FB68002B01D11E
S214400FD001232FE0FB68013BFB601D4B9B6E03F03B
S214400FE00803002BF1D01A4A194B1B6B23F003035E
S214400FF043F0020313634FF40063BB6007E0BB6833
S214401000002B01D1012315E0BB68013BBB60104BB0
S2144010109B6E03F00803002BF1D00B4BDB6923F4E7
S214401020F0537B60084A7B6843F0B44343F4C853AC
S214401030D361002318461437BD465DF8047B7047DD
S214401040000A0E400005000410140E40080000A5DB
S21440105000040E40013F4D0E80B400AF434B1B785A
S214401060002B3CD14FF080439B6803F08003002B5D
S21440107035D03F4B1B78DBB2002B16D14FF0804368
S2144010803C4AC3F818214FF080434FF48072C3F8AF
S2144010901C214FF08043374AC3F810214FF080435D
S2144010A04FF48072C3F8142115E04FF08043324A63
S2144010B0C3F818214FF080434FF48072C3F81C21C8
S2144010C04FF080432C4AC3F810214FF080434FF432
S2144010D08072C3F81421254B01221A7040E0234B3E
S2144010E01B78012B3CD14FF080439B6803F0800374
S2144010F0002B35D01E4B1B78DBB2002B15D11F4B77
S2144011001B681F4A9A611D4B1B684FF48072DA6158
S2144011101A4B1B681B4A1A61184B1B684FF48072A7
S2144011205A61134B01221A7014E0144B1B68164A7E
S2144011309A61124B1B684FF48072DA610F4B1B6842
S214401140124A1A610D4B1B684FF480725A61084B65
S21440115000221A70054B00221A700D4B01221A709D
S21440116000BFBD465DF8047B704700BFF60900200F
S214401170F5090020701A0020701E00201000002084
S214401180700A0020700E002070120020702600208A
S214401190F409002080B584B000AF6B4B9B69FB73AD
S2144011A0FB7B612B05D0FB7B662B02D0FB7B712B38
S2144011B006D1664AFB7B5371654B00221A70B9E034
S2144011C0FB7B2F2B16D9FB7B392B13D8604B1B7818
S2144011D0DBB2032B0ED85E4B1B78DBB219465B4A5C
S2144011E0FB7B53545A4B1B78DBB20133DAB2584B75
S2144011F01A709FE0FB7B6B2B40F08980544B1B782A
S214401200DBB2002B00F08380514B1B78DBB21A46D2
S2144012104E4B002199544D4B5B79DBB2612B28D164
S2144012204A484C4B984707EE900AF8EEE77AC7EDE7
S214401230027A494BD3ED007A97ED027A77EE677AD9
S214401240FDEEE77A17EE903A002BB8BF5B4207EE0A
S214401250903AF8EEE77AB3EE027AF4EEC77AF1EE19
S21440126010FA50DD3C4ABB6813603C4B01221A70B2
S21440127049E0364B5B79DBB2662B28D13348354B99
S214401280984707EE900AF8EEE77AC7ED017A344BB6
S214401290D3ED007A97ED017A77EE677AFDEEE77A3E
S2144012A017EE903A002BB8BF5B4207EE903AF8EE46
S2144012B0E77AB3EE027AF4EEC77AF1EE10FA22DD60
S2144012C0274A7B681360274B01221A701BE01F4B8E
S2144012D05B79DBB2712B16D11C481E4B984707EE44
S2144012E0900AF8EEE77A204BC3ED007A1E4B93ED5A
S2144012F0007ADFED1E6AC7EE267A1B4BC3ED007AF6
S2144013001B4B01221A70114B00225A7112E0FB7BD4
S214401310632B06D1174B00221A70174B01221A7006
S21440132008E0FB7B622B05D1124B01221A70124B50
S21440133001221A70044A044B1B6843F480731360FE
S21440134000BF1037BD4680BD00020240FC090020A9
S214401350020A0020D955400008000020F809002065
S21440136004000020F70900200C00002000007A440A
S214401370F9090020FA090020FB09002080B400AFDC
S2144013800A4A0A4BD3F8E43123F00103C2F8E431A9
S214401390064B074AC3F8E421044B0122C3F81C213C
S2144013A000BFBD465DF8047B704700BF00020E409C
S2144013B00054414D80B500AF204A204BD3F8E4306E
S2144013C023F00103C2F8E4301C491C4BD3F8E42058
S2144013D01B4B1343C1F8E4301A4A1A4BD3F8E43097
S2144013E023F00103C2F8E4301649164BD3F8E42044
S2144013F0134B1343C1F8E430104B4FF0FF325A60A2
S214401400104B4FF0FF325A600C4A0C4B1B6843F0AF
S214401410F0431360094A094B1B6943F0F0431361DC
S214401420064A064B5B6B43F0F04353630020064B83
S21440143098470120054B984700BF80BD000E0E40E0
S214401440004F495000100E40511440008D1440008B
S21440145080B483B000AF0346FB71FB79002B06D007
S214401460094A094B1B6B43F08053136305E0064A59
S214401470054B5B6B43F08053536300BF0C37BD4650
S2144014805DF8047B704700BF000E0E4080B483B00A
S21440149000AF0346FB71FB79002B06D0094A094B87
S2144014A01B6B43F00063136305E0064A054B5B6B1A
S2144014B043F00063536300BF0C37BD465DF8047BC2
S2144014C0704700BF000E0E4080B400AF2B4A2B4B37
S2144014D0D3F8E43023F00103C2F8E4302749274B21
S2144014E0D3F8E420264B1343C1F8E430234B254A77
S2144014F01A61224B4FF400725A60204B04225A6401
S21440150000BF1E4B9B6E03F40073002BF9D01B4AA2
S2144015101A4B1B6843F400731360184A174B5B68FA
S21440152043F480535360154B44221A6500BF134B57
S2144015309B6E03F48053002BF9D0104A0F4B1B6868
S21440154043F4805313600D4B4FF480425A600B4B6C
S21440155040F654129A6500BF084B9B6E03F48043D6
S214401560002BF9D0054A054B1B6843F480431360B3
S21440157000BFBD465DF8047B704700BF00040E40C8
S21440158000434D50001B010080B485B000AF78602A
S214401590104BFB60104B1B68002B02D10E4B0F4AC2
S2144015A01A600D4B1B68BB60BA687B681A44FB68C0
S2144015B09A4202DD4FF0FF3306E0074B1A687B681D
S2144015C01344054A1360BB6818461437BD465DF899
S2144015D0047B7047FC7F0220040A0020A85C0020A1
S2144015E080B483B000AF78604FF0FF3318460C37B6
S2144015F0BD465DF8047B704780B483B000AF78602A
S21440160039603B684FF400525A60002318460C3746
S214401610BD465DF8047B704780B483B000AF786009
S214401620012318460C37BD465DF8047B704780B4EE
S21440163085B000AFF860B9607A600023184614376A
S214401640BD465DF8047B704780B586B000AFF86055
S214401650B9607A6000237B61FB68012B1ED0FB6873
S214401660022B1BD0FB68032B18D04FF0FF3319E03A
S2144016700E4B1A680E4B1868BB68591CB9601B782D
S214401680194690470346002B02DA4FF0FF3309E035
S2144016907B6901337B617B68013B7B607B68002B09
S2144016A0E6D17B6918461837BD4680BD742A0020AF
S2144016B0782A002080B586B000AFF860B9607A60BE
S2144016C000237B61FB68002B12D04FF0FF3313E002
S2144016D00B4B1B680B4A1268B96810469847BB68A4
S2144016E00133BB607B6901337B617B68013B7B6078
S2144016F07B68002BECDC7B6918461837BD4680BDFE
S214401700702A0020782A002080B500AF114B9847F9
S214401710114B03221A60114A104BD3F8E43023F0E1
S2144017200103C2F8E4300D4B0D4AC3F8E4200B4BDE
S2144017300C4A1A61094B0C4A1A60084B02225A643A
S214401740064B4FF498125A600848094B984700BF1A
S21440175080BD00BF7517400000C0004000C6004076
S21440176000495754010113002400000130A74000EF
S214401770AD19400080B400AF124A124BD3F89030F7
S21440178043F4C063C2F890300E4A0E4B5B6E43F48F
S214401790C06353660B4A0B4B5B6843F4C0635360AD
S2144017A0084A084B1B6F23F4C0631367054A054B72
S2144017B05B6F23F4C063536700BFBD465DF8047B90
S2144017C0704700BF000E0E4080B483B000AF0346A3
S2144017D0FB7197F90730002B0BDB094997F9073067
S2144017E05B09FA7902F01F02012000FA02F241F882
S2144017F0232000BF0C37BD465DF8047B704700BF12
S21440180000E100E080B483B000AF03463960FB716E
S21440181097F90730002B0ADB0D4997F907303A68ED
S214401820D2B21201D2B20B4483F800230AE009492F
S214401830FB7903F00F03043B3A68D2B21201D2B2EE
S2144018400B441A7600BF0C37BD465DF8047B7047E4
S21440185000E100E000ED00E080B500AF1E4B984789
S2144018601E4B01221A60012109201D4B9847092072
S2144018701C4B98471C4B01229A601B4A1A4BD3F8C4
S214401880E43023F00103C2F8E430174B174AC3F89C
S214401890E420154B82221A62134B154A5A60124BAB
S2144018A050221A60134B104A1A60134B134A1A60A0
S2144018B0134B1B689B6800211846124B9847104BE9
S2144018C01B685B68002118460E4B98470E480F4B26
S2144018D0984700BF80BD00BF11194000000002407D
S2144018E005184000C9174000000202400041535509
S2144018F0C0080800782A0020742A002049194000B1
S21440190028000020AD57400044A740009D574000A7
S21440191080B400AF0B4A0B4B5B6843F00C0353603C
S214401920084A084B1B6F23F00C031367054A054B08
S2144019305B6F23F00C03536700BFBD465DF8047B26
S214401940704700BF00100E4080B483B000AF786090
S2144019500B46FB70084AFB78D36100BF064B5B69B9
S21440196003F00203022BF9D1002318460C37BD467C
S2144019705DF8047B704700BF0002024080B483B02D
S21440198000AF0346FB71084AFB79D36100BF064BA4
S2144019905B6903F00203022BF9D100BF0C37BD464A
S2144019A05DF8047B704700BF0002024090B585B0EA
S2144019B000AF78600023FB7309E0FB7B7A68134432
S2144019C01B781846074B9847FB7B0133FB73FC7B21
S2144019D07868054B984703469C42EED300BF1437C1
S2144019E0BD4690BD7D194000815940000FB480B57A
S2144019F086B000AF07F124037B603B6A7B61B4E0AE
S214401A007B691B781846604B98477B6901337B613E
S214401A107B691B78252B03D07B691B78002BEFD185
S214401A207B691B78002B00F0A6807B6901337B61C5
S214401A307B691B78583B202B00F2948001A252F819
S214401A4023F000BF451B4000651B4000651B40005F
S214401A50651B4000651B4000651B4000651B400041
S214401A60651B4000651B4000651B4000651B400031
S214401A70C91A4000DF1A4000651B4000651B400045
S214401A80651B4000651B4000651B4000651B400011
S214401A90651B4000651B4000651B4000651B400001
S214401AA0FB1A4000651B4000651B4000651B40005C
S214401AB0171B4000651B4000651B4000651B40002F
S214401AC0651B4000291B40007B681A1D7A601B6816
S214401AD03B613B69DBB218462B4B984742E07B683C
S214401AE01A1D7A601B683B610A213869274B984764
S214401AF003461846264B984734E07B681A1D7A60A2
S214401B001B683B6108213869204B984703461846B6
S214401B101F4B984726E07B681A1D7A601B68FB605F
S214401B20F8681B4B98471DE07B681A1D7A601B6857
S214401B303B6110213869154B984703461846144BAD
S214401B4098470FE07B681A1D7A601B683B6110213E
S214401B5038690E4B9847B860BB68413318460C4B03
S214401B60984700BF7B6901337B617B691B78002BFC
S214401B707FF44EAF00E000BF00BF1837BD46BDE85B
S214401B80804004B0704700BF7D194000951B400060
S214401B90AD19400080B485B000AF78603960114B15
S214401BA0FB60FB6800221A70FB68013BFB603A68EA
S214401BB07B68B3FBF2F102FB01F29B1A0A4AD25C45
S214401BC0FB681A703B687A68B2FBF3F37B607B680D
S214401BD0002BE9D1FB6818461437BD465DF8047BF8
S214401BE0704700BF390A00201400002000000000A3
S214401BF000B551EC100B2C4A21F00043934285B0BF
S214401C0020DD2A4A934209DD10EE102A0B4602F0E8
S214401C10AFFF41EC100B05B05DF804FB684601F0E1
S214401C202FFA00F00300012828D0022815D060B310
S214401C3001209DED021B9DED000B02F091FA51EC48
S214401C40100BE6E79FED161B01F00EFD51EC100B56
S214401C5041EC100B05B05DF804FB9DED021B9DEDBD
S214401C60000B01F001FD53EC102B10EE100A03F1AF
S214401C70004141EC100B05B05DF804FB9DED021BE6
S214401C809DED000B02F06CFAEDE79DED021B9DED1D
S214401C90000B01F0E9FC51EC100BBAE7AFF3008003
S214401CA00000000000000000FB21E93FFFFFEF7F3F
S214401CB000B551EC100B2C4A21F00043934285B0FE
S214401CC027DD2A4A934209DD10EE102A0B4602F021
S214401CD04FFF41EC100B05B05DF804FB684601F081
S214401CE0CFF900F00300012827D002281DD068B3A2
S214401CF09DED021B9DED000B01F0B6FC53EC102B46
S214401D0010EE100A03F1004141EC100B05B05DF8EF
S214401D1004FB00209FED121B02F022FA51EC100B40
S214401D2041EC100B05B05DF804FB01209DED021B55
S214401D309DED000B02F014FAE0E79DED021B9DEDD1
S214401D40000B01F091FC51EC100BC2E701209DED19
S214401D50021B9DED000B02F003FA51EC100BB8E7A6
S214401D600000000000000000FB21E93FFFFFEF7F7E
S214401D702DE9F0432DED028B8BB055EC104B00F067
S214401D800BFA384BB0EE408AF0EE608A93F900606A
S214401D90731C0DD022462B462046294603F036FBC0
S214401DA030B9002200232046294603F025FB40B1E7
S214401DB0B0EE480AF0EE680A0BB0BDEC028BBDE808
S214401DC0F083294B0890CDE90245CDE904450193BF
S214401DD0B6B9264F4FF060462046294600220023DB
S214401DE0CDE9066703F0E0FA98B30223009368460D
S214401DF002F022FBA8B1089BC3B99DED068BD7E73E
S214401E00DFF870904FF00008204629460022002355
S214401E10CDE9068903F0C8FA68B102239E420093D2
S214401E20E5D103F0DDFB22230360E4E703F0D8FBB3
S214401E30089B0360E1E70123022E00930BD103F0D9
S214401E40CFFB212303600A4802F0FAFA8DED060B19
S214401E50D1E701230093684602F0EEFA0028F2D15B
S214401E60EDE700BF2500002064A74000FFFFEFC756
S214401E7080A940000000F0FF2DE9F04F2DED028BC9
S214401E80DFF80CA38BB057EC106B55EC114B00F001
S214401E9087FB9AF90080B0EE408AF0EE608AB8F18F
S214401EA0FF3F34D022462B462046294603F0AEFA62
S214401EB0834660BB32463B463046394603F0A6FA78
S214401EC08146002840F09F80304639460022002355
S214401ED003F06AFA20B3002200232046294603F086
S214401EE063FA8346002867D09FED9F7B0122A44B70
S214401EF0CDF820900092CDE90267CDE904458DEDFE
S214401F00067B0193B8F1000F49D09FED998BB0EE58
S214401F10480AF0EE680A0BB0BDEC028BBDE8F08FC5
S214401F20B0EE480AF0EE680A02F0ECF98046002867
S214401F3000F084804FF000084FF0000951EC180B79
S214401F4042464B4603F030FA0028E0D047EC106B90
S214401F5002F0D8F90028DAD045EC104B02F0D2F95E
S214401F600028D4D09AF90030854A019204210022F4
S214401F70022BCDE90267CDE90445CDE906890091FB
S214401F80089203D0684602F057FA60B903F028FB7F
S214401F902223036007E09FED747B8DED067B684649
S214401FA002F04AFA50B3089B1BB103F019FB089B9A
S214401FB003609DED068BAAE745EC104B02F0A2F9B4
S214401FC00028A4D0002200232046294603F0F6F934
S214401FD000289CD06A4A9AF90030CDF820B00121FA
S214401FE0CDE90267CDE904458DE80600002BD2D046
S214401FF064490020022BCDE90601D0D103F0F0FA67
S21440200021230360CFE7002200232046294603F021
S214402010CBF900283FF47BAF9FED558B584BCDF85E
S21440202020B00122B8F1020FCDE90267CDE90445A0
S2144020308DED068B8DE80C00B1D168E747EC106B50
S21440204002F060F900283FF475AF45EC104B02F003
S21440205059F900283FF46EAF53EC182B18EE100ACF
S214402060194603F0D3F9002861D103239AF900807A
S2144020700093434B0890CDE90267CDE904450193B0
S214402080B8F1000F2DD1DFF80C914FF060480022D8
S214402090002330463946CDE9068903F08FF90028FB
S2144020A03FF470AF0022384B2046294602F014FF1A
S2144020B004460D4645EC104B02F0CAF9204653EC58
S2144020C0102B294603F070F970BB304B9AF900800C
S2144020D04FF06042CDE90623B8F1020F7FF452AFCD
S2144020E054E79FED257B00220023304639468DED90
S2144020F0067B03F063F90028EED00022224B2046F0
S214402100294602F0E9FE04460D4645EC104B02F027
S2144021109FF9204653EC102B294603F045F918B991
S214402120184B0022CDE906239AF90080D4E7144BD9
S2144021309AF90090CDF820800122CDE90267CDE9DA
S21440214004458DE80C00B9F1000F3FF424AF00229F
S21440215000231046194602F0E9FFB9F1020FCDE917
S21440216006013FF44BAF1AE70000000000000000F5
S214402170000000000000F03F000000000000F07F7C
S21440218068A740000000F0FF0000E03FFFFFEFC7F9
S21440219025000020FFFFEF472DE9F04F51EC100BD4
S2144021A0B1F5801F85B00B4659DA10EE102A21F0A3
S2144021B00044224300F0F8800029C0F280810022CB
S2144021C0DD4B02F089FEDD4A0B4693426FF0350741
S2144021D04ADCC3F3130505F5152606F6647606F4C1
S2144021E0801686F07F5282F4401242EA05011C15A2
S2144021F00022D34B02F0BCFCAB1CA4F2FF34C3F36A
S21440220013033C44022B04EB165482468B464FF095
S214402210000232DC002303F0C7F8002800F0CF802D
S214402220002C00F05881204602F0F0FDACA3D3E924
S214402230002306460F4602F04FFEABA3D3E9002329
S21440224004460D463046394602F046FE02460B46E8
S2144022502046294602F08EFC41EC100B0AE0B74AB5
S21440226093424FF00007B4DD02460B4602F082FC74
S21440227041EC100B05B0BDE8F08F4FF0804302F004
S21440228079FC02460B465046594602F04FFF06463A
S21440229020460F4602F0BAFD3246CDE900013B46E5
S2144022A030463946CDE9026702F016FE02460B4636
S2144022B08046894602F010FE8DA3D3E900230646E9
S2144022C00F4602F009FE8CA3D3E9002302F052FC2D
S2144022D032463B4602F000FE89A3D3E9002302F0D3
S2144022E049FC32463B4602F0F7FD87A3D3E900237C
S2144022F002F040FC42464B4602F0EEFD84A3D3E992
S2144023000023804689463046394602F0E5FD82A3E2
S214402310D3E9002302F02EFC32463B4602F0DCFDB9
S2144023207FA3D3E9002302F025FC32463B4602F069
S214402330D3FD0B4602464946404602F01BFCA5F537
S214402340C223C5F5D725A3F27A4351351D43002D48
S214402350804689465CDD00227A4B5046594602F05C
S214402360BBFD52465B4602F0B7FD06460F46002CC4
S2144023706ED132463B464046494602F0FBFBDDE91D
S214402380022302F0A9FD02460B463046394602F0CB
S214402390EFFB02460B465046594602F0E9FB41EC3D
S2144023A0100B05B0BDE8F08F0022002300206649E0
S2144023B002F0BCFE41EC100B05B0BDE8F08F5AA30E
S2144023C0D3E900235046594602F086FD02460B46A6
S2144023D000205C4902F0CCFB524606460F465B4660
S2144023E05046594602F078FD02460B46304639467E
S2144023F002F072FD06460F46002C40F0A7800246CB
S2144024000B465046594602F0B3FB41EC100B31E701
S214402410002C00F0AF8032A3D3E90023DDE90001B1
S21440242002F05AFD42464B4604460D465046594633
S21440243002F09EFBDDE9022302F04EFD2AA3D3E91B
S214402440002306460F46DDE9000102F045FD21E087
S21440245023A3D3E90023DDE9000102F03DFD324627
S2144024603B4604460D464046494602F083FBDDE9BE
S214402470022302F031FD1CA3D3E90023804689469F
S214402480DDE9000102F028FD02460B46404649467B
S21440249002F070FB02460B463046394602F068FBB7
S2144024A052465B4602F064FB02460B4620462946EF
S2144024B002F05EFB41EC100B05B0BDE8F08F10EE6D
S2144024C0102A0B4602F054FB0022002302F02EFE98
S2144024D041EC100BCEE69FED160BCBE6AFF300803B
S2144024E00000E0FE422EE63F763C7935EF39EA3D85
S2144024F044523EDF12F1C23FDE03CB966446C73FEE
S214402500599322942449D23F935555555555E53F06
S2144025109FC678D0099AC33FAF788E1DC571CC3F11
S21440252004FA97999999D93F555555555555D53FDC
S214402530000000000000000000005043FFFFEF7F57
S2144025400000F03F0000E03F000050C3204602F08D
S2144025505DFC0FA3D3E900238046894602F0BCFC0D
S2144025600DA3D3E9002304460D464046494602F0F3
S214402570B3FC8FE702460B465046594602F0F8FA3F
S214402580DDE9022302F0A8FC03E700BFAFF30080BA
S2144025900000E0FE422EE63F763C7935EF39EA3DD4
S2144025A02DE9F04F51EC110B21F0004858EA000499
S2144025B093B03ED053EC102B714E23F00044B442FF
S2144025C010EE10AA1D462DDC894611EE10EA28D0E2
S2144025D0B04527DC6A4EB04500F08380002D164695
S2144025E01F46CDE90001C0F281804FF0000BBEF1DE
S2144025F0000F2FD1624B984500F09580614B98456F
S21440260068D0B9F1804F00F0D1835F4B994521D116
S214402610002D1FDB47EC106B13B0BDE8F04F00F009
S21440262055BF6AB104F1404404F5801454EA0A03E5
S21440263008D15449002041EC100B13B0BDE8F08F90
S214402640A045C7DD514813B0BDE8F04F01F0F8BED5
S2144026504FF0000B47EC106B01F04CFE51EC100BAA
S214402660BAF1000F1AD124B1464B25F040429A42A7
S21440267014D1B9F1000FC0F2D383002DDBDA04F198
S214402680404404F5801454EA0B0300F0AF84BBF1D9
S214402690010FD0D101F100431946CCE7ED0F05F10B
S2144026A0FF3A5BEA0A0353D0394B984576DD03F18F
S2144026B00473984540F30684364B9C4253DDB9F18B
S2144026C0000F53DD2CA3D3E900231046194602F031
S2144026D003FCB0E7B9F1000FC0F25A8430463946E1
S2144026E0A9E7BEF1000F3FF479AF9BE72A4B984528
S2144026F02BDCA3F1547398457FF777AF4FEA285306
S214402700A3F2FF33142B40F35984C3F134032EFA5B
S21440271003F202FA03F39E457FF467AF02F001022C
S214402720C2F1020B63E704F1404303F5801353EA1A
S2144027300A033FF47EAF174B9C4240F33E83B9F109
S214402740000F13DBDDE9000175E74FF0020B4EE7A3
S21440275032463B461046194602F00AFA02460B46F7
S21440276002F0E4FC67E7B9F1000FABDB0020002184
S21440277061E700BFAFF300809C7500883CE4377E7D
S2144027800000F07F0000F03F0000E03F80A94000DE
S2144027900000E041FFFFEF3FFFFF3F43B4F5801FDF
S2144027A04FF0000205DAD64B02F096FB6FF034028B
S2144027B00C462315D34EC4F31304A3F2FF3313443D
S2144027C044F07F55B4421A460D9345F4401540F305
S2144027D02E83CD4B9C4240F30D849FEDB37B8DED15
S2144027E0087B8DED0E7B9FEDB27B13468DED067B11
S2144027F001330D93A5F580154FF00008DDE906235B
S2144028002946CDE90A0102F0B3F9DDE9062306467A
S2144028100F46DDE90A0102F0ADF902460B460020FC
S214402820BA4902F083FC03460C46CDE91034024612
S2144028300B463046394602F04FFB6B1043F00053D0
S21440284003F5002303EB08050A4600230146CDE9BD
S21440285002120293DDE902890024CDE904122B46D8
S21440286022464046494602F037FB02460B46304673
S214402870394602F07DF9DDE9062306460F46204636
S214402880294602F075F902460B46DDE90A0102F0D8
S2144028906FF942464B4602F01FFB02460B46304657
S2144028A0394602F065F9DDE9102302F015FBDDE953
S2144028B00445CDE9060122462B462046294602F02D
S2144028C00BFB7DA3D3E9002304460D4602F004FB30
S2144028D07BA3D3E9002302F04DF922462B4602F0B3
S2144028E0FBFA79A3D3E9002302F044F922462B46AB
S2144028F002F0F2FA76A3D3E9002302F03BF922462F
S2144029002B4602F0E9FA74A3D3E9002302F032F929
S21440291022462B4602F0E0FA71A3D3E9002302F0E8
S21440292029F9224606460F462B462046294602F0FF
S214402930D3FA02460B463046394602F0CDFA4246B6
S21440294004460D464B46DDE9040102F013F9DDE985
S214402950062302F0C1FA22462B4602F00BF9424605
S21440296006460F464B464046494602F0B5FA002218
S214402970674BCDE90A0102F0FDF832463B4602F0CD
S214402980F9F802980D46044622462B4640464946EC
S21440299002F0A2FA0022804689465D4B2046294630
S2144029A002F0E6F8DDE90A2302F0E2F802460B46BA
S2144029B03046394602F0DCF8DDE9042302F08CFAB2
S2144029C0224606460F462B46DDE9060102F084FA0B
S2144029D002460B463046394602F0CCF806460F46CD
S2144029E002460B4640464946CDE9048902F0C2F805
S2144029F002983DA3D3E9002304460D4602F06CFA44
S214402A00DDE90423804689462046294602F0B0F890
S214402A1002460B463046394602F0AAF834A3D3E9BC
S214402A20002302F059FA34A3D3E9002306460F46A2
S214402A302046294602F050FA02460B4630463946B2
S214402A4002F098F8DDE90E2302F094F806460D9859
S214402A500F4602F0DBF9324604460D463B464046FA
S214402A60494602F087F8DDE9082302F083F822465B
S214402A702B4602F07FF8029822462B46CDE902010B
S214402A8002F076F8DDE9082302F072F842464B463B
S214402A9002F06EF802460B463046394602F068F8B9
S214402AA08046894636E000BF000000000000000077
S214402AB0000000000000F03FEF4E454A287ECA3F27
S214402AC065DBC9934A86CD3F01411DA96074D13F5D
S214402AD04D268F515555D53FFFAB6FDBB66DDB3F6F
S214402AE0033333333333E33F000000E009C7EE3FA0
S214402AF0FD033ADC09C7EE3FF5015B14E02F3EBE0E
S214402B00000040438E98030079B60B000000F03F6B
S214402B10000008400BF1FF3353EA0A0300F07B81C4
S214402B209FEDC97B8DED067BDDE900AB53465C46E9
S214402B30CDE9003400230093DDE9004550462246A7
S214402B402B46594602F014F8DDE9022302F0C4F998
S214402B50524606460F465B464046494602F0BCF99A
S214402B6002460B463046394602F004F82246804676
S214402B7089462B46DDE90201CDE9048902F0ACF92D
S214402B800B46024606460F464046494601F0F2FFCF
S214402B90C74B994204460D468A4640F3188101F1D8
S214402BA03F4303F5E003034340F0FA81A8A3D3E98B
S214402BB00023DDE9040101F0DDFF32468046894608
S214402BC03B462046294601F0D3FF02460B46404688
S214402BD0494602F011FC002840F0E281A8464FEA40
S214402BE028534FF48012A3F2FE3342FA03F35344C1
S214402BF0C3F30A52AF4DA2F2FF321541C3F313049A
S214402C0023EA05010020C2F1140B44F48014BAF103
S214402C10000F02460B4644FA0BFB30463946B8BF17
S214402C20CBF1000B01F0A4FF02460B4606460F46CA
S214402C30DDE9040101F09EFF4FEA0B5A0D460024E1
S214402C4085A3D3E900232046294602F045F93246BB
S214402C50804689463B462046294601F089FF024683
S214402C600B46DDE9040101F083FF7DA3D3E9002391
S214402C7002F032F97CA3D3E9002306460F462046ED
S214402C80294602F029F902460B463046394601F0FD
S214402C9071FF06460F4602460B464046494601F03F
S214402CA069FF42464B4604460D4601F061FF024628
S214402CB00B463046394601F05BFF22468046894641
S214402CC02B462046294602F007F969A3D3E900239C
S214402CD006460F4602F000F967A3D3E9002301F049
S214402CE047FF32463B4602F0F7F865A3D3E9002398
S214402CF001F040FF32463B4602F0EEF862A3D3E9CD
S214402D00002301F035FF32463B4602F0E5F860A36B
S214402D10D3E9002301F02EFF32463B4602F0DCF8B2
S214402D2002460B462046294601F022FF06460F463D
S214402D3002460B462046294602F0CEF80022CDE950
S214402D4000014FF080433046394601F011FF0246FD
S214402D500B46DDE9000102F0E9F9424606460F4619
S214402D604B462046294602F0B7F842464B4601F00D
S214402D7001FF02460B463046394601F0F9FE224630
S214402D802B4601F0F5FE02460B4600204A4901F06C
S214402D90EFFE8A44BAF5801F02460B46C0F23A81DF
S214402DA05146DDE9062302F097F844E432463B46B6
S214402DB03046394602F090F83DE4B9F1000FBFF6D0
S214402DC0D5ACDDE90034184604F1004133E43B4B12
S214402DD021F00048984540F30081394B0B440343AB
S214402DE00CD132463B4601F0C3FE02460B46DDE9B7
S214402DF0040102F0EDFA00283FF4F1AEDDE90601E9
S214402E0025A3D3E9002302F067F823A3D3E90023E0
S214402E1002F062F80FE49FED227B8DED067B83E6A1
S214402E2002460B460020244902F080F925E49FED37
S214402E301E7B8DED087B8DED0E7B9FED037B4FF06B
S214402E4000088DED067BD9E4000000000000F03F4E
S214402E50FE822B654715973C00000000432EE63F58
S214402E60EF39FAFE422EE63F396CA80C615C20BE74
S214402E70D0A4BE726937663EF16BD2C541BDBB3E3B
S214402E802CDE25AF6A56113F93BDBE166CC1663F19
S214402E903E5555555555C53F59F3F8C21F6EA501C9
S214402EA0000000000000F0BF00000000000000002E
S214402EB0FFFF8F40FFFF0F000000F03FFFCB90402A
S214402EC000346F3F6A4B9C427FF74DAC694B9C4247
S214402ED03FF7F5AB0022674B01F04AFE54A3D3E917
S214402EE0002304460D4601F0F7FF53A3D3E9002321
S214402EF0804689462046294601F0EEFF0022CDE96D
S214402F0002015D4B2046294601F0E6FF02460B468D
S214402F104BA1D1E9000101F02BFE22462B4601F0E1
S214402F20DBFF02460B460020544901F021FE2246B4
S214402F302B4606460F462046294601F0CDFF024660
S214402F400B463046394601F0C7FF3FA3D3E900237E
S214402F5001F0C2FF02460B46DDE9020101F008FE21
S214402F6002460B4604460D464046494601F002FEE0
S214402F7042464B460020CDE9020101F0F9FD0246EB
S214402F800B462046294601F0F3FD80468946C1E5BA
S214402F9032463B460020374902F0C8F8FFF74BBBA5
S214402FA0DDE906012AA3D3E9002301F095FF28A313
S214402FB0D3E9002301F090FFFFF73DBBBEF1000FC1
S214402FC07FF446ABC3F1140348FA03F202FA03F364
S214402FD0984527D0F346FFF711BB284B98453FF757
S214402FE0FEADDDE900239246934628E602460B46B0
S214402FF0FFF7B0BB9FED187B8DED087B9FED187BF0
S2144030008DED0E7B9FED187B4FF480288DED067B73
S214403010FFF7F4BB584643EC102B01F0ADFA51ECE9
S214403020100BBEE602F00102C2F1020BFFF7E6BA51
S214403030000000604715F73F44DF5DF80BAE543E96
S214403040555555555555D53FFE822B654715F73F87
S2144030509C7500883CE4377E0000004003B8E23FA1
S21440306006D0CF43EBFD4C3E000000000000F83F8A
S214403070FEFFEF3F0000F03F0000D03F0000E03F83
S2144030802DE9F04753EC102B9D4923F000478F4223
S21440309090B040F391809B498F421C46824629DC83
S2144030A0002C194610EE100A8BA3D3E9002340F3F8
S2144030B0B18101F05DFD944B9F4204460D4600F001
S2144030C0918087A3D3E9002301F052FD02460B46C8
S2144030D0CAE900232046294601F04AFD80A3D3E9E9
S2144030E0002301F045FD0125CAE90201284610B03B
S2144030F0BDE8F08785498F4240F3918084498F42EE
S21440310065DC3D15A5F21645A7EB0551104616465B
S2144031100F4602F091F901F079FE80468946424614
S2144031204B4630463946CDE90A8901F021FD00225A
S214403130784B01F0D1FE8946804602F07DF901F0D9
S21440314065FE06460F4632463B4640464946CDE972
S2144031500C6701F00DFD00226E4B01F0BDFE002213
S2144031600023CDE90E0102F01FF9002800F070811F
S214403170002330463946002202F016F9002814BFD4
S21440318001230223644A019202212A4600910AA89A
S214403190514600F0ADFB002C054614DADAF8042060
S2144031A0DAF80C3002F1004203F100434542CAF817
S2144031B00420CAF80C3006E080ED000B0025002401
S2144031C0C0E902450025284610B0BDE8F08710EE5D
S2144031D0100A194601F0CCFC0025CAE90201CAE9EA
S2144031E00001F0E740A3D3E9002301F0C1FC40A36F
S2144031F0D3E900230D46044601F0BAFC02460B46CE
S214403200CAE900232946204601F0B2FC38A3D3E998
S214403210002301F0ADFC0125CAE90201D3E701F025
S21440322069F859EC108B10EE100A33A3D3E900234B
S214403230494601F051FE0022384B01F09BFC02F05B
S214403240FBF8054601F0E2FD23A3D3E90023CDE9D0
S214403250060101F041FE02460B464046494601F053
S21440326087FC1FA3D3E90023CDE90201DDE906016F
S21440327001F032FE1F2D80468946CDE9048951DC97
S214403280274B6A1E53F822309F424BD002460B46CD
S214403290DDE9020101F06CFC80468946CAE90089F6
S2144032A042464B46DDE9020101F062FCDDE90423BB
S2144032B001F05EFC002CCAE9020184DA09F1004400
S2144032C001F100436D42CAF80080CAF80440CAF8CB
S2144032D00800CAF80C3076E700004054FB21F93F5E
S2144032E03163621A61B4D03D0000601A61B4D03DCB
S2144032F07370032E8A19A33B83C8C96D305FE43FC1
S214403300FB21E93F7BD90240FB21F93FFB213941B4
S214403310FFFFEF7F00007041ECA740000000E03F59
S2144033206CA74000DDE90423DDE9020101F020FC42
S2144033303F15C1F30A53FB1A80468946102BCAE94B
S2144033400089ADDD58A3D3E90023DDE9060101F08D
S214403350C3FD8046894602460B46DDE9020101F080
S21440336007FC02460B46DDE90201CDE9082301F0E1
S214403370FFFB42464B4601F0FBFB4DA3D3E900233F
S21440338080468946DDE9060101F0A6FD42464B46E9
S21440339001F0EEFB0B46CDE904010246DDE90801EB
S2144033A001F0E6FBC1F30A53FF1A80468946312FE7
S2144033B0CAE900896CDD41A3D3E90023DDE90601B3
S2144033C001F08AFDDDE9088906460F4602460B46AF
S2144033D04046494601F0CCFB02460B46404649462D
S2144033E0CDE9022301F0C4FB32463B4601F0C0FB68
S2144033F034A3D3E9002306460F46DDE9060101F073
S2144034006BFD32463B4601F0B3FB02460B46CDE928
S21440341004233DE701F0AEFB274B9F4204460D4692
S21440342018D01FA3D3E9002301F0A4FB02460B46A5
S214403430CAE900232946204601F09AFB18A3D3E99F
S214403440002301F097FB4FF0FF35CAE90201BAE6C8
S214403450032397E614A3D3E9002301F08BFB14A3C0
S214403460D3E900230D46044601F084FB02460B4692
S214403470CAE900232946204601F07AFB0CA3D3E98B
S214403480002301F077FB4FF0FF35CAE902019AE6C8
S2144034909DED087B8DED027B02E700BFAFF3008019
S2144034A03163621A61B4D03D0000601A61B4D03D09
S2144034B07370032E8A19A33BFB21F93F0000002EB0
S2144034C08A19A33BC14920259A837B392DE9F041CF
S2144034D0634855EC104BA84300F09580002D2B46D2
S2144034E010EE102A70DD2F157DD0A7F2FF37C3F3FC
S2144034F01303F90743F4801361D403EBD27100261B
S2144035000B447F105200B64616204FF400110EEBC7
S21440351001049C424FEAD2754FEA420203DC1B1B71
S21440352004EB010E0E44013805EB43034FEA51010C
S214403530EDD1844620244FF0004109E020D003EB33
S214403540D275013C4FEA51012B444FEA420220D04B
S214403550734501EB0C05F1DD002D05EB010C09DB95
S214403560F0469542A3EB0E0300D9013B521B08449C
S214403570C646E4E7BCF1000FF2DB0EF10108F0E7C7
S2144035809542DCD8002D05EB010C4EDB9846002317
S214403590ECE7134302D0421C4BD001304008711078
S2144035A0F30701F17F5101F5001148BF40F000409C
S2144035B001EB0753024643EC102BBDE8F0815B005D
S2144035C003EBD273520098E710EE101A25F0004035
S2144035D0014328D0ADBB2F46D30A153F5205002BDA
S2144035E0FAD0DE0228D4002400E004465B00DD0268
S2144035F004F10100F9D5C0F1200122FA01F10B4394
S2144036003F1B824071E710EE102A2B4610EE100A40
S214403610294601F061FC22462B4601F0ABFA41EC0C
S214403620100BBDE8F081BDE8F081BCF1000FA4DAD4
S214403630ACE701362046B2E7002020214FF0FF34A9
S214403640DBE710EE102A2B462046294601F090FA7A
S21440365002460B4601F06AFD41EC100BBDE8F081D6
S2144036600000F07F000000002DE9F04F57EC106B93
S2144036702DED028BB0EE418AF0EE618A27F00049CC
S214403680B9F1795F83B072DA10EE100A394601F06C
S214403690D3FE002800F0F68032463B463046394698
S2144036A001F01AFC7CA3D3E9002304460D4601F042
S2144036B013FC7BA3D3E9002301F05CFA22462B4699
S2144036C001F00AFC78A3D3E9002301F051FA224620
S2144036D02B4601F001FC76A3D3E9002301F04AFA19
S2144036E022462B4601F0F8FB73A3D3E9002301F0F2
S2144036F03FFA22462B4601F0EFFB71A3D3E90023A5
S21440370001F038FA22462B4601F0E6FB82468B460D
S2144037100022714B2046294601F0DEFB5246804689
S21440372089465B462046294601F0D6FB53EC182BCB
S21440373004460D463046394601F0CEFB02460B465F
S2144037402046294601F014FA02460B4640464946B2
S21440375001F00EFA02460B460020604901F008FAD6
S21440376041EC100B03B0BDEC028BBDE8F08F10EEC1
S214403770102A10EE100A3B46394601F0ADFB46A330
S214403780D3E9002304460D4601F0A6FB44A3D3E943
S214403790002301F0EFF922462B4601F09DFB42A3A1
S2144037A0D3E9002301F0E4F922462B4601F094FBCE
S2144037B03FA3D3E9002301F0DDF922462B4601F072
S2144037C08BFB3DA3D3E9002301F0D2F922462B46DA
S2144037D001F082FB3AA3D3E9002301F0CBF92B4654
S2144037E0224601F079FB3E4B994582468B468FDD5B
S2144037F03C4B99453DDC0022A9F500130020374993
S2144038009046994601F0B4F9CDE900010022324BCA
S2144038102046294601F060FB42464B4601F0A8F997
S2144038205246804689465B462046294601F054FB70
S21440383053EC182B04460D463046394601F04CFBF7
S21440384002460B462046294601F092F902460B46B0
S2144038504046494601F08CF902460B46DDE9000138
S21440386001F086F941EC100B03B0BDEC028BBDE8CD
S214403870F08F9FED157B4FF000088DED007BDFF855
S2144038806890C3E79FED120B03B0BDEC028BBDE81A
S214403890F08F00BFAFF30080D43888BEE9FAA8BDE9
S2144038A0C4B1B4BD9EEE213EAD529C804F7E923E4A
S2144038B09015CB19A001FA3E7751C1166CC1563F00
S2144038C04C5555555555A53F000000000000E73FB4
S2144038D0000000000000F03F0000E03F0000F03F26
S2144038E03233D33F0000E93F0000D23F00000000E3
S2144038F02DE9F04FADF51B7DA34CA49EA34D54F887
S214403900264007942646D41E85FB0475E417C4EB70
S214403910A50424EAE4741D460A93631CA3EB8303C0
S214403920013D02EBC30306932B460B940395651BA0
S214403930F418049008911AD42C4400260027013429
S2144039400DF18808DDF8949208E059F8250001F05A
S2144039505DFA0135A542E8E8020108D0002DF4DA08
S214403960013530463946A542E8E80201F6D1079BC4
S214403970002BC0F2EB83079B03F1010B0A9B22A9A5
S214403980DB001A4601EB03090093049B0DF5E47A2D
S21440399019460AEBCB0B01EB0208039B002BC0F247
S2144039A00183049C4D460026002775E90223F4E86F
S2144039B0020101F091FA02460B463046394601F0C4
S2144039C0D9F8444506460F46EFD1EAE80267DA459D
S2144039D009F10809E1D107990098049C009101F18A
S2144039E08043013B9B0020441A1F83460EA8024496
S2144039F003440C920D93009A9AA901EBC203002A45
S214403A0053E9284529DD0DF5E47A0AEBC2080DF1A5
S214403A10340900225E4B2046294601F05DFA01F04B
S214403A200BFD01F0F3F900225A4B06460F4601F013
S214403A3053FA02460B462046294601F099F801F013
S214403A40FBFC78E9022349F8040F3946304601F07A
S214403A5091F8D04504460D46DBD1DDF8189045EC8C
S214403A60104B484600F088FD55EC104B00224FF0B6
S214403A707F5310EE100A294601F02EFA41EC100B47
S214403A8000F04AFC002251EC100B434B01F024FAA4
S214403A9002460B462046294601F06AF80D46044683
S214403AA001F0CAFC804601F0B1F90B4602462946B1
S214403AB0204601F05DF84B46002B06460F4640F385
S214403AC0FA80009A0EA9013AC9F1180351F822501B
S214403AD045FA03F101FA03F30EA8EB1A40F8223038
S214403AE0C9F11705884443FA05F5002D6EDD009BA5
S214403AF0002B08F1010840F374820E9C002C40F025
S214403B001B83009B012B40F394820EAA012352F89C
S214403B10044F002C00F08882581C0EAAC4F1807412
S214403B2042F82340009A824219DD0EAA0EAC52F8A3
S214403B3020106FF07F42511A44F82010009902334B
S214403B4099420CDD1046009A0EA901EB830301EB67
S214403B5082011A68821A43F8042B8B42F9D1069BDD
S214403B60002B1BDD069B012B4FF0010440F04182E9
S214403B70009B5A1E0EAB0EA953F82230C3F3160311
S214403B8041F8223041E200BF38A94000ABAAAA2A39
S214403B900000703E0000704100002040022D15D10C
S214403BA032463B460020944900F0E2FF06460F4668
S214403BB006989FED8D0B00F0DFFC3046394653ECFF
S214403BC0102B00F0D5FF022506460F4600220023A4
S214403BD03046394601F0E8FB002800F03B82009A68
S214403BE0079B501E83420FDC02F18043013B0EAA26
S214403BF00D9C02EB8303002253F80419A34242EAC9
S214403C000102F9D1002A67D1079B0EAA013B52F860
S214403C102330002B40F01C820C9A012352F80419E2
S214403C2001330029FAD0009AD31802F1010A9A45C6
S214403C3009933DDC009B0A990B9A0B4409990AEBC1
S214403C400208994622AB08F1804803EBC9098B1855
S214403C50A59A08F1FF3802EB880872AA02EBCA0A56
S214403C60A59A02EB8303009358F8040F01F0CEF8B0
S214403C70039B002BE9E802014FF000064FF00007D7
S214403C8011DB049C4D4675E90223F4E8020101F07D
S214403C9023F902460B463046394600F06BFF5C453A
S214403CA006460F46EFD1009B9845EAE80267DBD10F
S214403CB0099B00939FE606D1009B0EAA013B52F853
S214403CC02350ED1511E700224C4B01F08BFB0028EA
S214403CD040F07281054679E70EA9039551F82030E9
S214403CE00699CDF8248018390246009006916BB9A3
S214403CF000F18043013B0EA800EB830353F8040910
S214403D00013A18390028F9D00092069106989FED9E
S214403D10360B00F031FC009B002B55EC104BC0F2EC
S214403D20FC81DA0072A901EB020B06920EAA02EBA6
S214403D308306DFF8CC904FF000080BF108070436F6
S214403D4056F8040D01F062F822462B4601F0C4F8FE
S214403D504B4667E9020142462046294601F0BCF838
S214403D600EAB9E4204460D46EAD14AACDDF81C90A6
S214403D7004944FF0000AB9F1000FC0F22F81DFF82B
S214403D8084805D461AA1D1E9000100260027002460
S214403D9003E0544510DCF8E80201F5E8022301F0A0
S214403DA09BF802460B463046394600F0E3FE0134A7
S214403DB0A14506460F46ECDA049B03EBCA03ABF17B
S214403DC0080BC3E9006770AB9B450AF1010AD2D1E4
S214403DD0A49B049C032B00F28D80DFE813F0C900FF
S214403DE092009200150000BF000000000000F03F67
S214403DF000000040FB21F93F0000F03F0000E03F9C
S214403E000000703E00A94000009B002B40F38281DA
S214403E10069A04EB020ADAE9008902F1080525440D
S214403E200DF5987B1AED027B42464B4651EC170B3C
S214403E308DED047B00F09EFE06460F4602460B467E
S214403E40DDE9040100F094FE42464B4600F092FE47
S214403E5065E902015D45B046B9466AE90267E1D1C7
S214403E60009B012B40F35681069BE518D5E9008957
S214403E7003F1080B04EB0B0A15ED027B42464B465A
S214403E8051EC170B8DED007B00F074FE06460F4696
S214403E9002460B46DDE9000100F06AFE4B4642460C
S214403EA000F068FE6AE902014EAB5345B046B9469B
S214403EB065E90267E0D10020002104EB0B0575E9B7
S214403EC0022300F057FEAA45F9D1039B002B00F0D1
S214403ED00B816268E368089F2568A4683D6002F12C
S214403EE0004203F1004301F100417A60FB60BC6090
S214403EF038617961099B03F007000DF51B7DBDE82D
S214403F00F08F069D083525440020002175E90223E0
S214403F1000F030FEA542F9D1039B002B00F0D38081
S214403F20089E024601F1004386E80C000B46024616
S214403F30D4E9000100F01CFE009B002B0BDD4CADCD
S214403F400124F5E8022300F015FE009B0134A3424D
S214403F50F7DA039B13B101F100431946089BC3E906
S214403F600201099B03F007000DF51B7DBDE8F08FAD
S214403F70069D083500200021254475E9022300F0FF
S214403F80F9FDAC42F9D1039B13B101F10043194648
S214403F90089BC3E90001099B03F007000DF51B7D54
S214403FA0BDE8F08F00260027EAE80267DA4509F107
S214403FB008097FF4F2AC0EE5009B002B08F10108DF
S214403FC0C8BF02253FF799AD32463B4600206149BF
S214403FD000F0CEFD022506460F46F7E500260027F0
S214403FE0EAE6069B002B27DD0024069B012B3FF4C8
S214403FF0BFAD022B09D1009B5A1E0EAB0EA953F83B
S2144040002230C3F3150341F82230022D7FF4DEAD93
S21440401032463B4600204F4900F0AAFD06460F4672
S214404020002C3FF4D3ADC3E50099013399427FF4A9
S2144040306EAD069B002BD8DC022D7FF4C7AD324612
S2144040403B460020434900F093FD06460F46BDE53B
S2144040500123E8E5069B0395584247EC106BCDF8E4
S214404060248000F089FA55EC104B00223A4B10EEB3
S214404070100A294601F0B6F9002841D00022374BF5
S2144040802046294600F028FF01F0D6F9064600F003
S214404090BDFE0022304B00F01FFF02460B46204676
S2144040A0294600F065FD01F0C7F90099069B0A46CF
S2144040B01833013206930B460EA9009241F82300AE
S2144040C041F8226022E6089B0246C3E900010B46FF
S2144040D0D4E9000100F04CFD009B002B3FF72FAFCA
S2144040E0089BC3E902013CE7D4E90067D4E9022310
S2144040F0089DC5E90401C5E90067C5E90223F9E65C
S2144041002946204601F098F9009A0EA941F8220067
S214404110FCE54AAC00200021D7E6A49B032B3FF6E3
S214404120E9AE01A252F823F0474140003F4140002B
S2144041303F4140001341400001200023EDE40020B1
S21440414000214AACE8E6002000211CE70A9BDB0081
S214404150009340E40000F03F000070410000703ED5
S2144041602DE9F04F55EC104B2DED028BB0EE418A09
S214404170F0EE618A25F00043B3F1795F83B0824662
S21440418007DA10EE100A294601F056F9002800F02A
S2144041908E8022462B462046294600F09DFE064647
S2144041A00F4602460B462046294600F095FE47A39A
S2144041B0D3E90023804689463046394600F08CFED7
S2144041C044A3D3E9002300F0D3FC32463B4600F03C
S2144041D083FE42A3D3E9002300F0CCFC32463B46A4
S2144041E000F07AFE3FA3D3E9002300F0C1FC32463C
S2144041F03B4600F071FE3DA3D3E9002300F0BAFC35
S214404200CDE90001BAF1000F37D000222E4B51EC19
S214404210180B00F061FEDDE9002382468B464046DF
S214404220494600F059FE02460B465046594600F0B5
S2144042309FFC32463B4600F04FFE53EC182B00F0F6
S21440424097FC1FA3D3E9002306460F46404649463F
S21440425000F042FE02460B463046394600F08AFCE5
S21440426002460B462046294600F082FC41EC100BE5
S21440427003B0BDEC028BBDE8F08F02460B463046DD
S214404280394600F029FE0EA3D3E9002300F070FC67
S21440429042464B4600F020FE22462B4600F06AFC83
S2144042A041EC100B03B0BDEC028BBDE8F08F45EC43
S2144042B0104B03B0BDEC028BBDE8F08FAFF300802F
S2144042C0495555555555C53F0000E03F7CD5CF5A1A
S2144042D03AD9E53DEB9C2B8AE6E55A3E7DFEB15742
S2144042E0E31DC73ED561C119A0012A3FA6F81011AB
S2144042F01111813F53EC102B23F0004343EC102B5D
S214404300704700BF10EE903A43F0004000F5801032
S214404310C00F70470000000051EC100BC1F30A5369
S2144043202DE9F041A3F2FF35132D0C460F4610EE53
S214404330106A1DDC002D43DB3D4B43FA05F801EACD
S2144043400803034319D038A3D3E9002300F012FC36
S2144043500022002301F050F820B1002C49DB27EA68
S214404360080400262346324643EC102BBDE8F08175
S214404370332D06DDB5F5806F32D041EC100BBDE82D
S214404380F081A3F213434FF0FF3828FA03F810EAFF
S214404390080FF2D024A3D3E9002300F0EBFB002261
S2144043A0002301F029F80028DCD0002C27DB3C460F
S2144043B026EA08062346324643EC102BBDE8F08139
S2144043C019A3D3E9002300F0D5FB0022002301F017
S2144043D013F80028C6D0002C1CDB00263446C1E764
S2144043E010EE102A0B4600F0C5FB41EC100BBDE862
S2144043F0F0814FF4801343FA05F52F44AFE7142DB0
S21440440010D00123C5F1340503FA05F5AE1928BFCF
S214404410FF18CCE724F00042064B324318BF1C4638
S21440442000269FE70137C2E79C7500883CE4377E4C
S214404430FFFF0F000000F0BF0020704700000000A4
S2144044409FED010B704700BF000000000000F87FA2
S214404450F0B553EC102BC3F30A56A6F2FF301328E0
S21440446083B019464FEAD37410EE105A2FDC00285A
S21440447049DB3E4E064103EA060717432CD0760832
S21440448033401D430CD04FF48023132821EA060600
S21440449043FA00F141EA06010CBF4FF00045002503
S2144044A0334800EBC4042A46D4E9004510462B4660
S2144044B0224600F05FFBCDE9000122462B46DDE9AF
S2144044C0000100F055FB41EC100B03B0F0BD332863
S2144044D006DDB0F5806F40D043EC102B03B0F0BD46
S2144044E0A6F213464FF0FF30F0400242F4D04008A8
S2144044F00242D5D04FF0804325EA000043FA06F644
S21440450046EA0005CCE723F000401043E4D0C3F36E
S2144045101300104347420743154D5E0C3F0B07F40C
S2144045200023760405EBC40243EA0601D2E900679D
S21440453010EE100A32463B4600F01CFBCDE9000167
S2144045403B463246DDE9000100F012FB21F0004315
S21440455043EAC47141EC100BC0E710EE100A19464E
S21440456000F008FB41EC100BB8E700BFFFFF0F0060
S21440457048A940000000000053EC102B70B5C3F370
S2144045800A541946054614BB23F0004111432AD06D
S21440459019460022384B394E10EE100A00F09CFCAB
S2144045A0B54202460B461FDBC1F30A54363C2C4448
S2144045B040F2FE7084421FDC002C2DDD21F0FF41CE
S2144045C021F4E00141EA045343EC102B70BD40F265
S2144045D0FF708442EBD110EE100A194600F0CAFA7A
S2144045E041EC100B70BD70BD1FA3D3E9002300F053
S2144045F073FC41EC100B70BD43EC112B9FED1C0B74
S21440460000F040F81AA3D3E9002351EC100B00F059
S21440461063FC41EC100B70BD14F1350F13DA4CF20D
S21440462050318D4243EC112BE8DC9FED0F0B00F030
S21440463029F80DA3D3E9002351EC100B00F04CFCF5
S21440464041EC100B70BD21F0FF4121F4E0013634FF
S21440465041EA0453104619460022094B00F03CFC40
S21440466041EC100B70BD00BF59F3F8C21F6EA50198
S2144046709C7500883CE4377E00005043B03CFFFF0A
S2144046800000903C53EC102B11EE900A23F00041B2
S21440469000F0004041EA000343EC102B704700BF97
S2144046A070B496082FD09FED297A00F1100401F1DE
S2144046B01003354654ED047AF8EEE77A013D67EE8E
S2144046C0877A04F1100443ED047A54ED077AF8EE45
S2144046D0E77A03F1100367EE877A43ED077A54EDE5
S2144046E0067AF8EEE77A67EE877A43ED067A54ED77
S2144046F0057AF8EEE77A67EE877A43ED057AD9D100
S21440470036013144304412F003021DD0D0ED007A19
S2144047109FED0E7AF8EEE77A013A67EE877AC1EDBA
S214404720007A11D0D0ED017AF8EEE77A012A67EEEA
S214404730877AC1ED017A07D0D0ED027AF8EEE77AB3
S21440474067EE877AC1ED027A70BC70470000003091
S2144047502DE9F84F5FEA92092DED048B904683468B
S2144047608A467ED09FED7A9A00F1100401F110053A
S2144047704E46F6EE008ABEEE008A6FF0004754EDD5
S214404780047A67EE897AF5EEC07AF1EE10FAD4BF75
S214404790B0EE487AB0EE687A77EE277A17EE900A4F
S2144047A000F0C2FEB1EBE07F18BF87EAE17045F843
S2144047B0100C54ED037A67EE897AF5EEC07AF1EE86
S2144047C010FAD4BFB0EE487AB0EE687A77EE277A21
S2144047D017EE900A00F0A8FEB1EBE07F18BF87EA1C
S2144047E0E17045F80C0C54ED027A67EE897AF5EEE6
S2144047F0C07AF1EE10FAD4BFB0EE487AB0EE687ADE
S21440480077EE277A17EE900A00F08EFEB1EBE07F47
S21440481018BF87EAE17045F8080C54ED017A67EE58
S214404820897AF5EEC07AF1EE10FAD4BFB0EE487A47
S214404830B0EE687A77EE877A17EE900A00F074FE4C
S214404840B1EBE07F87EAE17378D0013E45F8043C5F
S21440485004F1100405F1100591D14FEA0919CA4434
S214404860CB4418F0030865D0DBED007A9FED387A2C
S21440487067EE877AFEEE006AF5EEC07AF1EE10FA41
S214404880B6EE007AD8BFB0EE667A77EE277A17EEA5
S214404890900A00F049FEB1EBE07F1CBF6FF000408D
S2144048A080EAE170B8F10108CAF8000042D0DBEDBA
S2144048B0017A9FED277A67EE877AFEEE006AF5EE7C
S2144048C0C07AF1EE10FAB6EE007AD8BFB0EE667A4D
S2144048D077EE277A17EE900A00F026FEB1EBE07FDF
S2144048E01CBF6FF0004080EAE170B8F1010FCAF8D3
S2144048F004001FD0DBED027A9FED157A67EE877ACB
S214404900FEEE006AF5EEC07AF1EE10FAB6EE007AE8
S214404910D8BFB0EE667A77EE277A17EE900A00F0A8
S21440492003FEB1EBE07F1CBF6FF0004080EAE17011
S214404930CAF80800BDEC048BBDE8F88F013E45F888
S214404940040C04F1100405F110057FF418AF84E759
S2144049500000004F10B58260016004460A01184608
S214404960002100F06BFE606010BD00BF2DE9F047EF
S214404970D0E901564FEA930C03F0030E4FEA0C19A8
S214404980076802EB090A0EF1FF381436103516EDAB
S214404990054A16ED042A56ED032A16ED023A56ED60
S2144049A0013A55ED045A15ED035A15ED027A55EDC8
S2144049B0017ABCF1000F00F0D48001F1100002F142
S2144049C01003644610ED046A62EE254A64EE066AF9
S2144049D022EE855A76EEA46A63EE074A76EE856A3C
S2144049E023EEA75A76EEA47A22EE061A77EE857A5A
S2144049F062EEA51A43ED047A50ED034A64EE246A4B
S214404A0023EE275A76EE816A63EE875A36EEA17A0F
S214404A1062EE241A37EE057A22EE866A37EE257A5B
S214404A2063EEA77A03ED037A10ED025A64EE055A58
S214404A3063EE076A75EEA15A62EE051A75EE865A5F
S214404A4062EEA44A75EEA65A23EE877A75EEA77AEA
S214404A50013C43ED027A50ED015A24EE256A63EE9E
S214404A60276A36EE216A00F1100036EE246A03F11A
S214404A70100336EE266A36EE077A03ED057AA1D1A4
S214404A8049445346BEF1000F47D0D1ED004A22EECE
S214404A90256A64EE241A62EE856A36EE215A23EEC3
S214404AA0076A35EE265A63EEA77A35EE066A36EE84
S214404AB0276A83ED006AB8F1000F40D091ED015AA5
S214404AC062EE247A65EE041A62EEA56A77EEA15A83
S214404AD063EE067A75EEA65A23EE877A75EEA77AC7
S214404AE0B8F1010F77EE277AC3ED017A30D0D1EDD9
S214404AF0025A25EE022A64EE256A62EEA42A76EE73
S214404B00826A27EE833A76EEA26A63EE863A76EEBD
S214404B10836A36EEA37A83ED027A013F45ED045A66
S214404B2005ED035A05ED027A45ED017A06F11406C5
S214404B3005F1100511467FF42AAFBDE8F087F0EE88
S214404B40477AB0EE655AB0EE467AF0EE645AE4E73D
S214404B50B0EE677AF0EE455AF0EE467AB0EE645A1A
S214404B60DBE713468EE700BF81F0004102E000BF5E
S214404B7083F0004330B54FEA41044FEA430594EAD8
S214404B80050F08BF90EA020F1FBF54EA000C55EA13
S214404B90020C7FEA645C7FEA655C00F0E2804FEAE4
S214404BA05454D4EB5555B8BF6D420CDD2C4480EAC6
S214404BB0020281EA030382EA000083EA010180EAF6
S214404BC0020281EA0303362D88BF30BD11F0004F44
S214404BD04FEA01314FF4801C4CEA113102D040427A
S214404BE061EB410113F0004F4FEA03334CEA1333B5
S214404BF002D0524263EB430394EA050F00F0A780CD
S214404C00A4F10104D5F1200E0DDB02FA0EFC22FAC7
S214404C1005F2801841F1000103FA0EF2801843FABB
S214404C2005F359410EE0A5F120050EF1200E012AAC
S214404C3003FA0EFC28BF4CF0020C43FA05F3C018EA
S214404C4051EBE37101F0004507D54FF0000EDCF163
S214404C50000C7EEB00006EEB0101B1F5801F1BD30C
S214404C60B1F5001F0CD349085FEA30004FEA3C0C10
S214404C7004F101044FEA445212F5800F80F09A8006
S214404C80BCF1004F08BF5FEA500C50F1000041EB0A
S214404C90045141EA050130BD5FEA4C0C404141EB0E
S214404CA0010111F4801FA4F10104E9D191F0000F35
S214404CB004BF01460020B1FA81F308BF2033A3F1B8
S214404CC00B03B3F120020CDA0C3208DD02F1140CAF
S214404CD0C2F10C0201FA0CF021FA02F10CE002F1EA
S214404CE01402D8BFC2F1200C01FA02F120FA0CFCE3
S214404CF0DCBF41EA0C019040E41AA2BF01EB04512C
S214404D00294330BD6FEA04041F3C1CDA0C340EDC29
S214404D1004F11404C4F1200220FA04F001FA02F36C
S214404D2040EA030021FA04F345EA030130BDC4F12A
S214404D300C04C4F1200220FA02F001FA04F340EA1F
S214404D400300294630BD21FA04F0294630BD94F0D0
S214404D50000F83F4801306BF81F480110134013DB7
S214404D604EE77FEA645C18BF7FEA655C29D094EA28
S214404D70050F08BF90EA020F05D054EA000C04BFA6
S214404D801946104630BD91EA030F1EBF0021002091
S214404D9030BD5FEA545C05D14000494128BF41F030
S214404DA0004130BD14F580043CBF01F5801130BD94
S214404DB001F0004545F0FE4141F470014FF000001F
S214404DC030BD7FEA645C1ABF194610467FEA655CD0
S214404DD01CBF0B46024650EA013406BF52EA033572
S214404DE091EA030F41F4002130BD00BF90F0000F60
S214404DF004BF0021704730B54FF4806404F132049C
S214404E004FF000054FF0000150E700BF90F0000F54
S214404E1004BF0021704730B54FF4806404F132047B
S214404E2010F0004548BF40424FF000013EE700BF4B
S214404E3042004FEAE2014FEA31014FEA02701FBFDB
S214404E4012F07F4393F07F4F81F06051704792F0AD
S214404E50000F14BF93F07F4F704730B54FF4607427
S214404E6001F0004521F0004120E700BF50EA010272
S214404E7008BF704730B54FF000050AE050EA01021F
S214404E8008BF704730B511F0004502D5404261EB8F
S214404E9041014FF4806404F132045FEA915C3FF4D0
S214404EA0DCAE4FF003025FEADC0C18BF03325FEA69
S214404EB0DC0C18BF033202EBDC02C2F1200300FA1E
S214404EC003FC20FA02F001FA03FE40EA0E0021FA43
S214404ED002F11444C1E600BF70B54FF0FF0C4CF42D
S214404EE0E06C1CEA11541DBF1CEA135594EA0C0FE3
S214404EF095EA0C0F00F0DEF82C4481EA030621EA1E
S214404F004C5123EA4C5350EA013518BF52EA033558
S214404F1041F4801143F4801338D0A0FB02CE4FF00A
S214404F200005E1FB02E506F00042E0FB03E54FF03A
S214404F300006E1FB03569CF0000F18BF4EF0010E32
S214404F40A4F1FF04B6F5007F64F5407404D25FEA2E
S214404F504E0E6D4146EB060642EAC62141EA5551E1
S214404F604FEAC52040EA5E504FEACE2EB4F1FD0C23
S214404F7088BFBCF5E06F1ED8BEF1004F08BF5FEAA1
S214404F80500E50F1000041EB045170BD06F0004653
S214404F9046EA010140EA020081EA0301B4EB5C0400
S214404FA0C2BFD4EB0C0541EA045170BD41F48011F8
S214404FB04FF0000E013C00F3AB8014F1360FDEBF1D
S214404FC0002001F0004170BDC4F10004203C35DAF9
S214404FD00C341BDC04F11404C4F1200500FA05F37C
S214404FE020FA04F001FA05F240EA020001F000421D
S214404FF021F0004110EBD37021FA04F642EB060193
S2144050005EEA430E08BF20EAD37070BDC4F10C04BC
S214405010C4F1200500FA04F320FA05F001FA04F280
S21440502040EA020001F0004110EBD37041F100016C
S2144050305EEA430E08BF20EAD37070BDC4F1200577
S21440504000FA05F24EEA020E20FA04F301FA05F2DF
S21440505043EA020321FA04F001F0004121FA04F287
S21440506020EA020000EBD3705EEA430E08BF20EA57
S214405070D37070BD94F0000F0FD101F00046400091
S21440508041EB010111F4801F08BF013CF7D041EA13
S214405090060195F0000F18BF704703F00046520017
S2144050A043EB030313F4801F08BF013DF7D043EAE8
S2144050B00603704794EA0C0F0CEA135518BF95EA9E
S2144050C00C0F0CD050EA410618BF52EA4306D1D125
S2144050D081EA030101F000414FF0000070BD50EA44
S2144050E0410606BF1046194652EA430619D094EACE
S2144050F00C0F02D150EA013613D195EA0C0F05D1B8
S21440510052EA03361CBF104619460AD181EA03010B
S21440511001F0004141F0FE4141F470014FF00000C3
S21440512070BD41F0FE4141F4780170BD70B54FF05E
S214405130FF0C4CF4E06C1CEA11541DBF1CEA1355DE
S21440514094EA0C0F95EA0C0F00F0A7F8A4EB0504C0
S21440515081EA030E52EA03354FEA013100F08880B7
S2144051604FEA03334FF0805545EA131343EA126380
S2144051704FEA022245EA111545EA10654FEA002635
S2144051800EF000419D4208BF964244F1FD0404F5EE
S214405190407402D25B084FEA3202B61A65EB03054A
S2144051A05B084FEA32024FF480104FF4002CB6EB07
S2144051B0020E75EB030E22BFB61A754640EA0C0087
S2144051C05B084FEA3202B6EB020E75EB030E22BFC7
S2144051D0B61A754640EA5C005B084FEA3202B6EB08
S2144051E0020E75EB030E22BFB61A754640EA9C00C7
S2144051F05B084FEA3202B6EB020E75EB030E22BF97
S214405200B61A754640EADC0055EA060E18D04FEA54
S214405210051545EA16754FEA06164FEAC30343EAF4
S21440522052734FEAC2025FEA1C1CC0D111F4801FC1
S2144052300BD141EA00014FF000004FF0004CB6E7BA
S21440524011F4801F04BF01430020B4F1FD0C88BF59
S214405250BCF5E06F3FF6AFAEB5EB030C04BFB6EB64
S214405260020C5FEA500C50F1000041EB045170BD57
S2144052700EF0004E4EEA113114EB5C04C2BFD4EB84
S2144052800C0541EA045170BD41F480114FF0000E08
S214405290013C90E645EA060E8DE60CEA135594EA84
S2144052A00C0F08BF95EA0C0F3FF43BAF94EA0C0F87
S2144052B00AD150EA01347FF434AF95EA0C0F7FF4FC
S2144052C025AF104619462CE795EA0C0F06D152EA50
S2144052D003353FF4FDAE1046194622E750EA410634
S2144052E018BF52EA43067FF4C5AE50EA41047FF445
S2144052F00DAF52EA43057FF4EBAE12E74FF0FF3CAA
S21440530006E000BF4FF0010C02E000BF4FF0010C7A
S2144053104DF804CD4FEA410C7FEA6C5C4FEA430CF3
S21440532018BF7FEA6C5C1BD001B050EA410C0CBF42
S21440533052EA430C91EA030F02BF90EA020F0020A4
S214405340704710F1000F91EA030F58BF994208BF0B
S21440535090422CBFD8176FEAE37040F001007047C8
S2144053604FEA410C7FEA6C5C02D150EA013C07D11F
S2144053704FEA430C7FEA6C5CD6D152EA033CD3D06A
S2144053805DF8040B704700BF8446104662468C4664
S2144053901946634600E000BF01B5FFF7B7FF002897
S2144053A048BF10F1000F01BD4DF808EDFFF7F4FFC0
S2144053B00CBF012000205DF808FB00BF4DF808ED4B
S2144053C0FFF7EAFF34BF012000205DF808FB00BF6E
S2144053D04DF808EDFFF7E0FF94BF012000205DF890
S2144053E008FB00BF4DF808EDFFF7CEFF94BF012045
S2144053F000205DF808FB00BF4DF808EDFFF7C4FF3E
S21440540034BF012000205DF808FB00BF4FEA410C86
S2144054107FEA6C5C02D150EA013C0AD14FEA430C69
S2144054207FEA6C5C02D152EA033C02D14FF00000A6
S21440543070474FF0010070474FEA410212F50012E4
S21440544015D211D56FF47873B3EB625212D94FEA86
S214405450C12343F0004343EA505311F0004F23FA70
S21440546002F018BF404270474FF00000704750EAC5
S214405470013005D111F0004008BF6FF00040704782
S2144054804FF00000704700BF4FEA4102B2F1E043E0
S21440549024BFB3F5001CDCF1FE5C0DD901F0004CD6
S2144054A04FEAC0024CEA5070B2F1004F40EB830026
S2144054B008BF20F00100704711F0804F21D113F152
S2144054C03872BCBF01F00040704741F480114FEA8B
S2144054D05252C2F11802C2F1200C10FA0CF320FA14
S2144054E002F018BF40F001004FEAC1234FEAD32331
S2144054F003FA0CFC40EA0C0023FA02F34FEA43039B
S214405500CCE77FEA625307D150EA01331EBF4FF023
S214405510FE4040F44000704701F0004040F0FE403E
S21440552040F40000704700BF07EE900AF5EEC07AE0
S214405530F1EE10FA01D400F009B808B580F000404A
S21440554000F004F8404261EB410108BDD0B5FFF7DA
S2144055506FFC00220E4B06460F46FFF7BDFC00F0E0
S2144055601BF80446FFF742FC00220A4BFFF7B4FC48
S21440557002460B4630463946FFF7FAFA00F00CF87A
S2144055802346002242EA000210461946D0BD00BF1C
S2144055900000F03D0000F0414A0011D212F5001222
S2144055A011D20DD56FF47873B3EB62520ED44FEA36
S2144055B0C12343F0004343EA505323FA02F07047B6
S2144055C04FF00000704750EA013002D14FF0FF30F4
S2144055D070474FF0000070470A22002100F0D2BA10
S2144055E0014B1868704700BF2800002070B50F4E6A
S2144055F00F4D761BB61018BF002405D0013455F861
S214405600043B9847A642F9D10A4E0B4D761B05F04F
S214405610EBFAB61018BF002406D0013455F8043B08
S2144056209847A642F9D170BD70BD00BFF4AB4000AC
S214405630F4AB4000FCAB4000F4AB400070B48607CF
S21440564046D0541E002A41D0CAB2034602E014F1A6
S214405650FF343BD303F8012B9D07F8D1032C2ED9FA
S214405660CDB245EA05250F2C45EA054519D903F183
S21440567010022646103E0F2E42F8105C42F80C5C94
S21440568042F8085C42F8045C02F11002F2D8A4F139
S214405690100222F00F0204F00F041032032C1344C1
S2144056A00DD91E462246043A032A46F8045BFAD829
S2144056B0221F22F003020432134404F003042CB1E8
S2144056C0C9B21C4403F8011B9C42FBD170BC704716
S2144056D014460346C2E700BF0FB400B5074983B07F
S2144056E004AB086853F8042B8168019300F060FA15
S2144056F003B05DF804EB04B0704700BF28000020FC
S214405700F0B5054689B008460C4600F039F9AB6B53
S214405710214F04940126441C04A9022203940590B8
S214405720AC68069707960191029253B3636E13F0E6
S214405730010FB4F90C309AB201D1900525D59104E9
S21440574006D4626E43F4005322F40052A38162668C
S214405750284601AA214602F0E1FF636E00280CBFEE
S2144057600A254FF0FF35DA0702D4A3899B0502D5F8
S214405770284609B0F0BDA06D03F098F9284609B058
S214405780F0BD284602F042FED0E7A06D03F08CF94B
S214405790B4F90C309AB2D2E75CA94000024B0146FD
S2144057A01868FFF7ADBF00BF2800002000290CBFD7
S2144057B0022200224FF4806300F000B82DE9F04347
S2144057C0614C256883B004460F4690461E4615B188
S2144057D0AB6B002B64D0B8F1020F06D0B8F1010FC6
S2144057E000F29F80002EC0F29C80636ED80734D5AE
S2144057F02146284602F0B2FD216B41B104F1400338
S214405800994202D0284602F0A3FE00232363B4F94F
S2144058100C300022A26162601A063AD423F44A632E
S21440582023F00303B8F1020FA3811DD001AB6A46F3
S2144058302146284603F03CF9A3891843A081002E50
S21440584032D1009E304603F0ABF9074600286BD0B5
S214405850A38943F08003A38128E0A3899905C7D490
S214405860A06D03F021F9C3E70025616E002604F120
S214405870430243F002030120A660CE07A3812260C4
S2144058802261606101D498053ED5284603B0BDE844
S214405890F0832169284602F05BFEB4F90C30BDE780
S2144058A0284602F0B3FD96E7002FCBD0AB6B002B1B
S2144058B033D0009BB4F90C2027609E421CBF42F4B4
