:020000040040BA
:10000000C85C002079034000750340007503400080
:1000100075034000750340007503400000000000B8
:100020000000000000000000000000007503400018
:100030007503400000000000750340007503400098
:1000400075034000750340007503400075034000D0
:1000500075034000750340007503400075034000C0
:1000600075034000FD0840000000000075034000DB
:1000700075034000750340007503400075034000A0
:100080002D084000750340007503400075034000D3
:100090007503400075034000750340007503400080
:1000A0007503400075034000750340007503400070
:1000B00075034000750340000000000000000000D0
:1000C0000000000000000000000000000000000030
:1000D0000000000000000000000000000000000020
:1000E0000000000000000000000000000000000010
:1000F0000000000000000000000000007503400048
:10010000750340007503400010B5054C237833B9E2
:10011000044B13B10448AFF300800123237010BDDA
:10012000F009002000000000949340000C4B43B104
:100130000C480D4910B5AFF300800C48036823B993
:1001400010BD0A48036833B97047094B002BF7D03C
:10015000BDE810401847064B002BF5D0184700BFEC
:100160000000000094934000F409002094934000A4
:100170000000000008B57C4B4FF498125A60002232
:100180005A631B6A13F4807F0ED06FF07F43764969
:10019000013B0A6A12F4807F03D0002BF8D10020C3
:1001A00008BD002B00F0CC806F4B05225A631B6A00
:1001B00013F4807F0ED06FF07F436B49013B0A6AD6
:1001C00012F4807F03D0002BF8D1002008BD002B53
:1001D00000F0B880644B00225A631B6A13F4807FDE
:1001E0000ED06FF07F436049013B0A6A12F4807FB2
:1001F00003D0002BF8D1002008BD002B00F0A48014
:10020000594B38225A631B6A13F4807F0ED06FF06B
:100210007F435549013B0A6A12F4807F03D0002BCB
:10022000F8D1002008BD002B00F090804E4B012239
:100230005A631B6A13F4807F0DD06FF07F434A49E5
:10024000013B0A6A12F4807F03D0002BF8D1002012
:1002500008BD002B7CD0444B2A225A631B6A13F43E
:10026000807F0DD06FF07F433F49013B0A6A12F453
:10027000807F03D0002BF8D1002008BD002B69D06F
:10028000394B31225A631B6A13F4807F0DD06FF013
:100290007F433549013B0A6A12F4807F03D0002B6B
:1002A000F8D1002008BD002B56D02F4B0B225A63EB
:1002B0001B6A13F4807F0DD06FF07F432A49013B06
:1002C0000A6A12F4807F03D0002BF8D1002008BD09
:1002D000002B43D0244BFF225A631B6A13F4807F08
:1002E0000DD06FF07F432049013B0A6A12F4807FF2
:1002F00003D0002BF8D1002008BD002B30D01A4BC2
:10030000FF225A631B6A13F4807F0CD06FF07F4387
:100310001549013B0A6A12F4807F03D0002BF8D103
:10032000002008BDF3B102220F4B1A601A46136A6F
:1003300013F0010FFBD00D480D4B9847012008BD6D
:10034000002008BD002008BD002008BD002008BD19
:10035000002008BD002008BD002008BD002008BD09
:10036000002008BD002008BD00C60040F48D4000FC
:10037000AD0E4000FEE7000008B5174B174A9A4241
:1003800010D0174B144A9A420CD2013B9B1A23F00F
:10039000030304331344114951F8040B42F8040BCE
:1003A0009A42F9D10F4B104A9A420AD2013B9B1A4A
:1003B00023F0030304331344002142F8041B934247
:1003C000FBD10A4A0A4B23F07F039360094B9847FD
:1003D000094B9847FEE700BF0000002094934000BF
:1003E000F0090020C42A0020F009002000ED00E000
:1003F00000004000C53E400009064000014A024B93
:100400001A60704700127A000000002030B4029D8C
:100410004FF08044C4F80801C4F80C51C4F8180126
:10042000C4F81C51C4F80021C4F80451C4F81021C8
:10043000C4F81451074A9160D5609161D561136089
:1004400055601361556140F20113C4F82031136205
:1004500030BC70470002004070B582B01F4C656828
:1004600045F4C02545F01F056560256F25F4C025BE
:1004700025F003052567656F25F4C02525F00305E4
:100480006567256F45F01C052567656F25F01C0520
:1004900065674FF08044802525604FF4C446666050
:1004A000069E00960E4EB04765610E4A002382F804
:1004B00010334FF4803111602360236843F001034F
:1004C0002360236843F010032360236843F0040390
:1004D00023600548054B984702B070BD000E0E40E2
:1004E0000D04400000E100E0108E4000AD0E400021
:1004F000044A136843F470031360BFF34F8FBFF3D4
:100500006F8F704788ED00E008B5F3EE047A80EE57
:10051000277A17EE100A0A4B984741EC110B9FED12
:10052000060B084B984751EC100B074B984700EE11
:10053000100A08BDAFF30080000000000000244056
:10054000C1374000D9104000193E400038B52DEDAC
:10055000028BB0EE408A244CD4ED007A9FED237AD2
:1005600067EE877A9FED227AC7EE876A16EE900AC9
:10057000204B984741EC100B1F4B984751EC100B48
:1005800010EE102A0B461D4DA8471D4B984706EE4E
:10059000100A1C4B93ED007A94ED010A27EE000A35
:1005A00030EE080A66EE077AD3ED016A77EEA66AA6
:1005B000C3ED016AF6EE007AF0EE405A57EE675A44
:1005C00075EEE67A67EE867A77EE877AC3ED007A83
:1005D00094ED027A67EE877A37EEC00AB1EE400AF0
:1005E000BDEC028B38BD00BF04000020DB0F49408A
:1005F00000803B47C13740001910400005354000DE
:10060000193E40000C0A00202DE9F04383B0624BF4
:100610009847624B9847624A624B1A60624A03F5F8
:1006200021631A601A46A3F58053103B516911F0FB
:10063000800FFBD0996E11F0800FF7D05B4B00223A
:100640009A625B4A9A629A6E12F0020FFBD0574B85
:100650001A6B22F070021A639B6E13F0080F5BD0C6
:10066000524A136B23F0030343F002031363936EA8
:1006700013F0080F5BD04F4AD36923F4F05343F0D3
:10068000B44343F4C853D3614B4B4FF025421A6037
:100690004FF400425A60494B9847494B9847494BA1
:1006A0009847494B9847494B9847494B9847494B7E
:1006B0001968C1F303514848484B98474FF4807379
:1006C0000093474B474A48494848494CA047494846
:1006D000494B9847494B1868494EB04702460B466C
:1006E0004848494DA847494CA068B04702460B46C8
:1006F0004748A84794ED020A464B984784ED030A01
:1007000027464FF00008444E2BE0013BBCD0916ED1
:1007100011F0080FF9D0A3E74FF40063234AF6E77E
:10072000013BB1D0916E11F0080FF9D0A3E74FF45F
:1007300000631E4AF6E7394C394D04F5806954F8D8
:10074000043F00EE103AB8EEC00AB047BDEEC00A52
:1007500010EE103A45F8043F4C45F0D187F8108070
:1007600000BF3B7C002BFBD07B7C002BE3D12D4CCE
:100770002D4D04F5806954F8043F00EE103AB8EEB0
:10078000C00AB047BDEEC00A10EE103A45F8043F6B
:100790004C45F0D1E2E700BFFD034000F10440000A
:1007A00000050004000A0E40080000A500040E40E9
:1007B000013F4D0E10140E4050140E40B90B400076
:1007C000410B4000ED0D4000DD0A4000210D4000CE
:1007D0007501400088ED00E0248E4000D90E4000F5
:1007E000900E0020901A0020900A00209016002001
:1007F00059044000308E4000AD0E4000040000203F
:10080000C1374000608E4000B13F40000C0A00201C
:100810006C8E4000090540004D0540008C0E002004
:100820008C0A00208C2600208C1200202B4B9B7CF5
:100830003BBB4FF080439B6813F0800F3ED0274BAB
:100840005B7C83B926494FF08043C3F818114FF4FD
:100850008072C3F81C21C3F81011C3F814210122BF
:100860001E4B9A7470471F494FF08043C3F818110C
:100870004FF48072C3F81C21C3F81011C3F814217F
:10088000EDE7012B1AD14FF080439B6813F0800FE6
:1008900014D0124B5B7C93B9134BDB68134A9A61FB
:1008A0004FF48072DA61124919615A6101220B4BCF
:1008B0005A740A4B00229A7401221A7470470A4B28
:1008C000DB680C4A9A614FF48072DA610A49196157
:1008D0005A610022014B5A74EBE700BF0C0A00205A
:1008E000901A0020901E002004000020900A002092
:1008F000900E002090120020902600202DE9F04359
:100900002DED048B89B06B4B9B69DBB25A2B9CBFDE
:100910002033DBB2613B162B1FD8DFE803F03C1E0F
:100920001E1E1E1E1E1E1E1E1E1E1E1E1E1E0C1EF9
:10093000621E1E1E4F00604B93ED007ADFED5F7A62
:10094000B4EEE77AF1EE10FA07D5D3ED007A9FED19
:100950005C7A77EE877AC3ED007A574B93ED007A95
:10096000D3ED047AB4EE677AF1EE10FA4CD1554B20
:1009700093ED027AD3ED057AB4EE677AF1EE10FAD0
:100980004ED14C4A136843F48073136009B0BDEC38
:10099000048BBDE8F083484B93ED007ADFED487A95
:1009A000B4EEE77AF1EE10FAD7DDD3ED007A9FEDE1
:1009B000447A77EEC77AC3ED007ACEE7414B93EDE8
:1009C000027AF2EE087AB4EEE77AF1EE10FAC4D5C4
:1009D000D3ED027AB7EE007A77EE877AC3ED027A2A
:1009E000BBE7384B93ED027AFAEE087AB4EEE77A79
:1009F000F1EE10FAB1DDD3ED027AB7EE007A77EEC0
:100A0000C77AC3ED027AA8E71C4618682E4B9847B0
:100A100002460B462D482E49884723682361A6E7E6
:100A20001D4693ED020A2B4CA047B0EE408AB2EE71
:100A3000080AA047F7EE007A70EE276A38EE276AB8
:100A400088EE067A27EE267A37EE677A1A4B83ED20
:100A5000027A87EE860A20EE260A30EE670A83EDD8
:100A6000010AA868D3F80880D3F8049093ED029A9D
:100A7000D3ED018A144CA04706460F4679EE287A3A
:100A800017EE900AA047CDE906014846A047CDE9F8
:100A900004014046A047CDE9020118EE100AA04724
:100AA000CDE9000132463B460B4809498847AB680F
:100AB0006B6166E7000202400400002000007A45F6
:100AC00000007A430C0A0020C1374000608E4000CD
:100AD000B13F4000090540007C8E4000064BD3F832
:100AE000E42122F00102C3F8E421044AC3F8E4211E
:100AF0000122C3F81C21704700020E400054414DF2
:100B000028B9064A536B43F0805353637047034A36
:100B1000136B43F080531363704700BF000E0E4009
:100B200028B9064A536B43F0006353637047034A86
:100B3000136B43F000631363704700BF000E0E4059
:100B400010B5184BD3F8E42022F00102C3F8E420DA
:100B5000D3F8E420144C2243C3F8E420134AD2F81B
:100B6000E40020F00100C2F8E400D2F8E4102143D0
:100B7000C2F8E4104FF0FF31596051601A6842F03A
:100B8000F0421A601A6942F0F0421A615A6B42F060
:100B9000F0425A630020064B98470120054B9847C6
:100BA00010BD00BF000E0E40004F495000100E4017
:100BB000010B4000210B40001F4BD3F8E42022F032
:100BC0000102C3F8E420D3F8E4101C4A0A43C3F836
:100BD000E4201B4A1A614FF400725A6004225A64DE
:100BE0001A46936E13F4007FFBD0134B1A6842F43D
:100BF00000721A605A6842F480525A6044221A65A0
:100C00001A46936E13F4805FFBD00B4B1A6842F4C4
:100C100080521A604FF480425A6040F654129A652E
:100C20001A46936E13F4804FFBD0034A136843F4C3
:100C300080431360704700BF00040E4000434D50D6
:100C4000001B01000A4B1B6853B1094B1B681A18A3
:100C50000849914208DB1046054A10601846704763
:100C6000054A034B1A60F0E74FF0FF30704700BFB2
:100C7000240A0020FC7F0220C85C00204FF0FF30D7
:100C800070474FF400534B600020704701207047BD
:100C9000002070470138022815D82DE9F0410E4692
:100CA00014469AB10D46DFF838800C4FD8F8000092
:100CB00015F8011B3B68984700280ADBA81B013C7C
:100CC000F4D1BDE8F0814FF0FF3070471046BDE829
:100CD000F0814FF0FF30BDE8F08100BF942A002082
:100CE000982A00202DE9F04180B90C469046002A50
:100CF0000FDD8F18084E094D306821462B68984744
:100D00000134BC42F8D14046BDE8F0814FF0FF38D5
:100D1000F9E78046F7E700BF982A0020902A0020D4
:100D200008B5194BD3F8902042F4C062C3F8902064
:100D30005A6E42F4C0625A665A6842F4C0625A60FF
:100D40001A6F22F4C0621A675A6F22F4C0625A679F
:100D500003220E4B1A6003F5C063D3F8E42022F09F
:100D60000102C3F8E4200A4AC3F8E420094A1A61E0
:100D7000094A1A6002225A644FF498125A600748CE
:100D8000074B984708BD00BF000E0E4000C0004052
:100D9000004957540101130024000001AC8E4000AB
:100DA000AD0E4000044BD9611A46536913F0020F8F
:100DB000FBD00020704700BF0002024010B4034681
:100DC0000848002200F8312F074CB3FBF1F201FB79
:100DD0001233E35C00F8013D1346002AF5D15DF8BB
:100DE000044B7047280A0020C08E400038B51E4BC7
:100DF0005A6842F00C025A601A6F22F00C021A670D
:100E00005A6F22F00C025A670122A3F541231A609F
:100E1000164B102183F809134FF400711960144B1D
:100E20009A60D3F8E42022F00102C3F8E420114ACA
:100E3000C3F8E42082221A620F4A5A6050221A60D4
:100E40000E4A13600E4A0F4B1A600F4D2B6800219B
:100E500098680E4CA0472B6800215868A0470C48A2
:100E60000C4B984738BD00BF00100E4000E100E079
:100E70000002024000415355C0080800982A002093
:100E8000A50D4000942A0020440000208540400029
:100E9000D48E400075404000034BD8611A46536918
:100EA00013F0020FFBD07047000202402DE9F04121
:100EB00006460024064FDFF81C8001E0705DC04745
:100EC000E5B23046B8470134A842F7D8BDE8F08112
:100ED00041424000990E40000FB42DE9F04182B02C
:100EE00008AB53F8044B01932378BBB1474DDFF8AF
:100EF0002481474F07E0019B1A1D01921878A847EB
:100F0000B41CB37853B1207825287DD030B1A847E0
:100F100014F8010F25282DD00028F8D102B0BDE823
:100F2000F04104B07047019B1A1D01920A21186814
:100F3000C047B847E4E7019B1A1D019208211868D1
:100F4000C047B847DCE7019B1A1D01921868B847F3
:100F5000D6E7019B1A1D019210211868C047B847B7
:100F6000CEE7019B1A1D019210211868C04741303D
:100F7000B847C5E726467378583B202BC0D801A256
:100F800052F823F0630F4000010F4000010F4000B2
:100F9000010F4000010F4000010F4000010F400011
:100FA000010F4000010F4000010F4000010F400001
:100FB000F70E4000270F4000010F4000010F4000D6
:100FC000010F4000010F4000010F4000010F4000E1
:100FD000010F4000010F4000010F4000010F4000D1
:100FE000370F4000010F4000010F4000010F40008B
:100FF000470F4000010F4000010F4000010F40006B
:10100000010F4000530F40002646B4E7990E400000
:10101000AD0E4000BD0D400000B551EC100B2C4A48
:1010200021F00043934285B027DD2A4A934209DD2F
:1010300010EE102A0B4602F063FA41EC100B05B0DB
:101040005DF804FB684600F047FF00F0030001284C
:1010500027D002281DD068B39DED021B9DED000B2B
:1010600001F02EFA53EC102B10EE100A03F10041A0
:1010700041EC100B05B05DF804FB00209FED121B46
:1010800001F09AFF51EC100B41EC100B05B05DF82C
:1010900004FB01209DED021B9DED000B01F08CFF78
:1010A000E0E79DED021B9DED000B01F009FA51EC0C
:1010B000100BC2E701209DED021B9DED000B01F01E
:1010C0007BFF51EC100BB8E70000000000000000AF
:1010D000FB21E93FFFFFEF7F2DE9F04F2DED028B64
:1010E000DFF80CA38BB057EC106B55EC114B00F0F4
:1010F00083F99AF90080B0EE408AF0EE608AB8F188
:10110000FF3F34D022462B462046294602F046FEB9
:10111000834660BB32463B463046394602F03EFECF
:101120008146002840F09F80304639460022002347
:1011300002F002FE20B3002200232046294602F0DE
:10114000FBFD8346002867D09FED9F7B0122A44BC7
:10115000CDF820900092CDE90267CDE904458DEDF0
:10116000067B0193B8F1000F49D09FED998BB0EE4B
:10117000480AF0EE680A0BB0BDEC028BBDE8F08FB8
:10118000B0EE480AF0EE680A01F0E8FF8046002859
:1011900000F084804FF000084FF0000951EC180B6C
:1011A00042464B4602F0C8FD0028E0D047EC106BE9
:1011B00001F0D4FF0028DAD045EC104B01F0CEFF4F
:1011C0000028D4D09AF90030854A019204210022E7
:1011D000022BCDE90267CDE90445CDE906890091EE
:1011E000089203D0684602F053F860B902F064FE3A
:1011F0002223036007E09FED747B8DED067B68463C
:1012000002F046F850B3089B1BB102F055FE089B54
:1012100003609DED068BAAE745EC104B01F09EFFA5
:101220000028A4D0002200232046294602F08EFD8B
:1012300000289CD06A4A9AF90030CDF820B00121EC
:10124000CDE90267CDE904458DE80600002BD2D038
:1012500064490020022BCDE90601D0D102F02CFE1A
:1012600021230360CFE7002200232046294602F015
:1012700063FD00283FF47BAF9FED558B584BCDF8B5
:1012800020B00122B8F1020FCDE90267CDE9044593
:101290008DED068B8DE80C00B1D168E747EC106B43
:1012A00001F05CFF00283FF475AF45EC104B01F0F6
:1012B00055FF00283FF46EAF53EC182B18EE100AC0
:1012C000194602F06BFD002861D103239AF90080D2
:1012D0000093434B0890CDE90267CDE904450193A3
:1012E000B8F1000F2DD1DFF80C914FF060480022CB
:1012F000002330463946CDE9068902F027FD002853
:101300003FF470AF0022384B2046294602F0ACFA79
:1013100004460D4645EC104B01F0C6FF204653EC49
:10132000102B294602F008FD70BB304B9AF9008063
:101330004FF06042CDE90623B8F1020F7FF452AFBF
:1013400054E79FED257B00220023304639468DED82
:10135000067B02F0FBFC0028EED00022224B204648
:10136000294602F081FA04460D4645EC104B01F087
:101370009BFF204653EC102B294602F0DDFC18B9E8
:10138000184B0022CDE906239AF90080D4E7144BCC
:101390009AF90090CDF820800122CDE90267CDE9CD
:1013A00004458DE80C00B9F1000F3FF424AF002292
:1013B00000231046194602F081FBB9F1020FCDE976
:1013C00006013FF44BAF1AE70000000000000000E8
:1013D000000000000000F03F000000000000F07F6F
:1013E000F48E40000000F0FF0000E03FFFFFEFC779
:1013F00040000020FFFFEF472DE9F04F51EC110BAB
:1014000021F0004858EA000493B03ED053EC102B72
:10141000714E23F00044B44210EE10AA1D462DDC9C
:10142000894611EE10EA28D0B04527DC6A4EB04557
:1014300000F08380002D16461F46CDE90001C0F262
:1014400081804FF0000BBEF1000F2FD1624B984509
:1014500000F09580614B984568D0B9F1804F00F05D
:10146000D1835F4B994521D1002D1FDB47EC106BD9
:1014700013B0BDE8F04F00F055BF6AB104F140442D
:1014800004F5801454EA0A0308D15449002041ECC1
:10149000100B13B0BDE8F08FA045C7DD514813B065
:1014A000BDE8F04F01F0F8BE4FF0000B47EC106BB9
:1014B00001F04CFE51EC100BBAF1000F1AD124B11F
:1014C000464B25F040429A4214D1B9F1000FC0F2C8
:1014D000D383002DDBDA04F1404404F5801454EA90
:1014E0000B0300F0AF84BBF1010FD0D101F1004339
:1014F0001946CCE7ED0F05F1FF3A5BEA0A0353D03A
:10150000394B984576DD03F10473984540F3068422
:10151000364B9C4253DDB9F1000F53DD2CA3D3E9C8
:1015200000231046194602F09FF9B0E7B9F1000F09
:10153000C0F25A8430463946A9E7BEF1000F3FF4A5
:1015400079AF9BE72A4B98452BDCA3F15473984560
:101550007FF777AF4FEA2853A3F2FF33142B40F302
:101560005984C3F134032EFA03F202FA03F39E45C1
:101570007FF467AF02F00102C2F1020B63E704F1EE
:10158000404303F5801353EA0A033FF47EAF174B41
:101590009C4240F33E83B9F1000F13DBDDE900010B
:1015A00075E74FF0020B4EE732463B4610461946B0
:1015B00001F0A6FF02460B4602F080FA67E7B9F198
:1015C000000FABDB0020002161E700BFAFF300801C
:1015D0009C7500883CE4377E0000F07F0000F03FFF
:1015E0000000E03F049140000000E041FFFFEF3FBA
:1015F000FFFF3F43B4F5801F4FF0000205DAD64BE2
:1016000002F032F96FF034020C462315D34EC4F3C6
:101610001304A3F2FF33134444F07F55B4421A4637
:101620000D9345F4401540F32E83CD4B9C4240F37F
:101630000D849FEDB37B8DED087B8DED0E7B9FEDD3
:10164000B27B13468DED067B01330D93A5F5801516
:101650004FF00008DDE906232946CDE90A0101F033
:101660004FFFDDE9062306460F46DDE90A0101F0DA
:1016700049FF02460B460020BA4902F01FFA034612
:101680000C46CDE9103402460B463046394602F08E
:10169000EBF86B1043F0005303F5002303EB080550
:1016A0000A4600230146CDE902120293DDE90289D0
:1016B0000024CDE904122B4622464046494602F05A
:1016C000D3F802460B463046394601F019FFDDE9F2
:1016D000062306460F462046294601F011FF024622
:1016E0000B46DDE90A0101F00BFF42464B4602F0D2
:1016F000BBF802460B463046394601F001FFDDE9F2
:10170000102302F0B1F8DDE90445CDE906012246D7
:101710002B462046294602F0A7F87DA3D3E90023F3
:1017200004460D4602F0A0F87BA3D3E9002301F0A4
:10173000E9FE22462B4602F097F879A3D3E900236D
:1017400001F0E0FE22462B4602F08EF876A3D3E9A4
:10175000002301F0D7FE22462B4602F085F874A341
:10176000D3E9002301F0CEFE22462B4602F07CF89E
:1017700071A3D3E9002301F0C5FE224606460F46B9
:101780002B462046294602F06FF802460B463046AB
:10179000394602F069F8424604460D464B46DDE9FB
:1017A000040101F0AFFEDDE9062302F05DF82246F8
:1017B0002B4601F0A7FE424606460F464B464046E2
:1017C000494602F051F80022674BCDE90A0101F0C9
:1017D00099FE32463B4601F095FE02980D460446BE
:1017E00022462B464046494602F03EF800228046FB
:1017F00089465D4B2046294601F082FEDDE90A2339
:1018000001F07EFE02460B463046394601F078FE76
:10181000DDE9042302F028F8224606460F462B464F
:10182000DDE9060102F020F802460B463046394653
:1018300001F068FE06460F4602460B464046494602
:10184000CDE9048901F05EFE02983DA3D3E90023AF
:1018500004460D4602F008F8DDE904238046894677
:101860002046294601F04CFE02460B4630463946DA
:1018700001F046FE34A3D3E9002301F0F5FF34A3C1
:10188000D3E9002306460F462046294601F0ECFF27
:1018900002460B463046394601F034FEDDE90E23A0
:1018A00001F030FE06460D980F4601F077FF3246F4
:1018B00004460D463B464046494601F023FEDDE91D
:1018C000082301F01FFE22462B4601F01BFE029862
:1018D00022462B46CDE9020101F012FEDDE9082384
:1018E00001F00EFE42464B4601F00AFE02460B4650
:1018F0003046394601F004FE8046894636E000BF96
:101900000000000000000000000000000000F03FA8
:10191000EF4E454A287ECA3F65DBC9934A86CD3FD4
:1019200001411DA96074D13F4D268F515555D53FBA
:10193000FFAB6FDBB66DDB3F033333333333E33F52
:10194000000000E009C7EE3FFD033ADC09C7EE3FA7
:10195000F5015B14E02F3EBE000040438E9803006B
:1019600079B60B000000F03F000008400BF1FF3398
:1019700053EA0A0300F07B819FEDC97B8DED067B66
:10198000DDE900AB53465C46CDE90034002300930B
:10199000DDE90045504622462B46594601F0B0FD90
:1019A000DDE9022301F060FF524606460F465B4622
:1019B0004046494601F058FF02460B46304639463C
:1019C00001F0A0FD2246804689462B46DDE9020152
:1019D000CDE9048901F048FF0B46024606460F4652
:1019E0004046494601F08EFDC74B994204460D46DC
:1019F0008A4640F3188101F13F4303F5E0030343B6
:101A000040F0FA81A8A3D3E90023DDE9040101F045
:101A100079FD3246804689463B462046294601F0FC
:101A20006FFD02460B464046494602F0ADF90028DC
:101A300040F0E281A8464FEA28534FF48012A3F207
:101A4000FE3342FA03F35344C3F30A52AF4DA2F2FA
:101A5000FF321541C3F3130423EA05010020C2F14C
:101A6000140B44F48014BAF1000F02460B4644FAFA
:101A70000BFB30463946B8BFCBF1000B01F040FDFF
:101A800002460B4606460F46DDE9040101F03AFD29
:101A90004FEA0B5A0D46002485A3D3E900232046C4
:101AA000294601F0E1FE3246804689463B46204603
:101AB000294601F025FD02460B46DDE9040101F04F
:101AC0001FFD7DA3D3E9002301F0CEFE7CA3D3E963
:101AD000002306460F462046294601F0C5FE024671
:101AE0000B463046394601F00DFD06460F460246CC
:101AF0000B464046494601F005FD42464B4604462A
:101B00000D4601F0FDFC02460B463046394601F019
:101B1000F7FC2246804689462B462046294601F09E
:101B2000A3FE69A3D3E9002306460F4601F09CFEFD
:101B300067A3D3E9002301F0E3FC32463B4601F002
:101B400093FE65A3D3E9002301F0DCFC32463B465B
:101B500001F08AFE62A3D3E9002301F0D1FC3246F2
:101B60003B4601F081FE60A3D3E9002301F0CAFCEB
:101B700032463B4601F078FE02460B462046294697
:101B800001F0BEFC06460F4602460B46204629469B
:101B900001F06AFE0022CDE900014FF0804330469B
:101BA000394601F0ADFC02460B46DDE9000101F0CB
:101BB00085FF424606460F464B462046294601F021
:101BC00053FE42464B4601F09DFC02460B46304612
:101BD000394601F095FC22462B4601F091FC024665
:101BE0000B4600204A4901F08BFC8A44BAF5801F5D
:101BF00002460B46C0F23A815146DDE9062301F068
:101C000033FE44E432463B463046394601F02CFE72
:101C10003DE4B9F1000FBFF6D5ACDDE9003418465C
:101C200004F1004133E43B4B21F00048984540F378
:101C30000081394B0B4403430CD132463B4601F043
:101C40005FFC02460B46DDE9040102F089F800283A
:101C50003FF4F1AEDDE9060125A3D3E9002301F04D
:101C600003FE23A3D3E9002301F0FEFD0FE49FED63
:101C7000227B8DED067B83E602460B46002024493D
:101C800001F01CFF25E49FED1E7B8DED087B8DEDA3
:101C90000E7B9FED037B4FF000088DED067BD9E4B2
:101CA000000000000000F03FFE822B654715973CC6
:101CB00000000000432EE63FEF39FAFE422EE63FD9
:101CC000396CA80C615C20BED0A4BE726937663E38
:101CD000F16BD2C541BDBB3E2CDE25AF6A56113F2C
:101CE00093BDBE166CC1663F3E5555555555C53F13
:101CF00059F3F8C21F6EA501000000000000F0BFFC
:101D00000000000000000000FFFF8F40FFFF0F00F9
:101D10000000F03FFFCB904000346F3F6A4B9C4285
:101D20007FF74DAC694B9C423FF7F5AB0022674B08
:101D300001F0E6FB54A3D3E9002304460D4601F06D
:101D400093FD53A3D3E900238046894620462946C4
:101D500001F08AFD0022CDE902015D4B20462946B3
:101D600001F082FD02460B464BA1D1E9000101F0D2
:101D7000C7FB22462B4601F077FD02460B460020AA
:101D8000544901F0BDFB22462B4606460F4620462D
:101D9000294601F069FD02460B463046394601F0FE
:101DA00063FD3FA3D3E9002301F05EFD02460B462D
:101DB000DDE9020101F0A4FB02460B4604460D4694
:101DC0004046494601F09EFB42464B460020CDE985
:101DD000020101F095FB02460B462046294601F020
:101DE0008FFB80468946C1E532463B460020374995
:101DF00001F064FEFFF74BBBDDE906012AA3D3E93E
:101E0000002301F031FD28A3D3E9002301F02CFDCC
:101E1000FFF73DBBBEF1000F7FF446ABC3F11403E7
:101E200048FA03F202FA03F3984527D0F346FFF786
:101E300011BB284B98453FF7FEADDDE900239246E4
:101E4000934628E602460B46FFF7B0BB9FED187B92
:101E50008DED087B9FED187B8DED0E7B9FED187B44
:101E60004FF480288DED067BFFF7F4BB584643EC1A
:101E7000102B01F0ADFA51EC100BBEE602F001029E
:101E8000C2F1020BFFF7E6BA000000604715F73F0A
:101E900044DF5DF80BAE543E555555555555D53F6D
:101EA000FE822B654715F73F9C7500883CE4377E22
:101EB0000000004003B8E23F06D0CF43EBFD4C3EAC
:101EC000000000000000F83FFEFFEF3F0000F03F81
:101ED0000000D03F0000E03F2DE9F04753EC102B0D
:101EE0009D4923F000478F4290B040F391809B4979
:101EF0008F421C46824629DC002C194610EE100A3F
:101F00008BA3D3E9002340F3B18101F0F9FA944B9C
:101F10009F4204460D4600F0918087A3D3E9002339
:101F200001F0EEFA02460B46CAE900232046294694
:101F300001F0E6FA80A3D3E9002301F0E1FA0125DC
:101F4000CAE90201284610B0BDE8F08785498F42F2
:101F500040F3918084498F4265DC3D15A5F216451A
:101F6000A7EB0551104616460F4601F02DFF01F074
:101F700015FC8046894642464B4630463946CDE9F7
:101F80000A8901F0BDFA0022784B01F06DFC894608
:101F9000804601F019FF01F001FC06460F4632466B
:101FA0003B4640464946CDE90C6701F0A9FA0022BC
:101FB0006E4B01F059FC00220023CDE90E0101F027
:101FC000BBFE002800F07081002330463946002215
:101FD00001F0B2FE002814BF01230223644A0192DB
:101FE00002212A4600910AA8514600F0ADFB002CC0
:101FF000054614DADAF80420DAF80C3002F100426F
:1020000003F100434542CAF80420CAF80C3006E048
:1020100080ED000B00250024C0E90245002528467C
:1020200010B0BDE8F08710EE100A194601F068FA0A
:102030000025CAE90201CAE90001F0E740A3D3E99B
:10204000002301F05DFA40A3D3E900230D460446C6
:1020500001F056FA02460B46CAE9002329462046FB
:1020600001F04EFA38A3D3E9002301F049FA012523
:10207000CAE90201D3E701F069F859EC108B10EEC0
:10208000100A33A3D3E90023494601F0EDFB0022F7
:10209000384B01F037FA01F097FE054601F07EFB60
:1020A00023A3D3E90023CDE9060101F0DDFB0246BD
:1020B0000B464046494601F023FA1FA3D3E900230B
:1020C000CDE90201DDE9060101F0CEFB1F2D8046BE
:1020D0008946CDE9048951DC274B6A1E53F822302A
:1020E0009F424BD002460B46DDE9020101F008FA9F
:1020F00080468946CAE9008942464B46DDE902012D
:1021000001F0FEF9DDE9042301F0FAF9002CCAE937
:10211000020184DA09F1004401F100436D42CAF87A
:102120000080CAF80440CAF80800CAF80C3076E704
:1021300000004054FB21F93F3163621A61B4D03D85
:102140000000601A61B4D03D7370032E8A19A33B5E
:1021500083C8C96D305FE43FFB21E93F7BD9024072
:10216000FB21F93FFB213941FFFFEF7F0000704168
:10217000788F40000000E03FF88E4000DDE9042346
:10218000DDE9020101F0BCF93F15C1F30A53FB1A66
:1021900080468946102BCAE90089ADDD58A3D3E9F2
:1021A0000023DDE9060101F05FFB80468946024617
:1021B0000B46DDE9020101F0A3F902460B46DDE919
:1021C0000201CDE9082301F09BF942464B4601F09C
:1021D00097F94DA3D3E9002380468946DDE906013E
:1021E00001F042FB42464B4601F08AF90B46CDE92D
:1021F00004010246DDE9080101F082F9C1F30A5346
:10220000FF1A80468946312FCAE900896CDD41A357
:10221000D3E90023DDE9060101F026FBDDE90889A9
:1022200006460F4602460B464046494601F068F90D
:1022300002460B4640464946CDE9022301F060F9CB
:1022400032463B4601F05CF934A3D3E9002306464D
:102250000F46DDE9060101F007FB32463B4601F07F
:102260004FF902460B46CDE904233DE701F04AF958
:10227000274B9F4204460D4618D01FA3D3E90023E5
:1022800001F040F902460B46CAE9002329462046E0
:1022900001F036F918A3D3E9002301F033F94FF028
:1022A000FF35CAE90201BAE6032397E614A3D3E98E
:1022B000002301F027F914A3D3E900230D460446B7
:1022C00001F020F902460B46CAE9002329462046C0
:1022D00001F016F90CA3D3E9002301F013F94FF034
:1022E000FF35CAE902019AE69DED087B8DED027B80
:1022F00002E700BFAFF300803163621A61B4D03DE2
:102300000000601A61B4D03D7370032E8A19A33B9C
:10231000FB21F93F0000002E8A19A33BC14920256B
:102320009A837B392DE9F041634855EC104BA84363
:1023300000F09580002D2B4610EE102A70DD2F1531
:102340007DD0A7F2FF37C3F31303F90743F48013DB
:1023500061D403EBD27100260B447F105200B646C5
:1023600016204FF400110EEB01049C424FEAD27587
:102370004FEA420203DC1B1B04EB010E0E44013842
:1023800005EB43034FEA5101EDD1844620244FF081
:10239000004109E020D003EBD275013C4FEA510126
:1023A0002B444FEA420220D0734501EB0C05F1DDCE
:1023B000002D05EB010C09DBF0469542A3EB0E0363
:1023C00000D9013B521B0844C646E4E7BCF1000FAC
:1023D000F2DB0EF10108F0E79542DCD8002D05EBA9
:1023E000010C4EDB98460023ECE7134302D0421C5D
:1023F0004BD0013040087110F30701F17F5101F516
:10240000001148BF40F0004001EB0753024643EC87
:10241000102BBDE8F0815B0003EBD273520098E70C
:1024200010EE101A25F00040014328D0ADBB2F4616
:10243000D30A153F5205002BFAD0DE0228D400241F
:1024400000E004465B00DD0204F10100F9D5C0F1B3
:10245000200122FA01F10B433F1B824071E710EE8D
:10246000102A2B4610EE100A294601F0FDF92246EB
:102470002B4601F047F841EC100BBDE8F081BDE8B8
:10248000F081BCF1000FA4DAACE701362046B2E7D8
:10249000002020214FF0FF34DBE710EE102A2B46FE
:1024A0002046294601F02CF802460B4601F006FBB7
:1024B00041EC100BBDE8F0810000F07F000000004F
:1024C0002DE9F04F57EC106B2DED028BB0EE418AE9
:1024D000F0EE618A27F00049B9F1795F83B072DAD2
:1024E00010EE100A394601F06FFC002800F0F6806B
:1024F00032463B463046394601F0B6F97CA3D3E973
:10250000002304460D4601F0AFF97BA3D3E9002375
:1025100000F0F8FF22462B4601F0A6F978A3D3E994
:10252000002300F0EDFF22462B4601F09DF976A333
:10253000D3E9002300F0E6FF22462B4601F094F990
:1025400073A3D3E9002300F0DBFF22462B4601F002
:102550008BF971A3D3E9002300F0D4FF22462B4668
:1025600001F082F982468B460022714B20462946B3
:1025700001F07AF95246804689465B462046294654
:1025800001F072F953EC182B04460D4630463946DB
:1025900001F06AF902460B462046294600F0B0FFDA
:1025A00002460B464046494600F0AAFF02460B464B
:1025B0000020604900F0A4FF41EC100B03B0BDEC1B
:1025C000028BBDE8F08F10EE102A10EE100A3B4689
:1025D000394601F049F946A3D3E9002304460D46E4
:1025E00001F042F944A3D3E9002300F08BFF224617
:1025F0002B4601F039F942A3D3E9002300F080FF14
:1026000022462B4601F030F93FA3D3E9002300F026
:1026100079FF22462B4601F027F93DA3D3E9002399
:1026200000F06EFF22462B4601F01EF93AA3D3E9D3
:10263000002300F067FF2B46224601F015F93E4BC0
:10264000994582468B468FDD3C4B99453DDC002207
:10265000A9F50013002037499046994600F050FF35
:10266000CDE900010022324B2046294601F0FCF85A
:1026700042464B4600F044FF5246804689465B4640
:102680002046294601F0F0F853EC182B04460D467D
:102690003046394601F0E8F802460B462046294606
:1026A00000F02EFF02460B464046494600F028FF48
:1026B00002460B46DDE9000100F022FF41EC100B61
:1026C00003B0BDEC028BBDE8F08F9FED157B4FF0A2
:1026D00000088DED007BDFF86890C3E79FED120BDB
:1026E00003B0BDEC028BBDE8F08F00BFAFF30080FC
:1026F000D43888BEE9FAA8BDC4B1B4BD9EEE213E6F
:10270000AD529C804F7E923E9015CB19A001FA3EAF
:102710007751C1166CC1563F4C5555555555A53F7F
:10272000000000000000E73F000000000000F03F54
:102730000000E03F0000F03F3233D33F0000E93FAC
:102740000000D23F000000002DE9F04FADF51B7DE9
:10275000A34CA49EA34D54F8264007942646D41EAD
:1027600085FB0475E417C4EBA50424EAE4741D4654
:102770000A93631CA3EB8303013D02EBC30306939F
:102780002B460B940395651BF418049008911AD4FA
:102790002C440026002701340DF18808DDF89492BE
:1027A00008E059F8250000F0F9FF0135A542E8E8F6
:1027B000020108D0002DF4DA013530463946A54231
:1027C000E8E80201F6D1079B002BC0F2EB83079BE0
:1027D00003F1010B0A9B22A9DB001A4601EB030956
:1027E0000093049B0DF5E47A19460AEBCB0B01EB41
:1027F0000208039B002BC0F20183049C4D46002677
:10280000002775E90223F4E8020101F02DF80246E1
:102810000B463046394600F075FE444506460F46E5
:10282000EFD1EAE80267DA4509F10809E1D1079931
:102830000098049C009101F18043013B9B002044DF
:102840001A1F83460EA8024403440C920D93009A6B
:102850009AA901EBC203002A53E9284529DD0DF5A9
:10286000E47A0AEBC2080DF1340900225E4B2046DF
:10287000294600F0F9FF01F0A7FA00F08FFF0022CF
:102880005A4B06460F4600F0EFFF02460B46204625
:10289000294600F035FE01F097FA78E9022349F85D
:1028A000040F3946304600F02DFED04504460D4653
:1028B000DBD1DDF8189045EC104B484600F088FD60
:1028C00055EC104B00224FF07F5310EE100A2946B2
:1028D00000F0CAFF41EC100B00F04AFC002251EC62
:1028E000100B434B00F0C0FF02460B462046294622
:1028F00000F006FE0D46044601F066FA804600F040
:102900004DFF0B4602462946204600F0F9FD4B4696
:10291000002B06460F4640F3FA80009A0EA9013AB2
:10292000C9F1180351F8225045FA03F101FA03F3F3
:102930000EA8EB1A40F82230C9F11705884443FA73
:1029400005F5002D6EDD009B002B08F1010840F31A
:1029500074820E9C002C40F01B83009B012B40F3E3
:1029600094820EAA012352F8044F002C00F08882B2
:10297000581C0EAAC4F1807442F82340009A824287
:1029800019DD0EAA0EAC52F820106FF07F42511ADA
:1029900044F820100099023399420CDD1046009A49
:1029A0000EA901EB830301EB82011A68821A43F836
:1029B000042B8B42F9D1069B002B1BDD069B012BC0
:1029C0004FF0010440F04182009B5A1E0EAB0EA94D
:1029D00053F82230C3F3160341F8223041E200BF1E
:1029E000C0904000ABAAAA2A0000703E00007041CF
:1029F00000002040022D15D132463B46002094496C
:102A000000F07EFD06460F4606989FED8D0B00F008
:102A1000DFFC3046394653EC102B00F071FD0225E7
:102A200006460F46002200233046394601F084F95D
:102A3000002800F03B82009A079B501E83420FDC67
:102A400002F18043013B0EAA0D9C02EB830300229E
:102A500053F80419A34242EA0102F9D1002A67D1CE
:102A6000079B0EAA013B52F82330002B40F01C823A
:102A70000C9A012352F8041901330029FAD0009A64
:102A8000D31802F1010A9A4509933DDC009B0A998B
:102A90000B9A0B4409990AEB0208994622AB08F1FC
:102AA000804803EBC9098B18A59A08F1FF3802EB9F
:102AB000880872AA02EBCA0AA59A02EB8303009364
:102AC00058F8040F00F06AFE039B002BE9E80201AE
:102AD0004FF000064FF0000711DB049C4D4675E9EE
:102AE0000223F4E8020100F0BFFE02460B46304626
:102AF000394600F007FD5C4506460F46EFD1009BC6
:102B00009845EAE80267DBD1099B00939FE606D16E
:102B1000009B0EAA013B52F82350ED1511E700224D
:102B20004C4B01F027F9002840F07281054679E707
:102B30000EA9039551F820300699CDF82480183954
:102B40000246009006916BB900F18043013B0EA84C
:102B500000EB830353F80409013A18390028F9D02F
:102B60000092069106989FED360B00F031FC009B19
:102B7000002B55EC104BC0F2FC81DA0072A901EB7E
:102B8000020B06920EAA02EB8306DFF8CC904FF000
:102B900000080BF10807043656F8040D00F0FEFD9E
:102BA00022462B4600F060FE4B4667E90201424692
:102BB0002046294600F058FE0EAB9E4204460D46C4
:102BC000EAD14AACDDF81C9004944FF0000AB9F148
:102BD000000FC0F22F81DFF884805D461AA1D1E991
:102BE000000100260027002403E0544510DCF8E82B
:102BF0000201F5E8022300F037FE02460B4630469C
:102C0000394600F07FFC0134A14506460F46ECDA58
:102C1000049B03EBCA03ABF1080BC3E9006770AB7D
:102C20009B450AF1010AD2D1A49B049C032B00F21C
:102C30008D80DFE813F0C90092009200150000BFFC
:102C4000000000000000F03F00000040FB21F93FC1
:102C50000000F03F0000E03F0000703E8890400020
:102C6000009B002B40F38281069A04EB020ADAE90A
:102C7000008902F1080525440DF5987B1AED027BC9
:102C800042464B4651EC170B8DED047B00F03AFCAD
:102C900006460F4602460B46DDE9040100F030FC13
:102CA00042464B4600F02EFC65E902015D45B04608
:102CB000B9466AE90267E1D1009B012B40F35681D6
:102CC000069BE518D5E9008903F1080B04EB0B0A14
:102CD00015ED027B42464B4651EC170B8DED007B08
:102CE00000F010FC06460F4602460B46DDE90001E7
:102CF00000F006FC4B46424600F004FC6AE9020183
:102D00004EAB5345B046B94665E90267E0D10020B5
:102D1000002104EB0B0575E9022300F0F3FBAA4543
:102D2000F9D1039B002B00F00B816268E368089FD8
:102D30002568A4683D6002F1004203F1004301F1FF
:102D400000417A60FB60BC6038617961099B03F0E7
:102D500007000DF51B7DBDE8F08F069D0835254465
:102D60000020002175E9022300F0CCFBA542F9D137
:102D7000039B002B00F0D380089E024601F1004324
:102D800086E80C000B460246D4E9000100F0B8FBCF
:102D9000009B002B0BDD4CAD0124F5E8022300F075
:102DA000B1FB009B0134A342F7DA039B13B101F19D
:102DB00000431946089BC3E90201099B03F0070081
:102DC0000DF51B7DBDE8F08F069D08350020002124
:102DD000254475E9022300F095FBAC42F9D1039B31
:102DE00013B101F100431946089BC3E90001099B97
:102DF00003F007000DF51B7DBDE8F08F00260027CE
:102E0000EAE80267DA4509F108097FF4F2AC0EE559
:102E1000009B002B08F10108C8BF02253FF799ADC0
:102E200032463B460020614900F06AFB0225064617
:102E30000F46F7E500260027EAE6069B002B27DD74
:102E40000024069B012B3FF4BFAD022B09D1009B50
:102E50005A1E0EAB0EA953F82230C3F3150341F8E6
:102E60002230022D7FF4DEAD32463B4600204F4932
:102E700000F046FB06460F46002C3FF4D3ADC3E5F9
:102E80000099013399427FF46EAD069B002BD8DC8C
:102E9000022D7FF4C7AD32463B460020434900F087
:102EA0002FFB06460F46BDE50123E8E5069B03958B
:102EB000584247EC106BCDF8248000F089FA55ECAD
:102EC000104B00223A4B10EE100A294600F052FF38
:102ED000002841D00022374B2046294600F0C4FC90
:102EE00000F072FF064600F059FC0022304B00F063
:102EF000BBFC02460B462046294600F001FB00F0D1
:102F000063FF0099069B0A461833013206930B466D
:102F10000EA9009241F8230041F8226022E6089BA6
:102F20000246C3E900010B46D4E9000100F0E8FACB
:102F3000009B002B3FF72FAF089BC3E902013CE742
:102F4000D4E90067D4E90223089DC5E90401C5E975
:102F50000067C5E90223F9E62946204600F034FF60
:102F6000009A0EA941F82200FCE54AAC002000219D
:102F7000D7E6A49B032B3FF6E9AE01A252F823F05B
:102F80009F2F4000972F4000972F40006B2F40004D
:102F900001200023EDE4002000214AACE8E60020F7
:102FA00000211CE70A9BDB00009340E40000F03F97
:102FB000000070410000703E2DE9F04F55EC104BC1
:102FC0002DED028BB0EE418AF0EE618A25F00043D0
:102FD000B3F1795F83B0824607DA10EE100A294612
:102FE00000F0F2FE002800F08E8022462B4620469C
:102FF000294600F039FC06460F4602460B4620469D
:10300000294600F031FC47A3D3E9002380468946D6
:103010003046394600F028FC44A3D3E9002300F0F1
:103020006FFA32463B4600F01FFC42A3D3E900236F
:1030300000F068FA32463B4600F016FC3FA3D3E9A5
:10304000002300F05DFA32463B4600F00DFC3DA344
:10305000D3E9002300F056FACDE90001BAF1000FE0
:1030600037D000222E4B51EC180B00F0FDFBDDE9B0
:10307000002382468B464046494600F0F5FB024657
:103080000B465046594600F03BFA32463B4600F0AC
:10309000EBFB53EC182B00F033FA1FA3D3E900230A
:1030A00006460F464046494600F0DEFB02460B4608
:1030B0003046394600F026FA02460B46204629469D
:1030C00000F01EFA41EC100B03B0BDEC028BBDE822
:1030D000F08F02460B463046394600F0C5FB0EA382
:1030E000D3E9002300F00CFA42464B4600F0BCFB4B
:1030F00022462B4600F006FA41EC100B03B0BDEC63
:10310000028BBDE8F08F45EC104B03B0BDEC028B99
:10311000BDE8F08FAFF30080495555555555C53F73
:103120000000E03F7CD5CF5A3AD9E53DEB9C2B8A95
:10313000E6E55A3E7DFEB157E31DC73ED561C11994
:10314000A0012A3FA6F810111111813F53EC102B5A
:1031500023F0004343EC102B704700BF10EE903A71
:1031600043F0004000F58010C00F704700000000E1
:1031700051EC100BC1F30A532DE9F041A3F2FF35D6
:10318000132D0C460F4610EE106A1DDC002D43DB9C
:103190003D4B43FA05F801EA0803034319D038A36D
:1031A000D3E9002300F0AEF90022002300F0ECFD8B
:1031B00020B1002C49DB27EA0804002623463246CA
:1031C00043EC102BBDE8F081332D06DDB5F5806FA3
:1031D00032D041EC100BBDE8F081A3F213434FF065
:1031E000FF3828FA03F810EA080FF2D024A3D3E935
:1031F000002300F087F90022002300F0C5FD00281D
:10320000DCD0002C27DB3C4626EA08062346324663
:1032100043EC102BBDE8F08119A3D3E9002300F0A3
:1032200071F90022002300F0AFFD0028C6D0002C69
:103230001CDB00263446C1E710EE102A0B4600F0D6
:1032400061F941EC100BBDE8F0814FF4801343FAB3
:1032500005F52F44AFE7142D10D00123C5F1340537
:1032600003FA05F5AE1928BFFF18CCE724F0004299
:10327000064B324318BF1C4600269FE70137C2E7C2
:103280009C7500883CE4377EFFFF0F000000F0BF14
:1032900000207047000000009FED010B704700BF49
:1032A000000000000000F87FF0B553EC102BC3F3D2
:1032B0000A56A6F2FF30132883B019464FEAD3749A
:1032C00010EE105A2FDC002849DB3E4E064103EA7F
:1032D000060717432CD0760833401D430CD04FF41B
:1032E0008023132821EA060643FA00F141EA060189
:1032F0000CBF4FF000450025334800EBC4042A46BC
:10330000D4E9004510462B46224600F0FBF8CDE9F3
:10331000000122462B46DDE9000100F0F1F841EC06
:10332000100B03B0F0BD332806DDB0F5806F40D040
:1033300043EC102B03B0F0BDA6F213464FF0FF3064
:10334000F0400242F4D040080242D5D04FF0804312
:1033500025EA000043FA06F646EA0005CCE723F02A
:1033600000401043E4D0C3F3130010434742074327
:10337000154D5E0C3F0B07F40023760405EBC402E9
:1033800043EA0601D2E9006710EE100A32463B46D6
:1033900000F0B8F8CDE900013B463246DDE9000116
:1033A00000F0AEF821F0004343EAC47141EC100B89
:1033B000C0E710EE100A194600F0A4F841EC100B1B
:1033C000B8E700BFFFFF0F00D090400000000000F2
:1033D00053EC102B70B5C3F30A541946054614BBC1
:1033E00023F0004111432AD019460022384B394EB0
:1033F00010EE100A00F038FAB54202460B461FDB09
:10340000C1F30A54363C2C4440F2FE7084421FDC67
:10341000002C2DDD21F0FF4121F4E00141EA0453AD
:1034200043EC102B70BD40F2FF708442EBD110EEE4
:10343000100A194600F066F841EC100B70BD70BD23
:103440001FA3D3E9002300F00FFA41EC100B70BD6D
:1034500043EC112B9FED1C0B00F040F81AA3D3E9AD
:10346000002351EC100B00F0FFF941EC100B70BD84
:1034700014F1350F13DA4CF250318D4243EC112B1D
:10348000E8DC9FED0F0B00F029F80DA3D3E9002332
:1034900051EC100B00F0E8F941EC100B70BD21F07D
:1034A000FF4121F4E001363441EA04531046194645
:1034B0000022094B00F0D8F941EC100B70BD00BFA1
:1034C00059F3F8C21F6EA5019C7500883CE4377E55
:1034D00000005043B03CFFFF0000903C53EC102B29
:1034E00011EE900A23F0004100F0004041EA000391
:1034F00043EC102B704700BF81F0004102E000BF99
:1035000083F0004330B54FEA41044FEA430594EAA3
:10351000050F08BF90EA020F1FBF54EA000C55EADE
:10352000020C7FEA645C7FEA655C00F0E2804FEAAF
:103530005454D4EB5555B8BF6D420CDD2C4480EA91
:10354000020281EA030382EA000083EA010180EAC1
:10355000020281EA0303362D88BF30BD11F0004F0F
:103560004FEA01314FF4801C4CEA113102D0404245
:1035700061EB410113F0004F4FEA03334CEA133380
:1035800002D0524263EB430394EA050F00F0A78098
:10359000A4F10104D5F1200E0DDB02FA0EFC22FA93
:1035A00005F2801841F1000103FA0EF2801843FA87
:1035B00005F359410EE0A5F120050EF1200E012A78
:1035C00003FA0EFC28BF4CF0020C43FA05F3C018B6
:1035D00051EBE37101F0004507D54FF0000EDCF12F
:1035E000000C7EEB00006EEB0101B1F5801F1BD3D8
:1035F000B1F5001F0CD349085FEA30004FEA3C0CDC
:1036000004F101044FEA445212F5800F80F09A80D1
:10361000BCF1004F08BF5FEA500C50F1000041EBD5
:10362000045141EA050130BD5FEA4C0C404141EBD9
:10363000010111F4801FA4F10104E9D191F0000F00
:1036400004BF01460020B1FA81F308BF2033A3F183
:103650000B03B3F120020CDA0C3208DD02F1140C7A
:10366000C2F10C0201FA0CF021FA02F10CE002F1B5
:103670001402D8BFC2F1200C01FA02F120FA0CFCAE
:10368000DCBF41EA0C019040E41AA2BF01EB0451F7
:10369000294330BD6FEA04041F3C1CDA0C340EDCF5
:1036A00004F11404C4F1200220FA04F001FA02F338
:1036B00040EA030021FA04F345EA030130BDC4F1F6
:1036C0000C04C4F1200220FA02F001FA04F340EAEB
:1036D0000300294630BD21FA04F0294630BD94F09C
:1036E000000F83F4801306BF81F480110134013D83
:1036F0004EE77FEA645C18BF7FEA655C29D094EAF4
:10370000050F08BF90EA020F05D054EA000C04BF71
:103710001946104630BD91EA030F1EBF002100205C
:1037200030BD5FEA545C05D14000494128BF41F0FB
:10373000004130BD14F580043CBF01F5801130BD5F
:1037400001F0004545F0FE4141F470014FF00000EA
:1037500030BD7FEA645C1ABF194610467FEA655C9B
:103760001CBF0B46024650EA013406BF52EA03353D
:1037700091EA030F41F4002130BD00BF90F0000F2B
:1037800004BF0021704730B54FF4806404F1320467
:103790004FF000054FF0000150E700BF90F0000F20
:1037A00004BF0021704730B54FF4806404F1320447
:1037B00010F0004548BF40424FF000013EE700BF17
:1037C00042004FEAE2014FEA31014FEA02701FBFA7
:1037D00012F07F4393F07F4F81F06051704792F079
:1037E000000F14BF93F07F4F704730B54FF46074F3
:1037F00001F0004521F0004120E700BF50EA01023E
:1038000008BF704730B54FF000050AE050EA0102EA
:1038100008BF704730B511F0004502D5404261EB5A
:1038200041014FF4806404F132045FEA915C3FF49B
:10383000DCAE4FF003025FEADC0C18BF03325FEA34
:10384000DC0C18BF033202EBDC02C2F1200300FAE9
:1038500003FC20FA02F001FA03FE40EA0E0021FA0E
:1038600002F11444C1E600BF70B54FF0FF0C4CF4F8
:10387000E06C1CEA11541DBF1CEA135594EA0C0FAE
:1038800095EA0C0F00F0DEF82C4481EA030621EAE9
:103890004C5123EA4C5350EA013518BF52EA033524
:1038A00041F4801143F4801338D0A0FB02CE4FF0D6
:1038B0000005E1FB02E506F00042E0FB03E54FF006
:1038C0000006E1FB03569CF0000F18BF4EF0010EFE
:1038D000A4F1FF04B6F5007F64F5407404D25FEAFA
:1038E0004E0E6D4146EB060642EAC62141EA5551AD
:1038F0004FEAC52040EA5E504FEACE2EB4F1FD0CEF
:1039000088BFBCF5E06F1ED8BEF1004F08BF5FEA6C
:10391000500E50F1000041EB045170BD06F000461E
:1039200046EA010140EA020081EA0301B4EB5C04CB
:10393000C2BFD4EB0C0541EA045170BD41F48011C3
:103940004FF0000E013C00F3AB8014F1360FDEBFE8
:10395000002001F0004170BDC4F10004203C35DAC4
:103960000C341BDC04F11404C4F1200500FA05F347
:1039700020FA04F001FA05F240EA020001F00042E8
:1039800021F0004110EBD37021FA04F642EB06015E
:103990005EEA430E08BF20EAD37070BDC4F10C0488
:1039A000C4F1200500FA04F320FA05F001FA04F24C
:1039B00040EA020001F0004110EBD37041F1000138
:1039C0005EEA430E08BF20EAD37070BDC4F1200543
:1039D00000FA05F24EEA020E20FA04F301FA05F2AB
:1039E00043EA020321FA04F001F0004121FA04F253
:1039F00020EA020000EBD3705EEA430E08BF20EA23
:103A0000D37070BD94F0000F0FD101F0004640005C
:103A100041EB010111F4801F08BF013CF7D041EADE
:103A2000060195F0000F18BF704703F000465200E2
:103A300043EB030313F4801F08BF013DF7D043EAB3
:103A40000603704794EA0C0F0CEA135518BF95EA69
:103A50000C0F0CD050EA410618BF52EA4306D1D1F0
:103A600081EA030101F000414FF0000070BD50EA0F
:103A7000410606BF1046194652EA430619D094EA99
:103A80000C0F02D150EA013613D195EA0C0F05D183
:103A900052EA03361CBF104619460AD181EA0301D7
:103AA00001F0004141F0FE4141F470014FF000008F
:103AB00070BD41F0FE4141F4780170BD70B54FF02A
:103AC000FF0C4CF4E06C1CEA11541DBF1CEA1355AA
:103AD00094EA0C0F95EA0C0F00F0A7F8A4EB05048C
:103AE00081EA030E52EA03354FEA013100F0888083
:103AF0004FEA03334FF0805545EA131343EA12634C
:103B00004FEA022245EA111545EA10654FEA002600
:103B10000EF000419D4208BF964244F1FD0404F5B9
:103B2000407402D25B084FEA3202B61A65EB030515
:103B30005B084FEA32024FF480104FF4002CB6EBD2
:103B4000020E75EB030E22BFB61A754640EA0C0052
:103B50005B084FEA3202B6EB020E75EB030E22BF92
:103B6000B61A754640EA5C005B084FEA3202B6EBD3
:103B7000020E75EB030E22BFB61A754640EA9C0092
:103B80005B084FEA3202B6EB020E75EB030E22BF62
:103B9000B61A754640EADC0055EA060E18D04FEA20
:103BA000051545EA16754FEA06164FEAC30343EAC0
:103BB00052734FEAC2025FEA1C1CC0D111F4801F8D
:103BC0000BD141EA00014FF000004FF0004CB6E786
:103BD00011F4801F04BF01430020B4F1FD0C88BF25
:103BE000BCF5E06F3FF6AFAEB5EB030C04BFB6EB30
:103BF000020C5FEA500C50F1000041EB045170BD23
:103C00000EF0004E4EEA113114EB5C04C2BFD4EB4F
:103C10000C0541EA045170BD41F480114FF0000ED3
:103C2000013C90E645EA060E8DE60CEA135594EA4F
:103C30000C0F08BF95EA0C0F3FF43BAF94EA0C0F52
:103C40000AD150EA01347FF434AF95EA0C0F7FF4C7
:103C500025AF104619462CE795EA0C0F06D152EA1B
:103C600003353FF4FDAE1046194622E750EA4106FF
:103C700018BF52EA43067FF4C5AE50EA41047FF410
:103C80000DAF52EA43057FF4EBAE12E74FF0FF3C75
:103C900006E000BF4FF0010C02E000BF4FF0010C46
:103CA0004DF804CD4FEA410C7FEA6C5C4FEA430CBF
:103CB00018BF7FEA6C5C1BD001B050EA410C0CBF0E
:103CC00052EA430C91EA030F02BF90EA020F002070
:103CD000704710F1000F91EA030F58BF994208BFD7
:103CE00090422CBFD8176FEAE37040F00100704794
:103CF0004FEA410C7FEA6C5C02D150EA013C07D1EB
:103D00004FEA430C7FEA6C5CD6D152EA033CD3D035
:103D10005DF8040B704700BF8446104662468C462F
:103D20001946634600E000BF01B5FFF7B7FF002862
:103D300048BF10F1000F01BD4DF808EDFFF7F4FF8B
:103D40000CBF012000205DF808FB00BF4DF808ED16
:103D5000FFF7EAFF34BF012000205DF808FB00BF39
:103D60004DF808EDFFF7E0FF94BF012000205DF85B
:103D700008FB00BF4DF808EDFFF7CEFF94BF012010
:103D800000205DF808FB00BF4DF808EDFFF7C4FF09
:103D900034BF012000205DF808FB00BF4FEA410C52
:103DA0007FEA6C5C02D150EA013C0AD14FEA430C35
:103DB0007FEA6C5C02D152EA033C02D14FF0000072
:103DC00070474FF0010070474FEA410212F50012B0
:103DD00015D211D56FF47873B3EB625212D94FEA52
:103DE000C12343F0004343EA505311F0004F23FA3C
:103DF00002F018BF404270474FF00000704750EA91
:103E0000013005D111F0004008BF6FF0004070474D
:103E10004FF00000704700BF4FEA4102B2F1E043AB
:103E200024BFB3F5001CDCF1FE5C0DD901F0004CA1
:103E30004FEAC0024CEA5070B2F1004F40EB8300F1
:103E400008BF20F00100704711F0804F21D113F11D
:103E50003872BCBF01F00040704741F480114FEA56
:103E60005252C2F11802C2F1200C10FA0CF320FADF
:103E700002F018BF40F001004FEAC1234FEAD323FC
:103E800003FA0CFC40EA0C0023FA02F34FEA430366
:103E9000CCE77FEA625307D150EA01331EBF4FF0EF
:103EA000FE4040F44000704701F0004040F0FE400A
:103EB00040F40000704700BF014B1868704700BF16
:103EC0004400002070B50F4E0F4D761BB61018BF82
:103ED000002405D0013455F8043B9847A642F9D197
:103EE0000A4E0B4D761B05F03FFAB61018BF0024A2
:103EF00006D0013455F8043B9847A642F9D170BD6D
:103F000070BD00BF74934000749340007C934000E8
:103F10007493400070B4860746D0541E002A41D0E6
:103F2000CAB2034602E014F1FF343BD303F8012B7D
:103F30009D07F8D1032C2ED9CDB245EA05250F2CCB
:103F400045EA054519D903F110022646103E0F2E09
:103F500042F8105C42F80C5C42F8085C42F8045CE1
:103F600002F11002F2D8A4F1100222F00F0204F0C4
:103F70000F041032032C13440DD91E462246043A76
:103F8000032A46F8045BFAD8221F22F00302043207
:103F9000134404F003042CB1C9B21C4403F8011B00
:103FA0009C42FBD170BC704714460346C2E700BF79
:103FB0000FB400B5074983B004AB086853F8042B6D
:103FC0008168019300F0ACF903B05DF804EB04B034
:103FD000704700BF44000020F0B5054689B0084690
:103FE0000C4600F02DF9AB6B214F04940126441CC4
:103FF00004A9022203940590AC68069707960191E4
:10400000029253B3636E13F0010FB4F90C309AB2FD
:1040100001D1900525D5910406D4626E43F4005376
:1040200022F40052A3816266284601AA214602F0CA
:104030002DFF636E00280CBF0A254FF0FF35DA070D
:1040400002D4A3899B0502D5284609B0F0BDA06D16
:1040500003F0D2F8284609B0F0BD284602F08EFDE4
:10406000D0E7A06D03F0C6F8B4F90C309AB2D2E7ED
:104070002C8E4000024B01461868FFF7ADBF00BF11
:104080004400002000290CBF022200224FF480636C
:1040900000F000B82DE9F043614C256883B0044678
:1040A0000F4690461E4615B1AB6B002B64D0B8F19D
:1040B000020F06D0B8F1010F00F29F80002EC0F26F
:1040C0009C80636ED80734D52146284602F0FEFC5A
:1040D000216B41B104F14003994202D0284602F01D
:1040E000EFFD00232363B4F90C300022A26162606B
:1040F0001A063AD423F44A6323F00303B8F1020FFB
:10410000A3811DD001AB6A462146284603F076F80C
:10411000A3891843A081002E32D1009E304603F0BF
:10412000E5F8074600286BD0A38943F08003A381FC
:1041300028E0A3899905C7D4A06D03F05BF8C3E715
:104140000025616E002604F1430243F002030120C2
:10415000A660CE07A38122602261606101D4980528
:104160003ED5284603B0BDE8F0832169284602F019
:10417000A7FDB4F90C30BDE7284602F0FFFC96E736
:10418000002FCBD0AB6B002B33D0009BB4F90C20AD
:1041900027609E421CBF42F40062A281B8F1010F69
:1041A00004BF42F00102A28192B212F0080327611B
:1041B00066610ED0D1071AD5656E7642002315F0E0
:1041C0000105A661A36009D00025284603B0BDE81B
:1041D000F083A360656E15F00105F5D19305C0D499
:1041E000A06D03F009F8284603B0BDE8F083A6608F
:1041F000F0E7284602F0C2FCC7E74FF0FF35B0E712
:10420000DDF80090B14504D0484603F06FF807464A
:1042100020B9B4F90C304FF0FF3592E74E4683E7F2
:10422000440000200000000000000000000000002A
:10423000000000000000000000000000000000007E
:1042400090F800F06DE9024520F007016FF0000CD6
:1042500010F0070491F820F040F049804FF000047E
:104260006FF00700D1E9002391F840F000F1080059
:1042700082FA4CF2A4FA8CF283FA4CF3A2FA8CF391
:104280004BBBD1E9022382FA4CF200F10800A4FAF8
:104290008CF283FA4CF3A2FA8CF3E3B9D1E904234C
:1042A00082FA4CF200F10800A4FA8CF283FA4CF383
:1042B000A2FA8CF37BB9D1E9062301F1200182FA3D
:1042C0004CF200F10800A4FA8CF283FA4CF3A2FA43
:1042D0008CF3002BC6D0002A04BF04301A4612BA51
:1042E000B2FA82F2FDE8024500EBD2007047D1E954
:1042F000002304F00305C4F100004FEAC50514F0E3
:10430000040F91F840F00CFA05F562EA05021CBFB3
:1043100063EA050362464FF00004A9E700000000CD
:104320002DE9F04FBFB01D468A46914604460490E1
:1043300002F04EFF036811931846FFF781FF0A95BC
:1043400010901CB1A36B002B00F06282DAF864308D
:10435000BAF90C2013F0010F93B202D1990540F184
:1043600078829F040AD4DAF8641042F4005321F4EE
:104370000051AAF80C30CAF864109BB21E0740F135
:104380002682DAF81020002A00F0218203F01A02B7
:104390000A2A00F041829FED8E7B00238DED0E7B7B
:1043A0000D93239322931293139307932EAB219390
:1043B0009846CDF818A099F800304C46EBB1252B63
:1043C00002D11AE0252B03D014F8013F002BF9D1BC
:1043D000A4EB09058DB1229B239AC8F80090013304
:1043E0002A44072BC8F804502392229300F3058235
:1043F00008F10808079B2B4407932378002B00F053
:10440000FE8300231A468DF86730194608939B46B1
:1044100066784FF0FF3304F10109059309F10109B2
:10442000A6F12003582B00F2CD83DFE813F0E5025C
:10443000CB03CB035403CB03CB03CB03CB03CB0383
:10444000CB0359030D03CB031E02ED02CB0308037C
:104450003F033F033F033F033F033F033F033F034C
:104460003F03CB03CB03CB03CB03CB03CB03CB0368
:10447000CB03CB03CB034E036703CB036703CB0311
:10448000CB03CB03CB03B003CB03CB036F00CB0336
:10449000CB03CB03CB03CB035900CB03CB032303C9
:1044A000CB03CB03CB03CB03CB03CB03CB03CB039C
:1044B000CB03CB0329037802670367036703BC02BE
:1044C0007802CB03CB03C102CB03CE0271001203EF
:1044D0004B02CB035702CB035B00CB03CB0323027E
:1044E0004BF0100B1BF0200F40F061830A9A1BF079
:1044F000100F134640F0CA851BF0400F00F0C68530
:1045000014880432002501230A9214E04BF0100BAA
:104510001BF0200340F040831BF0100240F0A58503
:104520001BF0400300F0A1850A9913460A460432A5
:104530000C880A9200254FF0000A8DF867A00599B3
:104540004A1C00F010822BF08002029254EA05020D
:1045500040F00F82002940F07C84002B40F03A8527
:104560001BF00103099300F076863EAF302307F875
:10457000413D059B099A9342B8BF1346039300231C
:104580000C93BAF1000F02D0039B01330393029BFB
:1045900013F002030B9302D0039B02330393029B9D
:1045A00013F0840540F02983089B039AA3EB020BC8
:1045B000BBF1000F40F32183BBF1100F2399229A26
:1045C0002CDD43461024A846DDF810A0069D0AE025
:1045D0000000000000000000ABF1100BBBF1100F59
:1045E00003F1080318DD0132B94822921031072A7D
:1045F000239183E81100EFDD21AA2946504603F0FC
:10460000C1FF002840F07483ABF1100BBBF1100F19
:104610002399229A2EABE6DC454698460132AC4BF4
:1046200022920BEB0104072A239488E8080800F380
:10463000D6849DF867A008F10808BAF1000F0ED0E3
:10464000229B013301340DF167010122072B2394D2
:10465000229388E8060000F3138408F108080B9BF6
:104660006BB1229B013302341AA90222072B239437
:10467000229388E8060000F30F8408F10808802DD3
:1046800000F03883059B099AA3EB020ABAF1000FE8
:104690003BDDBAF1100F229B8E4D2BDD42462146A9
:1046A000B0464FF0100B2E46049C069D06E0AAF182
:1046B000100ABAF1100F02F1080217DD01331031B0
:1046C000072B2391229382E84008F0DD21AA294696
:1046D000204603F057FF002840F00A83AAF1100A91
:1046E000BAF1100F2399229B2EAAE7DC35460C461F
:1046F0004646904601335444072B2394229388E87E
:10470000200400F3B28308F10808029BDB0500F1E6
:104710008F82229B0999C8F8007001330C44072B43
:104720002394C8F80410229300F37E8308F108084C
:10473000029B59073BD5089B039A9D1A002D36DD35
:10474000102D229B21DD1026049FDDF818A004E027
:10475000103D102D08F1080817DD01335C4A229343
:104760001034072B239488E84400F1DD21AA514638
:10477000384603F007FF002840F04982103D102D15
:10478000239C229B0DF1B808E7DC0133504A2293A9
:104790002C44072B239488E8240008DD21AA0699DD
:1047A000049803F0EFFE002840F05083239C079B01
:1047B000089A03998A42ACBF9B185B180793002C98
:1047C00040F03C83002322930DF1B808F3E55146F5
:1047D000049801F0ADF8002838D0DAF86430DD072D
:1047E00004D4BAF80C309C0540F1D9854FF0FF3362
:1047F000079307983FB0BDE8F08F21AA0699049867
:1048000003F0C0FE002840F021830DF1B808F1E567
:10481000049802F0B3F999E5BAF90E20002AFFF6E0
:10482000BAADDAF86420D00705D4990503D4DAF8D4
:10483000580002F0E1FC2B464A465146049801F02C
:1048400035F8079007983FB0BDE8F08FBAF80C3004
:104850009CE5DAF8580002F0CDFCBAF90C2093B2CE
:104860007FE508980A93404208904BF0040B99F8B2
:104870000060D3E5002A40F0F387174B12931BF03A
:10488000200F40F0CD840A9A1BF0100F134640F021
:10489000E7831BF0400F00F0E383043314880A938E
:1048A00000251BF0010F00F02B8354EA050300F0F4
:1048B000278330238DF868308DF869604BF0020B48
:1048C000022338E64BF0200B99F80060A6E500BF04
:1048D0002891400038914000089140000A9A1768DA
:1048E00000248DF86740151D002F00F05C86059AA6
:1048F000531C00F0DA852146384602F0B1FF00284B
:1049000000F0D686C31B099305940A95CDF808B02C
:1049100023EAE37303930C949DF867A031E6002A21
:1049200040F0A9871BF0200F40F088841BF0100F87
:1049300040F0A3831BF0400F00F09F830A99B1F968
:1049400000400431E51722462B460A91002A73F1F4
:104950000003C0F2908405999DF867A04A1C4FF0AF
:1049600001037FF4F0AD54EA050200F07482CDF843
:1049700008B0012B00F01083022B40F09D821298AA
:104980002EAF230904F00F0143EA05732A091C46E0
:104990001546435C07F8013D54EA0503F1D12EABFF
:1049A000DB1B0993E5E54BF0400B99F8006035E51A
:1049B00099F800606C2E03BF99F801604BF0200B52
:1049C00009F101094BF0100B28E5002A40F063873C
:1049D0001BF0200F40F04D851BF0100F40F00581BB
:1049E0001BF0400F00F001810A9A136804320A920A
:1049F000BDF81C201A80DEE499F8006000297FF4DD
:104A00000DAD0122202109E599F800602A2E09F157
:104A1000010000F00387A6F13003092B814698BFFF
:104A2000002000F2518619F8016B00EB800003EBC7
:104A30004000A6F13003092BF5D90590F0E44BF0C6
:104A4000800B99F80060E9E499F8006001222B21BD
:104A5000E4E40A9AB24B14681293782630230432A5
:104A60008DF868304BF0020B0A9200258DF86960D2
:104A7000022360E5002A40F00A87AA4B1293FEE663
:104A80000A99CDF808B00A688DF8902000230A46EC
:104A90009A468DF86730043201230393CDF814A0B1
:104AA000CDF830A00A92099324AF70E5A6F1300347
:104AB000002019F8016B00EB800003EB4000A6F129
:104AC0003003092BF5D90890AAE4002A40F0DB86D0
:104AD0004BF0100B26E74BF0010B99F800609DE4BA
:104AE0000A9C2368089318460028234603F1040310
:104AF000FFF6B7AE0A9399F800608FE4002A40F001
:104B0000B3860A9D1BF0080F05F1070500F03C84F1
:104B100025F0070393ED007B8DED0E7B03F108027A
:104B20000A92DDE90E1222F0004314911593DDE99B
:104B300014454FF0FF32204629467B4BFFF72EF9F4
:104B4000002840F0A2834FF0FF32774B20462946E1
:104B5000FFF706F9002840F0988300220023DDE9E2
:104B60000E01FFF7F3F8002840F037849DF867A0A6
:104B70006E4F6F4B032200212BF0800003920591B2
:104B80000290472ED8BF1F4609920C91F9E44BF0D2
:104B9000080B99F8006041E40A9D073525F00703EA
:104BA00003F10802D3E900450A920023C3E40A9DF9
:104BB000073525F0070303F10802D3E900450A92FF
:104BC0000123B8E4002A40F05A86C6B1002301222E
:104BD0009A4603928DF89060CDF808B08DF8673052
:104BE00005930C93099224AFD1E40A9A1368043216
:104BF0000A92079A1A60FFF7DEBB239C1DE5239BF0
:104C0000DDF818A0002B40F0698500232293DAF824
:104C1000643013F0010FBAF80C3002D19A0540F15C
:104C200048825B063FF5E2AD07983FB0BDE8F08FE4
:104C3000652E40F3B18000220023DDE90E01FFF76D
:104C40007BF8002800F05F81229B3A4AC8F80020D8
:104C5000013301340122072B23942293C8F8042046
:104C600000F3C48308F108081B9B0D9A239C934210
:104C700003DB029BDF077FF55BAD229B1099119A46
:104C8000C8F8002001330C44072BC8F80410239403
:104C9000229300F3FD8308F108080D9B5E1E002E91
:104CA0007FF746AD102E229B234D40F3CF81102776
:104CB000DDF810A0DDF818B005E008F10808103E96
:104CC000102E40F3C38101331034072B2394229319
:104CD00088E8A000F1DD21AA5946504603F052FCB5
:104CE000002840F0D283239C229B0DF1B808E6E710
:104CF000AA468CE7089B039AA3EB020ABAF1000FBD
:104D00007FF7C0ACBAF1100F229B0B4D38DD424645
:104D10002146B0464FF0100B2E46049C069D14E031
:104D200008914000F4904000FFFFEF7FE8904000C2
:104D3000E49040002491400038914000AAF1100A0C
:104D4000BAF1100F02F1080216DD01331031072B02
:104D50002391229382E84008F0DD21AA29462046CB
:104D600003F010FC0028C3D1AAF1100ABAF1100F09
:104D70002399229B2EAAE8DC35460C4646469046EF
:104D800001335444072B2394229388E8200400F332
:104D9000658208F1080875E40D9B229E012B40F303
:104DA000FE81013601340123072E23942296C8F890
:104DB0000070C8F8043000F30F8208F10808109A58
:104DC000119BC8F8003001361444072E2394229614
:104DD000C8F8042000F30D8208F10808002300221F
:104DE000DDE90E01FEF7A8FF0D9B002840F00681CB
:104DF000013B013601371C44072E22962394C8F844
:104E00000070C8F8043000F3DA8108F10808139A3A
:104E1000C8F80420013614441DAB072E23942296B3
:104E2000C8F800307FF782AC21AA0699049803F0F5
:104E3000A9FB58B9239C0DF1B80879E421AA069979
:104E4000049803F09FFB00283FF4BCACDDF818A0E9
:104E5000DDE6DDF808B0012B00F02181022B27D11F
:104E6000CDF808B00024002589E521AA0699049808
:104E700003F088FB0028E9D1239C0DF1B80844E435
:104E800021AA0699049803F07DFB0028DED1239C1B
:104E90000DF1B808FFF7E3BB21AA0699049803F0C7
:104EA00071FB0028D2D1239C0DF1B808FFF7E7BBB6
:104EB000CDF808B0002400252EA900E03946E2080C
:104EC00042EA4572E80804F0070305461446303309
:104ED00054EA050201F8013C01F1FF37EED1029AD4
:104EE000D2077FF55CAD302B3FF459AD302302394A
:104EF00007F8013C2EAB5B1A09930F46FFF739BB4D
:104F00000223FFF718BB1B99002940F37A820C9B00
:104F10000D9A9342A8BF1346002B1E460DDD229B1F
:104F2000C8F8007001333444072B2394C8F8046098
:104F3000229300F32C8308F108080C9B002EA8BFD5
:104F40009B1B002B1E4640F3D080102E229BBA4D97
:104F500040F3B78022464FF0100ADDF810B0069CEF
:104F600005E008F10808103E102E40F3A980013337
:104F70001032072B2392229388E82004F1DD21AA26
:104F80002146584603F0FEFA002840F02A83239A6F
:104F9000229B0DF1B808E6E7002D08BF0A2C7CD350
:104FA0002EAF204629460A22002303F09BFD303213
:104FB00007F8012D2046294600230A2203F092FD1E
:104FC00004460D4654EA0503EBD12EABDB1B0993D7
:104FD000FFF7CFBA059B09932EAFFFF7CABA21AAF4
:104FE0000699049803F0CEFA00287FF42FAF9DF8BD
:104FF00067A0239C0DF1B808FFF71FBB5F1E002FB1
:105000007FF705AF102F8C4D40F300814FF0100A51
:10501000DDF810B005E008F10808103F102F40F34C
:10502000F58001361034072E2394229688E8200458
:10503000F1DD21AA0699584603F0A4FA00287FF46E
:1050400005AF239C229E0DF1B808E6E701333444F6
:10505000072B2394229388E860007FF767ABE3E691
:105060001C6804330A9300251BE40A990A4604329B
:105070000C680A920025FFF75EBA0A9A1468134674
:105080000433E5170A9322462B465FE404321C687A
:105090000A9201230025FFF74EBADDF808B0CDF8DB
:1050A00008B03EAF3034012307F8414D0993FFF7B4
:1050B00060BADAF8580002F09FF8BAF80C30B0E5A0
:1050C000144601333444072B2394229388E860006C
:1050D00040F3738121AA0699049803F053FA00283B
:1050E0007FF4B4AE239C0DF1B8081B9B0D9A93423C
:1050F00080F25E81229A10981199C8F8001001324E
:105100000444072A2394C8F80400229200F358812B
:1051100008F108080D9A0C99D31A561A9E42A8BF96
:105120001E46002E0EDD229AC8F8046001320F449C
:105130003444072AC8F800702394229200F3428274
:1051400008F10808002EACBF9E1B1E46002E7FF7FC
:10515000EFAA102E229B384D7FF778AF1027DDF88D
:1051600010A0DDF818B005E008F10808103E102E78
:105170007FF76CAF01331034072B2394229388E818
:10518000A000F1DD21AA5946504603F0FBF90028A2
:1051900040F07B81239C229B0DF1B808E6E7029B3F
:1051A000D8073FF5FEAD013601340123072E2394C5
:1051B0002296C8F80070C8F804307FF726AE21AAFE
:1051C0000699049803F0DEF900287FF43FAE239C93
:1051D000229E0DF1B8081AE621AA0699049803F058
:1051E000D1F900287FF432AE239C229E0DF1B8083D
:1051F000E5E521AA0699049803F0C4F900287FF494
:1052000025AE239C229E0DF1B808E7E501363C440B
:10521000072E2394229688E8A0007FF7F6ADCEE70C
:105220000A9D073525F0070303F108020A92D3E926
:105230000045FFF736BB00BF389140000A9D073597
:1052400025F00705D5E9002305F108010A91144668
:105250001D46FFF77BBB2EAFFFF78BB921AA06993E
:10526000049803F08FF900287FF4F0AD239C0DF132
:10527000B808FFF707BA4FF02D0A644265EB450501
:105280008DF867A00123FFF75AB9DDE90E01024648
:105290000B46FEF783FD002840F08982059B013311
:1052A00026F0200A00F09F80BAF1470F04D1059B39
:1052B000002B08BF012305930F9B4BF48072002B3A
:1052C0000292C0F2A9819DED0E7B8DED167B00232D
:1052D0000B93662E00F08881462E00F0DA81BAF139
:1052E000450F0CBF059B059D049808BF5D1C1FAAB8
:1052F0001CAB019200932A461BAB02219DED160BBD
:1053000000F01EFC672E074640F0AA811BF0010F3B
:1053100000F043827C1900220023DDE91601FEF72C
:105320000BFD002840F031811F9BA34206D23021A3
:105330005A1C1F9219701F9B9C42F9D8DB1BBAF1B3
:10534000470F0D9300F0C480652E40F386821B9BAF
:105350000C93662E00F076810D9B0C9A19469142B3
:1053600000F363811BF0010F40F00E8222EAE2732A
:105370000393099267260B9B002B40F0A1800593B5
:105380009DF867A0FFF7FDB825F0070595ED007BB8
:1053900005F108038DED0E7B0A93FFF7C2BBDAF827
:1053A000580001F029FF4FF0FF330793FFF721BAB0
:1053B000029AD5077FF5AEAE9CE608F1080894E6A0
:1053C00021AA0699049803F0DDF800287FF43EAD89
:1053D0001B9B239C0DF1B8089CE64FF02D0A8DF81D
:1053E00067A0FFF7C5BB0623059365E721AA0699C9
:1053F000049803F0C7F800287FF428AD0DF1B80831
:1054000032E4229BB24AC8F8002001330134012261
:10541000072B23942293C8F8042000F32D8108F170
:10542000080829B90D9B1BB9029BDE077FF580A9EF
:10543000229B1098119AC8F800200133024622449A
:10544000072B2392C8F80400229300F3778108F118
:1054500008080029C0F24C810D99C8F8007001338A
:105460008C18072B23942293C8F804107FF75EA9A9
:10547000DAE40A9A07991368CD17084604322946D8
:105480000A92C3E90001FEF796BFDA46FFF7BFBBF9
:1054900021AA0699049803F075F800287FF4D6AC89
:1054A000239C0DF1B808FFF7F8BB38460594FEF7CA
:1054B000C7FE0A950990CDF808B00346FFF728BA51
:1054C0004FF02D0A00238DF867A00593FFF75CB815
:1054D0001B9B0C931A46033304DB059B1946914230
:1054E000BFF63AAF023E0C9B8DF87460013B002B77
:1054F0001B93BDBF0C9BC3F101032D222B22092B53
:105500008DF8752040F34B810DF183042046714DD9
:1055100000E0104685FB0312D917C1EBA20101EB95
:105520008102A3EB42023032092900F8012C0B461C
:1055300000F1FF32EDDC30330238D9B2844202F898
:10554000011C40F295810DF17600134601E013F83D
:10555000011B00F8011BA342F9D101339B1A0DF185
:10556000760213441DAA9B1A0D9A1393012A134421
:10557000099340F34981099B109A1344099323EA44
:10558000E373039300230C93F5E62346D6E621AAA2
:105590000699049802F0F6FF00287FF457AC239C8C
:1055A0000DF1B808C9E4059B0C97062B28BF06230C
:1055B0000597BA4603930A95CDF808B00993464F6C
:1055C000FEF7DFBF21AA0699049802F0DBFF00284E
:1055D0007FF43CAC1B9B0D9A239CD31A0DF1B808A9
:1055E000B0E5A246FFF713BB059C04981FAA1CABAD
:1055F0000192009322461BAB03219DED160B00F098
:105600009FFA2346074604191D463B78302B00F0CD
:10561000DB801B9D2C447EE6DDE90E1202F1004387
:1056200017932D2316910B9353E6109A0D9B134459
:105630000C9A0993002A40F3DF8023EAE373039373
:10564000672698E6002B40F3F680059A002A40F082
:10565000C9801BF0010F40F0C580039309938AE6CF
:10566000472E7FF457AE1BF0010F00F0EE80462E60
:1056700007EB0504C9D04EE621AA0699049802F06A
:1056800081FF00287FF4E2AB1B99239C0DF1B80841
:10569000C7E6059D04981FAA1CAB019200932A46F9
:1056A0001BAB03219DED160B00F04AFA0746DEE71F
:1056B000059B0393099305900A95CDF808B00C90CB
:1056C0009DF867A0FEF75DBF00230593FEF7A8BE17
:1056D00024914000676666661C914000049821AAE8
:1056E000514602F04FFF00283FF48FAAFFF78FBA10
:1056F0004E4210316A4D2FDA1024DDF810A0DDF88B
:1057000018B004E008F10808103E102E24DD013323
:105710001032072B23922293C8F80050C8F8044097
:10572000F0DD21AA5946504602F02CFF00287FF4F4
:10573000ACAE239A229B0DF1B808E5E721AA0699A1
:10574000049802F01FFF00287FF480AB1B99239A76
:10575000229B0DF1B8087CE601333244072B88E820
:1057600060002392229308F108087FF775AE21AA02
:105770000699049802F006FF00287FF467AB239A8D
:10578000229B0DF1B80867E60C9B109A134409930D
:1057900023EAE37303936726EDE51F9BCEE53033E1
:1057A00030228DF877308DF876201EABDAE60F9B2D
:1057B0003C4F002BB6BF4FF02D0A9DF867A08DF827
:1057C00067A0394BFFF7D6B900220023DDE91601A7
:1057D000FEF7B2FA00287FF41CAFC5F101051B9556
:1057E0002C4498E50C9B109A1344059A1A4422EA1B
:1057F000E27309920393BEE50C9B099AC3F101037E
:105800001A441346099218E71BF001030C937FF426
:10581000B2AE099B23EAE3730393ACE50A9C99F8C3
:105820000160236843EAE37305932346043381460A
:105830000A93FEF7F3BD059B13B91BF0010F02D0CD
:10584000109B0133D1E7012307E71F9BBAF1470FF4
:10585000A3EB07030D933FF43BAE1B9B0C9342E677
:105860008DF86710FFF709B88DF86710FFF749B991
:105870000DF1760376E68DF86710FFF753B88DF8D3
:105880006710FFF7A2B98DF86710FFF721B98DF8FF
:105890006710FFF7F2B88DF86710FFF799B800BFEF
:1058A00038914000F0904000EC9040002DE9F0412C
:1058B0000C46ADF58D6D8989666EE589199621F0E6
:1058C00002010646E069ADF80C1017464FF48061FE
:1058D000626AADF80E5098461AAD0023079016A8DC
:1058E00009920693009504950291059101F07EFCC2
:1058F00043463A4669463046FEF712FD051E07DB71
:105900003046694601F0E2F8002818BF4FF0FF3535
:10591000BDF80C305B0603D5A38943F04003A38197
:10592000169801F065FC28460DF58D6DBDE8F081F7
:1059300038B5304B1B6805460C4613B19A6B002AEC
:1059400038D0B4F90C2093B218070CD52069A8B14F
:1059500013F001021ED0636900225B42A361A260C2
:10596000F0B1002038BDD9063CD5580726D42069AF
:1059700042F00803A3819BB20028E9D103F420720E
:10598000B2F5007FE4D02846214601F065FCA389EA
:105990002069DDE7990758BF6269A2600028E0D15D
:1059A000B4F90C301A06DDD543F04003A3814FF063
:1059B000FF3038BD184601F0E1F8C2E7216B51B164
:1059C00004F14003994204D0284601F079F9B4F972
:1059D0000C200023236300232069636022F024024B
:1059E0002060C5E742F0400209232B604FF0FF30F2
:1059F000A28138BD44000020024B13B1024800F0E0
:105A000005B8704700000000ED6B40000023014620
:105A10001A46184602F0D6BD02690B69934200F39C
:105A20008D802DE9F04F03F1FF3801F1140700F1EB
:105A3000140B57F828205BF828304FEA880483B00D
:105A40000132B3FBF2F90BEB0403009407EB040AF9
:105A50000193B9F1000F39D000252E46BC46DE4631
:105A60005CF8044BDEF80030A2B209FB0255220CB0
:105A70002C0C09FB0242ADB2751B96B2C6EB134665
:105A800015FA83F306EB23469BB243EA0643E2454D
:105A90004FEA12454EF8043B4FEA2646E0D2009BFF
:105AA0005BF8033093B9019C231F9B450CD254F83B
:105AB000043C4BB9A4F1080302E01A68043B1AB98C
:105AC0009B4508F1FF38F8D3C0F81080044602F077
:105AD0001FFA00282EDB09F101095D46002357F863
