S01B0000436F64657369676E53656D69706172616D45512E73726563A8
S214400000585C0020890340000D0440000D04400069
S2144000100D0440000D0440000D04400000000000A8
S2144000200000000000000000000000000D0440003A
S2144000300D044000000000000D0440000D04400088
S2144000400D0440000D0440000D0440000D04400027
S2144000500D0440000D0440000D0440000D04400017
S2144000600D044000650D4000000000000D044000F7
S2144000700D0440000D0440000D0440000D044000F7
S214400080290C40000D0440000D0440000D044000C3
S2144000900D0440000D0440000D0440000D044000D7
S2144000A00D0440000D0440000D0440000D044000C7
S2144000B00D0440000D044000000000000000000059
S2144000C000000000000000000000000000000000EB
S2144000D000000000000000000000000000000000DB
S2144000E000000000000000000000000000000000CB
S2144000F00000000000000000000000000D0440006A
S2144001000D0440000D04400010B5054C237833B96B
S214400110044B13B10448AFF300800123237010BD95
S214400120C0090020000000000C9E40000C4B43B16C
S2144001300C480D4910B5AFF300800C48036823B94E
S21440014010BD0A48036833B97047094B002BF7D0F7
S214400150BDE810401847064B002BF5D0184700BFA7
S214400160000000000C9E4000C40900200C9E400089
S2144001700000000080B483B000AF824B4FF498126A
S2144001805A60804B00225A636FF07F437B6002E0E8
S2144001907B68013B7B607B4B1B6A03F48073002BC0
S2144001A002D07B68002BF3D17B68002B01D1002363
S2144001B0E2E0744B05225A636FF07F437B6002E0B7
S2144001C07B68013B7B606F4B1B6A03F48073002B9C
S2144001D002D07B68002BF3D17B68002B01D1002333
S2144001E0CAE0684B00225A636FF07F437B6002E0B0
S2144001F07B68013B7B60634B1B6A03F48073002B78
S21440020002D07B68002BF3D17B68002B01D1002302
S214400210B2E05C4B38225A636FF07F437B6002E06B
S2144002207B68013B7B60574B1B6A03F48073002B53
S21440023002D07B68002BF3D17B68002B01D10023D2
S2144002409AE0504B01225A636FF07F437B6002E096
S2144002507B68013B7B604B4B1B6A03F48073002B2F
S21440026002D07B68002BF3D17B68002B01D10023A2
S21440027082E0444B2A225A636FF07F437B6002E061
S2144002807B68013B7B603F4B1B6A03F48073002B0B
S21440029002D07B68002BF3D17B68002B01D1002372
S2144002A06AE0384B31225A636FF07F437B6002E04E
S2144002B07B68013B7B60334B1B6A03F48073002BE7
S2144002C002D07B68002BF3D17B68002B01D1002342
S2144002D052E02C4B0B225A636FF07F437B6002E068
S2144002E07B68013B7B60274B1B6A03F48073002BC3
S2144002F002D07B68002BF3D17B68002B01D1002312
S2144003003AE0204BFF225A636FF07F437B6002E067
S2144003107B68013B7B601B4B1B6A03F48073002B9E
S21440032002D07B68002BF3D17B68002B01D10023E1
S21440033022E0144BFF225A636FF07F437B6002E05B
S2144003407B68013B7B600F4B1B6A03F48073002B7A
S21440035002D07B68002BF3D17B68002B01D10023B1
S2144003600AE0084B02221A6000BF064B1B6A03F0E5
S2144003700103002BF9D0012318460C37BD465DF823
S214400380047B704700C6004080B582B000AF164B75
S2144003907B60164B3B607A683B689A420CD007E01D
S2144003A03B681A1D3A607A68111D796012681A60B7
S2144003B03B680F4A9342F3D30E4B3B6004E03B68E6
S2144003C01A1D3A6000221A603B680B4A9342F6D3E5
S2144003D00A4B7B600A4A7B6823F07F039360094B95
S2144003E09847094B9847FEE70C9E400000000020C7
S2144003F0C0090020C0090020582A00200000400004
S21440040000ED00E08D4940001909400080B400AF7F
S214400410FEE7000080B400AF034B044A1A6000BFFA
S214400420BD465DF8047B70470000002000127A004D
S21440043080B483B000AF0346FB7197F90730002BBA
S2144004400BDB094997F907305B09FA7902F01F027E
S214400450012000FA02F241F8232000BF0C37BD46C7
S2144004605DF8047B704700BF00E100E080B483B0D5
S21440047000AF03463960FB7197F90730002B0ADB63
S2144004800D4997F907303A68D2B21201D2B20B44FE
S21440049083F800230AE00949FB7903F00F03043B85
S2144004A03A68D2B21201D2B20B441A7600BF0C3769
S2144004B0BD465DF8047B704700E100E000ED00E0DB
S2144004C090B587B002AFF860B9607A603B601F4B6A
S2144004D098474FF0804380221A604FF080434FF495
S2144004E0C4425A603B6A00933B687A68B968F868C9
S2144004F0174CA0474FF0804380225A6100211020BD
S214400500144B98471020144B98474FF080430022D6
S2144005101A604FF080424FF080431B6843F001035F
S21440052013604FF080424FF080431B6843F0100347
S21440053013604FF080424FF080431B6843F0040343
S214400540136000BF1437BD4690BD00BF150640007F
S2144005505D0540006D0440003104400080B487B023
S21440056000AFF860B9607A603B60294B7B614FF022
S2144005708042FB68C2F808314FF080423B6AC2F8BE
S2144005800C314FF08042FB68C2F818314FF0804281
S2144005903B6AC2F81C314FF080427B68C2F800319B
S2144005A04FF080423B6AC2F804314FF080427B688D
S2144005B0C2F810314FF080423B6AC2F81431BA6834
S2144005C07B699A607B693A6ADA60BA687B699A6145
S2144005D07B693A6ADA613A687B691A607B693A6A8B
S2144005E05A603A687B691A617B693A6A5A614FF089
S2144005F0804340F20112C3F820217B6940F2011289
S2144006001A6200BF1C37BD465DF8047B704700BFCA
S2144006100002004080B400AF144A144B5B6843F4B9
S214400620C02343F01F035360104A104B1B6F23F444
S214400630C02323F0030313670C4A0C4B5B6F23F471
S214400640C02323F003035367084A084B1B6F43F04D
S2144006501C031367054A054B5B6F23F01C03536767
S21440066000BFBD465DF8047B704700BF000E0E40DD
S21440067080B400AF074A074B1B6843F4700313600F
S214400680BFF34F8FBFF36F8F00BFBD465DF8047B4F
S214400690704700BF88ED00E090B58DB000AFF860C1
S2144006A087ED020AC7ED010AD7ED027A9FED527A2E
S2144006B027EE877ADFED516AC7EE267AC7ED0B7ACA
S2144006C04F4BF86A984703460C4644EC103B4D4B5C
S2144006D0984751EC100B4C4C4FF000024B4BA04748
S2144006E003460C4619462246494B0846114698474B
S2144006F00346BB6297ED0A7AD7ED017A67EE277A12
S214400700C7ED097A4FF000033B62D7ED0A7AB1EEA7
S214400710677AD7ED017A67EE277AC7ED077AD7ED85
S2144007200A6A97ED017AC6EE877AB7EE007A77EED8
S214400730877AC7ED067A324BF86A984703460C46E6
S21440074044EC103B334B984751EC100B324C4FF077
S21440075000024FF04043A04703460C461946224647
S2144007602B4B08461146984703467B61D7ED0A6AED
S21440077097ED017AC6EE877AB7EE007A77EE677A1B
S214400780C7ED047AD7ED096A97ED067AC6EE877A02
S214400790FB68C3ED007AFB680433D7ED086A97ED33
S2144007A0067AC6EE877AC3ED007AFB680833D7ED43
S2144007B0076A97ED067AC6EE877AC3ED007AFB683D
S2144007C00C33D7ED057AF1EE676A97ED067AC6EEFA
S2144007D0877AC3ED007AFB681033D7ED047AF1EEE2
S2144007E0676A97ED067AC6EE877AC3ED007A00BF51
S2144007F03437BD4690BD00BFDB0FC94000803B4745
S21440080081424000B11540007D4540000000104048
S214400810D9484000F1144000294340000000000041
S21440082090B585B000AF87ED010A97ED017ADFED10
S214400830306AC7EE267AB7EE007A77EE877A2D4B87
S21440084017EE900A984703460C4644EC103B2A4B5A
S214400850984751EC100B294C4FF00002284BA0470C
S21440086003460C4618462146264C1BA3D3E90023D4
S214400870A04703460C4618462146234C18A3D3E906
S2144008800023A04703460C46194622461F4B0846FF
S214400890114698470346FB60D7ED037A9FED1C7AD6
S2144008A0C7EE876A134B16EE900A984703460C46E7
S2144008B044EC113B9FED0C0B164B984752EC101B2B
S2144008C0124B084611469847034607EE903AB0EE5C
S2144008D0670A1437BD4690BD1655B5BBB16B02408E
S2144008E0000000400AD7EB3F000000000000244014
S2144008F00000FA44814240007116400029434000FF
S214400900000034407D454000C53F4000D948400087
S214400910000020427917400090B5ADF24C4D00AF34
S214400920534B9847534B9847534B1B6807F24442E8
S2144009301360524BD3ED007AB0EE670A504B98479F
S21440094007F5886383ED000A07F5846307F5886238
S214400950D2ED000A07F2444292ED000A1846494B8F
S214400960984707F5826307F5846207F20440012141
S214400970454CA047454B07F58862106898470346A4
S2144009800C461A462346424842498847424B1B7803
S214400990DBB2002B2FD0414B1B78DBB2002B06D1AD
S2144009A03F4BC7F83C343F4BC7F8383405E03E4B26
S2144009B0C7F83C343D4BC7F838340023A7F83634E4
S2144009C012E0B7F836349B00D7F838241344B7F80B
S2144009D036249200D7F83C140A4412681A60B7F8D6
S2144009E036340133A7F83634B7F83634FF2BE8D917
S2144009F0294B00221A702E4B1B78DBB2002B14D0EA
S214400A001D4B1B6807F24442136007F5846307F5E5
S214400A108862D2ED000A07F2444292ED000A184678
S214400A20184B9847224B00221A70224B1B78DBB299
S214400A30002B1AD0114BD3ED007AB0EE670A104B5C
S214400A40984707F5886383ED000A07F5846307F542
S214400A508862D2ED000A07F2444292ED000A184638
S214400A60084B9847134B00221A7000BF8EE700BF12
S214400A7015044000B90A4000040000200800002089
S214400A802108400099064000A13F400081424000B6
S214400A904C994000794A4000DC090020DD090020DE
S214400AA02426002024120020240E0020240A0020A1
S214400AB0DF090020E009002090B583B002AF124B5A
S214400AC09847124B9847124B4FF025421A60104BEE
S214400AD04FF400425A600F4B98470F4B98470F4BC6
S214400AE098470F4B98470F4B98470F4B98474FF4F4
S214400AF0807300930D4B0E4A0E490F480F4CA0478B
S214400B0000BF0437BD4690BD71064000410B400013
S214400B1050140E405D104000490F4000DD13400069
S214400B20110F40009D12400075014000240E002029
S214400B30241A0020240A002024160020C104400065
S214400B4080B485B000AF324B324A1A60324B334ADB
S214400B501A6000BF304B5B6903F08003002BF9D06E
S214400B602F4B9B6E03F08003002BF3D02C4B0022C0
S214400B709A622B4B2B4A9A6200BF294B9B6E03F01E
S214400B800203002BF9D0264A254B1B6B23F070033B
S214400B9013634FF40063FB6007E0FB68002B01D152
S214400BA001232FE0FB68013BFB601D4B9B6E03F06F
S214400BB00803002BF1D01A4A194B1B6B23F0030392
S214400BC043F0020313634FF40063BB6007E0BB6867
S214400BD0002B01D1012315E0BB68013BBB60104BE5
S214400BE09B6E03F00803002BF1D00B4BDB6923F41C
S214400BF0F0537B60084A7B6843F0B44343F4C853E1
S214400C00D361002318461437BD465DF8047B704711
S214400C10000A0E400005000410140E40080000A50F
S214400C2000040E40013F4D0E80B400AF434B1B788E
S214400C30002B3CD14FF080439B6803F08003002B91
S214400C4035D03F4B1B78DBB2002B16D14FF080439C
S214400C503C4AC3F818214FF080434FF48072C3F8E3
S214400C601C214FF08043374AC3F810214FF0804391
S214400C704FF48072C3F8142115E04FF08043324A97
S214400C80C3F818214FF080434FF48072C3F81C21FC
S214400C904FF080432C4AC3F810214FF080434FF466
S214400CA08072C3F81421254B01221A7040E0234B72
S214400CB01B78012B3CD14FF080439B6803F08003A8
S214400CC0002B35D01E4B1B78DBB2002B15D11F4BAB
S214400CD01B681F4A9A611D4B1B684FF48072DA618D
S214400CE01A4B1B681B4A1A61184B1B684FF48072DC
S214400CF05A61134B01221A7014E0144B1B68164AB3
S214400D009A61124B1B684FF48072DA610F4B1B6876
S214400D10124A1A610D4B1B684FF480725A61084B99
S214400D2000221A70054B00221A700D4B01221A70D1
S214400D3000BFBD465DF8047B704700BFDE0900205B
S214400D40DD090020241A0020241E00200C0000206C
S214400D50240A0020240E00202412002024260020EE
S214400D60DC09002090B585B000AF5D4B9B69FB73F6
S214400D70FB7B612B02D0FB7B662B06D1594AFB7B63
S214400D805371594B00221A709FE0FB7B2F2B16D9CC
S214400D90FB7B392B13D8544B1B78DBB2032B0ED876
S214400DA0514B1B78DBB219464E4AFB7B53544E4B95
S214400DB01B78DBB20133DAB24B4B1A7085E0FB7B13
S214400DC0002B40F08280484B1B78DBB2002B7CD057
S214400DD0454B1B78DBB21A46424B00219954414B97
S214400DE05B79DBB2612B34D13E48404B984707EEE7
S214400DF0900AF8EEE77AC7ED027A3D4BD3ED007ADB
S214400E0097ED027A77EE677AFDEEE77A17EE903A3C
S214400E10002BB8BF5B4207EE903AF8EEE77AB2EEA8
S214400E200E7AF4EEC77AF1EE10FA4BDD304ABB6824
S214400E301360304B01221A702D4B1A682E4B104609
S214400E40984703460C461A4623462C482C49884762
S214400E5038E0244B5B79DBB2662B33D12148234BF9
S214400E60984707EE900AF8EEE77AC7ED017A254BE9
S214400E70D3ED007A97ED017A77EE677AFDEEE77A62
S214400E8017EE903A002BB8BF5B4207EE903AF8EE6A
S214400E90E77AB2EE0E7AF4EEC77AF1EE10FA11DD8A
S214400EA0184A7B681360184B01221A70154B1A6853
S214400EB0114B1046984703460C461A46234613489D
S214400EC00F498847074B00225A71054A044B1B6856
S214400ED043F48073136000BF1437BD4690BD00BF17
S214400EE000020240E4090020EA0900207949400057
S214400EF008000020E0090020814240005C99400044
S214400F00794A400004000020DF0900206099400034
S214400F1080B400AF0A4A0A4BD3F8E43123F0010309
S214400F20C2F8E431064B074AC3F8E421044B0122D9
S214400F30C3F81C2100BFBD465DF8047B704700BF68
S214400F4000020E400054414D80B500AF204A204B71
S214400F50D3F8E43023F00103C2F8E4301C491C4BBC
S214400F60D3F8E4201B4B1343C1F8E4301A4A1A4B1B
S214400F70D3F8E43023F00103C2F8E4301649164BA8
S214400F80D3F8E420134B1343C1F8E430104B4FF032
S214400F90FF325A60104B4FF0FF325A600C4A0C4BEF
S214400FA01B6843F0F0431360094A094B1B6943F042
S214400FB0F0431361064A064B5B6B43F0F0435363C2
S214400FC00020064B98470120054B984700BF80BD40
S214400FD0000E0E40004F495000100E40E50F4000F6
S214400FE02110400080B483B000AF0346FB71FB790C
S214400FF0002B06D0094A094B1B6B43F08053136302
S21440100005E0064A054B5B6B43F08053536300BFD5
S2144010100C37BD465DF8047B704700BF000E0E409F
S21440102080B483B000AF0346FB71FB79002B06D03B
S214401030094A094B1B6B43F00063136305E0064AFD
S214401040054B5B6B43F00063536300BF0C37BD46F4
S2144010505DF8047B704700BF000E0E4080B400AFC2
S2144010602B4A2B4BD3F8E43023F00103C2F8E4308C
S2144010702749274BD3F8E420264B1343C1F8E430E6
S214401080234B254A1A61224B4FF400725A60204B7C
S21440109004225A6400BF1E4B9B6E03F40073002B61
S2144010A0F9D01B4A1A4B1B6843F400731360184A66
S2144010B0174B5B6843F480535360154B44221A65C4
S2144010C000BF134B9B6E03F48053002BF9D0104A9D
S2144010D00F4B1B6843F4805313600D4B4FF4804214
S2144010E05A600B4B40F654129A6500BF084B9B6EF5
S2144010F003F48043002BF9D0054A054B1B6843F4A4
S2144011008043136000BFBD465DF8047B704700BF58
S21440111000040E4000434D50001B010080B485B0D3
S21440112000AF7860104BFB60104B1B68002B02D161
S2144011300E4B0F4A1A600D4B1B68BB60BA687B6843
S2144011401A44FB689A4202DD4FF0FF3306E0074B35
S2144011501A687B681344054A1360BB681846143700
S214401160BD465DF8047B7047FC7F0220EC090020FA
S214401170585C002080B483B000AF78604FF0FF33F7
S21440118018460C37BD465DF8047B704780B483B084
S21440119000AF786039603B684FF400525A600023D5
S2144011A018460C37BD465DF8047B704780B483B064
S2144011B000AF7860012318460C37BD465DF8047BC7
S2144011C0704780B485B000AFF860B9607A6000239D
S2144011D018461437BD465DF8047B704780B586B028
S2144011E000AFF860B9607A6000237B61FB68012B32
S2144011F01ED0FB68022B1BD0FB68032B18D04FF089
S214401200FF3319E00E4B1A680E4B1868BB68591C22
S214401210B9601B78194690470346002B02DA4FF018
S214401220FF3309E07B6901337B617B68013B7B6070
S2144012307B68002BE6D17B6918461837BD4680BDD3
S214401240282A00202C2A002080B586B000AFF860FF
S214401250B9607A6000237B61FB68002B12D04FF0A8
S214401260FF3313E00B4B1B680B4A1268B9681046F5
S2144012709847BB680133BB607B6901337B617B6801
S214401280013B7B607B68002BECDC7B69184618379B
S214401290BD4680BD242A00202C2A002080B500AF01
S2144012A00F4B98470F4B03221A600F4A0E4BD3F84A
S2144012B0E43023F00103C2F8E4300B4B0B4AC3F88A
S2144012C0E420094B0A4A1A61074B0A4A1A60064B41
S2144012D002225A64044B4FF498125A6000BF80BDF5
S2144012E0F912400000C0004000C600400049575474
S2144012F0010113002400000180B400AF124A124BD3
S214401300D3F8903043F4C063C2F890300E4A0E4B88
S2144013105B6E43F4C06353660B4A0B4B5B6843F407
S214401320C0635360084A084B1B6F23F4C0631367BF
S214401330054A054B5B6F23F4C063536700BFBD4649
S2144013405DF8047B704700BF000E0E4080B483B04B
S21440135000AF0346FB7197F90730002B0BDB0949BA
S21440136097F907305B09FA7902F01F02012000FA6C
S21440137002F241F8232000BF0C37BD465DF8047BDF
S214401380704700BF00E100E080B483B000AF034682
S2144013903960FB7197F90730002B0ADB0D4997F946
S2144013A007303A68D2B21201D2B20B4483F8002317
S2144013B00AE00949FB7903F00F03043B3A68D2B2CE
S2144013C01201D2B20B441A7600BF0C37BD465DF808
S2144013D0047B704700E100E000ED00E080B500AF20
S2144013E01C4B98471C4B01221A60012109201B4BBD
S2144013F0984709201A4B98471A4B01229A60194A77
S214401400184BD3F8E43023F00103C2F8E430154B10
S214401410154AC3F8E420134B82221A62114B134A32
S2144014205A60104B50221A60114B0E4A1A60114BEC
S214401430114A1A60114B1B689B6800211846104BD6
S21440144098470E4B1B685B68002118460C4B984724
S21440145000BF80BD85144000000002408913400054
S2144014604D1340000002024000415355C00808009A
S2144014702C2A0020282A0020BD14400014000020FA
S214401480A14A400080B400AF0B4A0B4B5B6843F068
S2144014900C035360084A084B1B6F23F00C0313677A
S2144014A0054A054B5B6F23F00C03536700BFBD46F0
S2144014B05DF8047B704700BF00100E4080B483B0D8
S2144014C000AF78600B46FB70084AFB78D36100BFDC
S2144014D0064B5B6903F00203022BF9D10023184642
S2144014E00C37BD465DF8047B704700BF00020240E3
S2144014F000B551EC100B2C4A21F00043934285B0C6
S21440150020DD2A4A934209DD10EE102A0B4602F0EF
S21440151057FD41EC100B05B05DF804FB684601F042
S2144015202FFA00F00300012828D0022815D060B317
S21440153001209DED021B9DED000B02F091FA51EC4F
S214401540100BE6E79FED161B01F00EFD51EC100B5D
S21440155041EC100B05B05DF804FB9DED021B9DEDC4
S214401560000B01F001FD53EC102B10EE100A03F1B6
S214401570004141EC100B05B05DF804FB9DED021BED
S2144015809DED000B02F06CFAEDE79DED021B9DED24
S214401590000B01F0E9FC51EC100BBAE7AFF300800A
S2144015A00000000000000000FB21E93FFFFFEF7F46
S2144015B000B551EC100B2C4A21F00043934285B005
S2144015C027DD2A4A934209DD10EE102A0B4602F028
S2144015D0F7FC41EC100B05B05DF804FB684601F0E3
S2144015E0CFF900F00300012827D002281DD068B3A9
S2144015F09DED021B9DED000B01F0B6FC53EC102B4D
S21440160010EE100A03F1004141EC100B05B05DF8F6
S21440161004FB00209FED121B02F022FA51EC100B47
S21440162041EC100B05B05DF804FB01209DED021B5C
S2144016309DED000B02F014FAE0E79DED021B9DEDD8
S214401640000B01F091FC51EC100BC2E701209DED20
S214401650021B9DED000B02F003FA51EC100BB8E7AD
S2144016600000000000000000FB21E93FFFFFEF7F85
S2144016702DE9F0432DED028B8BB055EC104B00F06E
S2144016800BFA384BB0EE408AF0EE608A93F9006071
S214401690731C0DD022462B462046294603F0DEF822
S2144016A030B9002200232046294603F0CDF840B149
S2144016B0B0EE480AF0EE680A0BB0BDEC028BBDE80F
S2144016C0F083294B0890CDE90245CDE904450193C6
S2144016D0B6B9264F4FF060462046294600220023E2
S2144016E0CDE9066703F088F898B30223009368466E
S2144016F002F022FBA8B1089BC3B99DED068BD7E745
S214401700DFF870904FF0000820462946002200235C
S214401710CDE9068903F070F868B102239E42009333
S214401720E5D103F02DF922230360E4E703F028F91E
S214401730089B0360E1E70123022E00930BD103F0E0
S2144017401FF9212303600A4802F0FAFA8DED060BD2
S214401750D1E701230093684602F0EEFA0028F2D162
S214401760EDE700BF1000002064994000FFFFEFC780
S2144017707C9B40000000F0FF2DE9F04F2DED028BE2
S214401780DFF80CA38BB057EC106B55EC114B00F008
S21440179087FB9AF90080B0EE408AF0EE608AB8F196
S2144017A0FF3F34D022462B462046294603F056F8C3
S2144017B0834660BB32463B463046394603F04EF8D9
S2144017C08146002840F09F8030463946002200235C
S2144017D003F012F820B3002200232046294603F0E7
S2144017E00BF88346002867D09FED9F7B0122A44BD1
S2144017F0CDF820900092CDE90267CDE904458DED05
S214401800067B0193B8F1000F49D09FED998BB0EE5F
S214401810480AF0EE680A0BB0BDEC028BBDE8F08FCC
S214401820B0EE480AF0EE680A02F0ECF9804600286E
S21440183000F084804FF000084FF0000951EC180B80
S21440184042464B4602F0D8FF0028E0D047EC106BEB
S21440185002F0D8F90028DAD045EC104B02F0D2F965
S2144018600028D4D09AF90030854A019204210022FB
S214401870022BCDE90267CDE90445CDE90689009102
S214401880089203D0684602F057FA60B903F078F839
S2144018902223036007E09FED747B8DED067B684650
S2144018A002F04AFA50B3089B1BB103F069F8089B54
S2144018B003609DED068BAAE745EC104B02F0A2F9BB
S2144018C00028A4D0002200232046294602F09EFF8E
S2144018D000289CD06A4A9AF90030CDF820B0012101
S2144018E0CDE90267CDE904458DE80600002BD2D04D
S2144018F064490020022BCDE90601D0D103F040F820
S21440190021230360CFE7002200232046294602F029
S21440191073FF00283FF47BAF9FED558B584BCDF8B7
S21440192020B00122B8F1020FCDE90267CDE90445A7
S2144019308DED068B8DE80C00B1D168E747EC106B57
S21440194002F060F900283FF475AF45EC104B02F00A
S21440195059F900283FF46EAF53EC182B18EE100AD6
S214401960194602F07BFF002861D103239AF90080D4
S2144019700093434B0890CDE90267CDE904450193B7
S214401980B8F1000F2DD1DFF80C914FF060480022DF
S214401990002330463946CDE9068902F037FF002855
S2144019A03FF470AF0022384B2046294602F0BCFC7C
S2144019B004460D4645EC104B02F0CAF9204653EC5F
S2144019C0102B294602F018FF70BB304B9AF9008066
S2144019D04FF06042CDE90623B8F1020F7FF452AFD4
S2144019E054E79FED257B00220023304639468DED97
S2144019F0067B02F00BFF0028EED00022224B20464A
S214401A00294602F091FC04460D4645EC104B02F088
S214401A109FF9204653EC102B294602F0EDFE18B9EC
S214401A20184B0022CDE906239AF90080D4E7144BE0
S214401A309AF90090CDF820800122CDE90267CDE9E1
S214401A4004458DE80C00B9F1000F3FF424AF0022A6
S214401A5000231046194602F091FDB9F1020FCDE978
S214401A6006013FF44BAF1AE70000000000000000FC
S214401A70000000000000F03F000000000000F07F83
S214401A80689940000000F0FF0000E03FFFFFEFC70E
S214401A9010000020FFFFEF472DE9F04F51EC100BF0
S214401AA0B1F5801F85B00B4659DA10EE102A21F0AA
S214401AB00044224300F0F8800029C0F280810022D2
S214401AC0DD4B02F031FCDD4A0B4693426FF03507A2
S214401AD04ADCC3F3130505F5152606F6647606F4C8
S214401AE0801686F07F5282F4401242EA05011C15A9
S214401AF00022D34B02F064FAAB1CA4F2FF34C3F3CB
S214401B0013033C44022B04EB165482468B464FF09C
S214401B10000232DC002302F06FFE002800F0CF8087
S214401B20002C00F05881204602F098FBACA3D3E985
S214401B30002306460F4602F0F7FBABA3D3E900238B
S214401B4004460D463046394602F0EEFB02460B464A
S214401B502046294602F036FA41EC100B0AE0B74A16
S214401B6093424FF00007B4DD02460B4602F02AFAD5
S214401B7041EC100B05B0BDE8F08F4FF0804302F00B
S214401B8021FA02460B465046594602F0F7FC0646F6
S214401B9020460F4602F062FB3246CDE900013B4646
S214401BA030463946CDE9026702F0BEFB02460B4698
S214401BB08046894602F0B8FB8DA3D3E9002306464B
S214401BC00F4602F0B1FB8CA3D3E9002302F0FAF9EA
S214401BD032463B4602F0A8FB89A3D3E9002302F035
S214401BE0F1F932463B4602F09FFB87A3D3E9002338
S214401BF002F0E8F942464B4602F096FB84A3D3E94E
S214401C000023804689463046394602F08DFB82A343
S214401C10D3E9002302F0D6F932463B4602F084FB75
S214401C207FA3D3E9002302F0CDF932463B4602F0CB
S214401C307BFB0B4602464946404602F0C3F9A5F5F3
S214401C40C223C5F5D725A3F27A4351351D43002D4F
S214401C50804689465CDD00227A4B5046594602F063
S214401C6063FB52465B4602F05FFB06460F46002C7F
S214401C706ED132463B464046494602F0A3F9DDE97E
S214401C80022302F051FB02460B463046394602F02C
S214401C9097F902460B465046594602F091F941ECF8
S214401CA0100B05B0BDE8F08F0022002300206649E7
S214401CB002F064FC41EC100B05B0BDE8F08F5AA36F
S214401CC0D3E900235046594602F02EFB02460B4607
S214401CD000205C4902F074F9524606460F465B46C1
S214401CE05046594602F020FB02460B4630463946DF
S214401CF002F01AFB06460F46002C40F0A78002462C
S214401D000B465046594602F05BF941EC100B31E762
S214401D10002C00F0AF8032A3D3E90023DDE90001B8
S214401D2002F002FB42464B4604460D465046594694
S214401D3002F046F9DDE9022302F0F6FA2AA3D3E9D7
S214401D40002306460F46DDE9000102F0EDFA21E0E9
S214401D5023A3D3E90023DDE9000102F0E5FA324689
S214401D603B4604460D464046494602F02BF9DDE91F
S214401D70022302F0D9FA1CA3D3E900238046894601
S214401D80DDE9000102F0D0FA02460B4640464946DD
S214401D9002F018F902460B463046394602F010F972
S214401DA052465B4602F00CF902460B462046294650
S214401DB002F006F941EC100B05B0BDE8F08F10EECE
S214401DC0102A0B4602F0FCF80022002302F0D6FB55
S214401DD041EC100BCEE69FED160BCBE6AFF3008042
S214401DE00000E0FE422EE63F763C7935EF39EA3D8C
S214401DF044523EDF12F1C23FDE03CB966446C73FF5
S214401E00599322942449D23F935555555555E53F0D
S214401E109FC678D0099AC33FAF788E1DC571CC3F18
S214401E2004FA97999999D93F555555555555D53FE3
S214401E30000000000000000000005043FFFFEF7F5E
S214401E400000F03F0000E03F000050C3204602F094
S214401E5005FA0FA3D3E900238046894602F064FAC8
S214401E600DA3D3E9002304460D464046494602F0FA
S214401E705BFA8FE702460B465046594602F0A0F8FA
S214401E80DDE9022302F050FA03E700BFAFF300801B
S214401E900000E0FE422EE63F763C7935EF39EA3DDB
S214401EA02DE9F04F51EC110B21F0004858EA0004A0
S214401EB093B03ED053EC102B714E23F00044B44206
S214401EC010EE10AA1D462DDC894611EE10EA28D0E9
S214401ED0B04527DC6A4EB04500F08380002D16469C
S214401EE01F46CDE90001C0F281804FF0000BBEF1E5
S214401EF0000F2FD1624B984500F09580614B984576
S214401F0068D0B9F1804F00F0D1835F4B994521D11D
S214401F10002D1FDB47EC106B13B0BDE8F04F00F010
S214401F2055BF6AB104F1404404F5801454EA0A03EC
S214401F3008D15449002041EC100B13B0BDE8F08F97
S214401F40A045C7DD514813B0BDE8F04F01F0F8BEDC
S214401F504FF0000B47EC106B01F04CFE51EC100BB1
S214401F60BAF1000F1AD124B1464B25F040429A42AE
S214401F7014D1B9F1000FC0F2D383002DDBDA04F19F
S214401F80404404F5801454EA0B0300F0AF84BBF1E0
S214401F90010FD0D101F100431946CCE7ED0F05F112
S214401FA0FF3A5BEA0A0353D0394B984576DD03F196
S214401FB00473984540F30684364B9C4253DDB9F192
S214401FC0000F53DD2CA3D3E900231046194602F038
S214401FD0ABF9B0E7B9F1000FC0F25A843046394643
S214401FE0A9E7BEF1000F3FF479AF9BE72A4B98452F
S214401FF02BDCA3F1547398457FF777AF4FEA28530D
S214402000A3F2FF33142B40F35984C3F134032EFA62
S21440201003F202FA03F39E457FF467AF02F0010233
S214402020C2F1020B63E704F1404303F5801353EA21
S2144020300A033FF47EAF174B9C4240F33E83B9F110
S214402040000F13DBDDE9000175E74FF0020B4EE7AA
S21440205032463B461046194601F0B2FF02460B4652
S21440206002F08CFA67E7B9F1000FABDB00200021E5
S21440207061E700BFAFF300809C7500883CE4377E84
S2144020800000F07F0000F03F0000E03F7C9B4000F7
S2144020900000E041FFFFEF3FFFFF3F43B4F5801FE6
S2144020A04FF0000205DAD64B02F03EF96FF03402EC
S2144020B00C462315D34EC4F31304A3F2FF33134444
S2144020C044F07F55B4421A460D9345F4401540F30C
S2144020D02E83CD4B9C4240F30D849FEDB37B8DED1C
S2144020E0087B8DED0E7B9FEDB27B13468DED067B18
S2144020F001330D93A5F580154FF00008DDE9062362
S2144021002946CDE90A0101F05BFFDDE906230646D4
S2144021100F46DDE90A0101F055FF02460B46002056
S214402120BA4902F02BFA03460C46CDE91034024673
S2144021300B463046394602F0F7F86B1043F0005332
S21440214003F5002303EB08050A4600230146CDE9C4
S21440215002120293DDE902890024CDE904122B46DF
S21440216022464046494602F0DFF802460B463046D5
S214402170394601F025FFDDE9062306460F46204690
S214402180294601F01DFF02460B46DDE90A0101F033
S21440219017FF42464B4602F0C7F802460B4630460B
S2144021A0394601F00DFFDDE9102302F0BDF8DDE908
S2144021B00445CDE9060122462B462046294602F034
S2144021C0B3F87DA3D3E9002304460D4602F0ACF8ED
S2144021D07BA3D3E9002301F0F5FE22462B4602F00E
S2144021E0A3F879A3D3E9002301F0ECFE22462B4660
S2144021F002F09AF876A3D3E9002301F0E3FE2246E4
S2144022002B4602F091F874A3D3E9002301F0DAFEDE
S21440221022462B4602F088F871A3D3E9002301F04A
S214402220D1FE224606460F462B462046294602F059
S2144022307BF802460B463046394602F075F8424671
S21440224004460D464B46DDE9040101F0BBFEDDE9E0
S214402250062302F069F822462B4601F0B3FE4246BA
S21440226006460F464B464046494602F05DF8002279
S214402270674BCDE90A0101F0A5FE32463B4601F028
S214402280A1FE02980D46044622462B464046494645
S21440229002F04AF80022804689465D4B2046294691
S2144022A001F08EFEDDE90A2301F08AFE02460B4667
S2144022B03046394601F084FEDDE9042302F034F866
S2144022C0224606460F462B46DDE9060102F02CF86C
S2144022D002460B463046394601F074FE06460F4627
S2144022E002460B4640464946CDE9048901F06AFE5F
S2144022F002983DA3D3E9002304460D4602F014F8A5
S214402300DDE90423804689462046294601F058FEEA
S21440231002460B463046394601F052FE34A3D3E916
S214402320002302F001F834A3D3E9002306460F4603
S2144023302046294601F0F8FF02460B46304639460D
S21440234001F040FEDDE90E2301F03CFE06460D9806
S2144023500F4601F083FF324604460D463B46404654
S214402360494601F02FFEDDE9082301F02BFE224608
S2144023702B4601F027FE029822462B46CDE9020165
S21440238001F01EFEDDE9082301F01AFE42464B46E8
S21440239001F016FE02460B463046394601F010FE66
S2144023A08046894636E000BF00000000000000007E
S2144023B0000000000000F03FEF4E454A287ECA3F2E
S2144023C065DBC9934A86CD3F01411DA96074D13F64
S2144023D04D268F515555D53FFFAB6FDBB66DDB3F76
S2144023E0033333333333E33F000000E009C7EE3FA7
S2144023F0FD033ADC09C7EE3FF5015B14E02F3EBE15
S214402400000040438E98030079B60B000000F03F72
S214402410000008400BF1FF3353EA0A0300F07B81CB
S2144024209FEDC97B8DED067BDDE900AB53465C46F0
S214402430CDE9003400230093DDE9004550462246AE
S2144024402B46594601F0BCFDDDE9022301F06CFF46
S214402450524606460F465B464046494601F064FFF4
S21440246002460B463046394601F0ACFD22468046D1
S21440247089462B46DDE90201CDE9048901F054FF87
S2144024800B46024606460F464046494601F09AFD30
S214402490C74B994204460D468A4640F3188101F1DF
S2144024A03F4303F5E003034340F0FA81A8A3D3E992
S2144024B00023DDE9040101F085FD32468046894669
S2144024C03B462046294601F07BFD02460B464046E9
S2144024D0494602F0B9F9002840F0E281A8464FEAA2
S2144024E028534FF48012A3F2FE3342FA03F35344C8
S2144024F0C3F30A52AF4DA2F2FF321541C3F31304A1
S21440250023EA05010020C2F1140B44F48014BAF10A
S214402510000F02460B4644FA0BFB30463946B8BF1E
S214402520CBF1000B01F04CFD02460B4606460F462B
S214402530DDE9040101F046FD4FEA0B5A0D46002442
S21440254085A3D3E900232046294601F0EDFE324616
S214402550804689463B462046294601F031FD0246E4
S2144025600B46DDE9040101F02BFD7DA3D3E90023F2
S21440257001F0DAFE7CA3D3E9002306460F46204648
S214402580294601F0D1FE02460B463046394601F058
S21440259019FD06460F4602460B464046494601F0A0
S2144025A011FD42464B4604460D4601F009FD0246E3
S2144025B00B463046394601F003FD224680468946A2
S2144025C02B462046294601F0AFFE69A3D3E90023F7
S2144025D006460F4601F0A8FE67A3D3E9002301F0A4
S2144025E0EFFC32463B4601F09FFE65A3D3E900234D
S2144025F001F0E8FC32463B4601F096FE62A3D3E982
S214402600002301F0DDFC32463B4601F08DFE60A320
S214402610D3E9002301F0D6FC32463B4601F084FE67
S21440262002460B462046294601F0CAFC06460F469F
S21440263002460B462046294601F076FE0022CDE9AA
S21440264000014FF080433046394601F0B9FC02465F
S2144026500B46DDE9000101F091FF424606460F4673
S2144026604B462046294601F05FFE42464B4601F067
S214402670A9FC02460B463046394601F0A1FC2246EC
S2144026802B4601F09DFC02460B4600204A4901F0CD
S21440269097FC8A44BAF5801F02460B46C0F23A8140
S2144026A05146DDE9062301F03FFE44E432463B4610
S2144026B03046394601F038FE3DE4B9F1000FBFF62A
S2144026C0D5ACDDE90034184604F1004133E43B4B19
S2144026D021F00048984540F30081394B0B440343B2
S2144026E00CD132463B4601F06BFC02460B46DDE918
S2144026F0040102F095F800283FF4F1AEDDE906014A
S21440270025A3D3E9002301F00FFE23A3D3E900233A
S21440271001F00AFE0FE49FED227B8DED067B83E6FB
S21440272002460B460020244901F028FF25E49FED91
S2144027301E7B8DED087B8DED0E7B9FED037B4FF072
S21440274000088DED067BD9E4000000000000F03F55
S214402750FE822B654715973C00000000432EE63F5F
S214402760EF39FAFE422EE63F396CA80C615C20BE7B
S214402770D0A4BE726937663EF16BD2C541BDBB3E42
S2144027802CDE25AF6A56113F93BDBE166CC1663F20
S2144027903E5555555555C53F59F3F8C21F6EA501D0
S2144027A0000000000000F0BF000000000000000035
S2144027B0FFFF8F40FFFF0F000000F03FFFCB904031
S2144027C000346F3F6A4B9C427FF74DAC694B9C424E
S2144027D03FF7F5AB0022674B01F0F2FB54A3D3E979
S2144027E0002304460D4601F09FFD53A3D3E9002382
S2144027F0804689462046294601F096FD0022CDE9CE
S21440280002015D4B2046294601F08EFD02460B46EE
S2144028104BA1D1E9000101F0D3FB22462B4601F043
S21440282083FD02460B460020544901F0C9FB224670
S2144028302B4606460F462046294601F075FD0246C1
S2144028400B463046394601F06FFD3FA3D3E90023DF
S21440285001F06AFD02460B46DDE9020101F0B0FBDD
S21440286002460B4604460D464046494601F0AAFB42
S21440287042464B460020CDE9020101F0A1FB02464C
S2144028800B462046294601F09BFB80468946C1E51B
S21440289032463B460020374901F070FEFFF74BBBFF
S2144028A0DDE906012AA3D3E9002301F03DFD28A374
S2144028B0D3E9002301F038FDFFF73DBBBEF1000F22
S2144028C07FF446ABC3F1140348FA03F202FA03F36B
S2144028D0984527D0F346FFF711BB284B98453FF75E
S2144028E0FEADDDE900239246934628E602460B46B7
S2144028F0FFF7B0BB9FED187B8DED087B9FED187BF7
S2144029008DED0E7B9FED187B4FF480288DED067B7A
S214402910FFF7F4BB584643EC102B01F0ADFA51ECF0
S214402920100BBEE602F00102C2F1020BFFF7E6BA58
S214402930000000604715F73F44DF5DF80BAE543E9D
S214402940555555555555D53FFE822B654715F73F8E
S2144029509C7500883CE4377E0000004003B8E23FA8
S21440296006D0CF43EBFD4C3E000000000000F83F91
S214402970FEFFEF3F0000F03F0000D03F0000E03F8A
S2144029802DE9F04753EC102B9D4923F000478F422A
S21440299090B040F391809B498F421C46824629DC8A
S2144029A0002C194610EE100A8BA3D3E9002340F3FF
S2144029B0B18101F005FB944B9F4204460D4600F062
S2144029C0918087A3D3E9002301F0FAFA02460B462A
S2144029D0CAE900232046294601F0F2FA80A3D3E94B
S2144029E0002301F0EDFA0125CAE90201284610B09D
S2144029F0BDE8F08785498F4240F3918084498F42F5
S214402A0065DC3D15A5F21645A7EB05511046164662
S214402A100F4601F039FF01F021FC804689464246C8
S214402A204B4630463946CDE90A8901F0C9FA0022BC
S214402A30784B01F079FC8946804601F025FF01F08D
S214402A400DFC06460F4632463B4640464946CDE9D3
S214402A500C6701F0B5FA00226E4B01F065FC0022CF
S214402A600023CDE90E0101F0C7FE002800F070817A
S214402A70002330463946002201F0BEFE002814BF2F
S214402A8001230223644A019202212A4600910AA8A1
S214402A90514600F0ADFB002C054614DADAF8042067
S214402AA0DAF80C3002F1004203F100434542CAF81E
S214402AB00420CAF80C3006E080ED000B0025002408
S214402AC0C0E902450025284610B0BDE8F08710EE64
S214402AD0100A194601F074FA0025CAE90201CAE94B
S214402AE00001F0E740A3D3E9002301F069FA40A3D0
S214402AF0D3E900230D46044601F062FA02460B462F
S214402B00CAE900232946204601F05AFA38A3D3E9F9
S214402B10002301F055FA0125CAE90201D3E701F086
S214402B2069F859EC108B10EE100A33A3D3E9002352
S214402B30494601F0F9FB0022384B01F043FA01F018
S214402B40A3FE054601F08AFB23A3D3E90023CDE983
S214402B50060101F0E9FB02460B464046494601F0B5
S214402B602FFA1FA3D3E90023CDE90201DDE90601D0
S214402B7001F0DAFB1F2D80468946CDE9048951DCF9
S214402B80274B6A1E53F822309F424BD002460B46D4
S214402B90DDE9020101F014FA80468946CAE9008957
S214402BA042464B46DDE9020101F00AFADDE904231C
S214402BB001F006FA002CCAE9020184DA09F1004461
S214402BC001F100436D42CAF80080CAF80440CAF8D2
S214402BD00800CAF80C3076E700004054FB21F93F65
S214402BE03163621A61B4D03D0000601A61B4D03DD2
S214402BF07370032E8A19A33B83C8C96D305FE43FC8
S214402C00FB21E93F7BD90240FB21F93FFB213941BB
S214402C10FFFFEF7F00007041EC9940000000E03F6E
S214402C206C994000DDE90423DDE9020101F0C8F9B2
S214402C303F15C1F30A53FB1A80468946102BCAE952
S214402C400089ADDD58A3D3E90023DDE9060101F094
S214402C506BFB8046894602460B46DDE9020101F0E1
S214402C60AFF902460B46DDE90201CDE9082301F043
S214402C70A7F942464B4601F0A3F94DA3D3E90023FA
S214402C8080468946DDE9060101F04EFB42464B464A
S214402C9001F096F90B46CDE904010246DDE908014C
S214402CA001F08EF9C1F30A53FF1A80468946312F48
S214402CB0CAE900896CDD41A3D3E90023DDE90601BA
S214402CC001F032FBDDE9088906460F4602460B4610
S214402CD04046494601F074F902460B46404649468E
S214402CE0CDE9022301F06CF932463B4601F068F923
S214402CF034A3D3E9002306460F46DDE9060101F07A
S214402D0013FB32463B4601F05BF902460B46CDE9E3
S214402D1004233DE701F056F9274B9F4204460D46F3
S214402D2018D01FA3D3E9002301F04CF902460B4606
S214402D30CAE900232946204601F042F918A3D3E900
S214402D40002301F03FF94FF0FF35CAE90201BAE629
S214402D50032397E614A3D3E9002301F033F914A321
S214402D60D3E900230D46044601F02CF902460B46F3
S214402D70CAE900232946204601F022F90CA3D3E9EC
S214402D80002301F01FF94FF0FF35CAE902019AE629
S214402D909DED087B8DED027B02E700BFAFF3008020
S214402DA03163621A61B4D03D0000601A61B4D03D10
S214402DB07370032E8A19A33BFB21F93F0000002EB7
S214402DC08A19A33BC14920259A837B392DE9F041D6
S214402DD0634855EC104BA84300F09580002D2B46D9
S214402DE010EE102A70DD2F157DD0A7F2FF37C3F303
S214402DF01303F90743F4801361D403EBD271002622
S214402E000B447F105200B64616204FF400110EEBCE
S214402E1001049C424FEAD2754FEA420203DC1B1B78
S214402E2004EB010E0E44013805EB43034FEA510113
S214402E30EDD1844620244FF0004109E020D003EB3A
S214402E40D275013C4FEA51012B444FEA420220D052
S214402E50734501EB0C05F1DD002D05EB010C09DB9C
S214402E60F0469542A3EB0E0300D9013B521B0844A3
S214402E70C646E4E7BCF1000FF2DB0EF10108F0E7CE
S214402E809542DCD8002D05EB010C4EDB984600231E
S214402E90ECE7134302D0421C4BD00130400871107F
S214402EA0F30701F17F5101F5001148BF40F00040A3
S214402EB001EB0753024643EC102BBDE8F0815B0064
S214402EC003EBD273520098E710EE101A25F000403C
S214402ED0014328D0ADBB2F46D30A153F5205002BE1
S214402EE0FAD0DE0228D4002400E004465B00DD026F
S214402EF004F10100F9D5C0F1200122FA01F10B439B
S214402F003F1B824071E710EE102A2B4610EE100A47
S214402F10294601F009FA22462B4601F053F841ECC7
S214402F20100BBDE8F081BDE8F081BCF1000FA4DADB
S214402F30ACE701362046B2E7002020214FF0FF34B0
S214402F40DBE710EE102A2B462046294601F038F8DB
S214402F5002460B4601F012FB41EC100BBDE8F08137
S214402F600000F07F000000002DE9F04F57EC106B9A
S214402F702DED028BB0EE418AF0EE618A27F00049D3
S214402F80B9F1795F83B072DA10EE100A394601F073
S214402F907BFC002800F0F68032463B4630463946F9
S214402FA001F0C2F97CA3D3E9002304460D4601F0A4
S214402FB0BBF97BA3D3E9002301F004F822462B4655
S214402FC001F0B2F978A3D3E9002300F0F9FF2246D6
S214402FD02B4601F0A9F976A3D3E9002300F0F2FFCF
S214402FE022462B4601F0A0F973A3D3E9002300F054
S214402FF0E7FF22462B4601F097F971A3D3E9002359
S21440300000F0E0FF22462B4601F08EF982468B46C2
S2144030100022714B2046294601F086F952468046EA
S21440302089465B462046294601F07EF953EC182B2C
S21440303004460D463046394601F076F902460B46C0
S2144030402046294600F0BCFF02460B46404649460D
S21440305000F0B6FF02460B460020604900F0B0FF85
S21440306041EC100B03B0BDEC028BBDE8F08F10EEC8
S214403070102A10EE100A3B46394601F055F946A391
S214403080D3E9002304460D4601F04EF944A3D3E9A4
S214403090002300F097FF22462B4601F045F942A355
S2144030A0D3E9002300F08CFF22462B4601F03CF982
S2144030B03FA3D3E9002300F085FF22462B4601F0CC
S2144030C033F93DA3D3E9002300F07AFF22462B468E
S2144030D001F02AF93AA3D3E9002300F073FF2B4608
S2144030E0224601F021F93E4B994582468B468FDDBC
S2144030F03C4B99453DDC0022A9F50013002037499A
S2144031009046994600F05CFFCDE900010022324B24
S2144031102046294601F008F942464B4600F050FF4B
S2144031205246804689465B462046294601F0FCF8D2
S21440313053EC182B04460D463046394601F0F4F859
S21440314002460B462046294600F03AFF02460B460A
S2144031504046494600F034FF02460B46DDE9000192
S21440316000F02EFF41EC100B03B0BDEC028BBDE827
S214403170F08F9FED157B4FF000088DED007BDFF85C
S2144031806890C3E79FED120B03B0BDEC028BBDE821
S214403190F08F00BFAFF30080D43888BEE9FAA8BDF0
S2144031A0C4B1B4BD9EEE213EAD529C804F7E923E51
S2144031B09015CB19A001FA3E7751C1166CC1563F07
S2144031C04C5555555555A53F000000000000E73FBB
S2144031D0000000000000F03F0000E03F0000F03F2D
S2144031E03233D33F0000E93F0000D23F00000000EA
S2144031F02DE9F04FADF51B7DA34CA49EA34D54F88E
S214403200264007942646D41E85FB0475E417C4EB77
S214403210A50424EAE4741D460A93631CA3EB8303C7
S214403220013D02EBC30306932B460B940395651BA7
S214403230F418049008911AD42C4400260027013430
S2144032400DF18808DDF8949208E059F8250001F061
S21440325005F80135A542E8E8020108D0002DF4DA69
S214403260013530463946A542E8E80201F6D1079BCB
S214403270002BC0F2EB83079B03F1010B0A9B22A9AC
S214403280DB001A4601EB03090093049B0DF5E47A34
S21440329019460AEBCB0B01EB0208039B002BC0F24E
S2144032A00183049C4D460026002775E90223F4E876
S2144032B0020101F039F802460B463046394600F026
S2144032C081FE444506460F46EFD1EAE80267DA45F6
S2144032D009F10809E1D107990098049C009101F191
S2144032E08043013B9B0020441A1F83460EA802449D
S2144032F003440C920D93009A9AA901EBC203002A4C
S21440330053E9284529DD0DF5E47A0AEBC2080DF1AC
S214403310340900225E4B2046294601F005F801F0AC
S214403320B3FA00F09BFF00225A4B06460F4600F0C9
S214403330FBFF02460B462046294600F041FE01F0C0
S214403340A3FA78E9022349F8040F3946304600F0DC
S21440335039FED04504460D46DBD1DDF8189045ECE5
S214403360104B484600F088FD55EC104B00224FF0BD
S2144033707F5310EE100A294600F0D6FF41EC100BA2
S21440338000F04AFC002251EC100B434B00F0CCFFFF
S21440339002460B462046294600F012FE0D460446DD
S2144033A001F072FA804600F059FF0B460246294665
S2144033B0204600F005FE4B46002B06460F4640F3DF
S2144033C0FA80009A0EA9013AC9F1180351F8225022
S2144033D045FA03F101FA03F30EA8EB1A40F822303F
S2144033E0C9F11705884443FA05F5002D6EDD009BAC
S2144033F0002B08F1010840F374820E9C002C40F02C
S2144034001B83009B012B40F394820EAA012352F8A3
S214403410044F002C00F08882581C0EAAC4F1807419
S21440342042F82340009A824219DD0EAA0EAC52F8AA
S21440343020106FF07F42511A44F820100099023352
S21440344099420CDD1046009A0EA901EB830301EB6E
S21440345082011A68821A43F8042B8B42F9D1069BE4
S214403460002B1BDD069B012B4FF0010440F04182F0
S214403470009B5A1E0EAB0EA953F82230C3F3160318
S21440348041F8223041E200BF389B4000ABAAAA2A4E
S2144034900000703E0000704100002040022D15D113
S2144034A032463B460020944900F08AFD06460F46C9
S2144034B006989FED8D0B00F0DFFC3046394653EC06
S2144034C0102B00F07DFD022506460F460022002305
S2144034D03046394601F090F9002800F03B82009AC9
S2144034E0079B501E83420FDC02F18043013B0EAA2D
S2144034F00D9C02EB8303002253F80419A34242EAD0
S2144035000102F9D1002A67D1079B0EAA013B52F867
S2144035102330002B40F01C820C9A012352F80419E9
S21440352001330029FAD0009AD31802F1010A9A45CD
S21440353009933DDC009B0A990B9A0B4409990AEBC8
S2144035400208994622AB08F1804803EBC9098B185C
S214403550A59A08F1FF3802EB880872AA02EBCA0A5D
S214403560A59A02EB8303009358F8040F00F076FE0A
S214403570039B002BE9E802014FF000064FF00007DE
S21440358011DB049C4D4675E90223F4E8020100F085
S214403590CBFE02460B463046394600F013FD5C45EE
S2144035A006460F46EFD1009B9845EAE80267DBD116
S2144035B0099B00939FE606D1009B0EAA013B52F85A
S2144035C02350ED1511E700224C4B01F033F900284B
S2144035D040F07281054679E70EA9039551F82030F0
S2144035E00699CDF8248018390246009006916BB9AA
S2144035F000F18043013B0EA800EB830353F8040917
S214403600013A18390028F9D00092069106989FEDA5
S214403610360B00F031FC009B002B55EC104BC0F2F3
S214403620FC81DA0072A901EB020B06920EAA02EBAD
S2144036308306DFF8CC904FF000080BF108070436FD
S21440364056F8040D00F00AFE22462B4600F06CFEAB
S2144036504B4667E9020142462046294600F064FE92
S2144036600EAB9E4204460D46EAD14AACDDF81C90AD
S21440367004944FF0000AB9F1000FC0F22F81DFF832
S21440368084805D461AA1D1E9000100260027002467
S21440369003E0544510DCF8E80201F5E8022300F0A8
S2144036A043FE02460B463046394600F08BFC01345A
S2144036B0A14506460F46ECDA049B03EBCA03ABF182
S2144036C0080BC3E9006770AB9B450AF1010AD2D1EB
S2144036D0A49B049C032B00F28D80DFE813F0C90006
S2144036E092009200150000BF000000000000F03F6E
S2144036F000000040FB21F93F0000F03F0000E03FA3
S2144037000000703E009B4000009B002B40F38281EF
S214403710069A04EB020ADAE9008902F10805254414
S2144037200DF5987B1AED027B42464B4651EC170B43
S2144037308DED047B00F046FC06460F4602460B46DF
S214403740DDE9040100F03CFC42464B4600F03AFC02
S21440375065E902015D45B046B9466AE90267E1D1CE
S214403760009B012B40F35681069BE518D5E900895E
S21440377003F1080B04EB0B0A15ED027B42464B4661
S21440378051EC170B8DED007B00F01CFC06460F46F7
S21440379002460B46DDE9000100F012FC4B4642466D
S2144037A000F010FC6AE902014EAB5345B046B946FC
S2144037B065E90267E0D10020002104EB0B0575E9BE
S2144037C0022300F0FFFBAA45F9D1039B002B00F033
S2144037D00B816268E368089F2568A4683D6002F133
S2144037E0004203F1004301F100417A60FB60BC6097
S2144037F038617961099B03F007000DF51B7DBDE834
S214403800F08F069D083525440020002175E90223E7
S21440381000F0D8FBA542F9D1039B002B00F0D380E3
S214403820089E024601F1004386E80C000B4602461D
S214403830D4E9000100F0C4FB009B002B0BDD4CAD2F
S2144038400124F5E8022300F0BDFB009B0134A342AF
S214403850F7DA039B13B101F100431946089BC3E90D
S2144038600201099B03F007000DF51B7DBDE8F08FB4
S214403870069D083500200021254475E9022300F006
S214403880A1FBAC42F9D1039B13B101F100431946A9
S214403890089BC3E90001099B03F007000DF51B7D5B
S2144038A0BDE8F08F00260027EAE80267DA4509F10E
S2144038B008097FF4F2AC0EE5009B002B08F10108E6
S2144038C0C8BF02253FF799AD32463B4600206149C6
S2144038D000F076FB022506460F46F7E50026002751
S2144038E0EAE6069B002B27DD0024069B012B3FF4CF
S2144038F0BFAD022B09D1009B5A1E0EAB0EA953F842
S2144039002230C3F3150341F82230022D7FF4DEAD9A
S21440391032463B4600204F4900F052FB06460F46D3
S214403920002C3FF4D3ADC3E50099013399427FF4B0
S2144039306EAD069B002BD8DC022D7FF4C7AD324619
S2144039403B460020434900F03BFB06460F46BDE59C
S2144039500123E8E5069B0395584247EC106BCDF8EB
S214403960248000F089FA55EC104B00223A4B10EEBA
S214403970100A294600F05EFF002841D00022374B4F
S2144039802046294600F0D0FC00F07EFF064600F0B8
S21440399065FC0022304B00F0C7FC02460B46204632
S2144039A0294600F00DFB00F06FFF0099069B0A4683
S2144039B01833013206930B460EA9009241F82300B5
S2144039C041F8226022E6089B0246C3E900010B4606
S2144039D0D4E9000100F0F4FA009B002B3FF72FAF2C
S2144039E0089BC3E902013CE7D4E90067D4E9022317
S2144039F0089DC5E90401C5E90067C5E90223F9E663
S214403A002946204600F040FF009A0EA941F82200C1
S214403A10FCE54AAC00200021D7E6A49B032B3FF6EA
S214403A20E9AE01A252F823F0473A40003F3A400040
S214403A303F3A4000133A400001200023EDE40020C6
S214403A4000214AACE8E6002000211CE70A9BDB0088
S214403A50009340E40000F03F000070410000703EDC
S214403A602DE9F04F55EC104B2DED028BB0EE418A10
S214403A70F0EE618A25F00043B3F1795F83B0824669
S214403A8007DA10EE100A294600F0FEFE002800F085
S214403A908E8022462B462046294600F045FC0646A8
S214403AA00F4602460B462046294600F03DFC47A3FB
S214403AB0D3E90023804689463046394600F034FC38
S214403AC044A3D3E9002300F07BFA32463B4600F09D
S214403AD02BFC42A3D3E9002300F074FA32463B465F
S214403AE000F022FC3FA3D3E9002300F069FA3246F7
S214403AF03B4600F019FC3DA3D3E9002300F062FAF0
S214403B00CDE90001BAF1000F37D000222E4B51EC20
S214403B10180B00F009FCDDE9002382468B46404640
S214403B20494600F001FC02460B465046594600F016
S214403B3047FA32463B4600F0F7FB53EC182B00F0B2
S214403B403FFA1FA3D3E9002306460F4640464946A0
S214403B5000F0EAFB02460B463046394600F032FAA1
S214403B6002460B462046294600F02AFA41EC100B46
S214403B7003B0BDEC028BBDE8F08F02460B463046E4
S214403B80394600F0D1FB0EA3D3E9002300F018FA23
S214403B9042464B4600F0C8FB22462B4600F012FA3F
S214403BA041EC100B03B0BDEC028BBDE8F08F45EC4A
S214403BB0104B03B0BDEC028BBDE8F08FAFF3008036
S214403BC0495555555555C53F0000E03F7CD5CF5A21
S214403BD03AD9E53DEB9C2B8AE6E55A3E7DFEB15749
S214403BE0E31DC73ED561C119A0012A3FA6F81011B2
S214403BF01111813F53EC102B23F0004343EC102B64
S214403C00704700BF10EE903A43F0004000F5801039
S214403C10C00F70470000000051EC100BC1F30A5370
S214403C202DE9F041A3F2FF35132D0C460F4610EE5A
S214403C30106A1DDC002D43DB3D4B43FA05F801EAD4
S214403C400803034319D038A3D3E9002300F0BAF998
S214403C500022002300F0F8FD20B1002C49DB27EAC3
S214403C60080400262346324643EC102BBDE8F0817C
S214403C70332D06DDB5F5806F32D041EC100BBDE834
S214403C80F081A3F213434FF0FF3828FA03F810EA06
S214403C90080FF2D024A3D3E9002300F093F90022C2
S214403CA0002300F0D1FD0028DCD0002C27DB3C466A
S214403CB026EA08062346324643EC102BBDE8F08140
S214403CC019A3D3E9002300F07DF90022002300F079
S214403CD0BBFD0028C6D0002C1CDB00263446C1E7BE
S214403CE010EE102A0B4600F06DF941EC100BBDE8C3
S214403CF0F0814FF4801343FA05F52F44AFE7142DB7
S214403D0010D00123C5F1340503FA05F5AE1928BFD6
S214403D10FF18CCE724F00042064B324318BF1C463F
S214403D2000269FE70137C2E79C7500883CE4377E53
S214403D30FFFF0F000000F0BF0020704700000000AB
S214403D409FED010B704700BF000000000000F87FA9
S214403D50F0B553EC102BC3F30A56A6F2FF301328E7
S214403D6083B019464FEAD37410EE105A2FDC002861
S214403D7049DB3E4E064103EA060717432CD0760839
S214403D8033401D430CD04FF48023132821EA060607
S214403D9043FA00F141EA06010CBF4FF0004500250A
S214403DA0334800EBC4042A46D4E9004510462B4667
S214403DB0224600F007F9CDE9000122462B46DDE910
S214403DC0000100F0FDF841EC100B03B0F0BD3328C5
S214403DD006DDB0F5806F40D043EC102B03B0F0BD4D
S214403DE0A6F213464FF0FF30F0400242F4D04008AF
S214403DF00242D5D04FF0804325EA000043FA06F64B
S214403E0046EA0005CCE723F000401043E4D0C3F375
S214403E101300104347420743154D5E0C3F0B07F413
S214403E200023760405EBC40243EA0601D2E90067A4
S214403E3010EE100A32463B4600F0C4F8CDE90001C9
S214403E403B463246DDE9000100F0BAF821F0004377
S214403E5043EAC47141EC100BC0E710EE100A194655
S214403E6000F0B0F841EC100BB8E700BFFFFF0F00C2
S214403E70489B40000000000053EC102B70B5C3F385
S214403E800A541946054614BB23F0004111432AD074
S214403E9019460022384B394E10EE100A00F044FA0C
S214403EA0B54202460B461FDBC1F30A54363C2C444F
S214403EB040F2FE7084421FDC002C2DDD21F0FF41D5
S214403EC021F4E00141EA045343EC102B70BD40F26C
S214403ED0FF708442EBD110EE100A194600F072F8DB
S214403EE041EC100B70BD70BD1FA3D3E9002300F05A
S214403EF01BFA41EC100B70BD43EC112B9FED1C0BD5
S214403F0000F040F81AA3D3E9002351EC100B00F060
S214403F100BFA41EC100B70BD14F1350F13DA4CF26E
S214403F2050318D4243EC112BE8DC9FED0F0B00F037
S214403F3029F80DA3D3E9002351EC100B00F0F4F957
S214403F4041EC100B70BD21F0FF4121F4E001363406
S214403F5041EA0453104619460022094B00F0E4F9A2
S214403F6041EC100B70BD00BF59F3F8C21F6EA5019F
S214403F709C7500883CE4377E00005043B03CFFFF11
S214403F800000903C53EC102B11EE900A23F00041B9
S214403F9000F0004041EA000343EC102B704700BF9E
S214403FA010B58260016004460A011846002100F000
S214403FB015FD606010BD00BF81F0004102E000BF0B
S214403FC083F0004330B54FEA41044FEA430594EA94
S214403FD0050F08BF90EA020F1FBF54EA000C55EACF
S214403FE0020C7FEA645C7FEA655C00F0E2804FEAA0
S214403FF05454D4EB5555B8BF6D420CDD2C4480EA82
S214404000020281EA030382EA000083EA010180EAB1
S214404010020281EA0303362D88BF30BD11F0004FFF
S2144040204FEA01314FF4801C4CEA113102D0404235
S21440403061EB410113F0004F4FEA03334CEA133370
S21440404002D0524263EB430394EA050F00F0A78088
S214404050A4F10104D5F1200E0DDB02FA0EFC22FA83
S21440406005F2801841F1000103FA0EF2801843FA77
S21440407005F359410EE0A5F120050EF1200E012A68
S21440408003FA0EFC28BF4CF0020C43FA05F3C018A6
S21440409051EBE37101F0004507D54FF0000EDCF11F
S2144040A0000C7EEB00006EEB0101B1F5801F1BD3C8
S2144040B0B1F5001F0CD349085FEA30004FEA3C0CCC
S2144040C004F101044FEA445212F5800F80F09A80C2
S2144040D0BCF1004F08BF5FEA500C50F1000041EBC6
S2144040E0045141EA050130BD5FEA4C0C404141EBCA
S2144040F0010111F4801FA4F10104E9D191F0000FF1
S21440410004BF01460020B1FA81F308BF2033A3F173
S2144041100B03B3F120020CDA0C3208DD02F1140C6A
S214404120C2F10C0201FA0CF021FA02F10CE002F1A5
S2144041301402D8BFC2F1200C01FA02F120FA0CFC9E
S214404140DCBF41EA0C019040E41AA2BF01EB0451E7
S214404150294330BD6FEA04041F3C1CDA0C340EDCE5
S21440416004F11404C4F1200220FA04F001FA02F328
S21440417040EA030021FA04F345EA030130BDC4F1E6
S2144041800C04C4F1200220FA02F001FA04F340EADB
S2144041900300294630BD21FA04F0294630BD94F08C
S2144041A0000F83F4801306BF81F480110134013D73
S2144041B04EE77FEA645C18BF7FEA655C29D094EAE4
S2144041C0050F08BF90EA020F05D054EA000C04BF62
S2144041D01946104630BD91EA030F1EBF002100204D
S2144041E030BD5FEA545C05D14000494128BF41F0EC
S2144041F0004130BD14F580043CBF01F5801130BD50
S21440420001F0004545F0FE4141F470014FF00000DA
S21440421030BD7FEA645C1ABF194610467FEA655C8B
S2144042201CBF0B46024650EA013406BF52EA03352D
S21440423091EA030F41F4002130BD00BF90F0000F1B
S21440424004BF0021704730B54FF4806404F1320457
S2144042504FF000054FF0000150E700BF90F0000F10
S21440426004BF0021704730B54FF4806404F1320437
S21440427010F0004548BF40424FF000013EE700BF07
S21440428042004FEAE2014FEA31014FEA02701FBF97
S21440429012F07F4393F07F4F81F06051704792F069
S2144042A0000F14BF93F07F4F704730B54FF46074E3
S2144042B001F0004521F0004120E700BF50EA01022E
S2144042C008BF704730B54FF000050AE050EA0102DB
S2144042D008BF704730B511F0004502D5404261EB4B
S2144042E041014FF4806404F132045FEA915C3FF48C
S2144042F0DCAE4FF003025FEADC0C18BF03325FEA25
S214404300DC0C18BF033202EBDC02C2F1200300FAD9
S21440431003FC20FA02F001FA03FE40EA0E0021FAFE
S21440432002F11444C1E600BF70B54FF0FF0C4CF4E8
S214404330E06C1CEA11541DBF1CEA135594EA0C0F9E
S21440434095EA0C0F00F0DEF82C4481EA030621EAD9
S2144043504C5123EA4C5350EA013518BF52EA033514
S21440436041F4801143F4801338D0A0FB02CE4FF0C6
S2144043700005E1FB02E506F00042E0FB03E54FF0F6
S2144043800006E1FB03569CF0000F18BF4EF0010EEE
S214404390A4F1FF04B6F5007F64F5407404D25FEAEA
S2144043A04E0E6D4146EB060642EAC62141EA55519D
S2144043B04FEAC52040EA5E504FEACE2EB4F1FD0CDF
S2144043C088BFBCF5E06F1ED8BEF1004F08BF5FEA5D
S2144043D0500E50F1000041EB045170BD06F000460F
S2144043E046EA010140EA020081EA0301B4EB5C04BC
S2144043F0C2BFD4EB0C0541EA045170BD41F48011B4
S2144044004FF0000E013C00F3AB8014F1360FDEBFD8
S214404410002001F0004170BDC4F10004203C35DAB4
S2144044200C341BDC04F11404C4F1200500FA05F337
S21440443020FA04F001FA05F240EA020001F00042D8
S21440444021F0004110EBD37021FA04F642EB06014E
S2144044505EEA430E08BF20EAD37070BDC4F10C0478
S214404460C4F1200500FA04F320FA05F001FA04F23C
S21440447040EA020001F0004110EBD37041F1000128
S2144044805EEA430E08BF20EAD37070BDC4F1200533
S21440449000FA05F24EEA020E20FA04F301FA05F29B
S2144044A043EA020321FA04F001F0004121FA04F243
S2144044B020EA020000EBD3705EEA430E08BF20EA13
S2144044C0D37070BD94F0000F0FD101F0004640004D
S2144044D041EB010111F4801F08BF013CF7D041EACF
S2144044E0060195F0000F18BF704703F000465200D3
S2144044F043EB030313F4801F08BF013DF7D043EAA4
S2144045000603704794EA0C0F0CEA135518BF95EA59
S2144045100C0F0CD050EA410618BF52EA4306D1D1E0
S21440452081EA030101F000414FF0000070BD50EAFF
S214404530410606BF1046194652EA430619D094EA89
S2144045400C0F02D150EA013613D195EA0C0F05D173
S21440455052EA03361CBF104619460AD181EA0301C7
S21440456001F0004141F0FE4141F470014FF000007F
S21440457070BD41F0FE4141F4780170BD70B54FF01A
S214404580FF0C4CF4E06C1CEA11541DBF1CEA13559A
S21440459094EA0C0F95EA0C0F00F0A7F8A4EB05047C
S2144045A081EA030E52EA03354FEA013100F0888073
S2144045B04FEA03334FF0805545EA131343EA12633C
S2144045C04FEA022245EA111545EA10654FEA0026F1
S2144045D00EF000419D4208BF964244F1FD0404F5AA
S2144045E0407402D25B084FEA3202B61A65EB030506
S2144045F05B084FEA32024FF480104FF4002CB6EBC3
S214404600020E75EB030E22BFB61A754640EA0C0042
S2144046105B084FEA3202B6EB020E75EB030E22BF82
S214404620B61A754640EA5C005B084FEA3202B6EBC3
S214404630020E75EB030E22BFB61A754640EA9C0082
S2144046405B084FEA3202B6EB020E75EB030E22BF52
S214404650B61A754640EADC0055EA060E18D04FEA10
S214404660051545EA16754FEA06164FEAC30343EAB0
S21440467052734FEAC2025FEA1C1CC0D111F4801F7D
S2144046800BD141EA00014FF000004FF0004CB6E776
S21440469011F4801F04BF01430020B4F1FD0C88BF15
S2144046A0BCF5E06F3FF6AFAEB5EB030C04BFB6EB20
S2144046B0020C5FEA500C50F1000041EB045170BD13
S2144046C00EF0004E4EEA113114EB5C04C2BFD4EB40
S2144046D00C0541EA045170BD41F480114FF0000EC4
S2144046E0013C90E645EA060E8DE60CEA135594EA40
S2144046F00C0F08BF95EA0C0F3FF43BAF94EA0C0F43
S2144047000AD150EA01347FF434AF95EA0C0F7FF4B7
S21440471025AF104619462CE795EA0C0F06D152EA0B
S21440472003353FF4FDAE1046194622E750EA4106EF
S21440473018BF52EA43067FF4C5AE50EA41047FF400
S2144047400DAF52EA43057FF4EBAE12E74FF0FF3C65
S21440475006E000BF4FF0010C02E000BF4FF0010C36
S2144047604DF804CD4FEA410C7FEA6C5C4FEA430CAF
S21440477018BF7FEA6C5C1BD001B050EA410C0CBFFE
S21440478052EA430C91EA030F02BF90EA020F002060
S214404790704710F1000F91EA030F58BF994208BFC7
S2144047A090422CBFD8176FEAE37040F00100704784
S2144047B04FEA410C7FEA6C5C02D150EA013C07D1DB
S2144047C04FEA430C7FEA6C5CD6D152EA033CD3D026
S2144047D05DF8040B704700BF8446104662468C4620
S2144047E01946634600E000BF01B5FFF7B7FF002853
S2144047F048BF10F1000F01BD4DF808EDFFF7F4FF7C
S2144048000CBF012000205DF808FB00BF4DF808ED06
S214404810FFF7EAFF34BF012000205DF808FB00BF29
S2144048204DF808EDFFF7E0FF94BF012000205DF84B
S21440483008FB00BF4DF808EDFFF7CEFF94BF012000
S21440484000205DF808FB00BF4DF808EDFFF7C4FFF9
S21440485034BF012000205DF808FB00BF4FEA410C42
S2144048607FEA6C5C02D150EA013C0AD14FEA430C25
S2144048707FEA6C5C02D152EA033C02D14FF0000062
S21440488070474FF0010070474FEA410212F50012A0
S21440489015D211D56FF47873B3EB625212D94FEA42
S2144048A0C12343F0004343EA505311F0004F23FA2C
S2144048B002F018BF404270474FF00000704750EA81
S2144048C0013005D111F0004008BF6FF0004070473E
S2144048D04FF00000704700BF4FEA4102B2F1E0439C
S2144048E024BFB3F5001CDCF1FE5C0DD901F0004C92
S2144048F04FEAC0024CEA5070B2F1004F40EB8300E2
S21440490008BF20F00100704711F0804F21D113F10D
S2144049103872BCBF01F00040704741F480114FEA46
S2144049205252C2F11802C2F1200C10FA0CF320FACF
S21440493002F018BF40F001004FEAC1234FEAD323EC
S21440494003FA0CFC40EA0C0023FA02F34FEA430356
S214404950CCE77FEA625307D150EA01331EBF4FF0DF
S214404960FE4040F44000704701F0004040F0FE40FA
S21440497040F40000704700BF0A22002100F062BAEF
S214404980014B1868704700BF1400002070B50F4EEA
S2144049900F4D761BB61018BF002405D0013455F8CD
S2144049A0043B9847A642F9D10A4E0B4D761B05F0BC
S2144049B017FAB61018BF002406D0013455F8043B49
S2144049C09847A642F9D170BD70BD00BFEC9D40002F
S2144049D0EC9D4000F49D4000EC9D400070B486077E
S2144049E046D0541E002A41D0CAB2034602E014F113
S2144049F0FF343BD303F8012B9D07F8D1032C2ED967
S214404A00CDB245EA05250F2C45EA054519D903F1EF
S214404A1010022646103E0F2E42F8105C42F80C5C00
S214404A2042F8085C42F8045C02F11002F2D8A4F1A5
S214404A30100222F00F0204F00F041032032C13442D
S214404A400DD91E462246043A032A46F8045BFAD895
S214404A50221F22F003020432134404F003042CB154
S214404A60C9B21C4403F8011B9C42FBD170BC704782
S214404A7014460346C2E700BF0FB400B5074983B0EB
S214404A8004AB086853F8042B8168019300F0F0F9F2
S214404A9003B05DF804EB04B0704700BF140000207C
S214404AA000290CBF022200224FF4806300F000B8B9
S214404AB02DE9F043614C256883B004460F46904686
S214404AC01E4615B1AB6B002B64D0B8F1020F06D072
S214404AD0B8F1010F00F29F80002EC0F29C80636EFA
S214404AE0D80734D52146284602F098FD216B41B1BF
S214404AF004F14003994202D0284602F089FE002382
S214404B002363B4F90C300022A26162601A063AD4DC
S214404B1023F44A6323F00303B8F1020FA3811DD0A8
S214404B2001AB6A462146284602F0AAFFA3891843ED
S214404B30A081002E32D1009E304603F019F8074679
S214404B4000286BD0A38943F08003A38128E0A38983
S214404B509905C7D4A06D02F08FFFC3E70025616EAC
S214404B60002604F1430243F002030120A660CE076C
S214404B70A38122602261606101D498053ED5284613
S214404B8003B0BDE8F0832169284602F041FEB4F93F
S214404B900C30BDE7284602F099FD96E7002FCBD0B3
S214404BA0AB6B002B33D0009BB4F90C2027609E42A1
S214404BB01CBF42F40062A281B8F1010F04BF42F06C
S214404BC00102A28192B212F00803276166610ED0FC
S214404BD0D1071AD5656E7642002315F00105A66109
S214404BE0A36009D00025284603B0BDE8F083A36043
S214404BF0656E15F00105F5D19305C0D4A06D02F0A1
S214404C003DFF284603B0BDE8F083A660F0E728469F
S214404C1002F05CFDC7E74FF0FF35B0E7DDF80090E7
S214404C20B14504D0484602F0A3FF074620B9B4F980
S214404C300C304FF0FF3592E74E4683E714000020D5
S214404C4090F800F06DE9024520F007016FF0000C87
S214404C5010F0070491F820F040F049804FF000042F
S214404C606FF00700D1E9002391F840F000F108000A
S214404C7082FA4CF2A4FA8CF283FA4CF3A2FA8CF342
S214404C804BBBD1E9022382FA4CF200F10800A4FAA9
S214404C908CF283FA4CF3A2FA8CF3E3B9D1E90423FD
S214404CA082FA4CF200F10800A4FA8CF283FA4CF334
S214404CB0A2FA8CF37BB9D1E9062301F1200182FAEE
S214404CC04CF200F10800A4FA8CF283FA4CF3A2FAF4
S214404CD08CF3002BC6D0002A04BF04301A4612BA02
S214404CE0B2FA82F2FDE8024500EBD2007047D1E905
S214404CF0002304F00305C4F100004FEAC50514F094
S214404D00040F91F840F00CFA05F562EA05021CBF64
S214404D1063EA050362464FF00004A9E72DE9F84F21
S214404D20DDF828900F46804616461D468A4600E027
S214404D30A2465446484614F801BB02F087FE584443
S214404D40427812F00802F3D1BBF12D0F4FD0BBF1E1
S214404D502B0F04BF94F800B00AF102041DB1102DC9
S214404D6056D0AC4604E0BBF1300F60D00A25AC46C6
S214404D70002A0CBF6FF000494FF000490021B9FBF4
S214404D80FCFE08460CFB1E9A05E029D00CFB0030C2
S214404D90012114F801BBABF13003092B05D9ABF167
S214404DA04103192B0BD8ABF137039D420FDDB1F110
S214404DB0FF3FEED08645E8D24FF0FF31E9E7ABF152
S214404DC06103192B03D8ABF157039D42EFDC4B1C14
S214404DD013D002B1404246B1C1B93760BDE8F88F42
S214404DE09A45D3DA4FF0FF31D3E7BDE8F88F94F811
S214404DF000B001220AF10204B0E72223C8F80030CE
S214404E00EEB1671E48463760BDE8F88F8146F8E742
S214404E10BBF1300FA5D1237803F0DF03582BA0D188
S214404E204FF0100C94F801B065460234A0E72378A2
S214404E3003F0DF03582BF3D00825AC4698E74846E6
S214404E40BDE8F88F30B5084C084B25686C6B83B0CE
S214404E50002C08BF1C46009413460A4601462846C6
S214404E60FFF75CFF03B030BD140000204404002070
S214404E702DE9F04FBFB01D468A4691460446049041
S214404E8002F0E8FD036811931846FFF7D9FE0A952D
S214404E9010901CB1A36B002B00F06282DAF86430ED
S214404EA0BAF90C2013F0010F93B202D1990540F1E4
S214404EB078829F040AD4DAF8641042F4005321F44E
S214404EC00051AAF80C30CAF864109BB21E0740F195
S214404ED02682DAF81020002A00F0218203F01A0217
S214404EE00A2A00F041829FED8E7B00238DED0E7BDB
S214404EF00D93239322931293139307932EAB2193F0
S214404F009846CDF818A099F800304C46EBB1252BC2
S214404F1002D11AE0252B03D014F8013F002BF9D11B
S214404F20A4EB09058DB1229B239AC8F80090013363
S214404F302A44072BC8F804502392229300F3058294
S214404F4008F10808079B2B4407932378002B00F0B2
S214404F50FE8300231A468DF86730194608939B4611
S214404F6066784FF0FF3304F10109059309F1010912
S214404F70A6F12003582B00F2CD83DFE813F0E502BC
S214404F80CB03CB035403CB03CB03CB03CB03CB03E3
S214404F90CB0359030D03CB031E02ED02CB030803DC
S214404FA03F033F033F033F033F033F033F033F03AC
S214404FB03F03CB03CB03CB03CB03CB03CB03CB03C8
S214404FC0CB03CB03CB034E036703CB036703CB0371
S214404FD0CB03CB03CB03B003CB03CB036F00CB0396
S214404FE0CB03CB03CB03CB035900CB03CB03230329
S214404FF0CB03CB03CB03CB03CB03CB03CB03CB03FC
S214405000CB03CB0329037802670367036703BC021D
S2144050107802CB03CB03C102CB03CE02710012034E
S2144050204B02CB035702CB035B00CB03CB032302DD
S2144050304BF0100B1BF0200F40F061830A9A1BF0D8
S214405040100F134640F0CA851BF0400F00F0C6858F
S21440505014880432002501230A9214E04BF0100B0A
S2144050601BF0200340F040831BF0100240F0A58563
S2144050701BF0400300F0A1850A9913460A46043205
S2144050800C880A9200254FF0000A8DF867A0059913
S2144050904A1C00F010822BF08002029254EA05026D
S2144050A040F00F82002940F07C84002B40F03A8587
S2144050B01BF00103099300F076863EAF302307F8D5
S2144050C0413D059B099A9342B8BF1346039300237C
S2144050D00C93BAF1000F02D0039B01330393029B5B
S2144050E013F002030B9302D0039B02330393029BFD
S2144050F013F0840540F02983089B039AA3EB020B28
S214405100BBF1000F40F32183BBF1100F2399229A85
S2144051102CDD43461024A846DDF810A0069D0AE084
S2144051200000000000000000ABF1100BBBF1100FB8
S21440513003F1080318DD0132B94822921031072ADC
S214405140239183E81100EFDD21AA2946504603F05B
S21440515067FC002840F07483ABF1100BBBF1100FD6
S2144051602399229A2EABE6DC454698460132AC4B54
S21440517022920BEB0104072A239488E8080800F3E0
S214405180D6849DF867A008F10808BAF1000F0ED043
S214405190229B013301340DF167010122072B239432
S2144051A0229388E8060000F3138408F108080B9B56
S2144051B06BB1229B013302341AA90222072B239497
S2144051C0229388E8060000F30F8408F10808802D33
S2144051D000F03883059B099AA3EB020ABAF1000F48
S2144051E03BDDBAF1100F229B8E4D2BDD4246214609
S2144051F0B0464FF0100B2E46049C069D06E0AAF1E2
S214405200100ABAF1100F02F1080217DD013310310F
S214405210072B2391229382E84008F0DD21AA2946F5
S214405220204603F0FDFB002840F00A83AAF1100A4E
S214405230BAF1100F2399229B2EAAE7DC35460C467E
S2144052404646904601335444072B2394229388E8DD
S214405250200400F3B28308F10808029BDB0500F146
S2144052608F82229B0999C8F8007001330C44072BA3
S2144052702394C8F80410229300F37E8308F10808AC
S214405280029B59073BD5089B039A9D1A002D36DD95
S214405290102D229B21DD1026049FDDF818A004E087
S2144052A0103D102D08F1080817DD01335C4A2293A3
S2144052B01034072B239488E84400F1DD21AA514698
S2144052C0384603F0ADFB002840F04982103D102DD3
S2144052D0239C229B0DF1B808E7DC0133504A229309
S2144052E02C44072B239488E8240008DD21AA06993D
S2144052F0049803F095FB002840F05083239C079BBE
S214405300089A03998A42ACBF9B185B180793002CF7
S21440531040F03C83002322930DF1B808F3E5514654
S214405320049801F0ADF8002838D0DAF86430DD078C
S21440533004D4BAF80C309C0540F1D9854FF0FF33C1
S214405340079307983FB0BDE8F08F21AA06990498C6
S21440535003F066FB002840F021830DF1B808F1E524
S214405360049802F0B3F999E5BAF90E20002AFFF640
S214405370BAADDAF86420D00705D4990503D4DAF834
S214405380580002F07BFB2B464A465146049801F0F3
S21440539035F8079007983FB0BDE8F08FBAF80C3064
S2144053A09CE5DAF8580002F067FBBAF90C2093B295
S2144053B07FE508980A93404208904BF0040B99F812
S2144053C00060D3E5002A40F0F387174B12931BF09A
S2144053D0200F40F0CD840A9A1BF0100F134640F081
S2144053E0E7831BF0400F00F0E383043314880A93EE
S2144053F000251BF0010F00F02B8354EA050300F054
S214405400278330238DF868308DF869604BF0020BA7
S214405410022338E64BF0200B99F80060A6E500BF63
S214405420A09B4000B09B4000809B40000A9A1768B3
S21440543000248DF86740151D002F00F05C86059A05
S214405440531C00F0DA852146384602F061FE0028FB
S21440545000F0D686C31B099305940A95CDF808B08C
S21440546023EAE37303930C949DF867A031E6002A81
S21440547040F0A9871BF0200F40F088841BF0100FE7
S21440548040F0A3831BF0400F00F09F830A99B1F9C8
S21440549000400431E51722462B460A91002A73F154
S2144054A00003C0F2908405999DF867A04A1C4FF00F
S2144054B001037FF4F0AD54EA050200F07482CDF8A3
S2144054C008B0012B00F01083022B40F09D8212980A
S2144054D02EAF230904F00F0143EA05732A091C4640
S2144054E01546435C07F8013D54EA0503F1D12EAB5F
S2144054F0DB1B0993E5E54BF0400B99F8006035E57A
S21440550099F800606C2E03BF99F801604BF0200BB1
S21440551009F101094BF0100B28E5002A40F063879B
S2144055201BF0200F40F04D851BF0100F40F005811A
S2144055301BF0400F00F001810A9A136804320A9269
S214405540BDF81C201A80DEE499F8006000297FF43C
S2144055500DAD0122202109E599F800602A2E09F1B7
S214405560010000F00387A6F13003092B814698BF5F
S214405570002000F2518619F8016B00EB800003EB27
S2144055804000A6F13003092BF5D90590F0E44BF026
S214405590800B99F80060E9E499F8006001222B211D
S2144055A0E4E40A9AB24B1468129378263023043205
S2144055B08DF868304BF0020B0A9200258DF8696032
S2144055C0022360E5002A40F00A87AA4B1293FEE6C3
S2144055D00A99CDF808B00A688DF8902000230A464C
S2144055E09A468DF86730043201230393CDF814A011
S2144055F0CDF830A00A92099324AF70E5A6F13003A7
S214405600002019F8016B00EB800003EB4000A6F188
S2144056103003092BF5D90890AAE4002A40F0DB862F
S2144056204BF0100B26E74BF0010B99F800609DE419
S2144056300A9C2368089318460028234603F104036F
S214405640FFF6B7AE0A9399F800608FE4002A40F060
S214405650B3860A9D1BF0080F05F1070500F03C8451
S21440566025F0070393ED007B8DED0E7B03F10802DA
S2144056700A92DDE90E1222F0004314911593DDE9FB
S21440568014454FF0FF32204629467B4BFFF7E6F89D
S214405690002840F0A2834FF0FF32774B2046294641
S2144056A0FFF7BEF8002840F0988300220023DDE98B
S2144056B00E01FFF7ABF8002840F037849DF867A04E
S2144056C06E4F6F4B032200212BF080000392059112
S2144056D00290472ED8BF1F4609920C91F9E44BF032
S2144056E0080B99F8006041E40A9D073525F007034A
S2144056F003F10802D3E900450A920023C3E40A9D59
S214405700073525F0070303F10802D3E900450A925E
S2144057100123B8E4002A40F05A86C6B1002301228D
S2144057209A4603928DF89060CDF808B08DF86730B1
S21440573005930C93099224AFD1E40A9A1368043275
S2144057400A92079A1A60FFF7DEBB239C1DE5239B4F
S214405750DDF818A0002B40F0698500232293DAF884
S214405760643013F0010FBAF80C3002D19A0540F1BC
S21440577048825B063FF5E2AD07983FB0BDE8F08F44
S214405780652E40F3B18000220023DDE90E01FFF7CD
S21440579033F8002800F05F81229B3A4AC8F8002080
S2144057A0013301340122072B23942293C8F80420A6
S2144057B000F3C48308F108081B9B0D9A239C934270
S2144057C003DB029BDF077FF55BAD229B1099119AA6
S2144057D0C8F8002001330C44072BC8F80410239463
S2144057E0229300F3FD8308F108080D9B5E1E002EF1
S2144057F07FF746AD102E229B234D40F3CF811027D6
S214405800DDF810A0DDF818B005E008F10808103EF5
S214405810102E40F3C38101331034072B2394229378
S21440582088E8A000F1DD21AA5946504603F0F8F872
S214405830002840F0D283239C229B0DF1B808E6E76F
S214405840AA468CE7089B039AA3EB020ABAF1000F1C
S2144058507FF7C0ACBAF1100F229B0B4D38DD4246A5
S2144058602146B0464FF0100B2E46049C069D14E091
S214405870809B40006C9B4000FFFFEF7F609B40009A
S2144058805C9B40009C9B4000B09B4000AAF1100AE5
S214405890BAF1100F02F1080216DD01331031072B62
S2144058A02391229382E84008F0DD21AA294620462B
S2144058B003F0B6F80028C3D1AAF1100ABAF1100FC7
