:020000040040BA
:10000000B86C002079034000750340007503400080
:1000100075034000750340007503400000000000B8
:100020000000000000000000000000007503400018
:100030007503400000000000750340007503400098
:1000400075034000750340007503400075034000D0
:1000500075034000750340007503400075034000C0
:100060007503400081084000000000007503400057
:1000700075034000750340007503400075034000A0
:10008000B107400075034000750340007503400050
:100090007503400075034000750340007503400080
:1000A0007503400075034000750340007503400070
:1000B00075034000750340000000000000000000D0
:1000C0000000000000000000000000000000000030
:1000D0000000000000000000000000000000000020
:1000E0000000000000000000000000000000000010
:1000F0000000000000000000000000007503400048
:10010000750340007503400010B5054C237833B9E2
:10011000044B13B10448AFF300800123237010BDDA
:10012000E8090020000000000C8140000C4B43B1A6
:100130000C480D4910B5AFF300800C48036823B993
:1001400010BD0A48036833B97047094B002BF7D03C
:10015000BDE810401847064B002BF5D0184700BFEC
:10016000000000000C814000EC0900200C814000E0
:100170000000000008B57C4B4FF498125A60002232
:100180005A631B6A13F4807F0ED06FF07F43764969
:10019000013B0A6A12F4807F03D0002BF8D10020C3
:1001A00008BD002B00F0CC806F4B05225A631B6A00
:1001B00013F4807F0ED06FF07F436B49013B0A6AD6
:1001C00012F4807F03D0002BF8D1002008BD002B53
:1001D00000F0B880644B00225A631B6A13F4807FDE
:1001E0000ED06FF07F436049013B0A6A12F4807FB2
:1001F00003D0002BF8D1002008BD002B00F0A48014
:10020000594B38225A631B6A13F4807F0ED06FF06B
:100210007F435549013B0A6A12F4807F03D0002BCB
:10022000F8D1002008BD002B00F090804E4B012239
:100230005A631B6A13F4807F0DD06FF07F434A49E5
:10024000013B0A6A12F4807F03D0002BF8D1002012
:1002500008BD002B7CD0444B2A225A631B6A13F43E
:10026000807F0DD06FF07F433F49013B0A6A12F453
:10027000807F03D0002BF8D1002008BD002B69D06F
:10028000394B31225A631B6A13F4807F0DD06FF013
:100290007F433549013B0A6A12F4807F03D0002B6B
:1002A000F8D1002008BD002B56D02F4B0B225A63EB
:1002B0001B6A13F4807F0DD06FF07F432A49013B06
:1002C0000A6A12F4807F03D0002BF8D1002008BD09
:1002D000002B43D0244BFF225A631B6A13F4807F08
:1002E0000DD06FF07F432049013B0A6A12F4807FF2
:1002F00003D0002BF8D1002008BD002B30D01A4BC2
:10030000FF225A631B6A13F4807F0CD06FF07F4387
:100310001549013B0A6A12F4807F03D0002BF8D103
:10032000002008BDF3B102220F4B1A601A46136A6F
:1003300013F0010FFBD00D480D4B9847012008BD6D
:10034000002008BD002008BD002008BD002008BD19
:10035000002008BD002008BD002008BD002008BD09
:10036000002008BD002008BD00C60040A07B400062
:10037000290D4000FEE7000008B5174B174A9A42C6
:1003800010D0174B144A9A420CD2013B9B1A23F00F
:10039000030304331344114951F8040B42F8040BCE
:1003A0009A42F9D10F4B104A9A420AD2013B9B1A4A
:1003B00023F0030304331344002142F8041B934247
:1003C000FBD10A4A0A4B23F07F039360094B9847FD
:1003D000094B9847FEE700BF000000200C81400059
:1003E000E8090020B43A0020E809002000ED00E010
:1003F00000004000252C4000B1054000014A024B9E
:100400001A60704700127A000000002030B4029D8C
:100410004FF08044C4F80801C4F80C51C4F8180126
:10042000C4F81C51C4F80021C4F80451C4F81021C8
:10043000C4F81451074A9160D5609161D561136089
:1004400055601361556140F20113C4F82031136205
:1004500030BC70470002004070B582B01F4C656828
:1004600045F4C02545F01F056560256F25F4C025BE
:1004700025F003052567656F25F4C02525F00305E4
:100480006567256F45F01C052567656F25F01C0520
:1004900065674FF08044802525604FF4C446666050
:1004A000069E00960E4EB04765610E4A002382F804
:1004B00010334FF4803111602360236843F001034F
:1004C0002360236843F010032360236843F0040390
:1004D00023600548054B984702B070BD000E0E40E2
:1004E0000D04400000E100E0BC7B4000290D40000D
:1004F000044A136843F470031360BFF34F8FBFF3D4
:100500006F8F704788ED00E038B52DED028BB0EEAF
:10051000408A1F4CD4ED007A9FED1E7A67EE877AF1
:100520009FED1D7AC7EE876A16EE900A1B4B98471F
:1005300041EC100B1A4B984751EC100B10EE102A9F
:100540000B46184DA847184B984706EE900A174BD4
:1005500093ED000A66EE807A93ED017A77EE877A62
:10056000C3ED017AB6EE007A20EE077A38EE478ABC
:1005700078EE677A67EEA67A77EE807AC3ED007A36
:1005800094ED010A27EE800ABDEC028B38BD00BF56
:1005900004000020DB0F494000803B475925400004
:1005A000990E40009D224000852B4000040A002047
:1005B0002DE9F04383B05B4B98475B4B98475B4A10
:1005C0005B4B1A605B4A03F521631A601A46A3F578
:1005D0008053103B516911F0800FFBD0996E11F0E0
:1005E000800FF7D0544B00229A62544A9A629A6E56
:1005F00012F0020FFBD0504B1A6B22F070021A63FC
:100600009B6E13F0080F4ED04B4A136B23F003037D
:1006100043F002031363936E13F0080F4ED0484A61
:10062000D36923F4F05343F0B44343F4C853D36184
:10063000444B4FF025421A604FF400425A60424B3F
:100640009847424B9847424B9847424B9847424BFA
:100650009847424B9847424B1968C1F303514148B0
:10066000414B98474FF480730093404B404A4149B7
:100670004148424CA0474248424B9847424B186879
:10068000424B984702460B46414842498847424FF1
:100690004FF00008414E2BE0013BC9D0916E11F0A4
:1006A000080FF9D0B0E74FF40063234AF6E7013BA7
:1006B000BED0916E11F0080FF9D0B0E74FF400638F
:1006C0001D4AF6E7364C374D04F5806954F8043F6F
:1006D00000EE103AB8EEC00AB047BDEEC00A10EE08
:1006E000103A45F8043F4C45F0D187F8088000BF28
:1006F0003B7A002BFBD07B7A002BE3D12A4C2B4D8D
:1007000004F5806954F8043F00EE103AB8EEC00AD0
:10071000B047BDEEC00A10EE103A45F8043F4C4514
:10072000F0D1E2E7FD034000F104400000050004C1
:10073000000A0E40080000A500040E40013F4D0EC7
:1007400010140E4050140E40350A4000BD09400000
:10075000690C4000590940009D0B400075014000A4
:1007600088ED00E0D07B4000550D4000800E002059
:10077000801A0020800A00208016002059044000C2
:10078000DC7B4000290D400004000020592540007A
:100790000C7C4000112D4000040A00200905400097
:1007A0007C0E00207C0A00207C3600207C12002079
:1007B0002B4B9B7A3BBB4FF080439B6813F0800F21
:1007C0003ED0274B5B7A83B926494FF08043C3F86C
:1007D00018114FF48072C3F81C21C3F81011C3F82C
:1007E000142101221E4B9A7270471F494FF080431B
:1007F000C3F818114FF48072C3F81C21C3F810110C
:10080000C3F81421EDE7012B1AD14FF080439B6808
:1008100013F0800F14D0124B5B7A93B9134B9B6883
:10082000134A9A614FF48072DA61124919615A6170
:1008300001220B4B5A720A4B00229A7201221A7241
:1008400070470A4B9B680C4A9A614FF48072DA61D8
:100850000A4919615A610022014B5A72EBE700BF45
:10086000040A0020801A00208022002004000020BA
:10087000800A0020800E0020801200208036002098
:100880002DE9F04182B02C4B9B6903F0DF03512B23
:1008900029D0412B3AD1294B93ED007ADFED287A0C
:1008A000B4EEE77AF1EE10FA30DDD3ED007A9FED89
:1008B000247A77EEC77AC3ED007A27E01F4C2068D0
:1008C000D4F804801F4DA84706460F464046A84767
:1008D000CDE9000132463B461B481C498847226847
:1008E0001B4BDA6020E0154B93ED007ADFED197AAF
:1008F000B4EEE77AF1EE10FA08D5104BD3ED007A9A
:100900009FED0F7A77EE877AC3ED007A0B4B4FF0AD
:100910007E525A6093ED007A0D4BD3ED037AB4EE1C
:10092000677AF1EE10FAC9D1034A136843F4807371
:10093000136002B0BDE8F081000202400400002014
:1009400000007A4359254000187C4000112D4000DA
:10095000040A002000007A45064BD3F8E42122F077
:100960000102C3F8E421044AC3F8E4210122C3F8D8
:100970001C21704700020E400054414D28B9064A20
:10098000536B43F0805353637047034A136B43F038
:1009900080531363704700BF000E0E4028B9064A0B
:1009A000536B43F0006353637047034A136B43F088
:1009B00000631363704700BF000E0E4010B5184B64
:1009C000D3F8E42022F00102C3F8E420D3F8E420B5
:1009D000144C2243C3F8E420134AD2F8E40020F078
:1009E0000100C2F8E400D2F8E4102143C2F8E41098
:1009F0004FF0FF31596051601A6842F0F0421A60BE
:100A00001A6942F0F0421A615A6B42F0F0425A639E
:100A10000020064B98470120054B984710BD00BFAA
:100A2000000E0E40004F495000100E407D0940005E
:100A30009D0940001F4BD3F8E42022F00102C3F8C7
:100A4000E420D3F8E4101C4A0A43C3F8E4201B4A0C
:100A50001A614FF400725A6004225A641A46936E67
:100A600013F4007FFBD0134B1A6842F400721A6033
:100A70005A6842F480525A6044221A651A46936EAC
:100A800013F4805FFBD00B4B1A6842F480521A605B
:100A90004FF480425A6040F654129A651A46936E9B
:100AA00013F4804FFBD0034A136843F48043136070
:100AB000704700BF00040E4000434D50001B010072
:100AC0000A4B1B6853B1094B1B681A18084991421D
:100AD00008DB1046054A106018467047054A034B6C
:100AE0001A60F0E74FF0FF30704700BF140A002093
:100AF000FC7F0220B86C00204FF0FF3070474FF4AD
:100B000000534B6000207047012070470020704761
:100B10000138022815D82DE9F0410E4614469AB145
:100B20000D46DFF838800C4FD8F8000015F8011B8F
:100B30003B68984700280ADBA81B013CF4D1BDE8BC
:100B4000F0814FF0FF3070471046BDE8F0814FF064
:100B5000FF30BDE8F08100BF843A0020883A0020D1
:100B60002DE9F04180B90C469046002A0FDD8F1820
:100B7000084E094D306821462B6898470134BC4225
:100B8000F8D14046BDE8F0814FF0FF38F9E78046E4
:100B9000F7E700BF883A0020803A002008B5194BDB
:100BA000D3F8902042F4C062C3F890205A6E42F409
:100BB000C0625A665A6842F4C0625A601A6F22F4E0
:100BC000C0621A675A6F22F4C0625A6703220E4B42
:100BD0001A6003F5C063D3F8E42022F00102C3F8E1
:100BE000E4200A4AC3F8E420094A1A61094A1A6053
:100BF00002225A644FF498125A600748074B9847EC
:100C000008BD00BF000E0E4000C000400049575410
:100C10000101130024000001347C4000290D400034
:100C2000044BD9611A46536913F0020FFBD0002020
:100C3000704700BF0002024010B40346084800227B
:100C400000F8312F074CB3FBF1F201FB1233E35CE8
:100C500000F8013D1346002AF5D15DF8044B7047BA
:100C6000180A0020487C400038B51E4B5A6842F0F4
:100C70000C025A601A6F22F00C021A675A6F22F0A7
:100C80000C025A670122A3F541231A60164B10216A
:100C900083F809134FF400711960144B9A60D3F86C
:100CA000E42022F00102C3F8E420114AC3F8E42052
:100CB00082221A620F4A5A6050221A600E4A13604A
:100CC0000E4A0F4B1A600F4D2B68002198680E4C8E
:100CD000A0472B6800215868A0470C480C4B984748
:100CE00038BD00BF00100E4000E100E000020240ED
:100CF00000415355C0080800883A0020210C4000EC
:100D0000843A002038000020E52D40005C7C400043
:100D1000D52D4000034BD8611A46536913F0020FDA
:100D2000FBD07047000202402DE9F0410646002446
:100D3000064FDFF81C8001E0705DC047E5B2304629
:100D4000B8470134A842F7D8BDE8F081C12F400070
:100D5000150D40000FB42DE9F04182B008AB53F8F7
:100D6000044B01932378BBB1474DDFF82481474FF3
:100D700007E0019B1A1D01921878A847B41CB378AC
:100D800053B1207825287DD030B1A84714F8010F41
:100D900025282DD00028F8D102B0BDE8F04104B0DC
:100DA0007047019B1A1D01920A211868C047B84775
:100DB000E4E7019B1A1D019208211868C047B84753
:100DC000DCE7019B1A1D01921868B847D6E7019B22
:100DD0001A1D019210211868C047B847CEE7019B41
:100DE0001A1D019210211868C0474130B847C5E765
:100DF00026467378583B202BC0D801A252F823F026
:100E0000DF0D40007D0D40007D0D40007D0D400058
:100E10007D0D40007D0D40007D0D40007D0D4000AA
:100E20007D0D40007D0D40007D0D4000730D4000A4
:100E3000A30D40007D0D40007D0D40007D0D400064
:100E40007D0D40007D0D40007D0D40007D0D40007A
:100E50007D0D40007D0D40007D0D4000B30D400034
:100E60007D0D40007D0D40007D0D4000C30D400014
:100E70007D0D40007D0D40007D0D40007D0D40004A
:100E8000CF0D40002646B4E7150D4000290D400067
:100E9000390C40000000000000B551EC100B2C4A4A
:100EA00021F00043934285B027DD2A4A934209DDB1
:100EB00010EE102A0B4601F0EFF941EC100B05B0D3
:100EC0005DF804FB684600F047F800F003000128D5
:100ED00027D002281DD068B39DED021B9DED000BAD
:100EE00000F062FA53EC102B10EE100A03F10041EF
:100EF00041EC100B05B05DF804FB00209FED121BC8
:100F000000F0CEFF51EC100B41EC100B05B05DF87A
:100F100004FB01209DED021B9DED000B00F0C0FFC6
:100F2000E0E79DED021B9DED000B00F03DFA51EC5A
:100F3000100BC2E701209DED021B9DED000B00F0A0
:100F4000AFFF51EC100BB8E70000000000000000FC
:100F5000FB21E93FFFFFEF7F2DE9F04753EC102B1A
:100F60009D4923F000478F4290B040F391809B4908
:100F70008F421C46824629DC002C194610EE100ACE
:100F80008BA3D3E9002340F3B18101F085F9944BA1
:100F90009F4204460D4600F0918087A3D3E90023C9
:100FA00001F07AF902460B46CAE900232046294699
:100FB00001F072F980A3D3E9002301F06DF9012556
:100FC000CAE90201284610B0BDE8F08785498F4282
:100FD00040F3918084498F4265DC3D15A5F21645AA
:100FE000A7EB0551104616460F4601F0A3FD01F090
:100FF000A1FA8046894642464B4630463946CDE9FD
:101000000A8901F049F90022784B01F0F9FA894682
:10101000804601F08FFD01F08DFA06460F463246FC
:101020003B4640464946CDE90C6701F035F90022C0
:101030006E4B01F0E5FA00220023CDE90E0101F02C
:1010400047FD002800F07081002330463946002219
:1010500001F03EFD002814BF01230223644A0192DF
:1010600002212A4600910AA8514600F0E1FA002C1C
:10107000054614DADAF80420DAF80C3002F10042FE
:1010800003F100434542CAF80420CAF80C3006E0D8
:1010900080ED000B00250024C0E90245002528460C
:1010A00010B0BDE8F08710EE100A194601F0F4F810
:1010B0000025CAE90201CAE90001F0E740A3D3E92B
:1010C000002301F0E9F840A3D3E900230D460446CC
:1010D00001F0E2F802460B46CAE900232946204601
:1010E00001F0DAF838A3D3E9002301F0D5F801259F
:1010F000CAE90201D3E700F09DFF59EC108B10EE16
:10110000100A33A3D3E90023494601F079FA0022FB
:10111000384B01F0C3F801F00DFD054601F00AFA65
:1011200023A3D3E90023CDE9060101F069FA0246C1
:101130000B464046494601F0AFF81FA3D3E9002310
:10114000CDE90201DDE9060101F05AFA1F2D8046C2
:101150008946CDE9048951DC274B6A1E53F82230B9
:101160009F424BD002460B46DDE9020101F094F8A4
:1011700080468946CAE9008942464B46DDE90201BC
:1011800001F08AF8DDE9042301F086F8002CCAE9B1
:10119000020184DA09F1004401F100436D42CAF80A
:1011A0000080CAF80440CAF80800CAF80C3076E794
:1011B00000004054FB21F93F3163621A61B4D03D15
:1011C0000000601A61B4D03D7370032E8A19A33BEE
:1011D00083C8C96D305FE43FFB21E93F7BD9024002
:1011E000FB21F93FFB213941FFFFEF7F00007041F8
:1011F000FC7C40000000E03F7C7C4000DDE90423F3
:10120000DDE9020101F048F83F15C1F30A53FB1A6A
:1012100080468946102BCAE90089ADDD58A3D3E981
:101220000023DDE9060101F0EBF98046894602461C
:101230000B46DDE9020101F02FF802460B46DDE91D
:101240000201CDE9082301F027F842464B4601F0A0
:1012500023F84DA3D3E9002380468946DDE9060142
:1012600001F0CEF942464B4601F016F80B46CDE9A7
:1012700004010246DDE9080101F00EF8C1F30A534A
:10128000FF1A80468946312FCAE900896CDD41A3E7
:10129000D3E90023DDE9060101F0B2F9DDE90889AF
:1012A00006460F4602460B464046494600F0F4FF0C
:1012B00002460B4640464946CDE9022300F0ECFFCA
:1012C00032463B4600F0E8FF34A3D3E9002306464C
:1012D0000F46DDE9060101F093F932463B4600F086
:1012E000DBFF02460B46CDE904233DE700F0D6FFC5
:1012F000274B9F4204460D4618D01FA3D3E9002375
:1013000000F0CCFF02460B46CAE9002329462046DE
:1013100000F0C2FF18A3D3E9002300F0BFFF4FF095
:10132000FF35CAE90201BAE6032397E614A3D3E91D
:10133000002300F0B3FF14A3D3E900230D460446B5
:1013400000F0ACFF02460B46CAE9002329462046BE
:1013500000F0A2FF0CA3D3E9002300F09FFF4FF0A1
:10136000FF35CAE902019AE69DED087B8DED027B0F
:1013700002E700BFAFF300803163621A61B4D03D71
:101380000000601A61B4D03D7370032E8A19A33B2C
:10139000FB21F93F0000002E8A19A33BC1492025FB
:1013A0009A837B39000000002DE9F04F57EC106B59
:1013B0002DED028BB0EE418AF0EE618A27F00049F4
:1013C000B9F1795F83B072DA10EE100A394601F094
:1013D000B1FB002800F0F68032463B4630463946E5
:1013E00001F00EF97CA3D3E9002304460D4601F079
:1013F00007F97BA3D3E9002300F050FF22462B46D8
:1014000001F0FEF878A3D3E9002300F045FF22465F
:101410002B4601F0F5F876A3D3E9002300F03EFF58
:1014200022462B4601F0ECF873A3D3E9002300F029
:1014300033FF22462B4601F0E3F871A3D3E90023E2
:1014400000F02CFF22462B4601F0DAF882468B464C
:101450000022714B2046294601F0D2F852468046C0
:1014600089465B462046294601F0CAF853EC182B02
:1014700004460D463046394601F0C2F802460B4696
:101480002046294600F008FF02460B4640464946E2
:1014900000F002FF02460B460020604900F0FCFE0F
:1014A00041EC100B03B0BDEC028BBDE8F08F10EEE9
:1014B000102A10EE100A3B46394601F0A1F846A367
:1014C000D3E9002304460D4601F09AF844A3D3E97A
:1014D000002300F0E3FE22462B4601F091F842A3E0
:1014E000D3E9002300F0D8FE22462B4601F088F80D
:1014F0003FA3D3E9002300F0D1FE22462B4601F0A2
:101500007FF83DA3D3E9002300F0C6FE22462B4618
:1015100001F076F83AA3D3E9002300F0BFFE2B4692
:10152000224601F06DF83E4B994582468B468FDD91
:101530003C4B99453DDC0022A9F5001300203749BA
:101540009046994600F0A8FECDE900010022324BFA
:101550002046294601F054F842464B4600F09CFED6
:101560005246804689465B462046294601F048F8A7
:1015700053EC182B04460D463046394601F040F82E
:1015800002460B462046294600F086FE02460B46E0
:101590004046494600F080FE02460B46DDE9000168
:1015A00000F07AFE41EC100B03B0BDEC028BBDE8FD
:1015B000F08F9FED157B4FF000088DED007BDFF87D
:1015C0006890C3E79FED120B03B0BDEC028BBDE842
:1015D000F08F00BFAFF30080D43888BEE9FAA8BD11
:1015E000C4B1B4BD9EEE213EAD529C804F7E923E72
:1015F0009015CB19A001FA3E7751C1166CC1563F28
:101600004C5555555555A53F000000000000E73FDB
:10161000000000000000F03F0000E03F0000F03F4D
:101620003233D33F0000E93F0000D23F000000000A
:101630002DE9F04FADF51B7DA34CA49EA34D54F8AE
:10164000264007942646D41E85FB0475E417C4EB98
:10165000A50424EAE4741D460A93631CA3EB8303E8
:10166000013D02EBC30306932B460B940395651BC8
:10167000F418049008911AD42C4400260027013451
:101680000DF18808DDF8949208E059F8250000F083
:1016900051FF0135A542E8E8020108D0002DF4DA37
:1016A000013530463946A542E8E80201F6D1079BEC
:1016B000002BC0F2EB83079B03F1010B0A9B22A9CD
:1016C000DB001A4601EB03090093049B0DF5E47A55
:1016D00019460AEBCB0B01EB0208039B002BC0F26F
:1016E0000183049C4D460026002775E90223F4E897
:1016F000020100F085FF02460B463046394600F0F5
:10170000CDFD444506460F46EFD1EAE80267DA45CB
:1017100009F10809E1D107990098049C009101F1B1
:101720008043013B9B0020441A1F83460EA80244BD
:1017300003440C920D93009A9AA901EBC203002A6C
:1017400053E9284529DD0DF5E47A0AEBC2080DF1CD
:10175000340900225E4B2046294600F051FF01F07B
:10176000E9F900F0E7FE00225A4B06460F4600F06A
:1017700047FF02460B462046294600F08DFD01F04A
:10178000D9F978E9022349F8040F3946304600F0C8
:1017900085FDD04504460D46DBD1DDF8189045ECBB
:1017A000104B484600F0E0FC55EC104B00224FF087
:1017B0007F5310EE100A294600F022FF41EC100B77
:1017C00000F042FC002251EC100B434B00F018FFDC
:1017D00002460B462046294600F05EFD0D460446B3
:1017E00001F0A8F9804600F0A5FE0B460246294606
:1017F000204600F051FD4B46002B06460F4640F3B5
:10180000FA80009A0EA9013AC9F1180351F8225042
:1018100045FA03F101FA03F30EA8EB1A40F822305F
:10182000C9F11705884443FA05F5002D6EDD009BCC
:10183000002B08F1010840F374820E9C002C40F04C
:101840001B83009B012B40F394820EAA012352F8C4
:10185000044F002C00F08882581C0EAAC4F180743A
:1018600042F82340009A824219DD0EAA0EAC52F8CB
:1018700020106FF07F42511A44F820100099023373
:1018800099420CDD1046009A0EA901EB830301EB8F
:1018900082011A68821A43F8042B8B42F9D1069B05
:1018A000002B1BDD069B012B4FF0010440F0418211
:1018B000009B5A1E0EAB0EA953F82230C3F3160339
:1018C00041F8223041E200BF487E4000ABAAAA2A7C
:1018D0000000703E0000704100002040022D15D134
:1018E00032463B460020944900F0D6FC06460F469F
:1018F00006989FED8D0B00F037FC3046394653ECCF
:10190000102B00F0C9FC022506460F4600220023DA
:101910003046394601F0DCF8002800F03B82009A9E
:10192000079B501E83420FDC02F18043013B0EAA4D
:101930000D9C02EB8303002253F80419A34242EAF0
:101940000102F9D1002A67D1079B0EAA013B52F888
:101950002330002B40F01C820C9A012352F804190A
:1019600001330029FAD0009AD31802F1010A9A45EE
:1019700009933DDC009B0A990B9A0B4409990AEBE9
:101980000208994622AB08F1804803EBC9098B187D
:10199000A59A08F1FF3802EB880872AA02EBCA0A7E
:1019A000A59A02EB8303009358F8040F00F0C2FDE0
:1019B000039B002BE9E802014FF000064FF00007FF
:1019C00011DB049C4D4675E90223F4E8020100F0A6
:1019D00017FE02460B463046394600F05FFC5C4578
:1019E00006460F46EFD1009B9845EAE80267DBD137
:1019F000099B00939FE606D1009B0EAA013B52F87B
:101A00002350ED1511E700224C4B01F07FF8002820
:101A100040F07281054679E70EA9039551F8203010
:101A20000699CDF8248018390246009006916BB9CA
:101A300000F18043013B0EA800EB830353F8040937
:101A4000013A18390028F9D00092069106989FEDC6
:101A5000360B00F089FB009B002B55EC104BC0F2BD
:101A6000FC81DA0072A901EB020B06920EAA02EBCE
:101A70008306DFF8CC904FF000080BF1080704361E
:101A800056F8040D00F056FD22462B4600F0B8FD36
:101A90004B4667E9020142462046294600F0B0FD68
:101AA0000EAB9E4204460D46EAD14AACDDF81C90CE
:101AB00004944FF0000AB9F1000FC0F22F81DFF853
:101AC00084805D461AA1D1E9000100260027002488
:101AD00003E0544510DCF8E80201F5E8022300F0C9
:101AE0008FFD02460B463046394600F0D7FB0134E5
:101AF000A14506460F46ECDA049B03EBCA03ABF1A3
:101B0000080BC3E9006770AB9B450AF1010AD2D10B
:101B1000A49B049C032B00F28D80DFE813F0C90026
:101B200092009200150000BF000000000000F03F8E
:101B300000000040FB21F93F0000F03F0000E03FC3
:101B40000000703E107E4000009B002B40F382811D
:101B5000069A04EB020ADAE9008902F10805254435
:101B60000DF5987B1AED027B42464B4651EC170B64
:101B70008DED047B00F092FB06460F4602460B46B5
:101B8000DDE9040100F088FB42464B4600F086FB8D
:101B900065E902015D45B046B9466AE90267E1D1EF
:101BA000009B012B40F35681069BE518D5E900897F
:101BB00003F1080B04EB0B0A15ED027B42464B4682
:101BC00051EC170B8DED007B00F068FB06460F46CD
:101BD00002460B46DDE9000100F05EFB4B46424643
:101BE00000F05CFB6AE902014EAB5345B046B946D2
:101BF00065E90267E0D10020002104EB0B0575E9DF
:101C0000022300F04BFBAA45F9D1039B002B00F007
:101C10000B816268E368089F2568A4683D6002F153
:101C2000004203F1004301F100417A60FB60BC60B7
:101C300038617961099B03F007000DF51B7DBDE854
:101C4000F08F069D083525440020002175E9022308
:101C500000F024FBA542F9D1039B002B00F0D380B8
:101C6000089E024601F1004386E80C000B4602463E
:101C7000D4E9000100F010FB009B002B0BDD4CAD04
:101C80000124F5E8022300F009FB009B0134A34284
:101C9000F7DA039B13B101F100431946089BC3E92E
:101CA0000201099B03F007000DF51B7DBDE8F08FD5
:101CB000069D083500200021254475E9022300F027
:101CC000EDFAAC42F9D1039B13B101F1004319467F
:101CD000089BC3E90001099B03F007000DF51B7D7C
:101CE000BDE8F08F00260027EAE80267DA4509F12F
:101CF00008097FF4F2AC0EE5009B002B08F1010807
:101D0000C8BF02253FF799AD32463B4600206149E6
:101D100000F0C2FA022506460F46F7E50026002726
:101D2000EAE6069B002B27DD0024069B012B3FF4EF
:101D3000BFAD022B09D1009B5A1E0EAB0EA953F862
:101D40002230C3F3150341F82230022D7FF4DEADBB
:101D500032463B4600204F4900F09EFA06460F46A9
:101D6000002C3FF4D3ADC3E50099013399427FF4D1
:101D70006EAD069B002BD8DC022D7FF4C7AD32463A
:101D80003B460020434900F087FA06460F46BDE572
:101D90000123E8E5069B0395584247EC106BCDF80C
:101DA000248000F0E1F955EC104B00223A4B10EE84
:101DB000100A294600F0AAFE002841D00022374B25
:101DC0002046294600F01CFC00F0B4FE064600F058
:101DD000B1FB0022304B00F013FC02460B462046BC
:101DE000294600F059FA00F0A5FE0099069B0A4624
:101DF0001833013206930B460EA9009241F82300D6
:101E000041F8226022E6089B0246C3E900010B4626
:101E1000D4E9000100F040FA009B002B3FF72FAF00
:101E2000089BC3E902013CE7D4E90067D4E9022337
:101E3000089DC5E90401C5E90067C5E90223F9E683
:101E40002946204600F076FE009A0EA941F82200AD
:101E5000FCE54AAC00200021D7E6A49B032B3FF60B
:101E6000E9AE01A252F823F0871E40007F1E400019
:101E70007F1E4000531E400001200023EDE400209F
:101E800000214AACE8E6002000211CE70A9BDB00A9
:101E9000009340E40000F03F000070410000703EFD
:101EA0002DE9F04F55EC104B2DED028BB0EE418A31
:101EB000F0EE618A25F00043B3F1795F83B082468A
:101EC00007DA10EE100A294600F034FE002800F070
:101ED0008E8022462B462046294600F091FB06467E
:101EE0000F4602460B462046294600F089FB47A3D1
:101EF000D3E90023804689463046394600F080FB0E
:101F000044A3D3E9002300F0C7F932463B4600F072
:101F100077FB42A3D3E9002300F0C0F932463B46E9
:101F200000F06EFB3FA3D3E9002300F0B5F9324681
:101F30003B4600F065FB3DA3D3E9002300F0AEF97A
:101F4000CDE90001BAF1000F37D000222E4B51EC41
:101F5000180B00F055FBDDE9002382468B46404616
:101F6000494600F04DFB02460B465046594600F0EC
:101F700093F932463B4600F043FB53EC182B00F03C
:101F80008BF91FA3D3E9002306460F464046494676
:101F900000F036FB02460B463046394600F07EF92B
:101FA00002460B462046294600F076F941EC100B1C
:101FB00003B0BDEC028BBDE8F08F02460B46304605
:101FC000394600F01DFB0EA3D3E9002300F064F9AD
:101FD00042464B4600F014FB22462B4600F05EF9C9
:101FE00041EC100B03B0BDEC028BBDE8F08F45EC6B
:101FF000104B03B0BDEC028BBDE8F08FAFF3008057
:10200000495555555555C53F0000E03F7CD5CF5A41
:102010003AD9E53DEB9C2B8AE6E55A3E7DFEB15769
:10202000E31DC73ED561C119A0012A3FA6F81011D2
:102030001111813F53EC102B23F0004343EC102B84
:10204000704700BF0000000051EC100BC1F30A53B1
:102050002DE9F041A3F2FF35132D0C460F4610EE8B
:10206000106A1DDC002D43DB3D4B43FA05F801EA05
:102070000803034319D038A3D3E9002300F00EF975
:102080000022002300F04CFD20B1002C49DB27EAA0
:10209000080400262346324643EC102BBDE8F081AD
:1020A000332D06DDB5F5806F32D041EC100BBDE865
:1020B000F081A3F213434FF0FF3828FA03F810EA37
:1020C000080FF2D024A3D3E9002300F0E7F80022A0
:1020D000002300F025FD0028DCD0002C27DB3C4647
:1020E00026EA08062346324643EC102BBDE8F08171
:1020F00019A3D3E9002300F0D1F80022002300F057
:102100000FFD0028C6D0002C1CDB00263446C1E79A
:1021100010EE102A0B4600F0C1F841EC100BBDE8A0
:10212000F0814FF4801343FA05F52F44AFE7142DE7
:1021300010D00123C5F1340503FA05F5AE1928BF07
:10214000FF18CCE724F00042064B324318BF1C4670
:1021500000269FE70137C2E79C7500883CE4377E84
:10216000FFFF0F000000F0BF53EC102B70B5C3F35E
:102170000A541946054614BB23F0004111432AD0E6
:1021800019460022384B394E10EE100A00F038FA8A
:10219000B54202460B461FDBC1F30A54363C2C44C1
:1021A00040F2FE7084421FDC002C2DDD21F0FF4147
:1021B00021F4E00141EA045343EC102B70BD40F2DE
:1021C000FF708442EBD110EE100A194600F066F859
:1021D00041EC100B70BD70BD1FA3D3E9002300F0CC
:1021E0000FFA41EC100B70BD43EC112B9FED1C0B53
:1021F00000F040F81AA3D3E9002351EC100B00F0D3
:10220000FFF941EC100B70BD14F1350F13DA4CF2ED
:1022100050318D4243EC112BE8DC9FED0F0B00F0A9
:1022200029F80DA3D3E9002351EC100B00F0E8F9D5
:1022300041EC100B70BD21F0FF4121F4E001363478
:1022400041EA0453104619460022094B00F0D8F920
:1022500041EC100B70BD00BF59F3F8C21F6EA50111
:102260009C7500883CE4377E00005043B03CFFFF83
:102270000000903C53EC102B11EE900A23F000412B
:1022800000F0004041EA000343EC102B704700BF10
:1022900081F0004102E000BF83F0004330B54FEA17
:1022A00041044FEA430594EA050F08BF90EA020F84
:1022B0001FBF54EA000C55EA020C7FEA645C7FEA17
:1022C000655C00F0E2804FEA5454D4EB5555B8BF3A
:1022D0006D420CDD2C4480EA020281EA030382EAAB
:1022E000000083EA010180EA020281EA0303362D3D
:1022F00088BF30BD11F0004F4FEA01314FF4801C10
:102300004CEA113102D0404261EB410113F0004F21
:102310004FEA03334CEA133302D0524263EB4303D8
:1023200094EA050F00F0A780A4F10104D5F1200E76
:102330000DDB02FA0EFC22FA05F2801841F10001D1
:1023400003FA0EF2801843FA05F359410EE0A5F1A5
:1023500020050EF1200E012A03FA0EFC28BF4CF0D6
:10236000020C43FA05F3C01851EBE37101F000458C
:1023700007D54FF0000EDCF1000C7EEB00006EEB99
:102380000101B1F5801F1BD3B1F5001F0CD3490823
:102390005FEA30004FEA3C0C04F101044FEA44527A
:1023A00012F5800F80F09A80BCF1004F08BF5FEA01
:1023B000500C50F1000041EB045141EA050130BDE1
:1023C0005FEA4C0C404141EB010111F4801FA4F184
:1023D0000104E9D191F0000F04BF01460020B1FAD9
:1023E00081F308BF2033A3F10B03B3F120020CDA11
:1023F0000C3208DD02F1140CC2F10C0201FA0CF0EF
:1024000021FA02F10CE002F11402D8BFC2F1200C53
:1024100001FA02F120FA0CFCDCBF41EA0C01904009
:10242000E41AA2BF01EB0451294330BD6FEA040452
:102430001F3C1CDA0C340EDC04F11404C4F120023D
:1024400020FA04F001FA02F340EA030021FA04F34F
:1024500045EA030130BDC4F10C04C4F1200220FAA6
:1024600002F001FA04F340EA0300294630BD21FAE4
:1024700004F0294630BD94F0000F83F4801306BFAA
:1024800081F480110134013D4EE77FEA645C18BF9E
:102490007FEA655C29D094EA050F08BF90EA020F35
:1024A00005D054EA000C04BF1946104630BD91EA2D
:1024B000030F1EBF0021002030BD5FEA545C05D130
:1024C0004000494128BF41F0004130BD14F580046F
:1024D0003CBF01F5801130BD01F0004545F0FE41E3
:1024E00041F470014FF0000030BD7FEA645C1ABF18
:1024F000194610467FEA655C1CBF0B46024650EA4F
:10250000013406BF52EA033591EA030F41F400217A
:1025100030BD00BF90F0000F04BF0021704730B500
:102520004FF4806404F132044FF000054FF00001D5
:1025300050E700BF90F0000F04BF0021704730B596
:102540004FF4806404F1320410F0004548BF40426B
:102550004FF000013EE700BF42004FEAE2014FEAC0
:1025600031014FEA02701FBF12F07F4393F07F4F9B
:1025700081F06051704792F0000F14BF93F07F4FCD
:10258000704730B54FF4607401F0004521F0004110
:1025900020E700BF50EA010208BF704730B54FF096
:1025A00000050AE050EA010208BF704730B511F09B
:1025B000004502D5404261EB41014FF4806404F1D3
:1025C00032045FEA915C3FF4DCAE4FF003025FEA55
:1025D000DC0C18BF03325FEADC0C18BF033202EBDD
:1025E000DC02C2F1200300FA03FC20FA02F001FA37
:1025F00003FE40EA0E0021FA02F11444C1E600BFD6
:1026000070B54FF0FF0C4CF4E06C1CEA11541DBF88
:102610001CEA135594EA0C0F95EA0C0F00F0DEF853
:102620002C4481EA030621EA4C5123EA4C5350EA38
:10263000013518BF52EA033541F4801143F4801389
:1026400038D0A0FB02CE4FF00005E1FB02E506F01A
:102650000042E0FB03E54FF00006E1FB03569CF06F
:10266000000F18BF4EF0010EA4F1FF04B6F5007F75
:1026700064F5407404D25FEA4E0E6D4146EB0606E7
:1026800042EAC62141EA55514FEAC52040EA5E5070
:102690004FEACE2EB4F1FD0C88BFBCF5E06F1ED81A
:1026A000BEF1004F08BF5FEA500E50F1000041EB51
:1026B000045170BD06F0004646EA010140EA0200FE
:1026C00081EA0301B4EB5C04C2BFD4EB0C0541EA20
:1026D000045170BD41F480114FF0000E013C00F335
:1026E000AB8014F1360FDEBF002001F0004170BD59
:1026F000C4F10004203C35DA0C341BDC04F1140472
:10270000C4F1200500FA05F320FA04F001FA05F2FD
:1027100040EA020001F0004221F0004110EBD370CA
:1027200021FA04F642EB06015EEA430E08BF20EAF6
:10273000D37070BDC4F10C04C4F1200500FA04F399
:1027400020FA05F001FA04F240EA020001F000412B
:1027500010EBD37041F100015EEA430E08BF20EA9E
:10276000D37070BDC4F1200500FA05F24EEA020EE6
:1027700020FA04F301FA05F243EA020321FA04F015
:1027800001F0004121FA04F220EA020000EBD370CC
:102790005EEA430E08BF20EAD37070BD94F0000FCC
:1027A0000FD101F00046400041EB010111F4801F00
:1027B00008BF013CF7D041EA060195F0000F18BFB1
:1027C000704703F00046520043EB030313F4801FED
:1027D00008BF013DF7D043EA0603704794EA0C0FA7
:1027E0000CEA135518BF95EA0C0F0CD050EA4106BD
:1027F00018BF52EA4306D1D181EA030101F000413A
:102800004FF0000070BD50EA410606BF1046194661
:1028100052EA430619D094EA0C0F02D150EA01366D
:1028200013D195EA0C0F05D152EA03361CBF1046AE
:1028300019460AD181EA030101F0004141F0FE414D
:1028400041F470014FF0000070BD41F0FE4141F4D1
:10285000780170BD70B54FF0FF0C4CF4E06C1CEAD1
:1028600011541DBF1CEA135594EA0C0F95EA0C0F86
:1028700000F0A7F8A4EB050481EA030E52EA033541
:102880004FEA013100F088804FEA03334FF0805562
:1028900045EA131343EA12634FEA022245EA11158F
:1028A00045EA10654FEA00260EF000419D4208BF40
:1028B000964244F1FD0404F5407402D25B084FEAED
:1028C0003202B61A65EB03055B084FEA32024FF499
:1028D00080104FF4002CB6EB020E75EB030E22BFF6
:1028E000B61A754640EA0C005B084FEA3202B6EBB6
:1028F000020E75EB030E22BFB61A754640EA5C0065
:102900005B084FEA3202B6EB020E75EB030E22BFF4
:10291000B61A754640EA9C005B084FEA3202B6EBF5
:10292000020E75EB030E22BFB61A754640EADC00B4
:1029300055EA060E18D04FEA051545EA16754FEA16
:1029400006164FEAC30343EA52734FEAC2025FEA34
:102950001C1CC0D111F4801F0BD141EA00014FF0C3
:1029600000004FF0004CB6E711F4801F04BF014394
:102970000020B4F1FD0C88BFBCF5E06F3FF6AFAEB0
:10298000B5EB030C04BFB6EB020C5FEA500C50F140
:10299000000041EB045170BD0EF0004E4EEA1131C3
:1029A00014EB5C04C2BFD4EB0C0541EA045170BDCA
:1029B00041F480114FF0000E013C90E645EA060E0E
:1029C0008DE60CEA135594EA0C0F08BF95EA0C0F3C
:1029D0003FF43BAF94EA0C0F0AD150EA01347FF484
:1029E00034AF95EA0C0F7FF425AF104619462CE75B
:1029F00095EA0C0F06D152EA03353FF4FDAE1046BE
:102A0000194622E750EA410618BF52EA43067FF40E
:102A1000C5AE50EA41047FF40DAF52EA43057FF49E
:102A2000EBAE12E74FF0FF3C06E000BF4FF0010CA9
:102A300002E000BF4FF0010C4DF804CD4FEA410C0D
:102A40007FEA6C5C4FEA430C18BF7FEA6C5C1BD0DA
:102A500001B050EA410C0CBF52EA430C91EA030F5B
:102A600002BF90EA020F0020704710F1000F91EAB8
:102A7000030F58BF994208BF90422CBFD8176FEA86
:102A8000E37040F0010070474FEA410C7FEA6C5C54
:102A900002D150EA013C07D14FEA430C7FEA6C5C5B
:102AA000D6D152EA033CD3D05DF8040B704700BF87
:102AB0008446104662468C461946634600E000BFD5
:102AC00001B5FFF7B7FF002848BF10F1000F01BDA7
:102AD0004DF808EDFFF7F4FF0CBF012000205DF872
:102AE00008FB00BF4DF808EDFFF7EAFF34BF0120F7
:102AF00000205DF808FB00BF4DF808EDFFF7E0FF90
:102B000094BF012000205DF808FB00BF4DF808EDE0
:102B1000FFF7CEFF94BF012000205DF808FB00BF47
:102B20004DF808EDFFF7C4FF34BF012000205DF829
:102B300008FB00BF4FEA410212F5001215D211D571
:102B40006FF47873B3EB625212D94FEAC12343F0AA
:102B5000004343EA505311F0004F23FA02F018BF2C
:102B6000404270474FF00000704750EA013005D1F5
:102B700011F0004008BF6FF0004070474FF00000B8
:102B8000704700BF4FEA4102B2F1E04324BFB3F502
:102B9000001CDCF1FE5C0DD901F0004C4FEAC002D4
:102BA0004CEA5070B2F1004F40EB830008BF20F0B8
:102BB0000100704711F0804F21D113F13872BCBF72
:102BC00001F00040704741F480114FEA5252C2F1C7
:102BD0001802C2F1200C10FA0CF320FA02F018BF10
:102BE00040F001004FEAC1234FEAD32303FA0CFC63
:102BF00040EA0C0023FA02F34FEA4303CCE77FEAF2
:102C0000625307D150EA01331EBF4FF0FE4040F43B
:102C10004000704701F0004040F0FE4040F40000EA
:102C2000704700BF70B50F4E0F4D761BB61018BF22
:102C3000002405D0013455F8043B9847A642F9D149
:102C40000A4E0B4D761B05F04BFAB61018BF002448
:102C500006D0013455F8043B9847A642F9D170BD1F
:102C600070BD00BFEC804000EC804000F48040006C
:102C7000EC80400070B4860746D0541E002A41D034
:102C8000CAB2034602E014F1FF343BD303F8012B30
:102C90009D07F8D1032C2ED9CDB245EA05250F2C7E
:102CA00045EA054519D903F110022646103E0F2EBC
:102CB00042F8105C42F80C5C42F8085C42F8045C94
:102CC00002F11002F2D8A4F1100222F00F0204F077
:102CD0000F041032032C13440DD91E462246043A29
:102CE000032A46F8045BFAD8221F22F003020432BA
:102CF000134404F003042CB1C9B21C4403F8011BB3
:102D00009C42FBD170BC704714460346C2E700BF2B
:102D10000FB400B5074983B004AB086853F8042B1F
:102D20008168019300F0BCF903B05DF804EB04B0D6
:102D3000704700BF38000020F0B5054689B008464E
:102D40000C4600F03DF9AB6B214F04940126441C66
:102D500004A9022203940590AC6806970796019196
:102D6000029253B3636E13F0010FB4F90C309AB2B0
:102D700001D1900525D5910406D4626E43F4005329
:102D800022F40052A3816266284601AA214602F07D
:102D90003DFF636E00280CBF0A254FF0FF35DA07B0
:102DA00002D4A3899B0502D5284609B0F0BDA06DC9
:102DB00003F0E2F8284609B0F0BD284602F09EFD77
:102DC000D0E7A06D03F0D6F8B4F90C309AB2D2E790
:102DD000D87B4000024B01461868FFF7ADBF00BF2B
:102DE0003800002000290CBF022200224FF480632B
:102DF00000F000B82DE9F043614C256883B004462B
:102E00000F4690461E4615B1AB6B002B64D0B8F14F
:102E1000020F06D0B8F1010F00F29F80002EC0F221
:102E20009C80636ED80734D52146284602F00EFDFB
:102E3000216B41B104F14003994202D0284602F0CF
:102E4000FFFD00232363B4F90C300022A26162600D
:102E50001A063AD423F44A6323F00303B8F1020FAD
:102E6000A3811DD001AB6A462146284603F086F8AF
:102E7000A3891843A081002E32D1009E304603F072
:102E8000F5F8074600286BD0A38943F08003A3819F
:102E900028E0A3899905C7D4A06D03F06BF8C3E7B8
:102EA0000025616E002604F1430243F00203012075
:102EB000A660CE07A38122602261606101D49805DB
:102EC0003ED5284603B0BDE8F0832169284602F0CC
:102ED000B7FDB4F90C30BDE7284602F00FFD96E7C8
:102EE000002FCBD0AB6B002B33D0009BB4F90C2060
:102EF00027609E421CBF42F40062A281B8F1010F1C
:102F000004BF42F00102A28192B212F008032761CD
:102F100066610ED0D1071AD5656E7642002315F092
:102F20000105A661A36009D00025284603B0BDE8CD
:102F3000F083A360656E15F00105F5D19305C0D44B
:102F4000A06D03F019F8284603B0BDE8F083A66031
:102F5000F0E7284602F0D2FCC7E74FF0FF35B0E7B4
:102F6000DDF80090B14504D0484603F07FF80746ED
:102F700020B9B4F90C304FF0FF3592E74E4683E7A5
:102F800038000020000000000000000000000000E9
:102F90000000000000000000000000000000000031
:102FA0000000000000000000000000000000000021
:102FB0000000000000000000000000000000000011
:102FC00090F800F06DE9024520F007016FF0000C69
:102FD00010F0070491F820F040F049804FF0000411
:102FE0006FF00700D1E9002391F840F000F10800EC
:102FF00082FA4CF2A4FA8CF283FA4CF3A2FA8CF324
:103000004BBBD1E9022382FA4CF200F10800A4FA8A
:103010008CF283FA4CF3A2FA8CF3E3B9D1E90423DE
:1030200082FA4CF200F10800A4FA8CF283FA4CF315
:10303000A2FA8CF37BB9D1E9062301F1200182FACF
:103040004CF200F10800A4FA8CF283FA4CF3A2FAD5
:103050008CF3002BC6D0002A04BF04301A4612BAE3
:10306000B2FA82F2FDE8024500EBD2007047D1E9E6
:10307000002304F00305C4F100004FEAC50514F075
:10308000040F91F840F00CFA05F562EA05021CBF46
:1030900063EA050362464FF00004A9E70000000060
:1030A0002DE9F04FBFB01D468A4691460446049074
:1030B00002F04EFF036811931846FFF781FF0A954F
:1030C00010901CB1A36B002B00F06282DAF8643020
:1030D000BAF90C2013F0010F93B202D1990540F117
:1030E00078829F040AD4DAF8641042F4005321F481
:1030F0000051AAF80C30CAF864109BB21E0740F1C8
:103100002682DAF81020002A00F0218203F01A0249
:103110000A2A00F041829FED8E7B00238DED0E7B0D
:103120000D93239322931293139307932EAB219322
:103130009846CDF818A099F800304C46EBB1252BF5
:1031400002D11AE0252B03D014F8013F002BF9D14E
:10315000A4EB09058DB1229B239AC8F80090013396
:103160002A44072BC8F804502392229300F30582C7
:1031700008F10808079B2B4407932378002B00F0E5
:10318000FE8300231A468DF86730194608939B4644
:1031900066784FF0FF3304F10109059309F1010945
:1031A000A6F12003582B00F2CD83DFE813F0E502EF
:1031B000CB03CB035403CB03CB03CB03CB03CB0316
:1031C000CB0359030D03CB031E02ED02CB0308030F
:1031D0003F033F033F033F033F033F033F033F03DF
:1031E0003F03CB03CB03CB03CB03CB03CB03CB03FB
:1031F000CB03CB03CB034E036703CB036703CB03A4
:10320000CB03CB03CB03B003CB03CB036F00CB03C8
:10321000CB03CB03CB03CB035900CB03CB0323035B
:10322000CB03CB03CB03CB03CB03CB03CB03CB032E
:10323000CB03CB0329037802670367036703BC0250
:103240007802CB03CB03C102CB03CE027100120381
:103250004B02CB035702CB035B00CB03CB03230210
:103260004BF0100B1BF0200F40F061830A9A1BF00B
:10327000100F134640F0CA851BF0400F00F0C685C2
:1032800014880432002501230A9214E04BF0100B3D
:103290001BF0200340F040831BF0100240F0A58596
:1032A0001BF0400300F0A1850A9913460A46043238
:1032B0000C880A9200254FF0000A8DF867A0059946
:1032C0004A1C00F010822BF08002029254EA0502A0
:1032D00040F00F82002940F07C84002B40F03A85BA
:1032E0001BF00103099300F076863EAF302307F808
:1032F000413D059B099A9342B8BF134603930023AF
:103300000C93BAF1000F02D0039B01330393029B8D
:1033100013F002030B9302D0039B02330393029B2F
:1033200013F0840540F02983089B039AA3EB020B5A
:10333000BBF1000F40F32183BBF1100F2399229AB8
:103340002CDD43461024A846DDF810A0069D0AE0B7
:103350000000000000000000ABF1100BBBF1100FEB
:1033600003F1080318DD0132B94822921031072A0F
:10337000239183E81100EFDD21AA2946504603F08E
:10338000C1FF002840F07483ABF1100BBBF1100FAC
:103390002399229A2EABE6DC454698460132AC4B87
:1033A00022920BEB0104072A239488E8080800F313
:1033B000D6849DF867A008F10808BAF1000F0ED076
:1033C000229B013301340DF167010122072B239465
:1033D000229388E8060000F3138408F108080B9B89
:1033E0006BB1229B013302341AA90222072B2394CA
:1033F000229388E8060000F30F8408F10808802D66
:1034000000F03883059B099AA3EB020ABAF1000F7A
:103410003BDDBAF1100F229B8E4D2BDD424621463B
:10342000B0464FF0100B2E46049C069D06E0AAF114
:10343000100ABAF1100F02F1080217DD0133103142
:10344000072B2391229382E84008F0DD21AA294628
:10345000204603F057FF002840F00A83AAF1100A23
:10346000BAF1100F2399229B2EAAE7DC35460C46B1
:103470004646904601335444072B2394229388E810
:10348000200400F3B28308F10808029BDB0500F179
:103490008F82229B0999C8F8007001330C44072BD6
:1034A0002394C8F80410229300F37E8308F10808DF
:1034B000029B59073BD5089B039A9D1A002D36DDC8
:1034C000102D229B21DD1026049FDDF818A004E0BA
:1034D000103D102D08F1080817DD01335C4A2293D6
:1034E0001034072B239488E84400F1DD21AA5146CB
:1034F000384603F007FF002840F04982103D102DA8
:10350000239C229B0DF1B808E7DC0133504A22933B
:103510002C44072B239488E8240008DD21AA06996F
:10352000049803F0EFFE002840F05083239C079B93
:10353000089A03998A42ACBF9B185B180793002C2A
:1035400040F03C83002322930DF1B808F3E5514687
:10355000049801F0ADF8002838D0DAF86430DD07BF
:1035600004D4BAF80C309C0540F1D9854FF0FF33F4
:10357000079307983FB0BDE8F08F21AA06990498F9
:1035800003F0C0FE002840F021830DF1B808F1E5FA
:10359000049802F0B3F999E5BAF90E20002AFFF673
:1035A000BAADDAF86420D00705D4990503D4DAF867
:1035B000580002F0E1FC2B464A465146049801F0BF
:1035C00035F8079007983FB0BDE8F08FBAF80C3097
:1035D0009CE5DAF8580002F0CDFCBAF90C2093B261
:1035E0007FE508980A93404208904BF0040B99F845
:1035F0000060D3E5002A40F0F387174B12931BF0CD
:10360000200F40F0CD840A9A1BF0100F134640F0B3
:10361000E7831BF0400F00F0E383043314880A9320
:1036200000251BF0010F00F02B8354EA050300F086
:10363000278330238DF868308DF869604BF0020BDA
:10364000022338E64BF0200B99F80060A6E500BF96
:10365000A07E4000B07E4000807E40000A9A17683D
:1036600000248DF86740151D002F00F05C86059A38
:10367000531C00F0DA852146384602F0B1FF0028DD
:1036800000F0D686C31B099305940A95CDF808B0BF
:1036900023EAE37303930C949DF867A031E6002AB4
:1036A00040F0A9871BF0200F40F088841BF0100F1A
:1036B00040F0A3831BF0400F00F09F830A99B1F9FB
:1036C00000400431E51722462B460A91002A73F187
:1036D0000003C0F2908405999DF867A04A1C4FF042
:1036E00001037FF4F0AD54EA050200F07482CDF8D6
:1036F00008B0012B00F01083022B40F09D8212983D
:103700002EAF230904F00F0143EA05732A091C4672
:103710001546435C07F8013D54EA0503F1D12EAB91
:10372000DB1B0993E5E54BF0400B99F8006035E5AC
:1037300099F800606C2E03BF99F801604BF0200BE4
:1037400009F101094BF0100B28E5002A40F06387CE
:103750001BF0200F40F04D851BF0100F40F005814D
:103760001BF0400F00F001810A9A136804320A929C
:10377000BDF81C201A80DEE499F8006000297FF46F
:103780000DAD0122202109E599F800602A2E09F1EA
:10379000010000F00387A6F13003092B814698BF92
:1037A000002000F2518619F8016B00EB800003EB5A
:1037B0004000A6F13003092BF5D90590F0E44BF059
:1037C000800B99F80060E9E499F8006001222B2150
:1037D000E4E40A9AB24B1468129378263023043238
:1037E0008DF868304BF0020B0A9200258DF8696065
:1037F000022360E5002A40F00A87AA4B1293FEE6F6
:103800000A99CDF808B00A688DF8902000230A467E
:103810009A468DF86730043201230393CDF814A043
:10382000CDF830A00A92099324AF70E5A6F13003D9
:10383000002019F8016B00EB800003EB4000A6F1BB
:103840003003092BF5D90890AAE4002A40F0DB8662
:103850004BF0100B26E74BF0010B99F800609DE44C
:103860000A9C2368089318460028234603F10403A2
:10387000FFF6B7AE0A9399F800608FE4002A40F093
:10388000B3860A9D1BF0080F05F1070500F03C8484
:1038900025F0070393ED007B8DED0E7B03F108020D
:1038A0000A92DDE90E1222F0004314911593DDE92E
:1038B00014454FF0FF32204629467B4B03F0D2FFE0
:1038C000002840F0A2834FF0FF32774B2046294674
:1038D000FFF712F9002840F0988300220023DDE969
:1038E0000E01FFF7FFF8002840F037849DF867A02D
:1038F0006E4F6F4B032200212BF080000392059145
:103900000290472ED8BF1F4609920C91F9E44BF064
:10391000080B99F8006041E40A9D073525F007037C
:1039200003F10802D3E900450A920023C3E40A9D8B
:10393000073525F0070303F10802D3E900450A9291
:103940000123B8E4002A40F05A86C6B100230122C0
:103950009A4603928DF89060CDF808B08DF86730E4
:1039600005930C93099224AFD1E40A9A13680432A8
:103970000A92079A1A60FFF7DEBB239C1DE5239B82
:10398000DDF818A0002B40F0698500232293DAF8B7
:10399000643013F0010FBAF80C3002D19A0540F1EF
:1039A00048825B063FF5E2AD07983FB0BDE8F08F77
:1039B000652E40F3B18000220023DDE90E01FFF700
:1039C00087F8002800F05F81229B3A4AC8F800205F
:1039D000013301340122072B23942293C8F80420D9
:1039E00000F3C48308F108081B9B0D9A239C9342A3
:1039F00003DB029BDF077FF55BAD229B1099119AD9
:103A0000C8F8002001330C44072BC8F80410239495
:103A1000229300F3FD8308F108080D9B5E1E002E23
:103A20007FF746AD102E229B234D40F3CF81102708
:103A3000DDF810A0DDF818B005E008F10808103E28
:103A4000102E40F3C38101331034072B23942293AB
:103A500088E8A000F1DD21AA5946504603F052FC47
:103A6000002840F0D283239C229B0DF1B808E6E7A2
:103A7000AA468CE7089B039AA3EB020ABAF1000F4F
:103A80007FF7C0ACBAF1100F229B0B4D38DD4246D8
:103A90002146B0464FF0100B2E46049C069D14E0C4
:103AA000807E40006C7E4000FFFFEF7F607E400024
:103AB0005C7E40009C7E4000B07E4000AAF1100A6F
:103AC000BAF1100F02F1080216DD01331031072B95
:103AD0002391229382E84008F0DD21AA294620465E
:103AE00003F010FC0028C3D1AAF1100ABAF1100F9C
:103AF0002399229B2EAAE8DC35460C464646904682
:103B000001335444072B2394229388E8200400F3C4
:103B1000658208F1080875E40D9B229E012B40F395
:103B2000FE81013601340123072E23942296C8F822
:103B30000070C8F8043000F30F8208F10808109AEA
:103B4000119BC8F8003001361444072E23942296A6
:103B5000C8F8042000F30D8208F1080800230022B1
:103B6000DDE90E01FEF7B4FF0D9B002840F0068151
:103B7000013B013601371C44072E22962394C8F8D6
:103B80000070C8F8043000F3DA8108F10808139ACD
:103B9000C8F80420013614441DAB072E2394229646
:103BA000C8F800307FF782AC21AA0699049803F088
:103BB000A9FB58B9239C0DF1B80879E421AA06990C
:103BC000049803F09FFB00283FF4BCACDDF818A07C
:103BD000DDE6DDF808B0012B00F02181022B27D1B2
:103BE000CDF808B00024002589E521AA069904989B
:103BF00003F088FB0028E9D1239C0DF1B80844E4C8
:103C000021AA0699049803F07DFB0028DED1239CAD
:103C10000DF1B808FFF7E3BB21AA0699049803F059
:103C200071FB0028D2D1239C0DF1B808FFF7E7BB48
:103C3000CDF808B0002400252EA900E03946E2089E
:103C400042EA4572E80804F007030546144630339B
:103C500054EA050201F8013C01F1FF37EED1029A66
:103C6000D2077FF55CAD302B3FF459AD30230239DC
:103C700007F8013C2EAB5B1A09930F46FFF739BBDF
:103C80000223FFF718BB1B99002940F37A820C9B93
:103C90000D9A9342A8BF1346002B1E460DDD229BB2
:103CA000C8F8007001333444072B2394C8F804602B
:103CB000229300F32C8308F108080C9B002EA8BF68
:103CC0009B1B002B1E4640F3D080102E229BBA4D2A
:103CD00040F3B78022464FF0100ADDF810B0069C82
:103CE00005E008F10808103E102E40F3A9800133CA
:103CF0001032072B2392229388E82004F1DD21AAB9
:103D00002146584603F0FEFA002840F02A83239A01
:103D1000229B0DF1B808E6E7002D08BF0A2C7CD3E2
:103D20002EAF204629460A22002303F0B1FD30328F
:103D300007F8012D2046294600230A2203F0A8FD9A
:103D400004460D4654EA0503EBD12EABDB1B099369
:103D5000FFF7CFBA059B09932EAFFFF7CABA21AA86
:103D60000699049803F0CEFA00287FF42FAF9DF84F
:103D700067A0239C0DF1B808FFF71FBB5F1E002F43
:103D80007FF705AF102F8C4D40F300814FF0100AE4
:103D9000DDF810B005E008F10808103F102F40F3DF
:103DA000F58001361034072E2394229688E82004EB
:103DB000F1DD21AA0699584603F0A4FA00287FF401
:103DC00005AF239C229E0DF1B808E6E70133344489
:103DD000072B2394229388E860007FF767ABE3E624
:103DE0001C6804330A9300251BE40A990A4604322E
:103DF0000C680A920025FFF75EBA0A9A1468134607
:103E00000433E5170A9322462B465FE404321C680C
:103E10000A9201230025FFF74EBADDF808B0CDF86D
:103E200008B03EAF3034012307F8414D0993FFF746
:103E300060BADAF8580002F09FF8BAF80C30B0E532
:103E4000144601333444072B2394229388E86000FE
:103E500040F3738121AA0699049803F053FA0028CD
:103E60007FF4B4AE239C0DF1B8081B9B0D9A9342CE
:103E700080F25E81229A10981199C8F800100132E0
:103E80000444072A2394C8F80400229200F35881BE
:103E900008F108080D9A0C99D31A561A9E42A8BF29
:103EA0001E46002E0EDD229AC8F8046001320F442F
:103EB0003444072AC8F800702394229200F3428207
:103EC00008F10808002EACBF9E1B1E46002E7FF78F
:103ED000EFAA102E229B384D7FF778AF1027DDF820
:103EE00010A0DDF818B005E008F10808103E102E0B
:103EF0007FF76CAF01331034072B2394229388E8AB
:103F0000A000F1DD21AA5946504603F0FBF9002834
:103F100040F07B81239C229B0DF1B808E6E7029BD1
:103F2000D8073FF5FEAD013601340123072E239457
:103F30002296C8F80070C8F804307FF726AE21AA90
:103F40000699049803F0DEF900287FF43FAE239C25
:103F5000229E0DF1B8081AE621AA0699049803F0EA
:103F6000D1F900287FF432AE239C229E0DF1B808CF
:103F7000E5E521AA0699049803F0C4F900287FF426
:103F800025AE239C229E0DF1B808E7E501363C449E
:103F9000072E2394229688E8A0007FF7F6ADCEE79F
:103FA0000A9D073525F0070303F108020A92D3E9B9
:103FB0000045FFF736BB00BFB07E40000A9D0735C5
:103FC00025F00705D5E9002305F108010A911446FB
:103FD0001D46FFF77BBB2EAFFFF78BB921AA0699D1
:103FE000049803F08FF900287FF4F0AD239C0DF1C5
:103FF000B808FFF707BA4FF02D0A644265EB450594
:104000008DF867A00123FFF75AB9DDE90E010246DA
:104010000B4603F027FC002840F08982059B013302
:1040200026F0200A00F09F80BAF1470F04D1059BCB
:10403000002B08BF012305930F9B4BF48072002BCC
:104040000292C0F2A9819DED0E7B8DED167B0023BF
:104050000B93662E00F08881462E00F0DA81BAF1CB
:10406000450F0CBF059B059D049808BF5D1C1FAA4A
:104070001CAB019200932A461BAB02219DED160B4F
:1040800000F01EFC672E074640F0AA811BF0010FCE
:1040900000F043827C1900220023DDE91601FEF7BF
:1040A00017FD002840F031811F9BA34206D230212A
:1040B0005A1C1F9219701F9B9C42F9D8DB1BBAF146
:1040C000470F0D9300F0C480652E40F386821B9B42
:1040D0000C93662E00F076810D9B0C9A1946914246
:1040E00000F363811BF0010F40F00E8222EAE273BD
:1040F0000393099267260B9B002B40F0A180059348
:104100009DF867A0FFF7FDB825F0070595ED007B4A
:1041100005F108038DED0E7B0A93FFF7C2BBDAF8B9
:10412000580001F029FF4FF0FF330793FFF721BA42
:10413000029AD5077FF5AEAE9CE608F1080894E632
:1041400021AA0699049803F0DDF800287FF43EAD1B
:104150001B9B239C0DF1B8089CE64FF02D0A8DF8AF
:1041600067A0FFF7C5BB0623059365E721AA06995B
:10417000049803F0C7F800287FF428AD0DF1B808C3
:1041800032E4229BB24AC8F80020013301340122F4
:10419000072B23942293C8F8042000F32D8108F103
:1041A000080829B90D9B1BB9029BDE077FF580A982
:1041B000229B1098119AC8F800200133024622442D
:1041C000072B2392C8F80400229300F3778108F1AB
:1041D00008080029C0F24C810D99C8F8007001331D
:1041E0008C18072B23942293C8F804107FF75EA93C
:1041F000DAE40A9A07991368CD170846043229466B
:104200000A92C3E90001FEF796BFDA46FFF7BFBB8B
:1042100021AA0699049803F075F800287FF4D6AC1B
:10422000239C0DF1B808FFF7F8BB38460594FEF75C
:10423000C7FE0A950990CDF808B00346FFF728BAE3
:104240004FF02D0A00238DF867A00593FFF75CB8A7
:104250001B9B0C931A46033304DB059B19469142C2
:10426000BFF63AAF023E0C9B8DF87460013B002B09
:104270001B93BDBF0C9BC3F101032D222B22092BE5
:104280008DF8752040F34B810DF183042046714D6C
:1042900000E0104685FB0312D917C1EBA20101EB28
:1042A0008102A3EB42023032092900F8012C0B46AF
:1042B00000F1FF32EDDC30330238D9B2844202F82B
:1042C000011C40F295810DF17600134601E013F8D0
:1042D000011B00F8011BA342F9D101339B1A0DF118
:1042E000760213441DAA9B1A0D9A1393012A1344B4
:1042F000099340F34981099B109A1344099323EAD7
:10430000E373039300230C93F5E62346D6E621AA34
:104310000699049802F0F6FF00287FF457AC239C1E
:104320000DF1B808C9E4059B0C97062B28BF06239E
:104330000597BA4603930A95CDF808B00993464FFE
:10434000FEF7DFBF21AA0699049802F0DBFF0028E0
:104350007FF43CAC1B9B0D9A239CD31A0DF1B8083B
:10436000B0E5A246FFF713BB059C04981FAA1CAB3F
:104370000192009322461BAB03219DED160B00F02A
:104380009FFA2346074604191D463B78302B00F060
:10439000DB801B9D2C447EE6DDE90E1202F100431A
:1043A00017932D2316910B9353E6109A0D9B1344EC
:1043B0000C9A0993002A40F3DF8023EAE373039306
:1043C000672698E6002B40F3F680059A002A40F015
:1043D000C9801BF0010F40F0C580039309938AE662
:1043E000472E7FF457AE1BF0010F00F0EE80462EF3
:1043F00007EB0504C9D04EE621AA0699049802F0FD
:1044000081FF00287FF4E2AB1B99239C0DF1B808D3
:10441000C7E6059D04981FAA1CAB019200932A468B
:104420001BAB03219DED160B00F04AFA0746DEE7B1
:10443000059B0393099305900A95CDF808B00C905D
:104440009DF867A0FEF75DBF00230593FEF7A8BEA9
:104450009C7E400067666666947E4000049821AAB0
:10446000514602F04FFF00283FF48FAAFFF78FBAA2
:104470004E4210316A4D2FDA1024DDF810A0DDF81D
:1044800018B004E008F10808103E102E24DD0133B6
:104490001032072B23922293C8F80050C8F804402A
:1044A000F0DD21AA5946504602F02CFF00287FF487
:1044B000ACAE239A229B0DF1B808E5E721AA069934
:1044C000049802F01FFF00287FF480AB1B99239A09
:1044D000229B0DF1B8087CE601333244072B88E8B3
:1044E00060002392229308F108087FF775AE21AA95
:1044F0000699049802F006FF00287FF467AB239A20
:10450000229B0DF1B80867E60C9B109A134409939F
:1045100023EAE37303936726EDE51F9BCEE5303373
:1045200030228DF877308DF876201EABDAE60F9BBF
:104530003C4F002BB6BF4FF02D0A9DF867A08DF8B9
:1045400067A0394BFFF7D6B900220023DDE9160139
:10455000FEF7BEFA00287FF41CAFC5F101051B95DC
:104560002C4498E50C9B109A1344059A1A4422EAAD
:10457000E27309920393BEE50C9B099AC3F1010310
:104580001A441346099218E71BF001030C937FF4B9
:10459000B2AE099B23EAE3730393ACE50A9C99F856
:1045A0000160236843EAE37305932346043381469D
:1045B0000A93FEF7F3BD059B13B91BF0010F02D060
:1045C000109B0133D1E7012307E71F9BBAF1470F87
:1045D000A3EB07030D933FF43BAE1B9B0C9342E60A
:1045E0008DF86710FFF709B88DF86710FFF749B924
:1045F0000DF1760376E68DF86710FFF753B88DF866
:104600006710FFF7A2B98DF86710FFF721B98DF891
:104610006710FFF7F2B88DF86710FFF799B800BF81
:10462000B07E4000687E4000647E40002DE9F0418D
:104630000C46ADF58D6D8989666EE589199621F078
:1046400002010646E069ADF80C1017464FF4806190
:10465000626AADF80E5098461AAD0023079016A86E
:1046600009920693009504950291059101F07EFC54
:1046700043463A4669463046FEF712FD051E07DB03
:104680003046694601F0E2F8002818BF4FF0FF35C8
:10469000BDF80C305B0603D5A38943F04003A3812A
:1046A000169801F065FC28460DF58D6DBDE8F0818A
:1046B00038B5304B1B6805460C4613B19A6B002A7F
:1046C00038D0B4F90C2093B218070CD52069A8B1E2
:1046D00013F001021ED0636900225B42A361A26055
:1046E000F0B1002038BDD9063CD5580726D4206942
:1046F00042F00803A3819BB20028E9D103F42072A1
:10470000B2F5007FE4D02846214601F065FCA3897C
:104710002069DDE7990758BF6269A2600028E0D1EF
:10472000B4F90C301A06DDD543F04003A3814FF0F5
:10473000FF3038BD184601F0E1F8C2E7216B51B1F6
:1047400004F14003994204D0284601F079F9B4F904
:104750000C200023236300232069636022F02402DD
:104760002060C5E742F0400209232B604FF0FF3084
:10477000A28138BD38000020024B13B1024800F07E
:1047800005B87047000000006D5940000023014645
:104790001A46184602F0D6BD02690B69934200F32F
:1047A0008D802DE9F04F03F1FF3801F1140700F17E
:1047B000140B57F828205BF828304FEA880483B0A0
:1047C0000132B3FBF2F90BEB0403009407EB040A8C
:1047D0000193B9F1000F39D000252E46BC46DE46C4
:1047E0005CF8044BDEF80030A2B209FB0255220C43
:1047F0002C0C09FB0242ADB2751B96B2C6EB1346F8
:1048000015FA83F306EB23469BB243EA0643E245DF
:104810004FEA12454EF8043B4FEA2646E0D2009B91
:104820005BF8033093B9019C231F9B450CD254F8CD
:10483000043C4BB9A4F1080302E01A68043B1AB91E
:104840009B4508F1FF38F8D3C0F81080044602F009
:104850001FFA00282EDB09F101095D46002357F8F5
:10486000041B28688AB29A1A0B0C12FA80F2C3EB66
:10487000104303EB224392B242EA0342BA4545F8A1
:10488000042B4FEA2343EAD25BF828200BEB880382
:1048900082B91A1F93450BD253F8042C42B9083B36
:1048A00002E01A68043B1AB99B4508F1FF38F8D3B7
:1048B000C4F81080484603B0BDE8F08F0020704770
:1048C0002DE9F04F57EC106B97B0056C0291044640
:1048D00093460393CDE900674DB1426C6A600123B2
:1048E0009340AB60294601F0FBFF00232364DDE920
:1048F0000023002B994638DB209A00231360A04B3D
:1049000033EA090317D0DDE90067002200233046AF
:104910003946FEF7DDF8804600282FD0039A0123A0
:104920001360219B002B00F0C4809648186001386A
:1049300017B0BDE8F08F039A42F20F731360009B2B
:104940006BB9C9F3130353B9219B8F48002BEFD0E8
:1049500000F10803219A136017B0BDE8F08F219B86
:104960008A48002BE4D0C31CF4E7019A22F00049E6
:10497000209ACDF8049001231360C0E714AA15A96A
:1049800047EC106B204602F023FA5FEA1955824685
:1049900073D0C7F3130343F07F51CDF84080DDF8A7
:1049A00050803046A5F2FF3541F440110022784B8B
:1049B000FDF772FC6CA3D3E90023FDF721FE6CA385
:1049C000D3E90023FDF76AFC064628460F46FDF7AB
:1049D000B1FD69A3D3E90023FDF712FE02460B46A1
:1049E00030463946FDF75AFC06460F46FEF7A2F858
:1049F00000220490002330463946FEF773F8002861
:104A000040F06F81049E162E00F25981614B03EB3A
:104A1000C603D3E90001DDE90023FEF781F8002891
:104A200000F0C481731E049300230C93A8EB0505CA
:104A30006B1E059300F14F8100230693049B002B0E
:104A4000C0F24081059A0B93114619440023059149
:104A50000A93029B092B2ED8052B40F35186043B69
:104A600002930027029B023B032B00F23386DFE810
:104A700013F0D603CB02E3036404DDF85080159DE8
:104A8000454405F23243202B40F38A81C3F14003B1
:104A900009FA03F9009B05F2124023FA00F040EAFC
:104AA0000900FDF737FD0123013DA1F1F8711093D5
:104AB0007CE739483CE70021616420468B4601F0E1
:104AC000E9FE4FF0FF3308930D9301230790206414
:104AD000CDF808B00993159B002BC0F2D080049A42
:104AE0000E2A00F3CC802B4BBBF1000F03EBC2036B
:104AF000D3E90089C0F2BE83DDE9006742464B4638
:104B000030463946FDF7A6FEFEF714F88346FDF75A
:104B100011FD42464B46FDF773FD0B4602463946F2
:104B20003046FDF7B9FB079D0BF130032B70089B56
:104B3000012B06460F4605F1010561D00022174BF7
:104B4000FDF75EFD0022002306460F46FDF7C0FF7D
:104B5000002840F08180CDF800A00294DDF81CA070
:104B6000089C28E0AFF3008061436F63A787D23FC2
:104B7000B3C8608B288AC63FFB799F501344D33F4C
:104B80000000F07F9D7E4000C07E4000CC7E400053
:104B90000000F83FF87E40009C7E4000000024406A
:104BA000FDF72EFD0022002306460F46FDF790FF7D
:104BB000002840F0C58342464B4630463946FDF753
:104BC00049FEFDF7B7FF8346FDF7B4FC42464B466E
:104BD000FDF716FD02460B4630463946FDF75CFBF5
:104BE0000BF1300E05F801EBA5EB0A0EA6450646C3
:104BF0000F464FF000026E4BD2D1DDF800A0029CB0
:104C000032463B4630463946FDF748FB06460F46DE
:104C100002460B4640464946FDF764FF48B9324616
:104C20003B4640464946FDF753FFA8B11BF0010F34
:104C300012D015F8018C079A6B1E04E09A4200F01E
:104C40002D8413F8018DB8F1390F03F10105F5D06A
:104C500008F1010883F800805146204601F040FE2B
:104C60000022049B2A70039A01331360219B002BBE
:104C700000F0A38307981D6017B0BDE8F08F099A74
:104C8000002A40D0029A012A40F31C83089B0A9A0A
:104C90005F1EBA42C0F29483D71B089B002BC0F260
:104CA0007E84069D089B069A1A440692059A012165
:104CB0001A442046059201F0ADFE064626E0012387
:104CC0000C93B3E6069A049BD21A5B420A93002324
:104CD00006920B93BDE6C5F10103069300230593ED
:104CE000ACE6DDF810904846FDF724FC02460B4682
:104CF00030463946FDF7ECFE00287FF483AE09F11B
:104D0000FF3304937EE60A9F069D099E002D0CDD6D
:104D1000059900290B4608DDA942069AA8BF2B4633
:104D2000D21AED1ACB1A069205930A9BD3B1099BAE
:104D3000002B00F0C082002F10DD31463A4620469D
:104D400001F004FF524601460646204601F06CFE83
:104D500051468046204601F0C3FDC2460A9BDA1B3D
:104D600040F0AA820121204601F054FE0B9B002B4B
:104D700081461FDD01461A46204601F0E7FE029BF0
:104D8000012B814640F35B824FF00008D9F81030C8
:104D900009EB8303186901F0EDFDC0F1200013E079
:104DA000C3F12009009B03FA09F07AE60C903DE676
:104DB00000002440029B012B40F38D824FF000083D
:104DC0000B9B0120002BE1D1059A104410F01F002D
:104DD00000F0A180C0F12003042B40F38C84069BDB
:104DE000C0F11C0003440693134603440544059395
:104DF000069B002B05DD51461A46204601F0F6FEC3
:104E00008246059B002B05DD49461A46204601F0E7
:104E1000EDFE81460C9B002B40F08680089B002B0A
:104E200040F36982099B002B00F09880002D05DD7E
:104E300031462A46204601F0D9FE0646B8F1000F59
:104E400040F03683B046089B079A013BD31808937D
:104E5000009B03F001030993174649465046FFF7AC
:104E60009BFC31460546504601F012FF424649463A
:104E70008346204601F028FF05F130020092C26807
:104E80000146002A40F032820690504601F000FFB1
:104E9000069B05901946204601F022FD059A32B97D
:104EA000029B23B9099B002B00F0DE83029ABBF121
:104EB000000FC0F2A28205D1029B1BB9099B002BF7
:104EC00000F09B82002A00F307839DF800303B70BE
:104ED000089B07F1010B9F425D4600F00883514695
:104EE00000230A22204601F005FD46458246314650
:104EF0004FF000034FF00A02204600F0F18101F06C
:104F0000F9FC4146064600230A22204601F0F2FC45
:104F10005F468046A1E71C20069B03440693059B41
:104F200003440544059363E74946504601F0B0FE4B
:104F30000028BFF673AF049F514600230A22204683
:104F4000013F049701F0D6FC099B8246002B40F0FC
:104F5000A7830D9B002B40F3B0830893DDF81CB0B2
:104F6000DDF820805D4602E001F0C4FC824649463F
:104F70005046FFF711FC00F1300705F8017BA5EB67
:104F80000B0343454FF00A024FF000035146204601
:104F9000EADB079B089A0097012AACBF9B180133F4
:104FA0001D464FF0000B51460122204601F01EFE27
:104FB0004946824601F06CFE002840F33A8215F81B
:104FC000012C07996B1E04E08B4200F0AF8113F8AF
:104FD000012D392A03F10105F6D001321A70494634
:104FE000204601F07DFC002E3FF436AEBBF1000FF1
:104FF00005D0B34503D05946204601F071FC314637
:10500000204601F06DFC27E600230993049B5B44D6
:105010000D930133012B1E461D460893B8BF012690
:105020000021172E61640AD9012204235B0003F1D9
:1050300014008642114602F10102F7D26164204653
:1050400001F028FC0E2D079020643FF644AD002FA0
:105050003FF441AD049900299DED007B40F3F681BA
:10506000B94B01F00F0203EBC2030D11D3E9006746
:10507000EB0640F1AD81B54B51EC170BD3E908239A
:10508000FDF7E8FBCDE90E0105F00F054FF0030930
:105090008DB1DFF8B882E80709D530463946D8E93E
:1050A0000023FDF7ADFA09F1010906460F466D1020
:1050B00008F10808EFD13B463246DDE90E01FDF765
:1050C000C9FB074688460C9B43B10022A04B3846DB
:1050D0004146FDF707FD002840F073824846FDF782
:1050E00029FA3A464346FDF78BFA9A4B0022FDF720
:1050F000D5F8089B0546A1F15076002B00F04081C1
:10510000049BDDF820901193099B002B00F0F681A1
:105110008D4B914903EBC90353E902230020FDF7AE
:1051200099FB2A463346FDF7B7F8CDE90E01414613
:105130003846FDF7FFFC0546FDF7FCF902460B4635
:1051400038464146FDF7A8F830355FFA85F8079DE7
:1051500006460F4685F8008002460B46DDE90E0143
:105160000135FDF7DDFC002856D132463B460020D4
:105170007749FDF791F802460B46DDE90E01FDF790
:10518000CFFC002840F06282B9F1010F3FF4A3ACDC
:10519000079BCDF848A0CDF84CB09944A046DDE976
:1051A0000EAB0DE000206A49FDF776F852465B46EB
:1051B000FDF798FC002840F044824D4500F04A82FB
:1051C000504659460022654BFDF71AFA0022634B00
:1051D00082468B4630463946FDF712FA0F460646A0
:1051E000FDF7A8FC0446FDF7A5F902460B4630463C
:1051F0003946FDF751F83034E4B252465B4605F8C3
:10520000014B06460F46FDF76DFC32463B46002833
:10521000C8D0DDF848A04446119B04931CE5002348
:105220000993BBF1000F40F3DA805E465D46CDF88E
:1052300034B0CDF820B0F3E601230993F1E7009BE9
:10524000002B7FF4A1ADDDE90012C2F31303002BA4
:105250007FF4B4AD22F000473F0D3F05002F00F072
:105260000082069B01330693059B013305934FF0A3
:105270000108A5E5089B002B3FF73EAC40F0998064
:1052800049460022364B4046FDF7BAF9DDE90023D6
:10529000FDF73CFCDDF820904E4600283ED06FEA3A
:1052A0000B03079D04934946204601F019FB002E8D
:1052B0003FF4D2ACA3E60A9A5146204601F046FCE0
:1052C00082464FE5109A002A00F06F8103F23343C3
:1052D0000A9F069DE7E4009B002B7FF46FADB2E7C9
:1052E00001F008FB5F4606468046B6E5204601F021
:1052F000F7FA0122DBE5029B022B7FF793AD089BB7
:10530000002BCCD149460522204601F0F3FA014694
:105310008146504601F0BCFC0028C0DD049A079984
:105320003123013204920B704D1CBCE7049A013208
:105330000492079A3123137051E60123099365E61D
:10534000DDF800A0029C87E4F87E4000D07E40009B
:105350000000F03F00001C400000E03F000024403F
:10536000000014404846FDF7E5F83A464346FDF78D
:1053700047F90022C44BFCF791FF0546A1F1507696
:1053800041460022C14B3846FCF786FF2A46334689
:1053900080468946FDF7C4FB002840F0AB802A46D2
:1053A00006F1004340464946FDF79CFB00283FF4C8
:1053B00092AB4FF000094E4671E70798FFF7B8BA75
:1053C0000A9B0B9A0A97FB1A1A440B92002764E473
:1053D0009DED007B4FF002098DED0E7B58E600211C
:1053E0006164204601F056FA4FF0010B07902064EB
:1053F000CDF820B0CDF834B029E6002A12DD5146B0
:105400000122204601F0F2FB4946824601F040FCB1
:10541000002840F33181009B392B00F0F78005F123
:10542000310300939DF800303B70B3467D1C464627
:10543000D5E504D1009BDB0701D5C0E5154615F87D
:10544000013C302B05F1FF32F8D0C8E500F0B48004
:10545000049B5D428E4B05F00F0203EBC203D3E9C0
:105460000023DDE90001FDF7CBF82D110746884642
:1054700000F02881874E4FF00209E90709D5384628
:105480004146D6E90023FDF7BBF809F101090746BB
:1054900088466D1006F10806EFD114E60799302210
:1054A0000A70049A15F8018C01320492FFF7D0BB00
:1054B0007168204601F0EEF9336902339A0005461F
:1054C00006F10C010C3001F0DBF8294601222046E0
:1054D00001F08CFB8046B6E4009B392B00F09680EF
:1054E000009B0133B3463B707D1C464677E5B346CF
:1054F000464658E54FF000094E460FE7644901EB78
:10550000C9012A46334651E90201FDF779F8CDE990
:105510000E0138464146FDF70DFB0546FDF70AF83A
:1055200002460B4638464146FCF7B6FE079A303530
:10553000B9F1010F157006460F4602F101051CD0A6
:10554000079B99440022544B30463946FDF758F8E2
:105550000F460646FDF7EEFA8046FCF7EBFF08F132
:10556000300802460B4630463946FCF795FE05F8F2
:10557000018B4D4506460F46E4D10022474BDDE93D
:105580000E01FCF78BFE32463B46FDF7ABFA0028D6
:1055900042D0119B049315F8018CFFF74CBB069B7E
:1055A000089A9D1A0023FFF77EBB149B0A9F069D55
:1055B000C3F13603FFF777BBDDE900784FF002094E
:1055C00081E5089B002B3FF4CDAE0D9B002B7FF7B0
:1055D00082AA0022304B38464146FDF711F80746B3
:1055E000884609F10100FCF7A5FF3A464346FDF75E
:1055F00007F80022244BFCF751FE049ADDF83490A2
:10560000013A0546A1F1507611927DE53922B34663
:105610003A7046467D1CD4E4DDE90E2300201F4984
:10562000FCF73AFE32463B46FDF77AFA10B9FFF72F
:1056300052BA154615F8013C302B05F1FF32F8D06F
:10564000EAE54346DDF848A0A0461C46119B0493BA
:10565000FFF7F1BADDF848A0DDF84CB04446FFF79B
:105660003ABAB846FFF7ACBB009B392BCED0BBF1A2
:10567000000F3FF7D4AED5E67FF4D4AE009BDA0737
:105680007FF5D0AEC7E600BF00001C40000014400C
:10569000F87E4000D07E4000000024400000E03F43
:1056A000314600230A22204601F024F90D9B002BED
:1056B00006460ADD0893FFF7B9BB029B022B22DCEA
:1056C0000D9B4AE44FF00209FDE4029B022B1ADC19
:1056D0000D9BEFE7002565642946204601F0DAF8C6
:1056E0004FF0FF3308930D9301230790AB462064DE
:1056F0000993FFF7F0B93FF47BABC0F13C000BE43A
:105700000127FFF7AFB90D9B0893F8E5B1F90C300D
:105710009AB22DE9F0410D46110780463AD46A68E5
:1057200043F40063002AAB816FDDAC6A002C49D0E2
:1057300000229BB2D8F80060C8F8002013F4805211
:1057400067D02A6D5F0705D569682B6B521A0BB1BC
:10575000EB6BD21A0023E9694046A047441C3CD0B9
:10576000B5F90C302A692A6023F400630022AB816A
:10577000DB046A6047D4296BC8F8006011B305F1F7
:105780004003994202D0404600F05AF900202863B5
:10579000BDE8F0812E69AEB12C682E6091070CBF78
:1057A0006B690023A41BAB600AE0234632466F6A94
:1057B000E9694046B8470028A4EB0004064404DD2C
:1057C000002CF2DC0020BDE8F081AB8943F04003FF
:1057D000AB814FF0FF30BDE8F081D8F800401D2CC0
:1057E000F3D8194BE340DB4313F00103EDD1B5F9D6
:1057F0000C206B6022F400632969AB81DA04296014
:10580000B9D5002CB7D12865B5E7EA6B002A8CDC46
:10581000D8E70123E9694046A047431C024602D06D
:10582000AB89AC6A8EE7D8F80030002BF8D01D2B7E
:1058300001D0162B02D1C8F80060C3E7AB8943F052
:105840004003AB81BDE8F0810100402038B50D4632
:10585000044608B1836BBBB1B5F90C0088B16B6E1F
:10586000DB0701D4810517D520462946FFF74EFFF7
:105870006B6EDA07044602D4AB899B0507D5204638
:1058800038BD0446204638BD00F038F8E4E7A86D7E
:1058900000F072FB204638BDA86D00F06BFBE3E71B
:1058A000014900F02BBB00BF8D74400010B50023F0
:1058B00004468181C2810360436083604366036163
:1058C00043618361194608225C30FDF7D3F907482C
:1058D0000749084A084B2062E4616162A262E36200
:1058E00004F15800BDE8104000F040BBFD714000DD
:1058F000217240005D7240007D72400010B5044688
:10590000124800F037FBA26BD2B904F53B73104884
:10591000C4F8E8320321C4F8E022E063C4F8E412DA
:1059200060680421FFF7C2FF01220921A068FFF788
:10593000BDFF02221221E068FFF7B8FF0123A36335
:105940000248BDE8104000F017BB00BF983A0020A5
:10595000A1584000014800F00DBB00BFAC3A002048
:10596000014800F009BB00BFAC3A002038B50A4C32
:105970000A4D641BA4100AD004F18043013B05EBDF
:105980008305013C55F804399847002CF9D1BDE84E
:10599000384002F0AFBB00BF0481400000814000EE
:1059A000F8B5244F0C46064600F068FFBB685D68FA
:1059B000C4F57E610F3125F00305294421F47F6190
:1059C00021F00F01A1F58054B4F5805F07DB0021C1
:1059D000304601F001FCBB682B44984204D03046AD
:1059E00000F052FF0020F8BD6142304601F0F4FBA8
:1059F00001300DD0104BBA6819682D1B45F0010518
:105A00003046091B5560196000F03EFF0120F8BDCB
:105A10000021304601F0E0FBBA68831A0F2BDEDD6F
:105A2000064C0549246843F00103001B53600860DD
:105A3000D5E700BF6C0400204C0A00207408002049
:105A4000002944D02DE9F0410D46804600F016FFB4
:105A500055F8047C694927F00103A5F10804E21810
:105A60008E685068B24220F003005ED0FE0750609E
:105A70000BD455F8087CE41B01F1080EA5687545A8
:105A80003B446DD0E768EF60BD6015186D68ED07A9
:105A90003ED543F001026260E350B3F5007F17D2B8
:105AA000DB08581C9A104D6851F83070A76001232C
:105AB000934001EBC0022B43083AE2604B6041F88F
:105AC0003040FC604046BDE8F04100F0DDBE70476C
:105AD0005A0A042A52D89A0902F13907FF0002F142
