S01B0000436F64657369676E53656D69706172616D45512E73726563A8
S214400000E85C00207903400075034000750340001B
S2144000107503400075034000750340000000000073
S21440002000000000000000000000000075034000D3
S2144000307503400000000000750340007503400053
S214400040750340007503400075034000750340008B
S214400050750340007503400075034000750340007B
S214400060750340000908400000000000750340008A
S214400070750340007503400075034000750340005B
S2144000802907400075034000750340007503400093
S214400090750340007503400075034000750340003B
S2144000A0750340007503400075034000750340002B
S2144000B0750340007503400000000000000000008B
S2144000C000000000000000000000000000000000EB
S2144000D000000000000000000000000000000000DB
S2144000E000000000000000000000000000000000CB
S2144000F00000000000000000000000007503400003
S214400100750340007503400010B5054C237833B99D
S214400110044B13B10448AFF300800123237010BD95
S214400120E8090020000000009C7040000C4B43B1E2
S2144001300C480D4910B5AFF300800C48036823B94E
S21440014010BD0A48036833B97047094B002BF7D0F7
S214400150BDE810401847064B002BF5D0184700BFA7
S214400160000000009C704000EC0900209C7040009D
S2144001700000000008B57C4B4FF498125A600022ED
S2144001805A631B6A13F4807F0ED06FF07F43764924
S214400190013B0A6A12F4807F03D0002BF8D100207E
S2144001A008BD002B00F0CC806F4B05225A631B6ABB
S2144001B013F4807F0ED06FF07F436B49013B0A6A91
S2144001C012F4807F03D0002BF8D1002008BD002B0E
S2144001D000F0B880644B00225A631B6A13F4807F99
S2144001E00ED06FF07F436049013B0A6A12F4807F6D
S2144001F003D0002BF8D1002008BD002B00F0A480CF
S214400200594B38225A631B6A13F4807F0ED06FF026
S2144002107F435549013B0A6A12F4807F03D0002B86
S214400220F8D1002008BD002B00F090804E4B0122F4
S2144002305A631B6A13F4807F0DD06FF07F434A49A0
S214400240013B0A6A12F4807F03D0002BF8D10020CD
S21440025008BD002B7CD0444B2A225A631B6A13F4F9
S214400260807F0DD06FF07F433F49013B0A6A12F40E
S214400270807F03D0002BF8D1002008BD002B69D02A
S214400280394B31225A631B6A13F4807F0DD06FF0CE
S2144002907F433549013B0A6A12F4807F03D0002B26
S2144002A0F8D1002008BD002B56D02F4B0B225A63A6
S2144002B01B6A13F4807F0DD06FF07F432A49013BC1
S2144002C00A6A12F4807F03D0002BF8D1002008BDC4
S2144002D0002B43D0244BFF225A631B6A13F4807FC3
S2144002E00DD06FF07F432049013B0A6A12F4807FAD
S2144002F003D0002BF8D1002008BD002B30D01A4B7D
S214400300FF225A631B6A13F4807F0CD06FF07F4342
S2144003101549013B0A6A12F4807F03D0002BF8D1BE
S214400320002008BDF3B102220F4B1A601A46136A2A
S21440033013F0010FFBD00D480D4B9847012008BD28
S214400340002008BD002008BD002008BD002008BDD4
S214400350002008BD002008BD002008BD002008BDC4
S214400360002008BD002008BD00C600401C6D4000AF
S2144003708D0C4000FEE7000008B5174B174A9A421E
S21440038010D0174B144A9A420CD2013B9B1A23F0CA
S214400390030304331344114951F8040B42F8040B89
S2144003A09A42F9D10F4B104A9A420AD2013B9B1A05
S2144003B023F0030304331344002142F8041B934202
S2144003C0FBD10A4A0A4B23F07F039360094B9847B8
S2144003D0094B9847FEE700BF000000209C70400095
S2144003E0E8090020E42A0020E809002000ED00E0AB
S2144003F000004000491C400009054000014A024BED
S2144004001A60704700127A000000002030B4029D47
S2144004104FF08044C4F80801C4F80C51C4F81801E1
S214400420C4F81C51C4F80021C4F80451C4F8102183
S214400430C4F81451074A9160D5609161D561136044
S21440044055601361556140F20113C4F820311362C0
S21440045030BC70470002004070B582B01F4C6568E3
S21440046045F4C02545F01F056560256F25F4C02579
S21440047025F003052567656F25F4C02525F003059F
S2144004806567256F45F01C052567656F25F01C05DB
S21440049065674FF08044802525604FF4C44666600B
S2144004A0069E00960E4EB04765610E4A002382F8BF
S2144004B010334FF4803111602360236843F001030A
S2144004C02360236843F010032360236843F004034B
S2144004D023600548054B984702B070BD000E0E409D
S2144004E00D04400000E100E0386D40008D0C4000F7
S2144004F0044A136843F470031360BFF34F8FBFF38F
S2144005006F8F704788ED00E02DE9F041ADF5836DC3
S2144005105F4B98475F4B98475F4A604B1A60604A0C
S21440052003F521631A601A465E49536913F0800F3B
S214400530FBD08B6E13F0800FF7D05A4B00229A6296
S214400540594A9A629A6E12F0020FFBD0554B1A6BBC
S21440055022F070021A639B6E13F0080F09D14FF415
S2144005600063504A01E0013B21D0916E11F0080F24
S214400570F9D04C4A136B23F0030343F00203136392
S214400580936E13F0080F09D14FF40063454A01E01B
S214400590013B0CD0916E11F0080FF9D0434AD36955
S2144005A023F4F05343F0B44343F4C853D361404B71
S2144005B04FF025421A604FF400425A603D4B984730
S2144005C03D4B98473D4B98473D4B98473D4B98474A
S2144005D03D4B98473D4B1968C1F303513C483D4B52
S2144005E098474FF4807300933B4B3C4A3C493D4808
S2144005F03D4CA0473D483E4B98473E4A3E4B1360D5
S214400600002353603D4B93603D4BD3603D4B13619D
S21440061002F1140301210DF20C403B4CA0471AA3F3
S214400620D3E9002339483A498847324C394E2C4D55
S21440063000E000BF94F82430002BFAD094F8253020
S214400640DBB2002B0CBF37462F464FF4807203A90F
S2144006502148DFF8CCE0002B08BF70462E4B984769
S2144006604FF4807303AA11460DF20C40DFF8B480B5
S214400670C0474FF48072394603A8284B984700235A
S21440068084F82430D5E700BF000000E0C2FBEC3F12
S214400690FD034000F104400000050004000A0E403F
S2144006A0080000A500040E40013F4D0E10140E40F9
S2144006B050140E409909400021094000CD0B4000DF
S2144006C0BD084000010B40007501400088ED00E089
S2144006D04C6D4000B90C4000A40E0020A41A002027
S2144006E0A40A0020A416002059044000586D40007B
S2144006F08D0C4000040A0020676F013D676F01BD06
S21440070017CAF53F13D26FBFAD104000886D40004A
S214400710351D4000A4120020F90D4000A90E4000EF
S214400720B0260020C51040002F4B93F826304BBB18
S2144007304FF080439B6813F0800F44D02A4B93F8C9
S21440074025308BB929494FF08043C3F818114FF430
S2144007508072C3F81C21C3F81011C3F8142101227B
S214400760214B83F82620704721494FF08043C3F839
S21440077018114FF48072C3F81C21C3F81011C3F847
S2144007801421ECE7012B1ED14FF080439B6813F0F9
S214400790800F18D0144B93F82530ABB9154B1B6817
S2144007A0154A9A614FF48072DA61144919615A61A8
S2144007B001220D4B83F825200B4B002283F8262080
S2144007C0012283F8242070470A4B1B680C4A9A6122
S2144007D04FF48072DA610B4919615A610022024B6C
S2144007E083F82520E8E700BF040A0020A41A00206A
S2144007F0B01E002004000020A40A0020A40E002002
S214400800A4120020B026002008B5264B9B69DAB219
S214400810612A1CD0662A1AD0DBB2303B092B21DD78
S214400820D2B9214B1B78BBB11F4B1B78DBB21F4A9A
S2144008300021D1545379DBB2612B1CD01B4B5B7922
S214400840DBB2662B22D00022184B5A7104E0174BBD
S2144008505A710022144B1A70124A136843F480737C
S214400860136008BD10480378DBB2591CC9B201704A
S2144008700E49CA54F0E710460D4B984707EE900ACB
S214400880F8EEE77A0B4BC3ED0A7ADCE70748084BED
S214400890984707EE900AF8EEE77A074BC3ED017AE1
S2144008A0D1E700BF00020240A41E0020A81E002080
S2144008B0411C4000040A002004000020064BD3F8E8
S2144008C0E42122F00102C3F8E421044AC3F8E421FB
S2144008D00122C3F81C21704700020E400054414DCF
S2144008E028B9064A536B43F0805353637047034A14
S2144008F0136B43F080531363704700BF000E0E40E7
S21440090028B9064A536B43F0006353637047034A63
S214400910136B43F000631363704700BF000E0E4036
S21440092010B5184BD3F8E42022F00102C3F8E420B7
S214400930D3F8E420144C2243C3F8E420134AD2F8F8
S214400940E40020F00100C2F8E400D2F8E4102143AD
S214400950C2F8E4104FF0FF31596051601A6842F017
S214400960F0421A601A6942F0F0421A615A6B42F03D
S214400970F0425A630020064B98470120054B9847A3
S21440098010BD00BF000E0E40004F495000100E40F4
S214400990E1084000010940001F4BD3F8E42022F054
S2144009A00102C3F8E420D3F8E4101C4A0A43C3F813
S2144009B0E4201B4A1A614FF400725A6004225A64BB
S2144009C01A46936E13F4007FFBD0134B1A6842F41A
S2144009D000721A605A6842F480525A6044221A657D
S2144009E01A46936E13F4805FFBD00B4B1A6842F4A2
S2144009F080521A604FF480425A6040F654129A650C
S214400A001A46936E13F4804FFBD0034A136843F4A0
S214400A1080431360704700BF00040E4000434D50B3
S214400A20001B01000A4B1B6853B1094B1B681A1880
S214400A300849914208DB1046054A10601846704740
S214400A40054A034B1A60F0E74FF0FF30704700BF8F
S214400A50380A0020FC7F0220E85C00204FF0FF3080
S214400A6070474FF400534B6000207047012070479A
S214400A70002070470138022815D82DE9F0410E466F
S214400A8014469AB10D46DFF838800C4FD8F800006F
S214400A9015F8011B3B68984700280ADBA81B013C59
S214400AA0F4D1BDE8F0814FF0FF3070471046BDE806
S214400AB0F0814FF0FF30BDE8F08100BFB42A00203F
S214400AC0B82A00202DE9F04180B90C469046002A0D
S214400AD00FDD8F18084E094D306821462B68984721
S214400AE00134BC42F8D14046BDE8F0814FF0FF38B3
S214400AF0F9E78046F7E700BFB82A0020B02A002072
S214400B0008B5194BD3F8902042F4C062C3F8902041
S214400B105A6E42F4C0625A665A6842F4C0625A60DC
S214400B201A6F22F4C0621A675A6F22F4C0625A677C
S214400B3003220E4B1A6003F5C063D3F8E42022F07C
S214400B400102C3F8E4200A4AC3F8E420094A1A61BD
S214400B50094A1A6002225A644FF498125A600748AB
S214400B60074B984708BD00BF000E0E4000C000402F
S214400B700049575401011300240000019C6D4000B9
S214400B808D0C4000044BD9611A46536913F0020F8E
S214400B90FBD00020704700BF0002024010B403465E
S214400BA00848002200F8312F074CB3FBF1F201FB56
S214400BB01233E35C00F8013D1346002AF5D15DF898
S214400BC0044B70473C0A0020B06D400038B51E4BC1
S214400BD05A6842F00C025A601A6F22F00C021A67EA
S214400BE05A6F22F00C025A670122A3F541231A607D
S214400BF0164B102183F809134FF400711960144BFB
S214400C009A60D3F8E42022F00102C3F8E420114AA7
S214400C10C3F8E42082221A620F4A5A6050221A60B1
S214400C200E4A13600E4A0F4B1A600F4D2B68002178
S214400C3098680E4CA0472B6800215868A0470C487F
S214400C400C4B984738BD00BF00100E4000E100E056
S214400C500002024000415355C0080800B82A002050
S214400C60850B4000B42A002038000020091E4000B2
S214400C70C46D4000F91D4000034BD8611A465369C5
S214400C8013F0020FFBD07047000202402DE9F041FE
S214400C9006460024064FDFF81C8001E0705DC04722
S214400CA0E5B23046B8470134A842F7D8BDE8F081EF
S214400CB0C11F4000790C40000FB42DE9F04182B0CE
S214400CC008AB53F8044B01932378BBB1474DDFF88C
S214400CD02481474F07E0019B1A1D01921878A847C8
S214400CE0B41CB37853B1207825287DD030B1A847BE
S214400CF014F8010F25282DD00028F8D102B0BDE801
S214400D00F04104B07047019B1A1D01920A211868F1
S214400D10C047B847E4E7019B1A1D019208211868AE
S214400D20C047B847DCE7019B1A1D01921868B847D0
S214400D30D6E7019B1A1D019210211868C047B84794
S214400D40CEE7019B1A1D019210211868C04741301A
S214400D50B847C5E726467378583B202BC0D801A233
S214400D6052F823F0430D4000E10C4000E10C4000F7
S214400D70E10C4000E10C4000E10C4000E10C40007A
S214400D80E10C4000E10C4000E10C4000E10C40006A
S214400D90D70C4000070D4000E10C4000E10C40003D
S214400DA0E10C4000E10C4000E10C4000E10C40004A
S214400DB0E10C4000E10C4000E10C4000E10C40003A
S214400DC0170D4000E10C4000E10C4000E10C4000F3
S214400DD0270D4000E10C4000E10C4000E10C4000D3
S214400DE0E10C4000330D40002646B4E7790C400045
S214400DF08D0C40009D0B400070B496082FD09FEDA0
S214400E00297A00F1100401F11003354654ED047AB6
S214400E10F8EEE77A013D67EE877A04F1100443ED79
S214400E20047A54ED077AF8EEE77A03F1100367EE9A
S214400E30877A43ED077A54ED067AF8EEE77A67EE5E
S214400E40877A43ED067A54ED057AF8EEE77A67EE50
S214400E50877A43ED057AD9D136013144304412F0D1
S214400E6003021DD0D0ED007A9FED0E7AF8EEE77AB9
S214400E70013A67EE877AC1ED007A11D0D0ED017A5B
S214400E80F8EEE77A012A67EE877AC1ED017A07D055
S214400E90D0ED027AF8EEE77A67EE877AC1ED027A0D
S214400EA070BC7047000000302DE9F84F5FEA9209A9
S214400EB02DED048B904683468A467ED09FED7A9AE7
S214400EC000F1100401F110054E46F6EE008ABEEE23
S214400ED0008A6FF0004754ED047A67EE897AF5EEA3
S214400EE0C07AF1EE10FAD4BFB0EE487AB0EE687A27
S214400EF077EE277A17EE900A00F04AFEB1EBE07FD5
S214400F0018BF87EAE17045F8100C54ED037A67EE97
S214400F10897AF5EEC07AF1EE10FAD4BFB0EE487A90
S214400F20B0EE687A77EE277A17EE900A00F030FE39
S214400F30B1EBE07F18BF87EAE17045F80C0C54ED42
S214400F40027A67EE897AF5EEC07AF1EE10FAD4BFEF
S214400F50B0EE487AB0EE687A77EE277A17EE900AC7
S214400F6000F016FEB1EBE07F18BF87EAE17045F867
S214400F70080C54ED017A67EE897AF5EEC07AF1EE08
S214400F8010FAD4BFB0EE487AB0EE687A77EE877A39
S214400F9017EE900A00F0FCFDB1EBE07F87EAE173C4
S214400FA078D0013E45F8043C04F1100405F11005E4
S214400FB091D14FEA0919CA44CB4418F0030865D0CA
S214400FC0DBED007A9FED387A67EE877AFEEE006AB0
S214400FD0F5EEC07AF1EE10FAB6EE007AD8BFB0EE73
S214400FE0667A77EE277A17EE900A00F0D1FDB1EBDD
S214400FF0E07F1CBF6FF0004080EAE170B8F1010866
S214401000CAF8000042D0DBED017A9FED277A67EE02
S214401010877AFEEE006AF5EEC07AF1EE10FAB6EE8A
S214401020007AD8BFB0EE667A77EE277A17EE900A47
S21440103000F0AEFDB1EBE07F1CBF6FF0004080EAF1
S214401040E170B8F1010FCAF804001FD0DBED027A58
S2144010509FED157A67EE877AFEEE006AF5EEC07A67
S214401060F1EE10FAB6EE007AD8BFB0EE667A77EEBA
S214401070277A17EE900A00F08BFDB1EBE07F1CBF9D
S2144010806FF0004080EAE170CAF80800BDEC048BBF
S214401090BDE8F88F013E45F8040C04F1100405F154
S2144010A010057FF418AF84E70000004F10B582604B
S2144010B0016004460A011846002100F0EDFD60601C
S2144010C010BD00BF2DE9F047D0E901564FEA930C1A
S2144010D003F0030E4FEA0C19076802EB090A0EF1FB
S2144010E0FF381436103516ED054A16ED042A56ED2F
S2144010F0032A16ED023A56ED013A55ED045A15ED1F
S214401100035A15ED027A55ED017ABCF1000F00F056
S214401110D48001F1100002F11003644610ED046A19
S21440112062EE254A64EE066A22EE855A76EEA46A98
S21440113063EE074A76EE856A23EEA75A76EEA47AE1
S21440114022EE061A77EE857A62EEA51A43ED047A09
S21440115050ED034A64EE246A23EE275A76EE816AFF
S21440116063EE875A36EEA17A62EE241A37EE057A97
S21440117022EE866A37EE257A63EEA77A03ED037A87
S21440118010ED025A64EE055A63EE076A75EEA15AF0
S21440119062EE051A75EE865A62EEA44A75EEA65AB7
S2144011A023EE877A75EEA77A013C43ED027A50ED3E
S2144011B0015A24EE256A63EE276A36EE216A00F16C
S2144011C0100036EE246A03F1100336EE266A36EE39
S2144011D0077A03ED057AA1D149445346BEF1000F84
S2144011E047D0D1ED004A22EE256A64EE241A62EE1C
S2144011F0856A36EE215A23EE076A35EE265A63EEA6
S214401200A77A35EE066A36EE276A83ED006AB8F1AD
S214401210000F40D091ED015A62EE247A65EE041A32
S21440122062EEA56A77EEA15A63EE067A75EEA65A86
S21440123023EE877A75EEA77AB8F1010F77EE277A14
S214401240C3ED017A30D0D1ED025A25EE022A64EE83
S214401250256A62EEA42A76EE826A27EE833A76EE16
S214401260A26A63EE863A76EE836A36EEA37A83ED1A
S214401270027A013F45ED045A05ED035A05ED027A20
S21440128045ED017A06F1140605F1100511467FF486
S2144012902AAFBDE8F087F0EE477AB0EE655AB0EE7A
S2144012A0467AF0EE645AE4E7B0EE677AF0EE455AD6
S2144012B0F0EE467AB0EE645ADBE713468EE700BFA0
S2144012C081F0004102E000BF83F0004330B54FEAB2
S2144012D041044FEA430594EA050F08BF90EA020F1F
S2144012E01FBF54EA000C55EA020C7FEA645C7FEAB2
S2144012F0655C00F0E2804FEA5454D4EB5555B8BFD5
S2144013006D420CDD2C4480EA020281EA030382EA45
S214401310000083EA010180EA020281EA0303362DD7
S21440132088BF30BD11F0004F4FEA01314FF4801CAA
S2144013304CEA113102D0404261EB410113F0004FBC
S2144013404FEA03334CEA133302D0524263EB430373
S21440135094EA050F00F0A780A4F10104D5F1200E11
S2144013600DDB02FA0EFC22FA05F2801841F100016C
S21440137003FA0EF2801843FA05F359410EE0A5F140
S21440138020050EF1200E012A03FA0EFC28BF4CF071
S214401390020C43FA05F3C01851EBE37101F0004527
S2144013A007D54FF0000EDCF1000C7EEB00006EEB34
S2144013B00101B1F5801F1BD3B1F5001F0CD34908BE
S2144013C05FEA30004FEA3C0C04F101044FEA445215
S2144013D012F5800F80F09A80BCF1004F08BF5FEA9C
S2144013E0500C50F1000041EB045141EA050130BD7C
S2144013F05FEA4C0C404141EB010111F4801FA4F11F
S2144014000104E9D191F0000F04BF01460020B1FA73
S21440141081F308BF2033A3F10B03B3F120020CDAAB
S2144014200C3208DD02F1140CC2F10C0201FA0CF089
S21440143021FA02F10CE002F11402D8BFC2F1200CEE
S21440144001FA02F120FA0CFCDCBF41EA0C019040A4
S214401450E41AA2BF01EB0451294330BD6FEA0404ED
S2144014601F3C1CDA0C340EDC04F11404C4F12002D8
S21440147020FA04F001FA02F340EA030021FA04F3EA
S21440148045EA030130BDC4F10C04C4F1200220FA41
S21440149002F001FA04F340EA0300294630BD21FA7F
S2144014A004F0294630BD94F0000F83F4801306BF45
S2144014B081F480110134013D4EE77FEA645C18BF39
S2144014C07FEA655C29D094EA050F08BF90EA020FD0
S2144014D005D054EA000C04BF1946104630BD91EAC8
S2144014E0030F1EBF0021002030BD5FEA545C05D1CB
S2144014F04000494128BF41F0004130BD14F580040A
S2144015003CBF01F5801130BD01F0004545F0FE417D
S21440151041F470014FF0000030BD7FEA645C1ABFB2
S214401520194610467FEA655C1CBF0B46024650EAE9
S214401530013406BF52EA033591EA030F41F4002115
S21440154030BD00BF90F0000F04BF0021704730B59B
S2144015504FF4806404F132044FF000054FF0000170
S21440156050E700BF90F0000F04BF0021704730B531
S2144015704FF4806404F1320410F0004548BF404206
S2144015804FF000013EE700BF42004FEAE2014FEA5B
S21440159031014FEA02701FBF12F07F4393F07F4F36
S2144015A081F06051704792F0000F14BF93F07F4F68
S2144015B0704730B54FF4607401F0004521F00041AB
S2144015C020E700BF50EA010208BF704730B54FF031
S2144015D000050AE050EA010208BF704730B511F036
S2144015E0004502D5404261EB41014FF4806404F16E
S2144015F032045FEA915C3FF4DCAE4FF003025FEAF0
S214401600DC0C18BF03325FEADC0C18BF033202EB77
S214401610DC02C2F1200300FA03FC20FA02F001FAD1
S21440162003FE40EA0E0021FA02F11444C1E600BF70
S21440163070B54FF0FF0C4CF4E06C1CEA11541DBF23
S2144016401CEA135594EA0C0F95EA0C0F00F0DEF8EE
S2144016502C4481EA030621EA4C5123EA4C5350EAD3
S214401660013518BF52EA033541F4801143F4801324
S21440167038D0A0FB02CE4FF00005E1FB02E506F0B5
S2144016800042E0FB03E54FF00006E1FB03569CF00A
S214401690000F18BF4EF0010EA4F1FF04B6F5007F10
S2144016A064F5407404D25FEA4E0E6D4146EB060682
S2144016B042EAC62141EA55514FEAC52040EA5E500B
S2144016C04FEACE2EB4F1FD0C88BFBCF5E06F1ED8B5
S2144016D0BEF1004F08BF5FEA500E50F1000041EBEC
S2144016E0045170BD06F0004646EA010140EA020099
S2144016F081EA0301B4EB5C04C2BFD4EB0C0541EABB
S214401700045170BD41F480114FF0000E013C00F3CF
S214401710AB8014F1360FDEBF002001F0004170BDF3
S214401720C4F10004203C35DA0C341BDC04F114040C
S214401730C4F1200500FA05F320FA04F001FA05F298
S21440174040EA020001F0004221F0004110EBD37065
S21440175021FA04F642EB06015EEA430E08BF20EA91
S214401760D37070BDC4F10C04C4F1200500FA04F334
S21440177020FA05F001FA04F240EA020001F00041C6
S21440178010EBD37041F100015EEA430E08BF20EA39
S214401790D37070BDC4F1200500FA05F24EEA020E81
S2144017A020FA04F301FA05F243EA020321FA04F0B0
S2144017B001F0004121FA04F220EA020000EBD37067
S2144017C05EEA430E08BF20EAD37070BD94F0000F67
S2144017D00FD101F00046400041EB010111F4801F9B
S2144017E008BF013CF7D041EA060195F0000F18BF4C
S2144017F0704703F00046520043EB030313F4801F88
S21440180008BF013DF7D043EA0603704794EA0C0F41
S2144018100CEA135518BF95EA0C0F0CD050EA410657
S21440182018BF52EA4306D1D181EA030101F00041D4
S2144018304FF0000070BD50EA410606BF10461946FC
S21440184052EA430619D094EA0C0F02D150EA013608
S21440185013D195EA0C0F05D152EA03361CBF104649
S21440186019460AD181EA030101F0004141F0FE41E8
S21440187041F470014FF0000070BD41F0FE4141F46C
S214401880780170BD70B54FF0FF0C4CF4E06C1CEA6C
S21440189011541DBF1CEA135594EA0C0F95EA0C0F21
S2144018A000F0A7F8A4EB050481EA030E52EA0335DC
S2144018B04FEA013100F088804FEA03334FF08055FD
S2144018C045EA131343EA12634FEA022245EA11152A
S2144018D045EA10654FEA00260EF000419D4208BFDB
S2144018E0964244F1FD0404F5407402D25B084FEA88
S2144018F03202B61A65EB03055B084FEA32024FF434
S21440190080104FF4002CB6EB020E75EB030E22BF90
S214401910B61A754640EA0C005B084FEA3202B6EB50
S214401920020E75EB030E22BFB61A754640EA5C00FF
S2144019305B084FEA3202B6EB020E75EB030E22BF8F
S214401940B61A754640EA9C005B084FEA3202B6EB90
S214401950020E75EB030E22BFB61A754640EADC004F
S21440196055EA060E18D04FEA051545EA16754FEAB1
S21440197006164FEAC30343EA52734FEAC2025FEACF
S2144019801C1CC0D111F4801F0BD141EA00014FF05E
S21440199000004FF0004CB6E711F4801F04BF01432F
S2144019A00020B4F1FD0C88BFBCF5E06F3FF6AFAE4B
S2144019B0B5EB030C04BFB6EB020C5FEA500C50F1DB
S2144019C0000041EB045170BD0EF0004E4EEA11315E
S2144019D014EB5C04C2BFD4EB0C0541EA045170BD65
S2144019E041F480114FF0000E013C90E645EA060EA9
S2144019F08DE60CEA135594EA0C0F08BF95EA0C0FD7
S214401A003FF43BAF94EA0C0F0AD150EA01347FF41E
S214401A1034AF95EA0C0F7FF425AF104619462CE7F5
S214401A2095EA0C0F06D152EA03353FF4FDAE104658
S214401A30194622E750EA410618BF52EA43067FF4A9
S214401A40C5AE50EA41047FF40DAF52EA43057FF439
S214401A50EBAE12E74FF0FF3C06E000BF4FF0010C44
S214401A6002E000BF4FF0010C4DF804CD4FEA410CA8
S214401A707FEA6C5C4FEA430C18BF7FEA6C5C1BD075
S214401A8001B050EA410C0CBF52EA430C91EA030FF6
S214401A9002BF90EA020F0020704710F1000F91EA53
S214401AA0030F58BF994208BF90422CBFD8176FEA21
S214401AB0E37040F0010070474FEA410C7FEA6C5CEF
S214401AC002D150EA013C07D14FEA430C7FEA6C5CF6
S214401AD0D6D152EA033CD3D05DF8040B704700BF22
S214401AE08446104662468C461946634600E000BF70
S214401AF001B5FFF7B7FF002848BF10F1000F01BD42
S214401B004DF808EDFFF7F4FF0CBF012000205DF80C
S214401B1008FB00BF4DF808EDFFF7EAFF34BF012091
S214401B2000205DF808FB00BF4DF808EDFFF7E0FF2A
S214401B3094BF012000205DF808FB00BF4DF808ED7B
S214401B40FFF7CEFF94BF012000205DF808FB00BFE2
S214401B504DF808EDFFF7C4FF34BF012000205DF8C4
S214401B6008FB00BF4FEA410C7FEA6C5C02D150EAAA
S214401B70013C0AD14FEA430C7FEA6C5C02D152EA40
S214401B80033C02D14FF0000070474FF00100704711
S214401B9007EE900AF5EEC07AF1EE10FA01D400F0A6
S214401BA009B808B580F0004000F004F8404261EB08
S214401BB0410108BDD0B5FFF7E7FC00220E4B0646B4
S214401BC00F46FFF735FD00F01BF80446FFF7BAFC5A
S214401BD000220A4BFFF72CFD02460B46304639469C
S214401BE0FFF772FB00F00CF82346002242EA0002A0
S214401BF010461946D0BD00BF0000F03D0000F04141
S214401C004A0011D212F5001211D20DD56FF4787336
S214401C10B3EB62520ED44FEAC12343F0004343EA8B
S214401C20505323FA02F070474FF00000704750EAD6
S214401C30013002D14FF0FF3070474FF00000704740
S214401C400A22002100F0BEBA70B50F4E0F4D761B2B
S214401C50B61018BF002405D0013455F8043B984709
S214401C60A642F9D10A4E0B4D761B05F001FAB61086
S214401C7018BF002406D0013455F8043B9847A642C6
S214401C80F9D170BD70BD00BF7C7040007C704000D4
S214401C90847040007C70400070B4860746D0541E66
S214401CA0002A41D0CAB2034602E014F1FF343BD3C7
S214401CB003F8012B9D07F8D1032C2ED9CDB245EA67
S214401CC005250F2C45EA054519D903F1100226468D
S214401CD0103E0F2E42F8105C42F80C5C42F8085C4E
S214401CE042F8045C02F11002F2D8A4F1100222F08D
S214401CF00F0204F00F041032032C13440DD91E4675
S214401D002246043A032A46F8045BFAD8221F22F0F9
S214401D1003020432134404F003042CB1C9B21C4439
S214401D2003F8011B9C42FBD170BC70471446034627
S214401D30C2E700BF0FB400B5074983B004AB0868DC
S214401D4053F8042B8168019300F052FA03B05DF813
S214401D5004EB04B0704700BF38000020F0B50546DD
S214401D6089B008460C4600F02BF9AB6B214F049423
S214401D700126441C04A9022203940590AC680697E9
S214401D8007960191029253B3636E13F0010FB4F9B4
S214401D900C309AB201D1900525D5910406D4626ED6
S214401DA043F4005322F40052A3816266284601AAF7
S214401DB0214602F0D3FF636E00280CBF0A254FF081
S214401DC0FF35DA0702D4A3899B0502D5284609B019
S214401DD0F0BDA06D03F08AF9284609B0F0BD28464C
S214401DE002F034FED0E7A06D03F07EF9B4F90C3073
S214401DF09AB2D2E7546D4000024B01461868FFF78E
S214401E00ADBF00BF3800002000290CBF02220022D0
S214401E104FF4806300F000B82DE9F043614C25682C
S214401E2083B004460F4690461E4615B1AB6B002B5A
S214401E3064D0B8F1020F06D0B8F1010F00F29F80CF
S214401E40002EC0F29C80636ED80734D521462846C3
S214401E5002F0A4FD216B41B104F14003994202D047
S214401E60284602F095FE00232363B4F90C30002286
S214401E70A26162601A063AD423F44A6323F003034D
S214401E80B8F1020FA3811DD001AB6A462146284611
S214401E9003F02EF9A3891843A081002E32D1009E6C
S214401EA0304603F09DF9074600286BD0A38943F0DF
S214401EB08003A38128E0A3899905C7D4A06D03F0C9
S214401EC013F9C3E70025616E002604F1430243F090
S214401ED002030120A660CE07A381226022616061D2
S214401EE001D498053ED5284603B0BDE8F083216965
S214401EF0284602F04DFEB4F90C30BDE7284602F005
S214401F00A5FD96E7002FCBD0AB6B002B33D0009BC4
S214401F10B4F90C2027609E421CBF42F40062A281A6
S214401F20B8F1010F04BF42F00102A28192B212F052
S214401F300803276166610ED0D1071AD5656E7642D2
S214401F40002315F00105A661A36009D000252846A8
S214401F5003B0BDE8F083A360656E15F00105F5D1CA
S214401F609305C0D4A06D03F0C1F8284603B0BDE881
S214401F70F083A660F0E7284602F068FDC7E74FF01A
S214401F80FF35B0E7DDF80090B14504D0484603F091
S214401F9027F9074620B9B4F90C304FF0FF3592E7E1
S214401FA04E4683E738000020000000000000000096
S214401FB000000000000000000000000000000000DC
S214401FC090F800F06DE9024520F007016FF0000C34
S214401FD010F0070491F820F040F049804FF00004DC
S214401FE06FF00700D1E9002391F840F000F10800B7
S214401FF082FA4CF2A4FA8CF283FA4CF3A2FA8CF3EF
S2144020004BBBD1E9022382FA4CF200F10800A4FA55
S2144020108CF283FA4CF3A2FA8CF3E3B9D1E90423A9
S21440202082FA4CF200F10800A4FA8CF283FA4CF3E0
S214402030A2FA8CF37BB9D1E9062301F1200182FA9A
S2144020404CF200F10800A4FA8CF283FA4CF3A2FAA0
S2144020508CF3002BC6D0002A04BF04301A4612BAAE
S214402060B2FA82F2FDE8024500EBD2007047D1E9B1
S214402070002304F00305C4F100004FEAC50514F040
S214402080040F91F840F00CFA05F562EA05021CBF11
S21440209063EA050362464FF00004A9E72DE9F84FCE
S2144020A0DDF828900F46804616461D468A4600E0D4
S2144020B0A2465446484614F801BB02F0FFFF584477
S2144020C0427812F00802F3D1BBF12D0F4FD0BBF18E
S2144020D02B0F04BF94F800B00AF102041DB1102D76
S2144020E056D0AC4604E0BBF1300F60D00A25AC4673
S2144020F0002A0CBF6FF000494FF000490021B9FBA1
S214402100FCFE08460CFB1E9A05E029D00CFB00306E
S214402110012114F801BBABF13003092B05D9ABF113
S2144021204103192B0BD8ABF137039D420FDDB1F1BC
S214402130FF3FEED08645E8D24FF0FF31E9E7ABF1FE
S2144021406103192B03D8ABF157039D42EFDC4B1CC0
S21440215013D002B1404246B1C1B93760BDE8F88FEE
S2144021609A45D3DA4FF0FF31D3E7BDE8F88F94F8BD
S21440217000B001220AF10204B0E72223C8F800307A
S214402180EEB1671E48463760BDE8F88F8146F8E7EF
S214402190BBF1300FA5D1237803F0DF03582BA0D135
S2144021A04FF0100C94F801B065460234A0E723784F
S2144021B003F0DF03582BF3D00825AC4698E7484693
S2144021C0BDE8F88F30B5084C084B25686C6B83B07B
S2144021D0002C08BF1C46009413460A460146284673
S2144021E0FFF75CFF03B030BD380000206C040020D1
S2144021F02DE9F04FBFB01D468A46914604460490EE
S21440220002F060FF036811931846FFF7D9FE0A955F
S21440221010901CB1A36B002B00F06282DAF8643099
S214402220BAF90C2013F0010F93B202D1990540F190
S21440223078829F040AD4DAF8641042F4005321F4FA
S2144022400051AAF80C30CAF864109BB21E0740F141
S2144022502682DAF81020002A00F0218203F01A02C3
S2144022600A2A00F041829FED8E7B00238DED0E7B87
S2144022700D93239322931293139307932EAB21939C
S2144022809846CDF818A099F800304C46EBB1252B6F
S21440229002D11AE0252B03D014F8013F002BF9D1C8
S2144022A0A4EB09058DB1229B239AC8F80090013310
S2144022B02A44072BC8F804502392229300F3058241
S2144022C008F10808079B2B4407932378002B00F05F
S2144022D0FE8300231A468DF86730194608939B46BE
S2144022E066784FF0FF3304F10109059309F10109BF
S2144022F0A6F12003582B00F2CD83DFE813F0E50269
S214402300CB03CB035403CB03CB03CB03CB03CB038F
S214402310CB0359030D03CB031E02ED02CB03080388
S2144023203F033F033F033F033F033F033F033F0358
S2144023303F03CB03CB03CB03CB03CB03CB03CB0374
S214402340CB03CB03CB034E036703CB036703CB031D
S214402350CB03CB03CB03B003CB03CB036F00CB0342
S214402360CB03CB03CB03CB035900CB03CB032303D5
S214402370CB03CB03CB03CB03CB03CB03CB03CB03A8
S214402380CB03CB0329037802670367036703BC02CA
S2144023907802CB03CB03C102CB03CE0271001203FB
S2144023A04B02CB035702CB035B00CB03CB0323028A
S2144023B04BF0100B1BF0200F40F061830A9A1BF085
S2144023C0100F134640F0CA851BF0400F00F0C6853C
S2144023D014880432002501230A9214E04BF0100BB7
S2144023E01BF0200340F040831BF0100240F0A58510
S2144023F01BF0400300F0A1850A9913460A460432B2
S2144024000C880A9200254FF0000A8DF867A00599BF
S2144024104A1C00F010822BF08002029254EA050219
S21440242040F00F82002940F07C84002B40F03A8533
S2144024301BF00103099300F076863EAF302307F881
S214402440413D059B099A9342B8BF13460393002328
S2144024500C93BAF1000F02D0039B01330393029B07
S21440246013F002030B9302D0039B02330393029BA9
S21440247013F0840540F02983089B039AA3EB020BD4
S214402480BBF1000F40F32183BBF1100F2399229A32
S2144024902CDD43461024A846DDF810A0069D0AE031
S2144024A00000000000000000ABF1100BBBF1100F65
S2144024B003F1080318DD0132B94822921031072A89
S2144024C0239183E81100EFDD21AA2946504603F008
S2144024D0E9FF002840F07483ABF1100BBBF1100FFE
S2144024E02399229A2EABE6DC454698460132AC4B01
S2144024F022920BEB0104072A239488E8080800F38D
S214402500D6849DF867A008F10808BAF1000F0ED0EF
S214402510229B013301340DF167010122072B2394DE
S214402520229388E8060000F3138408F108080B9B02
S2144025306BB1229B013302341AA90222072B239443
S214402540229388E8060000F30F8408F10808802DDF
S21440255000F03883059B099AA3EB020ABAF1000FF4
S2144025603BDDBAF1100F229B8E4D2BDD42462146B5
S214402570B0464FF0100B2E46049C069D06E0AAF18E
S214402580100ABAF1100F02F1080217DD01331031BC
S214402590072B2391229382E84008F0DD21AA2946A2
S2144025A0204603F07FFF002840F00A83AAF1100A75
S2144025B0BAF1100F2399229B2EAAE7DC35460C462B
S2144025C04646904601335444072B2394229388E88A
S2144025D0200400F3B28308F10808029BDB0500F1F3
S2144025E08F82229B0999C8F8007001330C44072B50
S2144025F02394C8F80410229300F37E8308F1080859
S214402600029B59073BD5089B039A9D1A002D36DD41
S214402610102D229B21DD1026049FDDF818A004E033
S214402620103D102D08F1080817DD01335C4A22934F
S2144026301034072B239488E84400F1DD21AA514644
S214402640384603F02FFF002840F04982103D102DF9
S214402650239C229B0DF1B808E7DC0133504A2293B5
S2144026602C44072B239488E8240008DD21AA0699E9
S214402670049803F017FF002840F05083239C079BE4
S214402680089A03998A42ACBF9B185B180793002CA4
S21440269040F03C83002322930DF1B808F3E5514601
S2144026A0049801F0ADF8002838D0DAF86430DD0739
S2144026B004D4BAF80C309C0540F1D9854FF0FF336E
S2144026C0079307983FB0BDE8F08F21AA0699049873
S2144026D003F0E8FE002840F021830DF1B808F1E54C
S2144026E0049802F0B3F999E5BAF90E20002AFFF6ED
S2144026F0BAADDAF86420D00705D4990503D4DAF8E1
S214402700580002F0F3FC2B464A465146049801F026
S21440271035F8079007983FB0BDE8F08FBAF80C3010
S2144027209CE5DAF8580002F0DFFCBAF90C2093B2C8
S2144027307FE508980A93404208904BF0040B99F8BE
S2144027400060D3E5002A40F0F387174B12931BF046
S214402750200F40F0CD840A9A1BF0100F134640F02D
S214402760E7831BF0400F00F0E383043314880A939A
S21440277000251BF0010F00F02B8354EA050300F000
S214402780278330238DF868308DF869604BF0020B54
S214402790022338E64BF0200B99F80060A6E500BF10
S2144027A02C6E40003C6E40000C6E40000A9A176843
S2144027B000248DF86740151D002F00F05C86059AB2
S2144027C0531C00F0DA852146384602F0D9FF00282F
S2144027D000F0D686C31B099305940A95CDF808B039
S2144027E023EAE37303930C949DF867A031E6002A2E
S2144027F040F0A9871BF0200F40F088841BF0100F94
S21440280040F0A3831BF0400F00F09F830A99B1F974
S21440281000400431E51722462B460A91002A73F100
S2144028200003C0F2908405999DF867A04A1C4FF0BB
S21440283001037FF4F0AD54EA050200F07482CDF84F
S21440284008B0012B00F01083022B40F09D821298B6
S2144028502EAF230904F00F0143EA05732A091C46EC
S2144028601546435C07F8013D54EA0503F1D12EAB0B
S214402870DB1B0993E5E54BF0400B99F8006035E526
S21440288099F800606C2E03BF99F801604BF0200B5E
S21440289009F101094BF0100B28E5002A40F0638748
S2144028A01BF0200F40F04D851BF0100F40F00581C7
S2144028B01BF0400F00F001810A9A136804320A9216
S2144028C0BDF81C201A80DEE499F8006000297FF4E9
S2144028D00DAD0122202109E599F800602A2E09F164
S2144028E0010000F00387A6F13003092B814698BF0C
S2144028F0002000F2518619F8016B00EB800003EBD4
S2144029004000A6F13003092BF5D90590F0E44BF0D2
S214402910800B99F80060E9E499F8006001222B21C9
S214402920E4E40A9AB24B14681293782630230432B1
S2144029308DF868304BF0020B0A9200258DF86960DE
S214402940022360E5002A40F00A87AA4B1293FEE66F
S2144029500A99CDF808B00A688DF8902000230A46F8
S2144029609A468DF86730043201230393CDF814A0BD
S214402970CDF830A00A92099324AF70E5A6F1300353
S214402980002019F8016B00EB800003EB4000A6F135
S2144029903003092BF5D90890AAE4002A40F0DB86DC
S2144029A04BF0100B26E74BF0010B99F800609DE4C6
S2144029B00A9C2368089318460028234603F104031C
S2144029C0FFF6B7AE0A9399F800608FE4002A40F00D
S2144029D0B3860A9D1BF0080F05F1070500F03C84FE
S2144029E025F0070393ED007B8DED0E7B03F1080287
S2144029F00A92DDE90E1222F0004314911593DDE9A8
S214402A0014454FF0FF32204629467B4BFFF7AAF885
S214402A10002840F0A2834FF0FF32774B20462946ED
S214402A20FFF782F8002840F0988300220023DDE973
S214402A300E01FFF76FF8002840F037849DF867A036
S214402A406E4F6F4B032200212BF0800003920591BE
S214402A500290472ED8BF1F4609920C91F9E44BF0DE
S214402A60080B99F8006041E40A9D073525F00703F6
S214402A7003F10802D3E900450A920023C3E40A9D05
S214402A80073525F0070303F10802D3E900450A920B
S214402A900123B8E4002A40F05A86C6B1002301223A
S214402AA09A4603928DF89060CDF808B08DF867305E
S214402AB005930C93099224AFD1E40A9A1368043222
S214402AC00A92079A1A60FFF7DEBB239C1DE5239BFC
S214402AD0DDF818A0002B40F0698500232293DAF831
S214402AE0643013F0010FBAF80C3002D19A0540F169
S214402AF048825B063FF5E2AD07983FB0BDE8F08FF1
S214402B00652E40F3B18000220023DDE90E01FEF77A
S214402B10F7FF002800F05F81229B3A4AC8F8002061
S214402B20013301340122072B23942293C8F8042052
S214402B3000F3C48308F108081B9B0D9A239C93421C
S214402B4003DB029BDF077FF55BAD229B1099119A52
S214402B50C8F8002001330C44072BC8F8041023940F
S214402B60229300F3FD8308F108080D9B5E1E002E9D
S214402B707FF746AD102E229B234D40F3CF81102782
S214402B80DDF810A0DDF818B005E008F10808103EA2
S214402B90102E40F3C38101331034072B2394229325
S214402BA088E8A000F1DD21AA5946504603F07AFC99
S214402BB0002840F0D283239C229B0DF1B808E6E71C
S214402BC0AA468CE7089B039AA3EB020ABAF1000FC9
S214402BD07FF7C0ACBAF1100F229B0B4D38DD424652
S214402BE02146B0464FF0100B2E46049C069D14E03E
S214402BF00C6E4000F86D4000FFFFEF7FEC6D40002C
S214402C00E86D4000286E40003C6E4000AAF1100A75
S214402C10BAF1100F02F1080216DD01331031072B0E
S214402C202391229382E84008F0DD21AA29462046D7
S214402C3003F038FC0028C3D1AAF1100ABAF1100FED
S214402C402399229B2EAAE8DC35460C4646469046FB
S214402C5001335444072B2394229388E8200400F33E
S214402C60658208F1080875E40D9B229E012B40F30F
S214402C70FE81013601340123072E23942296C8F89C
S214402C800070C8F8043000F30F8208F10808109A64
S214402C90119BC8F8003001361444072E2394229620
S214402CA0C8F8042000F30D8208F10808002300222B
S214402CB0DDE90E01FEF724FF0D9B002840F006815B
S214402CC0013B013601371C44072E22962394C8F850
S214402CD00070C8F8043000F3DA8108F10808139A47
S214402CE0C8F80420013614441DAB072E23942296C0
S214402CF0C8F800307FF782AC21AA0699049803F002
S214402D00D1FB58B9239C0DF1B80879E421AA06995D
S214402D10049803F0C7FB00283FF4BCACDDF818A0CD
S214402D20DDE6DDF808B0012B00F02181022B27D12B
S214402D30CDF808B00024002589E521AA0699049814
S214402D4003F0B0FB0028E9D1239C0DF1B80844E419
S214402D5021AA0699049803F0A5FB0028DED1239CFF
S214402D600DF1B808FFF7E3BB21AA0699049803F0D3
S214402D7099FB0028D2D1239C0DF1B808FFF7E7BB9A
S214402D80CDF808B0002400252EA900E03946E20818
S214402D9042EA4572E80804F0070305461446303315
S214402DA054EA050201F8013C01F1FF37EED1029AE0
S214402DB0D2077FF55CAD302B3FF459AD3023023956
S214402DC007F8013C2EAB5B1A09930F46FFF739BB59
S214402DD00223FFF718BB1B99002940F37A820C9B0D
S214402DE00D9A9342A8BF1346002B1E460DDD229B2C
S214402DF0C8F8007001333444072B2394C8F80460A5
S214402E00229300F32C8308F108080C9B002EA8BFE1
S214402E109B1B002B1E4640F3D080102E229BBA4DA3
S214402E2040F3B78022464FF0100ADDF810B0069CFB
S214402E3005E008F10808103E102E40F3A980013343
S214402E401032072B2392229388E82004F1DD21AA32
S214402E502146584603F026FB002840F02A83239A52
S214402E60229B0DF1B808E6E7002D08BF0A2C7CD35C
S214402E702EAF204629460A22002303F0C7FD3032F3
S214402E8007F8012D2046294600230A2203F0BEFDFE
S214402E9004460D4654EA0503EBD12EABDB1B0993E3
S214402EA0FFF7CFBA059B09932EAFFFF7CABA21AA00
S214402EB00699049803F0F6FA00287FF42FAF9DF8A1
S214402EC067A0239C0DF1B808FFF71FBB5F1E002FBD
S214402ED07FF705AF102F8C4D40F300814FF0100A5E
S214402EE0DDF810B005E008F10808103F102F40F359
S214402EF0F58001361034072E2394229688E8200465
S214402F00F1DD21AA0699584603F0CCFA00287FF452
S214402F1005AF239C229E0DF1B808E6E70133344402
S214402F20072B2394229388E860007FF767ABE3E69D
S214402F301C6804330A9300251BE40A990A460432A7
S214402F400C680A920025FFF75EBA0A9A1468134680
S214402F500433E5170A9322462B465FE404321C6886
S214402F600A9201230025FFF74EBADDF808B0CDF8E7
S214402F7008B03EAF3034012307F8414D0993FFF7C0
S214402F8060BADAF8580002F0B1F8BAF80C30B0E59A
S214402F90144601333444072B2394229388E8600078
S214402FA040F3738121AA0699049803F07BFA00281F
S214402FB07FF4B4AE239C0DF1B8081B9B0D9A934248
S214402FC080F25E81229A10981199C8F8001001325A
S214402FD00444072A2394C8F80400229200F3588138
S214402FE008F108080D9A0C99D31A561A9E42A8BFA3
S214402FF01E46002E0EDD229AC8F8046001320F44A9
S2144030003444072AC8F800702394229200F3428280
S21440301008F10808002EACBF9E1B1E46002E7FF708
S214403020EFAA102E229B384D7FF778AF1027DDF899
S21440303010A0DDF818B005E008F10808103E102E84
S2144030407FF76CAF01331034072B2394229388E824
S214403050A000F1DD21AA5946504603F023FA002885
S21440306040F07B81239C229B0DF1B808E6E7029B4B
S214403070D8073FF5FEAD013601340123072E2394D1
S2144030802296C8F80070C8F804307FF726AE21AA0A
S2144030900699049803F006FA00287FF43FAE239C76
S2144030A0229E0DF1B8081AE621AA0699049803F064
S2144030B0F9F900287FF432AE239C229E0DF1B80821
S2144030C0E5E521AA0699049803F0ECF900287FF478
S2144030D025AE239C229E0DF1B808E7E501363C4418
S2144030E0072E2394229688E8A0007FF7F6ADCEE719
S2144030F00A9D073525F0070303F108020A92D3E933
S2144031000045FFF736BB00BF3C6E40000A9D0735C2
S21440311025F00705D5E9002305F108010A91144674
S2144031201D46FFF77BBB2EAFFFF78BB921AA06994A
S214403130049803F0B7F900287FF4F0AD239C0DF116
S214403140B808FFF707BA4FF02D0A644265EB45050D
S2144031508DF867A00123FFF75AB9DDE90E01024654
S2144031600B46FEF7FFFC002840F08982059B0133A2
S21440317026F0200A00F09F80BAF1470F04D1059B45
S214403180002B08BF012305930F9B4BF48072002B46
S2144031900292C0F2A9819DED0E7B8DED167B002339
S2144031A00B93662E00F08881462E00F0DA81BAF145
S2144031B0450F0CBF059B059D049808BF5D1C1FAAC4
S2144031C01CAB019200932A461BAB02219DED160BC9
S2144031D000F01EFC672E074640F0AA811BF0010F48
S2144031E000F043827C1900220023DDE91601FEF739
S2144031F087FC002840F031811F9BA34206D2302135
S2144032005A1C1F9219701F9B9C42F9D8DB1BBAF1BF
S214403210470F0D9300F0C480652E40F386821B9BBB
S2144032200C93662E00F076810D9B0C9A19469142BF
S21440323000F363811BF0010F40F00E8222EAE27336
S2144032400393099267260B9B002B40F0A1800593C1
S2144032509DF867A0FFF7FDB825F0070595ED007BC4
S21440326005F108038DED0E7B0A93FFF7C2BBDAF833
S214403270580001F03BFF4FF0FF330793FFF721BAAA
S214403280029AD5077FF5AEAE9CE608F1080894E6AC
S21440329021AA0699049803F005F900287FF43EAD6C
S2144032A01B9B239C0DF1B8089CE64FF02D0A8DF829
S2144032B067A0FFF7C5BB0623059365E721AA0699D5
S2144032C0049803F0EFF800287FF428AD0DF1B80815
S2144032D032E4229BB24AC8F800200133013401226E
S2144032E0072B23942293C8F8042000F32D8108F17D
S2144032F0080829B90D9B1BB9029BDE077FF580A9FC
S214403300229B1098119AC8F80020013302462244A6
S214403310072B2392C8F80400229300F3778108F124
S21440332008080029C0F24C810D99C8F80070013396
S2144033308C18072B23942293C8F804107FF75EA9B5
S214403340DAE40A9A07991368CD17084604322946E4
S2144033500A92C3E90001FEF796BFDA46FFF7BFBB05
S21440336021AA0699049803F09DF800287FF4D6AC6D
S214403370239C0DF1B808FFF7F8BB38460594FEF7D6
S2144033801FFE0A950990CDF808B00346FFF728BA05
S2144033904FF02D0A00238DF867A00593FFF75CB821
S2144033A01B9B0C931A46033304DB059B194691423C
S2144033B0BFF63AAF023E0C9B8DF87460013B002B83
S2144033C01B93BDBF0C9BC3F101032D222B22092B5F
S2144033D08DF8752040F34B810DF183042046714DE6
S2144033E000E0104685FB0312D917C1EBA20101EBA2
S2144033F08102A3EB42023032092900F8012C0B4629
S21440340000F1FF32EDDC30330238D9B2844202F8A4
S214403410011C40F295810DF17600134601E013F849
S214403420011B00F8011BA342F9D101339B1A0DF191
S214403430760213441DAA9B1A0D9A1393012A13442D
S214403440099340F34981099B109A1344099323EA50
S214403450E373039300230C93F5E62346D6E621AAAE
S2144034600699049803F01EF800287FF457AC239C76
S2144034700DF1B808C9E4059B0C97062B28BF062318
S2144034800597BA4603930A95CDF808B00993464F78
S214403490FEF7DFBF21AA0699049803F003F8002838
S2144034A07FF43CAC1B9B0D9A239CD31A0DF1B808B5
S2144034B0B0E5A246FFF713BB059C04981FAA1CABB9
S2144034C00192009322461BAB03219DED160B00F0A4
S2144034D09FFA2346074604191D463B78302B00F0DA
S2144034E0DB801B9D2C447EE6DDE90E1202F1004394
S2144034F017932D2316910B9353E6109A0D9B134466
S2144035000C9A0993002A40F3DF8023EAE37303937F
S214403510672698E6002B40F3F680059A002A40F08E
S214403520C9801BF0010F40F0C580039309938AE6DB
S214403530472E7FF457AE1BF0010F00F0EE80462E6C
S21440354007EB0504C9D04EE621AA0699049802F076
S214403550A9FF00287FF4E2AB1B99239C0DF1B80825
S214403560C7E6059D04981FAA1CAB019200932A4605
S2144035701BAB03219DED160B00F04AFA0746DEE72B
S214403580059B0393099305900A95CDF808B00C90D7
S2144035909DF867A0FEF75DBF00230593FEF7A8BE23
S2144035A0286E400067666666206E4000049821AA32
S2144035B0514602F077FF00283FF48FAAFFF78FBAF4
S2144035C04E4210316A4D2FDA1024DDF810A0DDF897
S2144035D018B004E008F10808103E102E24DD013330
S2144035E01032072B23922293C8F80050C8F80440A4
S2144035F0F0DD21AA5946504602F054FF00287FF4D9
S214403600ACAE239A229B0DF1B808E5E721AA0699AD
S214403610049802F047FF00287FF480AB1B99239A5A
S214403620229B0DF1B8087CE601333244072B88E82C
S21440363060002392229308F108087FF775AE21AA0E
S2144036400699049802F02EFF00287FF467AB239A71
S214403650229B0DF1B80867E60C9B109A1344099319
S21440366023EAE37303936726EDE51F9BCEE53033ED
S21440367030228DF877308DF876201EABDAE60F9B39
S2144036803C4F002BB6BF4FF02D0A9DF867A08DF833
S21440369067A0394BFFF7D6B900220023DDE91601B3
S2144036A0FEF72EFA00287FF41CAFC5F101051B95E6
S2144036B02C4498E50C9B109A1344059A1A4422EA27
S2144036C0E27309920393BEE50C9B099AC3F101038A
S2144036D01A441346099218E71BF001030C937FF433
S2144036E0B2AE099B23EAE3730393ACE50A9C99F8D0
S2144036F00160236843EAE373059323460433814617
S2144037000A93FEF7F3BD059B13B91BF0010F02D0D9
S214403710109B0133D1E7012307E71F9BBAF1470F00
S214403720A3EB07030D933FF43BAE1B9B0C9342E683
S2144037308DF86710FFF709B88DF86710FFF749B99D
S2144037400DF1760376E68DF86710FFF753B88DF8DF
S2144037506710FFF7A2B98DF86710FFF721B98DF80B
S2144037606710FFF7F2B88DF86710FFF799B800BFFB
S2144037703C6E4000F46D4000F06D40002DE9F04195
S2144037800C46ADF58D6D8989666EE589199621F0F2
S21440379002010646E069ADF80C1017464FF480610A
S2144037A0626AADF80E5098461AAD0023079016A8E8
S2144037B009920693009504950291059101F090FCBC
S2144037C043463A4669463046FEF712FD051E07DB7D
S2144037D03046694601F0E2F8002818BF4FF0FF3542
S2144037E0BDF80C305B0603D5A38943F04003A381A4
S2144037F0169801F077FC28460DF58D6DBDE8F081F2
S21440380038B5304B1B6805460C4613B19A6B002AF8
S21440381038D0B4F90C2093B218070CD52069A8B15B
S21440382013F001021ED0636900225B42A361A260CE
S214403830F0B1002038BDD9063CD5580726D42069BB
S21440384042F00803A3819BB20028E9D103F420721A
S214403850B2F5007FE4D02846214601F077FCA389E4
S2144038602069DDE7990758BF6269A2600028E0D169
S214403870B4F90C301A06DDD543F04003A3814FF06F
S214403880FF3038BD184601F0E1F8C2E7216B51B170
S21440389004F14003994204D0284601F079F9B4F97E
S2144038A00C200023236300232069636022F0240257
S2144038B02060C5E742F0400209232B604FF0FF30FE
S2144038C0A28138BD38000020024B13B1024800F0F8
S2144038D005B8704700000000BD4A4000002301467E
S2144038E01A46184602F00CBE02690B69934200F372
S2144038F08D802DE9F04F03F1FF3801F1140700F1F8
S214403900140B57F828205BF828304FEA880483B019
S2144039100132B3FBF2F90BEB0403009407EB040A05
S2144039200193B9F1000F39D000252E46BC46DE463D
S2144039305CF8044BDEF80030A2B209FB0255220CBC
S2144039402C0C09FB0242ADB2751B96B2C6EB134671
S21440395015FA83F306EB23469BB243EA0643E24559
S2144039604FEA12454EF8043B4FEA2646E0D2009B0B
S2144039705BF8033093B9019C231F9B450CD254F847
S214403980043C4BB9A4F1080302E01A68043B1AB998
S2144039909B4508F1FF38F8D3C0F81080044602F083
S2144039A047FA00282EDB09F101095D46002357F847
S2144039B0041B28688AB29A1A0B0C12FA80F2C3EBE0
S2144039C0104303EB224392B242EA0342BA4545F81B
S2144039D0042B4FEA2343EAD25BF828200BEB8803FC
S2144039E082B91A1F93450BD253F8042C42B9083BB0
S2144039F002E01A68043B1AB99B4508F1FF38F8D331
S214403A00C4F81080484603B0BDE8F08F00207047E9
S214403A102DE9F04F57EC106B97B0056C02910446B9
S214403A2093460393CDE900674DB1426C6A6001232B
S214403A309340AB60294602F023F800232364DDE977
S214403A400023002B994638DB209A00231360A04BB6
S214403A5033EA090317D0DDE9006700220023304629
S214403A603946FEF74DF8804600282FD0039A0123AA
S214403A701360219B002B00F0C480964818600138E4
S214403A8017B0BDE8F08F039A42F20F731360009BA5
S214403A906BB9C9F3130353B9219B8F48002BEFD062
S214403AA000F10803219A136017B0BDE8F08F219B00
S214403AB08A48002BE4D0C31CF4E7019A22F0004960
S214403AC0209ACDF8049001231360C0E714AA15A9E4
S214403AD047EC106B204602F04BFA5FEA19558246D7
S214403AE073D0C7F3130343F07F51CDF84080DDF821
S214403AF050803046A5F2FF3541F440110022784B05
S214403B00FDF7E2FB6CA3D3E90023FDF791FD6CA320
S214403B10D3E90023FDF7DAFB064628460F46FDF7B5
S214403B2021FD69A3D3E90023FDF782FD02460B463B
S214403B3030463946FDF7CAFB06460F4602F03EFFC2
S214403B4000220490002330463946FDF7E3FF002864
S214403B5040F06F81049E162E00F25981614B03EBB4
S214403B60C603D3E90001DDE90023FDF7F1FF002895
S214403B7000F0C481731E049300230C93A8EB050544
S214403B806B1E059300F14F8100230693049B002B88
S214403B90C0F24081059A0B931146194400230591C3
S214403BA00A93029B092B2ED8052B40F35186043BE3
S214403BB002930027029B023B032B00F23386DFE88A
S214403BC013F0D603CB02E3036404DDF85080159D62
S214403BD0454405F23243202B40F38A81C3F140032B
S214403BE009FA03F9009B05F2124023FA00F040EA76
S214403BF00900FDF7A7FC0123013DA1F1F8711093E0
S214403C007CE739483CE70021616420468B4601F05A
S214403C1011FF4FF0FF3308930D9301230790206464
S214403C20CDF808B00993159B002BC0F2D080049ABB
S214403C300E2A00F3CC802B4BBBF1000F03EBC203E4
S214403C40D3E90089C0F2BE83DDE9006742464B46B1
S214403C5030463946FDF716FE02F0B0FE8346FDF7C5
S214403C6081FC42464B46FDF7E3FC0B46024639468E
S214403C703046FDF729FB079D0BF130032B70089B60
S214403C80012B06460F4605F1010561D00022174B71
S214403C90FDF7CEFC0022002306460F46FDF730FF18
S214403CA0002840F08180CDF800A00294DDF81CA0EA
S214403CB0089C28E0AFF3008061436F63A787D23F3C
S214403CC0B3C8608B288AC63FFB799F501344D33FC6
S214403CD00000F07F296E40004C6E4000586E400059
S214403CE00000F83F986E4000286E400000002440D8
S214403CF0FDF79EFC0022002306460F46FDF700FF18
S214403D00002840F0C58342464B4630463946FDF7CC
S214403D10B9FD02F053FE8346FDF724FC42464B466F
S214403D20FDF786FC02460B4630463946FDF7CCFA90
S214403D300BF1300E05F801EBA5EB0A0EA64506463C
S214403D400F464FF000026E4BD2D1DDF800A0029C29
S214403D5032463B4630463946FDF7B8FA06460F46E9
S214403D6002460B4640464946FDF7D4FE48B9324621
S214403D703B4640464946FDF7C3FEA8B11BF0010F3F
S214403D8012D015F8018C079A6B1E04E09A4200F098
S214403D902D8413F8018DB8F1390F03F10105F5D0E4
S214403DA008F1010883F800805146204601F068FE7D
S214403DB00022049B2A70039A01331360219B002B38
S214403DC000F0A38307981D6017B0BDE8F08F099AEE
S214403DD0002A40D0029A012A40F31C83089B0A9A84
S214403DE05F1EBA42C0F29483D71B089B002BC0F2DA
S214403DF07E84069D089B069A1A440692059A0121DF
S214403E001A442046059201F0D5FE064626E00123D8
S214403E100C93B3E6069A049BD21A5B420A9300239D
S214403E2006920B93BDE6C5F1010306930023059366
S214403E30ACE6DDF810904846FDF794FB02460B468C
S214403E4030463946FDF75CFE00287FF483AE09F124
S214403E50FF3304937EE60A9F069D099E002D0CDDE7
S214403E60059900290B4608DDA942069AA8BF2B46AD
S214403E70D21AED1ACB1A069205930A9BD3B1099B28
S214403E80002B00F0C082002F10DD31463A46204617
S214403E9001F02CFF524601460646204601F094FEAD
S214403EA051468046204601F0EBFDC2460A9BDA1B8F
S214403EB040F0AA820121204601F07CFE0B9B002B9D
S214403EC081461FDD01461A46204601F00FFF029B41
S214403ED0012B814640F35B824FF00008D9F8103042
S214403EE009EB8303186901F015FEC0F1200013E0CA
S214403EF0C3F12009009B03FA09F07AE60C903DE6F0
S214403F0000002440029B012B40F38D824FF00008B6
S214403F100B9B0120002BE1D1059A104410F01F00A6
S214403F2000F0A180C0F12003042B40F38C84069B54
S214403F30C0F11C000344069313460344054405930E
S214403F40069B002B05DD51461A46204601F01EFF13
S214403F508246059B002B05DD49461A46204601F061
S214403F6015FF81460C9B002B40F08680089B002B5B
S214403F7040F36982099B002B00F09880002D05DDF8
S214403F8031462A46204601F001FF0646B8F1000FAA
S214403F9040F03683B046089B079A013BD3180893F7
S214403FA0009B03F001030993174649465046FFF726
S214403FB09BFC31460546504601F03AFF424649468C
S214403FC08346204601F050FF05F130020092C26859
S214403FD00146002A40F032820690504601F028FF03
S214403FE0069B05901946204601F04AFD059A32B9CF
S214403FF0029B23B9099B002B00F0DE83029ABBF19B
S214404000000FC0F2A28205D1029B1BB9099B002B70
S21440401000F09B82002A00F307839DF800303B7037
S214404020089B07F1010B9F425D4600F0088351460E
S21440403000230A22204601F02DFD464582463146A1
S2144040404FF000034FF00A02204600F0F18101F0E5
S21440405021FD4146064600230A22204601F01AFD6D
S2144040605F468046A1E71C20069B03440693059BBB
S21440407003440544059363E74946504601F0D8FE9D
S2144040800028BFF673AF049F514600230A222046FD
S214404090013F049701F0FEFC099B8246002B40F04E
S2144040A0A7830D9B002B40F3B0830893DDF81CB02C
S2144040B0DDF820805D4602E001F0ECFC8246494691
S2144040C05046FFF711FC00F1300705F8017BA5EBE1
S2144040D00B0343454FF00A024FF00003514620467B
S2144040E0EADB079B089A0097012AACBF9B1801336E
S2144040F01D464FF0000B51460122204601F046FE79
S2144041004946824601F094FE002840F33A8215F86C
S214404110012C07996B1E04E08B4200F0AF8113F828
S214404120012D392A03F10105F6D001321A704946AD
S214404130204601F0A5FC002E3FF436AEBBF1000F42
S21440414005D0B34503D05946204601F099FC314688
S214404150204601F095FC27E600230993049B5B4428
S2144041600D930133012B1E461D460893B8BF01260A
S2144041700021172E61640AD9012204235B0003F153
S21440418014008642114602F10102F7D261642046CD
S21440419001F050FC0E2D079020643FF644AD002FF2
S2144041A03FF441AD049900299DED007B40F3F68134
S2144041B0B94B01F00F0203EBC2030D11D3E90067C0
S2144041C0EB0640F1AD81B54B51EC170BD3E9082314
S2144041D0FDF758FBCDE90E0105F00F054FF003093A
S2144041E08DB1DFF8B882E80709D530463946D8E9B8
S2144041F00023FDF71DFA09F1010906460F466D102A
S21440420008F10808EFD13B463246DDE90E01FDF7DE
S21440421039FB074688460C9B43B10022A04B3846E4
S2144042204146FDF777FC002840F073824846FDF78C
S21440423099F93A464346FDF7FBF99A4B0022FDF7BB
S21440424045F8089B0546A1F15076002B00F04081CA
S214404250049BDDF820901193099B002B00F0F6811B
S2144042608D4B914903EBC90353E902230020FDF728
S21440427009FB2A463346FDF727F8CDE90E014146AD
S214404280384602F09BFB0546FDF76CF902460B46A6
S21440429038464146FDF718F830355FFA85F8079DF1
S2144042A006460F4685F8008002460B46DDE90E01BD
S2144042B00135FDF74DFC002856D132463B460020DE
S2144042C07749FDF701F802460B46DDE90E01FDF79A
S2144042D03FFC002840F06282B9F1010F3FF4A3ACE6
S2144042E0079BCDF848A0CDF84CB09944A046DDE9F0
S2144042F00EAB0DE000206A49FCF7E6FF52465B46EF
S214404300FDF708FC002840F044824D4500F04A8204
S214404310504659460022654BFDF78AF90022634B0A
S21440432082468B4630463946FDF782F90F460646AA
S21440433002F044FB0446FDF715F902460B463046AC
S2144043403946FCF7C1FF3034E4B252465B4605F8C6
S214404350014B06460F46FDF7DDFB32463B4600283E
S214404360C8D0DDF848A04446119B04931CE50023C2
S2144043700993BBF1000F40F3DA805E465D46CDF808
S21440438034B0CDF820B0F3E601230993F1E7009B63
S214404390002B7FF4A1ADDDE90012C2F31303002B1E
S2144043A07FF4B4AD22F000473F0D3F05002F00F0EC
S2144043B00082069B01330693059B013305934FF01D
S2144043C00108A5E5089B002B3FF73EAC40F09980DE
S2144043D049460022364B4046FDF72AF9DDE90023E0
S2144043E0FDF7ACFBDDF820904E4600283ED06FEA45
S2144043F00B03079D04934946204601F041FB002EDF
S2144044003FF4D2ACA3E60A9A5146204601F06EFC31
S21440441082464FE5109A002A00F06F8103F233433C
S2144044200A9F069DE7E4009B002B7FF46FADB2E742
S21440443001F030FB5F4606468046B6E5204601F072
S2144044401FFB0122DBE5029B022B7FF793AD089B07
S214404450002BCCD149460522204601F01BFB0146E5
S2144044608146504601F0E4FC0028C0DD049A0799D6
S2144044703123013204920B704D1CBCE7049A013282
S2144044800492079A3123137051E60123099365E697
S214404490DDF800A0029C87E4986E4000706E4000F5
S2144044A00000F03F00001C400000E03F00002440B9
S2144044B0000014404846FDF755F83A464346FDF797
S2144044C0B7F80022C44BFCF701FF0546A1F1507631
S2144044D041460022C14B3846FCF7F6FE2A46334694
S2144044E080468946FDF734FB002840F0AB802A46DC
S2144044F006F1004340464946FDF70CFB00283FF4D2
S21440450092AB4FF000094E4671E70798FFF7B8BAEE
S2144045100A9B0B9A0A97FB1A1A440B92002764E4EC
S2144045209DED007B4FF002098DED0E7B58E6002195
S2144045306164204601F07EFA4FF0010B079020643C
S214404540CDF820B0CDF834B029E6002A12DD514629
S2144045500122204601F01AFC4946824601F068FCDA
S214404560002840F33181009B392B00F0F78005F19D
S214404570310300939DF800303B70B3467D1C4646A1
S214404580D5E504D1009BDB0701D5C0E5154615F8F7
S214404590013C302B05F1FF32F8D0C8E500F0B4807E
S2144045A0049B5D428E4B05F00F0203EBC203D3E93A
S2144045B00023DDE90001FDF73BF82D11074688464C
S2144045C000F02881874E4FF00209E90709D53846A2
S2144045D04146D6E90023FDF72BF809F101090746C5
S2144045E088466D1006F10806EFD114E6079930228A
S2144045F00A70049A15F8018C01320492FFF7D0BB7A
S2144046007168204601F016FA336902339A0005466F
S21440461006F10C010C3001F003F929460122204630
S21440462001F0B4FB8046B6E4009B392B00F0968040
S214404630009B0133B3463B707D1C464677E5B34648
S214404640464658E54FF000094E460FE7644901EBF1
S214404650C9012A46334651E90201FCF7E9FFCDE994
S2144046600E013846414602F0A9F90546FCF77AFFA6
S21440467002460B4638464146FCF726FE079A30353A
S214404680B9F1010F157006460F4602F101051CD020
S214404690079B99440022544B30463946FCF7C8FFE6
S2144046A00F46064602F08AF98046FCF75BFF08F1A3
S2144046B0300802460B4630463946FCF705FE05F8FC
S2144046C0018B4D4506460F46E4D10022474BDDE9B7
S2144046D00E01FCF7FBFD32463B46FDF71BFA002871
S2144046E042D0119B049315F8018CFFF74CBB069BF8
S2144046F0089A9D1A0023FFF77EBB149B0A9F069DCF
S214404700C3F13603FFF777BBDDE900784FF00209C7
S21440471081E5089B002B3FF4CDAE0D9B002B7FF729
S21440472082AA0022304B38464146FCF781FF0746B6
S214404730884609F10100FCF715FF3A464346FCF768
S21440474077FF0022244BFCF7C1FD049ADDF8349035
S214404750013A0546A1F1507611927DE53922B346DD
S2144047603A7046467D1CD4E4DDE90E2300201F49FE
S214404770FCF7AAFD32463B46FDF7EAF910B9FFF7CB
S21440478052BA154615F8013C302B05F1FF32F8D0E9
S214404790EAE54346DDF848A0A0461C46119B049334
S2144047A0FFF7F1BADDF848A0DDF84CB04446FFF715
S2144047B03ABAB846FFF7ACBB009B392BCED0BBF11C
S2144047C0000F3FF7D4AED5E67FF4D4AE009BDA07B1
S2144047D07FF5D0AEC7E600BF00001C400000144086
S2144047E0986E4000706E4000000024400000E03F9D
S2144047F0314600230A22204601F04CF90D9B002B3F
S21440480006460ADD0893FFF7B9BB029B022B22DC63
S2144048100D9B4AE44FF00209FDE4029B022B1ADC92
S2144048200D9BEFE7002565642946204601F002F916
S2144048304FF0FF3308930D9301230790AB46206457
S2144048400993FFF7F0B93FF47BABC0F13C000BE4B3
S2144048500127FFF7AFB90D9B0893F8E5B1F90C3087
S2144048609AB22DE9F0410D46110780463AD46A685F
S21440487043F40063002AAB816FDDAC6A002C49D05C
S21440488000229BB2D8F80060C8F8002013F480528B
S21440489067D02A6D5F0705D569682B6B521A0BB136
S2144048A0EB6BD21A0023E9694046A047441C3CD033
S2144048B0B5F90C302A692A6023F400630022AB81E4
S2144048C0DB046A6047D4296BC8F8006011B305F171
S2144048D04003994202D0404600F05AF9002028632F
S2144048E0BDE8F0812E69AEB12C682E6091070CBFF2
S2144048F06B690023A41BAB600AE0234632466F6A0E
S214404900E9694046B8470028A4EB0004064404DDA5
S214404910002CF2DC0020BDE8F081AB8943F0400378
S214404920AB814FF0FF30BDE8F081D8F800401D2C39
S214404930F3D8194BE340DB4313F00103EDD1B5F94F
S2144049400C206B6022F400632969AB81DA0429608D
S214404950B9D5002CB7D12865B5E7EA6B002A8CDCC0
S214404960D8E70123E9694046A047431C024602D0E7
S214404970AB89AC6A8EE7D8F80030002BF8D01D2BF8
S21440498001D0162B02D1C8F80060C3E7AB8943F0CC
S2144049904003AB81BDE8F0810100402038B50D46AC
S2144049A0044608B1836BBBB1B5F90C0088B16B6E99
S2144049B0DB0701D4810517D520462946FFF74EFF71
S2144049C06B6EDA07044602D4AB899B0507D52046B2
S2144049D038BD0446204638BD00F038F8E4E7A86DF8
S2144049E000F084FB204638BDA86D00F07DFBE3E771
S2144049F0014900F02BBB00BF4966400010B50023BC
S214404A0004468181C28103604360836043660361DC
S214404A1043618361194608225C30FDF73DF907483B
S214404A200749084A084B2062E4616162A262E36279
S214404A3004F15800BDE8104000F052BB9D634000B2
S214404A40C1634000FD6340001D64400010B504464D
S214404A50124800F049FBA26BD2B904F53B731048EC
S214404A60C4F8E8320321C4F8E022E063C4F8E41254
S214404A7060680421FFF7C2FF01220921A068FFF702
S214404A80BDFF02221221E068FFF7B8FF0123A363AF
S214404A900248BDE8104000F029BB00BFC82A0020ED
S214404AA0F1494000014800F01FBB00BFDC2A00204F
S214404AB0014800F01BBB00BFDC2A002038B50A4C7A
S214404AC00A4D641BA4100AD004F18043013B05EB59
S214404AD08305013C55F804399847002CF9D1BDE8C8
S214404AE0384002F0CFBA00BF94704000907040004B
S214404AF0F8B5244F0C46064600F090FFBB685D684C
S214404B00C4F57E610F3125F00305294421F47F6109
S214404B1021F00F01A1F58054B4F5805F07DB00213A
S214404B20304601F029FCBB682B44984204D03046FE
S214404B3000F07AFF0020F8BD6142304601F01CFCD0
S214404B4001300DD0104BBA6819682D1B45F0010591
S214404B503046091B5560196000F066FF0120F8BD1D
S214404B600021304601F008FCBA68831A0F2BDEDDC0
S214404B70064C0549246843F00103001B5360086057
S214404B80D5E700BFD8050020700A0020E0090020C5
S214404B90002944D02DE9F0410D46804600F03EFF06
S214404BA055F8047C694927F00103A5F10804E2188A
S214404BB08E685068B24220F003005ED0FE07506018
S214404BC00BD455F8087CE41B01F1080EA568754522
S214404BD03B446DD0E768EF60BD6015186D68ED0723
S214404BE03ED543F001026260E350B3F5007F17D232
S214404BF0DB08581C9A104D6851F83070A7600123A6
S214404C00934001EBC0022B43083AE2604B6041F808
S214404C103040FC604046BDE8F04100F005BF7047BC
S214404C205A0A042A52D89A0902F13907FF0002F1BB
S214404C303805C819CA59083890424FD0516821F0F3
S214404C4003018B4232D292689042F7D1C368A0608B
S214404C50E3609C60C4604046BDE8F04100F0E4BEBE
S214404C6095683B4FBD42034440D0D068E86043F06F
S214404C70010285606260E350B7E7FF07034407D44C
S214404C8055F8082CA41A1344A068E268C2609060E5
S214404C90304A126843F00100934260608C60B9D39A
S214404CA02D4B40461968FFF723FFB3E71046CDE784
S214404CB011184968C90744D49168D268CA60034449
S214404CC043F0010091606060E350A3E7142A16D8D1
S214404CD002F15C07FF0002F15B05AAE7AA10012378
S214404CE04D6893402B434B600346B0E743F00102C8
S214404CF04C610C61E560A5606260E3508AE7542A27
S214404D0006D81A0B02F16F07FF0002F16E0590E716
S214404D10B2F5AA7F06D8DA0B02F17807FF0002F157
S214404D20770586E740F25450824206D89A0C02F144
S214404D307D07FF0002F17C057BE74FF47E777E25FA
S214404D4077E743F001016160136063E7D805002010
S214404D50E0050020E4090020A00A00209368002B0C
S214404D6073D02DE9F04F8B8983B00C46190700901D
S214404D70164626D5226922B313F0020035682CD099
S214404D804FF00009B04FC846B246B84543464A467B
S214404D9028BF3B460098B8F1000F50D0E169666ADC
S214404DA0B047002858DDDAF808301B1A8144A8EBD3
S214404DB00008CAF80830002BE7D1002003B0BDE851
S214404DC0F08F21460098FEF71BFD002840F0338107
S214404DD0A389356813F00200D2D113F0010945D1FA
S214404DE04F46019637B39A05D4F8088040F1838041
S214404DF04745C346C0F0AB8013F4906F40F0AC809C
S214404E002068BA465A46494600F0A4FDA268236880
S214404E10A2EB08025B44A2602360019A9368A3EB6E
S214404E200A03D144A7EB0A079360002BC5D0A38999
S214404E30002FD8D1D5F800906F680835D2E7D5F85E
S214404E400090D5F8048008359FE70020704721463B
S214404E500098FFF7A3FD70B3B4F90C3043F040035D
S214404E604FF0FF30A38103B0BDE8F08F8146334654
S214404E704E46A8469A464D464EB380B320682369B0
S214404E806269B145CB4628BFB34698425F4604D9CF
S214404E90A36813449B4500F3A68093454BDB13461B
S214404EA0676AE16900982A46B847071ED4DDB9EB21
S214404EB00709CCD00120DAF80830DB1B3D44F61B4E
S214404EC0CAF80830002B3FF478AF002ED5D108F151
S214404ED0080313E9600098460833002EF9D032469E
S214404EE00A21284600F04CFC002800F0A180013042
S214404EF0A0EB0509C2E720682369984202D8636997
S214404F009F425DD2B84528BFB8464246494600F063
S214404F1021FDA3682268A3EB08034244A3602260F5
S214404F200BB1C24679E721460098FFF737FD0028C7
S214404F3092D1C24671E75A46294600F00BFDA26858
S214404F402368A2EB0B025B44A2602360AFE72068B5
S214404F50B846BA46BB4655E762692068216902EB07
S214404F604208A0EB010A08EBD8780AF101004FEAA4
S214404F70680838444045424684BF804642465B0502
S214404F8044D51146009800F033F98346002855D0A2
S214404F905246216900F044FCA38923F4906343F011
S214404FA08003A3810BEB0A00A8EB0A03C4F810B0F9
S214404FB0C4F814802060A360B846BA46BB4621E7D2
S214404FC06FF00041B94228BF39464A4691FBF3F19B
S214404FD00098666A03FB01F3E169B047B0F1000A46
S214404FE03FF71BAF38E71A462946019300F0B2FC5C
S214404FF02268019B00981A4422602146FFF7CEFCA7
S214405000019B00287FF428AF1F4650E7009801F028
S2144050100DF883460028C5D1009D21692846FFF734
S214405020B7FDB4F90C300C2223F080032A6015E754
S21440503006F1010922E74FF0FF30BFE6009A0C2345
S2144050401360B4F90C3009E700FCFF7F2DE9F84304
S21440505010F538771FD0884606464FF000097D6821
S214405060BC68013D11D4A389012B05F1FF3508D951
S214405070B4F90E3001332146304602D0C04749EAE3
S21440508000096B1C04F16804EDD13F68002FE6D19F
S2144050904846BDE8F883B9464846BDE8F88300BFB1
S2144050A0044B054A1B685B6B002B08BF134693F8FE
S2144050B028017047380000206C040020D0F8EC002F
S2144050C0704700BF044A054B1268506B002808BF63
S2144050D01846F030704700BF380000206C040020AF
S2144050E0704700BF704700BF704700BF704700BFA3
S2144050F070B50C46B1F90E10002990B015461E4604
S21440510014DB01AA01F086FB00280FDB029A02F4AA
S2144051107042A2F50052B2FA82F252094FF480630E
S2144051204FF4006032602B6010B070BDA28900233F
S21440513012F08000336004D0402218462A6010B037
S21440514070BD4FF480632B6010B070BD8A899207A3
S2144051500B4606D501F1430201211A601A615961D6
S2144051607047F0B583B001AB6A460C460646FFF77B
S214405170BFFF00990546304600F03AF8B4F90C30C7
S214405180D8B1019A154F0099F76343F08003A38185
S2144051902060206161611AB92B43A38103B0F0BD42
S2144051A03046B4F90E1001F049FBA0B1A38923F0B4
S2144051B0030343F001031BB2EEE79A05EED423F057
S2144051C0030304F1430243F002030121A38122605A
S2144051D022616161E2E7B4F90C30DDE7F149400055
S2144051E0024B0146186800F003B800BF38000020A4
S2144051F02DE9F04F01F10B06162E83B0054640F21E
S2144052009E8036F0070600F1BD80B14200F2BA80BB
S21440521000F004FCB6F5FC7FC0F09382730A00F001
S214405220B880042B00F27981B30903F1390003F109
S214405230380EC300BF4F3B44A3F108015C68A1424F
S21440524006D10CE0002A80F2AA80E468A14206D08B
S214405250636823F003039A1B0F2AF3DD70463C690C
S214405260DFF8E4E2744500F0AB81636823F00303A3
S2144052709A1B0F2A00F39081002AC7F814E0C7F85B
S21440528010E080F29D80B3F5007F80F06181DB08FE
S21440529003F1010C99107A6857F83C80C4F80880EE
S2144052A001238B4007EBCC0113430839E1607B6058
S2144052B047F83C40C8F80C408210012494409C4279
S2144052C000F28B801C4206D120F0030064001C4292
S2144052D000F10400FAD007EBC009CC468046DCF863
S2144052E00C309C4507D16DE1002A80F27B81DB685B
S2144052F09C4500F06781596821F003018A1B0F2AFC
S214405300F2DDD3F80CC0D3F8088000939C192846E9
S21440531046F0010642F001055E60C8F80CC0CCF8C5
S21440532008807C613C61C4F80CE0C4F808E0656025
S2144053305A5000F079FB009B03F108041EE0102948
S21440534020D800F06BFB102618230220794F3B44F0
S214405350A3F108025C68944200F03D816368E1680E
S214405360A66823F00303234428465A68F16042F0B7
S21440537001028E605A6000F057FB0834204603B0A6
S214405380BDE8F08F00240C2320462B6003B0BDE818
S214405390F08F40204FF400734FF03F0E4AE723440F
S2144053A0E1685A68A66842F00102F16028468E60BD
S2144053B05A6000F039FB0834204603B0BDE8F08F51
S2144053C0234428465A6842F001025A6000F02CFBFB
S2144053D00834204603B0BDE8F08FBC68636823F00D
S2144053E00308B04504D3A8EB06030F2B00F38580D3
S2144053F0DFF85891504BD9F800201B6801323344EF
S21440540004EB080A00F0558103F580530F3323F46C
S2144054107F6B2BF00F0B5946284600F0ADFF411C22
S214405420024600F0FC80824500F2F780434B196844
S2144054305944196000F04D81D9F8000001301BBF77
S214405440A2EB0A0A5144C9F80020196012F007017D
S21440545000F01581C1F10800C1F5805102440831C1
S21440546002EB0B09C9F30B09A1EB0909494628468B
S2144054700193009200F080FF431C9DE80C0000F072
S2144054804381801A484440F001001968BA60494494
S214405490BC425060196017D0B8F10F0F40F2FB8045
S2144054A06068A8F10C0222F0070204EB020E00F03E
S2144054B001004FF0050C10430F2A6060CEF804C080
S2144054C0CEF808C000F217811D4BBC681A6891429E
S2144054D088BF19601B4B1A689142626888BF196082
S2144054E022F003029642A2EB060301D80F2B04DCFF
S2144054F0284600F099FA002440E7A21943F0010339
S21440550046F0010666602846BA60536000F08CFAA2
S2144055100834204603B0BDE8F08F142B71D9542BC5
S21440552000F2A380330B03F16F0003F16E0EC3004D
S21440553080E600BFD8050020A00A0020700A0020A0
S214405540980A00209C0A0020E0050020E009002080
S2144055505A0A042A5BD9142A00F2AE8002F15C0192
S214405560C9005B3207EB010C7958ACF1080C8C454E
S21440557000F088804A6822F00302934273D289681A
S2144055808C45F7D1DCF80C207B68E260C4F808C094
S2144055909460CCF80C408FE6A11946F0010C42F01E
S2144055A00106C4F804C0284679613961C1F80CE0A8
S2144055B0C1F808E04E60E25000F036FA0834DDE606
S2144055C07B6879E608F1010818F0030F0CF1080C27
S2144055D07FF485AE2DE0DC68A34208BF02303FF47E
S2144055E03EAEBBE619441C464A68DB6854F8086F72
S2144055F042F001024A602846F3609E6000F014FACA
S214405600BCE603F15C0003F15B0EC30012E69A09A8
S21440561002F13901C9003832A4E7BC4254D0BC6814
S214405620626822F003025DE759F80839994540F070
S214405630868010F0030F00F1FF30F5D17B6823EA37
S21440564004037B6064009C423FF6C7AE002C3FF4E8
S214405650C4AE1C4240467FF43EAE64001C4200F19D
S2144056600400FAD037E68C468CE7B3F5AA7F15D807
S214405670F30B03F1780003F1770EC300DAE54FF43D
S2144056808051EDE67B689210012101FA02F2134345
S2144056907B60624679E70123536029E740F2545223
S2144056A0934222D8B30C03F17D0003F17C0EC30075
S2144056B0C0E503F1100BAEE6542A29D81A0B02F1C6
S2144056C06F01C9006E324DE7204B19685944196086
S2144056D0B2E6CAF30B0000287FF4AEAE08EB0B032D
S2144056E0BA6843F001035360EEE67F204FF47E73C2
S2144056F04FF07E0E9EE504F1080128460093FFF722
S21440570047FA009B1968DFE601204FF00009BCE627
S214405710B2F5AA7F05D8DA0B02F17801C9007732D4
S21440572020E740F254518A4205D89A0C02F17D0196
S214405730C9007C3216E74FF47E717E2212E77B6802
S21440574080E7F00806F1080300E600BF700A002074
S21440575082B049B15AB16BB113780B601278101C05
S21440576018BF012002B0704701A9002AF3D11046A5
S21440577002B070476FF00100F4E700BF0000000081
S21440578001F0FF01102A2BDB10F0070F08D010F8AD
S214405790013B013A8B422DD010F0070F42B3F6D1B1
S2144057A0F0B441EA012141EA014122F007047FF0CA
S2144057B000070023F0E80256083C85EA010586EA21
S2144057C0010685FA47F5A3FA87F586FA47F6A5FA5D
S2144057D087F68EB9EED1F0BC01F0FF0102F0070269
S2144057E032B110F8013B013A83EA010313B1F8D114
S2144057F00020704701387047002D06BF35460338F5
S214405800073815F0010F07D1013015F4807F02BF2D
S214405810013015F4C03F0130F0BC0138704700BF7E
S214405820844641EA000313F003036DD1403A41D366
S21440583051F8043B40F8043B51F8043B40F8043B25
S21440584051F8043B40F8043B51F8043B40F8043B15
S21440585051F8043B40F8043B51F8043B40F8043B05
S21440586051F8043B40F8043B51F8043B40F8043BF5
S21440587051F8043B40F8043B51F8043B40F8043BE5
S21440588051F8043B40F8043B51F8043B40F8043BD5
S21440589051F8043B40F8043B51F8043B40F8043BC5
S2144058A051F8043B40F8043B51F8043B40F8043BB5
S2144058B0403ABDD2303211D351F8043B40F8043B55
