:020000040040BA
:1000000080EF002079034000750340007503400035
:1000100075034000750340007503400000000000B8
:100020000000000000000000000000007503400018
:100030007503400000000000750340007503400098
:1000400075034000750340007503400075034000D0
:1000500075034000750340007503400075034000C0
:100060007503400075034000000000007503400068
:1000700075034000750340007503400075034000A0
:10008000050B4000750340007503400075034000F8
:100090007503400075034000750340007503400080
:1000A0007503400075034000750340007503400070
:1000B00075034000750340000000000000000000D0
:1000C0000000000000000000000000000000000030
:1000D0000000000000000000000000000000000020
:1000E0000000000000000000000000000000000010
:1000F0000000000000000000000000007503400048
:10010000750340007503400010B5054C237833B9E2
:10011000044B13B10448AFF300800123237010BDDA
:10012000B408002000000000708040000C4B43B178
:100130000C480D4910B5AFF300800C48036823B993
:1001400010BD0A48036833B97047094B002BF7D03C
:10015000BDE810401847064B002BF5D0184700BFEC
:100160000000000070804000B8080020708040004F
:100170000000000008B57C4B4FF498125A60002232
:100180005A631B6A13F4807F0ED06FF07F43764969
:10019000013B0A6A12F4807F03D0002BF8D10020C3
:1001A00008BD002B00F0CC806F4B05225A631B6A00
:1001B00013F4807F0ED06FF07F436B49013B0A6AD6
:1001C00012F4807F03D0002BF8D1002008BD002B53
:1001D00000F0B880644B00225A631B6A13F4807FDE
:1001E0000ED06FF07F436049013B0A6A12F4807FB2
:1001F00003D0002BF8D1002008BD002B00F0A48014
:10020000594B38225A631B6A13F4807F0ED06FF06B
:100210007F435549013B0A6A12F4807F03D0002BCB
:10022000F8D1002008BD002B00F090804E4B012239
:100230005A631B6A13F4807F0DD06FF07F434A49E5
:10024000013B0A6A12F4807F03D0002BF8D1002012
:1002500008BD002B7CD0444B2A225A631B6A13F43E
:10026000807F0DD06FF07F433F49013B0A6A12F453
:10027000807F03D0002BF8D1002008BD002B69D06F
:10028000394B31225A631B6A13F4807F0DD06FF013
:100290007F433549013B0A6A12F4807F03D0002B6B
:1002A000F8D1002008BD002B56D02F4B0B225A63EB
:1002B0001B6A13F4807F0DD06FF07F432A49013B06
:1002C0000A6A12F4807F03D0002BF8D1002008BD09
:1002D000002B43D0244BFF225A631B6A13F4807F08
:1002E0000DD06FF07F432049013B0A6A12F4807FF2
:1002F00003D0002BF8D1002008BD002B30D01A4BC2
:10030000FF225A631B6A13F4807F0CD06FF07F4387
:100310001549013B0A6A12F4807F03D0002BF8D103
:10032000002008BDF3B102220F4B1A601A46136A6F
:1003300013F0010FFBD00D480D4B9847012008BD6D
:10034000002008BD002008BD002008BD002008BD19
:10035000002008BD002008BD002008BD002008BD09
:10036000002008BD002008BD00C60040A04340009A
:10037000A90F4000FEE7000008B5174B174A9A4244
:1003800010D0174B144A9A420CD2013B9B1A23F00F
:10039000030304331344114951F8040B42F8040BCE
:1003A0009A42F9D10F4B104A9A420AD2013B9B1A4A
:1003B00023F0030304331344002142F8041B934247
:1003C000FBD10A4A0A4B23F07F039360094B9847FD
:1003D000094B9847FEE700BF0000002070804000F6
:1003E000B408002080E90020B408002000ED00E0FF
:1003F00000004000A1264000C9074000014A024B0E
:100400001A60704700127A000000002030B4029D8C
:100410004FF08044C4F80801C4F80C51C4F8180126
:10042000C4F81C51C4F80021C4F80451C4F81021C8
:10043000C4F81451074A9160D5609161D561136089
:1004400055601361556140F20113C4F82031136205
:1004500030BC70470002004070B582B01F4C656828
:1004600045F4C02545F01F056560256F25F4C025BE
:1004700025F003052567656F25F4C02525F00305E4
:100480006567256F45F01C052567656F25F01C0520
:1004900065674FF08044802525604FF4C446666050
:1004A000069E00960E4EB04765610E4A002382F804
:1004B00010334FF4803111602360236843F001034F
:1004C0002360236843F010032360236843F0040390
:1004D00023600548054B984702B070BD000E0E40E2
:1004E0000D04400000E100E0BC434000A90F4000C3
:1004F000044A136843F470031360BFF34F8FBFF3D4
:100500006F8F704788ED00E06AB110B4034600EBCE
:100510008200002253F8044B0C604A600831834289
:10052000F8D15DF8044B70475AB110B40B4601EB9B
:10053000820150F8084B43F8044B8B42F9D15DF827
:10054000044B704703680B6000234B60022A2AD9D2
:1005500070B40224A300C5182E68CD182E60043391
:10056000C5182D680B441D600234A4B2A242F1D814
:10057000406801EB82031860002058600223D01805
:10058000D41A01EB8404256801EB80000560D4EDEA
:10059000017AF1EE677AC0ED017A02339BB29A429A
:1005A000EDD870BC7047436801EB82010B600023FB
:1005B0004B60704710B50446084B1B78834204D348
:1005C000834206D8054B1C7010BD0548054B984763
:1005D000F8E70548034B9847F4E700BFD008002030
:1005E000D86B400029284000F86B40002DE9F04FFF
:1005F000ADF5405D85B0019111460092002A694B2E
:10060000A3F114020CBF904698460C46664B0B446F
:100610001D7908EB8505002300212A681A44116022
:100620000433B3F5805FF8D14FF4807229685F4BD3
:1006300098475F4F012300222968B86A5D4DA8479B
:10064000594D009BE818037901335B4981FB032175
:10065000DA17C2EB610202EB82029B1A03710DF5FD
:10066000005610364FF4805200213046534B9847C5
:1006700005F1080346F8083C05F6080546F8045C51
:1006800007F13C052837DFF83C91A3F10806264422
:100690004FF4007202A955F80409C84796F804B04F
:1006A00058F82B400DF1080E0DF580531033A3F1CF
:1006B00008000DF5005A0AF1100A191F0DF5005235
:1006C000143203F6F87C5346D4ED006A94ED016AC7
:1006D000DEED007A9EED017A26EEA75A66EE075A05
:1006E00075EE655A41ED015A66EE277A26EE877A55
:1006F00077EE877AC0ED017A52ED016A11ED017A49
:1007000036EE877A02ED017A93ED017A77EE277A59
:10071000C3ED017A08340EF1080E083008330831B1
:1007200008326045D0D10BF10103234981FB03213D
:10073000DA17C2EB610202EB82029B1A3371BD42EF
:10074000A6D1544601231A460DF500511031184820
:10075000806A184DA8470DF500531033083B009AE6
:1007600053F822300DF520501030024694ED007AF7
:10077000D3ED007A77EE277AE4EC017A52F8041B85
:1007800043F8041BA042F1D14FF4807201990DF59A
:10079000005010300A4B98470DF5405D05B0BDE89C
:1007A000F08F00BF18000020D0080020090540008D
:1007B000040000206D17400067666666F126400061
:1007C00029054000450540002DE9F04F85B0A94BB3
:1007D0009847A94B9847A94AA94B1A60A94A03F51B
:1007E00021631A601A46A3F58053103B516911F03A
:1007F000800FFBD0996E11F0800FF7D0A24B002232
:100800009A62A24A9A629A6E12F0020FFBD09E4B35
:100810001A6B22F070021A639B6E13F0080F4DD012
:10082000994A136B23F0030343F002031363936E9F
:1008300013F0080F4DD0964AD36923F4F05343F0D8
:10084000B44343F4C853D361924B4FF025421A602E
:100850004FF400425A60904B9847904B9847904B0A
:100860009847904B9847904B9847904B9847904BA0
:100870001968C1F303518F488F4B98478F484FF445
:1008800080730093A0F1F00300F5447200F5E2617B
:1008900000F531608A4CA0478A488B4B98478B48BB
:1008A0008B4B98478B4B03F5A46303935AE0013BB2
:1008B000CAD0916E11F0080FF9D0B1E74FF4006380
:1008C000714AF6E7013BBFD0916E11F0080FF9D0E5
:1008D000B1E74FF400636C4AF6E701207E4B98477E
:1008E000764B03F5437403F57167A3F1F4067B4D72
:1008F00003F20C7BDFF8FCA1DFF8FC91DFF8FC8150
:1009000054F8043F47F8043F56F8040FD04700223C
:100910004FF07853C847C04745F8040B5C45EFD10A
:100920006F4E06F21C640122214606F507706D4BDE
:10093000984706F6182506F61C26DFF8C491DFF85E
:10094000B881694F54F8040BC8470022674BC04771
:10095000B84745F8040FB442F4D10023574A82F84F
:10096000103F00BF554B93F8103F002BF9D0534B6D
:1009700093F8113F0BBB5E4B98476728ADD0002022
:10098000554B98474D4B03F54373A3F5437202F55E
:100990007160534A02F6186102F61822A0F57164DC
:1009A00004F20C7553F8044F40F8044F51F8044F0B
:1009B00042F8044FAB42F5D1CFE74D4B984767283B
:1009C00015D0444B03F590733C4A02F60C30A2F16B
:1009D000F40102F20C72039D53F8044F40F8044FE7
:1009E00051F8044F42F8044FAB42F5D1B5E7394B0B
:1009F00003F59074314B03F60C37394D05F6186644
:100A000005F50775DFF8ECA0DFF8EC90DFF8EC8077
:100A1000DDF80CB054F8043F47F8043F56F8040FD3
:100A2000D04700224FF07853C847C04745F8040B21
:100A30005C45EFD12A4E06F21C640122214606F5E0
:100A40000770284B98471D4B03F20C7506F61C26C1
:100A5000DFF8AC90DFF8A080234F54F8040BC847B0
:100A60000022224BC047B84745F8040FB442F4D1E6
:100A700073E700BFFD034000F104400000050004DF
:100A8000000A0E40080000A500040E40013F4D0E74
:100A900010140E4050140E40CD0C4000550C400078
:100AA000010F4000F10B4000350E40007501400081
:100AB00088ED00E01C6C4000D50F4000C8190020F4
:100AC00059044000286C4000A90F4000586C4000B9
:100AD00029284000B83B0020B5054000DC2C002050
:100AE000C02A0020ED054000B12540000000E04193
:100AF00015114000C12040008D214000012640001A
:100B0000E5204000344B93F8243573BB4FF080430D
:100B10009B6813F0800F4CD0304B93F8113FABB96A
:100B20002E4A02F531614FF08043C3F818114FF49B
:100B30008071C3F81C1102F54472C3F81021C3F888
:100B400014110122244B83F8242570474FF0804371
:100B5000234AC3F818214FF48072C3F81C2121499D
:100B6000C3F81011C3F81421EBE7012B21D14FF08A
:100B700080439B6813F0800F1BD0184B93F8113FF4
:100B8000C3B9194B1B6C154A02F5E26199614FF428
:100B90008071D961A2F1F00018615961012382F8D6
:100BA000113F00220C4B83F8242501220B4B83F8C4
:100BB000102F70470C4B1B6C0C4A02F61C219961DC
:100BC0004FF48071D96102F61C621A6159610022EA
:100BD000024B83F8112FE4E7B83B0020C81900202E
:100BE000DC280020DC3C002004000020C02A00207B
:100BF000064BD3F8E42122F00102C3F8E421044AB1
:100C0000C3F8E4210122C3F81C21704700020E4002
:100C10000054414D28B9064A536B43F08053536347
:100C20007047034A136B43F080531363704700BF50
:100C3000000E0E4028B9064A536B43F0006353631D
:100C40007047034A136B43F000631363704700BFA0
:100C5000000E0E4010B5184BD3F8E42022F001022C
:100C6000C3F8E420D3F8E420144C2243C3F8E42072
:100C7000134AD2F8E40020F00100C2F8E400D2F8F0
:100C8000E4102143C2F8E4104FF0FF315960516085
:100C90001A6842F0F0421A601A6942F0F0421A6192
:100CA0005A6B42F0F0425A630020064B98470120ED
:100CB000054B984710BD00BF000E0E40004F495035
:100CC00000100E40150C4000350C40001F4BD3F8AF
:100CD000E42022F00102C3F8E420D3F8E4101C4A17
:100CE0000A43C3F8E4201B4A1A614FF400725A60A9
:100CF00004225A641A46936E13F4007FFBD0134B00
:100D00001A6842F400721A605A6842F480525A60BB
:100D100044221A651A46936E13F4805FFBD00B4B86
:100D20001A6842F480521A604FF480425A6040F6CA
:100D300054129A651A46936E13F4804FFBD0034AFF
:100D4000136843F480431360704700BF00040E40F3
:100D500000434D50001B01000A4B1B6853B1094B67
:100D60001B681A180849914208DB1046054A1060B2
:100D700018467047054A034B1A60F0E74FF0FF3002
:100D8000704700BFE0E80020FC7F022080EF0020D9
:100D90004FF0FF3070474FF400534B600020704716
:100DA00001207047002070470138022815D82DE92E
:100DB000F0410E4614469AB10D46DFF838800C4FCC
:100DC000D8F8000015F8011B3B68984700280ADB9B
:100DD000A81B013CF4D1BDE8F0814FF0FF30704713
:100DE0001046BDE8F0814FF0FF30BDE8F08100BF54
:100DF00050E9002054E900202DE9F04180B90C466B
:100E00009046002A0FDD8F18084E094D30682146A4
:100E10002B6898470134BC42F8D14046BDE8F081C8
:100E20004FF0FF38F9E78046F7E700BF54E90020AC
:100E30004CE9002008B5194BD3F8902042F4C06269
:100E4000C3F890205A6E42F4C0625A665A6842F45F
:100E5000C0625A601A6F22F4C0621A675A6F22F495
:100E6000C0625A6703220E4B1A6003F5C063D3F8C1
:100E7000E42022F00102C3F8E4200A4AC3F8E42087
:100E8000094A1A61094A1A6002225A644FF49812F8
:100E90005A600748074B984708BD00BF000E0E4038
:100EA00000C0004000495754010113002400000114
:100EB0007C6C4000A90F4000044BD9611A4653696D
:100EC00013F0020FFBD00020704700BF0002024069
:100ED00010B403460848002200F8312F074CB3FB3A
:100EE000F1F201FB1233E35C00F8013D1346002AE6
:100EF000F5D15DF8044B7047E4E80020906C4000A9
:100F000038B51A4B5A6842F00C025A601A6F22F038
:100F10000C021A675A6F22F00C025A670122A3F5DD
:100F200041231A6003F50073D3F8E42022F0010294
:100F3000C3F8E4200E4AC3F8E42082221A620D4A64
:100F40005A6050221A600C4A13600C4A0C4B1A600B
:100F50000C4D2B68002198680B4CA0472B68002192
:100F60005868A04709480A4B984738BD00100E4002
:100F700000415355C008080054E90020B90E400054
:100F800050E900207000002039284000A46C400087
:100F900029284000034BD8611A46536913F0020F09
:100FA000FBD07047000202402DE9F04106460024C4
:100FB000064FDFF81C8001E0705DC047E5B23046A7
:100FC000B8470134A842F7D8BDE8F081012A4000B3
:100FD000950F40000FB42DE9F04182B008AB53F8F3
:100FE000044B01932378BBB1474DDFF82481474F71
:100FF00007E0019B1A1D01921878A847B41CB3782A
:1010000053B1207825287DD030B1A84714F8010FBE
:1010100025282DD00028F8D102B0BDE8F04104B059
:101020007047019B1A1D01920A211868C047B847F2
:10103000E4E7019B1A1D019208211868C047B847D0
:10104000DCE7019B1A1D01921868B847D6E7019B9F
:101050001A1D019210211868C047B847CEE7019BBE
:101060001A1D019210211868C0474130B847C5E7E2
:1010700026467378583B202BC0D801A252F823F0A3
:101080005F104000FD0F4000FD0F4000FD0F4000CD
:10109000FD0F4000FD0F4000FD0F4000FD0F400020
:1010A000FD0F4000FD0F4000FD0F4000F30F40001A
:1010B00023104000FD0F4000FD0F4000FD0F4000D9
:1010C000FD0F4000FD0F4000FD0F4000FD0F4000F0
:1010D000FD0F4000FD0F4000FD0F400033104000A9
:1010E000FD0F4000FD0F4000FD0F40004310400089
:1010F000FD0F4000FD0F4000FD0F4000FD0F4000C0
:101100004F1040002646B4E7950F4000A90F40005D
:10111000D10E4000014B9869C0B2704700020240F6
:101120002DE9F0412DED088B07460846B7F800C0C1
:101130007A684FEA5C0100EB8C085FEADC0C00F097
:10114000B0808C00103400F11003061910324444B2
:1011500003EB0C1C08F1100515ED042A55ED032ACC
:1011600054ED044A14ED034A14ED026A54ED015A99
:1011700053ED043A15ED020A55ED010A56ED046AE5
:1011800016ED033A13ED037A13ED025A53ED017A8B
:1011900016ED021A56ED011A73EE82BA37EE22BA34
:1011A00076EEA49A33EE049A31EEA58A75EE00AA83
:1011B00037EEA0AA71EE068A43ED04BA03ED03BA36
:1011C00043ED02AA03ED01AA06ED018A46ED049A59
:1011D00006ED039A46ED028A37EE627A74EEE64A2D
:1011E00034EE434A52ED036A12ED043A73EEC23A0A
:1011F00027EE268A64EEA62A23EE832A64EE834A2B
:1012000063EEA63A27EE037A64EE266A24EE034ADA
:1012100037EE637A76EEA46A32EEC44A32EE083ACA
:1012200005ED037A05ED043A04ED044A44ED036A42
:1012300012ED017A76EE416A35EE405A35EEE16AFA
:1012400077EEE07A52ED025A67EE873A66EE874A09
:1012500025EE254A67EEA57A25EE075A66EEA56AC1
:1012600026EE077A26EE256A77EEC57A74EE235AC3
:1012700034EEC66A37EE267A1033634545ED025ADE
:1012800006F1100645ED017A02F1100204ED026A42
:1012900004ED017A05F1100504F110047FF45CAF50
:1012A0007A688CB22146022300F0F8FABDEC088B74
:1012B00021467A6840460223BDE8F04100F0EEBACC
:1012C0002DE9F04F2DED0A8B8DB00D460B91018865
:1012D00042680A9049088B00EE18F018D0ED005AC9
:1012E000D5ED007A96ED007AD0ED013A96ED014AFF
:1012F00095ED015A089037EEA56AC718D7ED004A58
:1013000097ED013A019777EE066A2C4676EEA46ACD
:1013100077EEE57A16EE90CA44F808CB75EE236AAC
:10132000D6ED015AD7ED012A049435EE635A74EED6
:10133000273A36EE476A76EEA55A73EEC33A490865
:1013400002F1080E76EEC46A77EEC47A099135EEA2
:10135000474AA1F10209CDF80CE0314613EE90EABC
:1013600036EE646A75EEA25A0446C5ED015A37EEB0
:10137000057A41F808EB34EE245A16EE10EA86EDB1
:10138000015A76EEC36A44F808EB77EE837AC0ED33
:10139000016A0594044617EE900A069137EE647AC6
:1013A00002F11001BC46009147F8080B02F1180148
:1013B0005FEA590002918CED017A079000F03481C8
:1013C00002F1200902F13008019ADDF800A00C3B7F
:1013D0008346634405F1100EA4F10C0104F11005DD
:1013E000A6F10C0CA2F10C0406F1100010321EED57
:1013F000025A55ED025A50ED027A52ED021A55ED9D
:10140000016A1EED010A12ED011A10ED018A35EE96
:10141000254A30EE266A37EE847A30EE660A37EED9
:10142000217A75EE655A0EED027A10ED017A52EDD1
:10143000016A36EE077A78EE25AA37EE267A70EE44
:10144000673A0EED017A94ED027A9CED022A91ED55
:1014500002BAD3ED029AD4ED012A9CED019A93EDE4
:10146000015AD1ED010A72EE076A32EE472A7BEE8D
:10147000268A79EE224A38EEA97A79EE622A8CED34
:10148000027A91ED017AD3ED018A34EE877A3BEE50
:10149000693A37EE287A32EE609A8CED017A1AEDCD
:1014A000017A1AED02AA73EE228A39EE059A7AEED3
:1014B000C1AA73EEA13A2AEE8ACA69EE07BA6AEEA9
:1014C00087AA29EE0A9A63EE87CA63EE8A3A28EE63
:1014D0008AAA68EE878A73EEEA3A78EE898A3CEE49
:1014E0002C7A3BEECAAA34EE674A76EECB6A36EE29
:1014F000486A74EEE04A00ED027A40ED013AC1ED2F
:10150000018A81ED02AA59ED043A36EEE97A74EEC9
:10151000C54A59ED036A34EE614A36EE416A67EE18
:10152000638A66EE269A24EE239A26EE236A24EE38
:10153000264A27EE267A64EEA66A64EEA34A36EEC1
:10154000446A37EE647A38EEE64A79EE293A75EE67
:10155000606A75EEC85A77EE807A45ED023A05ED7D
:10156000016A84ED017A84ED024A35EE816A36EE35
:10157000C27A58ED065A58ED056A33EE623A77EEB4
:10158000E17A67EE262A67EEA64A26EE255A67EE2E
:10159000A57A26EE266A27EE257A63EE266A23EEE2
:1015A000253A77EEC67A75EE245A32EEC33A36EE15
:1015B000877ABBF1010B42ED025A42ED017A0EF13E
:1015C000080E83ED023A83ED017AACF1080C0AF1C2
:1015D000080A00F10800A1F1080109F1100905F15C
:1015E0000805A4F1080408F1180802F10802A3F1A3
:1015F00008037FF4FCAE07990098CB0001EB410291
:1016000000EB0111009104991944049103991944C4
:10161000039106991944069105991F441944029BA8
:10162000059103EBC20302930499059891ED004ADA
:10163000D0ED006A069B97ED003AD3ED007AD0ED2D
:10164000014AD1ED013A97ED012A93ED017A039A0F
:10165000BDF8244034EE266A73EEA45A37EE865A5B
:1016600073EEE43A35EE035A74EE666A81ED005A81
:1016700093ED015AD7ED014A35EE855A37EE264AE9
:1016800035EE245A73EEE74A81ED015AD2ED001A85
:10169000D2ED012A34EE835A34EE424A36EE676ABE
:1016A00064EE214A24EE224A65EE222A25EE215AD2
:1016B00074EEA22A35EE445AC3ED002A83ED015A96
:1016C00075EEC75A009B36EE436A93ED014A93EDDF
:1016D000005A029B75EEC25A66EE054A25EE855AFF
:1016E00026EE046A65EE845A35EE466A74EEA55A13
:1016F00077EEA37A36EEC77A80ED016AC0ED005A24
:10170000D3ED015AD3ED006A37EE027A77EEC37A51
:1017100027EE266A67EEA66A27EE257A67EEA57A97
:1017200036EEC77A76EE277A87ED017AC7ED007A32
:10173000DDE90A5021466A68042300F0AFF830461C
:1017400021466A68042300F0A9F808986A682146CF
:10175000042300F0A3F86A680198214604230DB021
:10176000BDEC0A8BBDE8F04F00F098B82DE9F041D0
:10177000012A064617460C469846058856D0B5F508
:10178000807F63D016D9B5F5806F1AD047D9B5F5EB
:10179000006F5BD0B5F5805F05D1012372682946E3
:1017A000204600F07BF8B8F1000F11D1012F16D0C0
:1017B000BDE8F081202D49D035D9402DEDD0802DC8
:1017C000F1D121463046FFF7ABFCB8F1000FEDD068
:1017D000B268B189204600F041F8012FE8D107EE48
:1017E000905AF8EE677AB7EE007AC7EE276A002DB6
:1017F000DED004F10801002301339D4201F108010C
:1018000011ED047A51ED037A27EE267A67EEE67A37
:1018100001ED047A41ED037AEED1BDE8F081B5F532
:10182000007FBAD0BFE7102DCBD0BCE79DB101F14E
:101830000C03002253ED027A0132F1EE677A9542F1
:1018400043ED027A03F10803F4D198E721463046CC
:10185000FFF736FDA7E7002BAAD0B9E7E9B1F0B54D
:10186000002502F1020E3EF8154032F81530A408AA
:101870009B0850F8246050F823C040F82360A6006D
:101880009B0040F824C00433341D0235C658075964
:10189000C7508D420651E6D3F0BD70472DE9F04F99
:1018A0002DED108B95B0CDE91032034604339FED3A
:1018B000B9BA12908B46139389464FEADB06129B06
:1018C0000F964FEA46184FEAC60E03EB08054FEA9B
:1018D000860A05EB0E043701A6EB0A0304EB0E00A3
:1018E000B2443A1D029700EBC3034FEACA07AEEBBE
:1018F000060C039703EB080701974FEACC070697FE
:10190000129F06EB46060EF1040139443A443701B2
:10191000F60004970596019F139E4FEACB0A4FF0FD
:10192000000CD4ED006AD7ED001A16ED01AAD5ED32
:10193000005A52ED019A90ED006A51ED017A93ED53
:10194000003A39EE860A33EE212A37EEA65A7AEEAD
:10195000254A35EE027A34EE804A77EEE67A74EE66
:10196000076A34EE474A46ED016A85ED004AD1ED3B
:10197000006A94ED019AD3ED012AD7ED018AD6EDE4
:10198000000AD5ED013A90ED018A92ED007A33EE2E
:10199000613A36EEC94A72EEE8AA77EEC31A34EE1F
:1019A0002A1A77EE837A34EE6A4A30EEA33A39EE99
:1019B000C66A70EEE33A72EEA82A77EE080A21EEC4
:1019C0000B1A37EE487A61EE8B1A7AEE655A76EE8C
:1019D000896A24EE0B4A67EE8B7A74EEC04A35EEC4
:1019E000425A36EEA20A33EE202A76EEE26A33EE4F
:1019F000603A75EEA12A77EE010A75EEE15A37EEEC
:101A0000417A73EE841A33EEC44A76EE273A76EEC4
:101A1000677A32EE008A33EE451A32EE402A35EE0E
:101A2000035A34EEA60A32EEA03A74EEE66A34EEB9
:101A3000676A75EE874A72EEE02A35EEC77A77EE6E
:101A4000847A71EEE35ADC4473EEA13AE14586ED07
:101A5000008A85ED012A564402ED010A5544C0ED85
:101A6000006A82ED001A80ED015A524401ED013AFC
:101A70005044C7ED002AC4ED004A83ED007AC1ED61
:101A8000005AC7ED013A514484ED016A5744C3ED51
:101A9000017A544453443FF644AF0F9B072B40F266
:101AA000B781069B03991298059E049A03F1080CCE
:101AB000029B083108F10808411808360C33044627
:101AC0004444C318099181190EF1080E08320B9491
:101AD000079104460146049300F10C0374444FF04F
:101AE00001088218614405934B460A94C146089246
:101AF000D84606914FF0000E9B46109B119A9E44CB
:101B00004FEACE031A440E921A44D418E518EE1880
:101B1000F71807EB030C0D92AEEB8E020CEB0211E3
:101B20000C91194403911944CA1802921A44D0180E
:101B300092ED01EA029AD4ED007AD2ED01DA0C9A24
:101B400091ED01DA92ED01CA0D9A0399CDED037A78
:101B5000D2ED007A0E9ACDED027AD2ED007AD0ED78
:101B600001EAD1ED01CADCED00BAD7ED00AA96ED8D
:101B700000AAD5ED009ACDED017A034493ED01FA68
:101B8000DDE90476DDE90654DDE90801DDE90A2333
:101B9000CC4601E0F304353F91ED006A93ED005A25
:101BA000D0ED00FAD4ED007A95ED007A56ED013AC9
:101BB00017ED013A92ED002A96ED000A33EE858A80
:101BC00032EE061A33EE2F4A77EE874A78EE041A81
:101BD00071EE246A32EE462A31EEA66A77EEC77AB3
:101BE00006ED016AD4ED018A92ED019AD7ED000A63
:101BF000D1ED012A95ED017A93ED016AD0ED015AFC
:101C000073EEC53A33EE6F3A39EE625A78EEC7FAA0
:101C100038EE444A38EE877A30EEA58A79EE222AE9
:101C200032EE279A72EE677A30EE062A75EE6F8AE8
:101C300071EE644A35EE2F5A32EE081A72EE87FAC8
:101C400032EE482A68EE8B8A25EE0B5A70EEE55A82
:101C500072EEC72A71EEE66A29EE0B9A71EE6F1AE0
:101C600067EE8B7A30EE466A74EE220A36EE280A68
:101C700074EE622A36EE686A32EE644A73EE098ABE
:101C800074EE824A33EE499A2DEEA12A35EE853A5A
:101C900075EEC55A33EEA75A73EEE77A69EEA63AA7
:101CA00030EE687A35EE038A38EE800A73EE823AB7
:101CB00069EEA18A9DED012ADDED021A35EE435A47
:101CC00071EE2FFA37EEA53A21EEA01A77EEE57AFB
:101CD0006DEEA66A76EE495A6CEEA00A39EE066AF7
:101CE0002CEE849A21EE844A6CEE071A22EE077AD3
:101CF00022EE082A2CEE088A78EEE66A31EE091AFE
:101D00006AEEA28A2EEEA49A74EE600A37EE487A42
:101D10002FEE004A2BEE858A72EE211A6AEEA44A53
:101D200038EE892A2FEE055A38EE048A2EEE259ACF
:101D30002AEE254A6EEEA22ADDED035AC6ED00FA20
:101D40002BEE800A74EEE22A30EE450A6AEE034A70
:101D500065EEA78A2DEE065A2EEE033A6DEE277A2F
:101D600025EE866A74EE894A34EE433A78EE858A27
:101D700036EE676AC444E345C3ED003AC3ED016A39
:101D8000564407ED011AC7ED000A534480ED002ABE
:101D9000C0ED012A5744C2ED001A82ED017A504489
:101DA00085ED008A85ED010A5244C1ED004A554493
:101DB00081ED013AC4ED008A84ED016A5144544436
:101DC0003FF6EAAE0B9B08330B930A9B08330A934A
:101DD000099B08330993089B08330893079B083332
:101DE0000793069B08330693059B08330593049BD2
:101DF000083304930F9B09F101094B457FF47DAE35
:101E0000109BDB009BB2D9461093DDF83CB054E543
:101E100015B0BDEC108BBDE8F08F00BF81F0004124
:101E200002E000BF83F0004330B54FEA41044FEABF
:101E3000430594EA050F08BF90EA020F1FBF54EA5A
:101E4000000C55EA020C7FEA645C7FEA655C00F0F6
:101E5000E2804FEA5454D4EB5555B8BF6D420CDDC7
:101E60002C4480EA020281EA030382EA000083EA4A
:101E7000010180EA020281EA0303362D88BF30BDEA
:101E800011F0004F4FEA01314FF4801C4CEA113140
:101E900002D0404261EB410113F0004F4FEA03339F
:101EA0004CEA133302D0524263EB430394EA050F2A
:101EB00000F0A780A4F10104D5F1200E0DDB02FA99
:101EC0000EFC22FA05F2801841F1000103FA0EF22D
:101ED000801843FA05F359410EE0A5F120050EF1F3
:101EE000200E012A03FA0EFC28BF4CF0020C43FA24
:101EF00005F3C01851EBE37101F0004507D54FF031
:101F0000000EDCF1000C7EEB00006EEB0101B1F580
:101F1000801F1BD3B1F5001F0CD349085FEA3000C6
:101F20004FEA3C0C04F101044FEA445212F5800FD1
:101F300080F09A80BCF1004F08BF5FEA500C50F16E
:101F4000000041EB045141EA050130BD5FEA4C0C51
:101F5000404141EB010111F4801FA4F10104E9D1DA
:101F600091F0000F04BF01460020B1FA81F308BFD1
:101F70002033A3F10B03B3F120020CDA0C3208DD9D
:101F800002F1140CC2F10C0201FA0CF021FA02F178
:101F90000CE002F11402D8BFC2F1200C01FA02F1E8
:101FA00020FA0CFCDCBF41EA0C019040E41AA2BF0D
:101FB00001EB0451294330BD6FEA04041F3C1CDAD5
:101FC0000C340EDC04F11404C4F1200220FA04F0F5
:101FD00001FA02F340EA030021FA04F345EA03019F
:101FE00030BDC4F10C04C4F1200220FA02F001FA61
:101FF00004F340EA0300294630BD21FA04F02946E3
:1020000030BD94F0000F83F4801306BF81F480117B
:102010000134013D4EE77FEA645C18BF7FEA655CEE
:1020200029D094EA050F08BF90EA020F05D054EAC0
:10203000000C04BF1946104630BD91EA030F1EBFC5
:102040000021002030BD5FEA545C05D140004941C9
:1020500028BF41F0004130BD14F580043CBF01F5BC
:10206000801130BD01F0004545F0FE4141F47001A2
:102070004FF0000030BD7FEA645C1ABF194610467D
:102080007FEA655C1CBF0B46024650EA013406BF7E
:1020900052EA033591EA030F41F4002130BD00BF3D
:1020A00090F0000F04BF0021704730B54FF48064FA
:1020B00004F132044FF000054FF0000150E700BF7B
:1020C00090F0000F04BF0021704730B54FF48064DA
:1020D00004F1320410F0004548BF40424FF00001C7
:1020E0003EE700BF42004FEAE2014FEA31014FEA0A
:1020F00002701FBF12F07F4393F07F4F81F0605159
:10210000704792F0000F14BF93F07F4F704730B5C7
:102110004FF4607401F0004521F0004120E700BF5A
:1021200050EA010208BF704730B54FF000050AE0E1
:1021300050EA010208BF704730B511F0004502D5E2
:10214000404261EB41014FF4806404F132045FEAE4
:10215000915C3FF4DCAE4FF003025FEADC0C18BF89
:1021600003325FEADC0C18BF033202EBDC02C2F17F
:10217000200300FA03FC20FA02F001FA03FE40EA11
:102180000E0021FA02F11444C1E600BF70B54FF011
:10219000FF0C4CF4E06C1CEA11541DBF1CEA1355F3
:1021A00094EA0C0F95EA0C0F00F0DEF82C4481EA5B
:1021B000030621EA4C5123EA4C5350EA013518BF7B
:1021C00052EA033541F4801143F4801338D0A0FB68
:1021D00002CE4FF00005E1FB02E506F00042E0FB15
:1021E00003E54FF00006E1FB03569CF0000F18BF1B
:1021F0004EF0010EA4F1FF04B6F5007F64F54074C3
:1022000004D25FEA4E0E6D4146EB060642EAC62155
:1022100041EA55514FEAC52040EA5E504FEACE2EC2
:10222000B4F1FD0C88BFBCF5E06F1ED8BEF1004FC5
:1022300008BF5FEA500E50F1000041EB045170BD41
:1022400006F0004646EA010140EA020081EA030185
:10225000B4EB5C04C2BFD4EB0C0541EA045170BD81
:1022600041F480114FF0000E013C00F3AB8014F1FB
:10227000360FDEBF002001F0004170BDC4F1000444
:10228000203C35DA0C341BDC04F11404C4F12005C5
:1022900000FA05F320FA04F001FA05F240EA020020
:1022A00001F0004221F0004110EBD37021FA04F656
:1022B00042EB06015EEA430E08BF20EAD37070BD10
:1022C000C4F10C04C4F1200500FA04F320FA05F06F
:1022D00001FA04F240EA020001F0004110EBD37071
:1022E00041F100015EEA430E08BF20EAD37070BDE1
:1022F000C4F1200500FA05F24EEA020E20FA04F3BA
:1023000001FA05F243EA020321FA04F001F0004168
:1023100021FA04F220EA020000EBD3705EEA430ED9
:1023200008BF20EAD37070BD94F0000F0FD101F008
:102330000046400041EB010111F4801F08BF013C41
:10234000F7D041EA060195F0000F18BF704703F07F
:102350000046520043EB030313F4801F08BF013D06
:10236000F7D043EA0603704794EA0C0F0CEA1355C2
:1023700018BF95EA0C0F0CD050EA410618BF52EA7C
:102380004306D1D181EA030101F000414FF0000082
:1023900070BD50EA410606BF1046194652EA430690
:1023A00019D094EA0C0F02D150EA013613D195EA04
:1023B0000C0F05D152EA03361CBF104619460AD14C
:1023C00081EA030101F0004141F0FE4141F4700156
:1023D0004FF0000070BD41F0FE4141F4780170BD46
:1023E00070B54FF0FF0C4CF4E06C1CEA11541DBFAB
:1023F0001CEA135594EA0C0F95EA0C0F00F0A7F8AD
:10240000A4EB050481EA030E52EA03354FEA0131D9
:1024100000F088804FEA03334FF0805545EA1313EC
:1024200043EA12634FEA022245EA111545EA1065B4
:102430004FEA00260EF000419D4208BF964244F14B
:10244000FD0404F5407402D25B084FEA3202B61A6A
:1024500065EB03055B084FEA32024FF480104FF43E
:10246000002CB6EB020E75EB030E22BFB61A7546B2
:1024700040EA0C005B084FEA3202B6EB020E75EB45
:10248000030E22BFB61A754640EA5C005B084FEAAD
:102490003202B6EB020E75EB030E22BFB61A75467A
:1024A00040EA9C005B084FEA3202B6EB020E75EB85
:1024B000030E22BFB61A754640EADC0055EA060E46
:1024C00018D04FEA051545EA16754FEA06164FEA89
:1024D000C30343EA52734FEAC2025FEA1C1CC0D135
:1024E00011F4801F0BD141EA00014FF000004FF0C2
:1024F000004CB6E711F4801F04BF01430020B4F183
:10250000FD0C88BFBCF5E06F3FF6AFAEB5EB030C3A
:1025100004BFB6EB020C5FEA500C50F1000041EB37
:10252000045170BD0EF0004E4EEA113114EB5C0404
:10253000C2BFD4EB0C0541EA045170BD41F48011D7
:102540004FF0000E013C90E645EA060E8DE60CEADF
:10255000135594EA0C0F08BF95EA0C0F3FF43BAFFC
:1025600094EA0C0F0AD150EA01347FF434AF95EAB3
:102570000C0F7FF425AF104619462CE795EA0C0F97
:1025800006D152EA03353FF4FDAE1046194622E764
:1025900050EA410618BF52EA43067FF4C5AE50EA3E
:1025A00041047FF40DAF52EA43057FF4EBAE12E72E
:1025B0004FEA410212F5001215D211D56FF478736B
:1025C000B3EB625212D94FEAC12343F0004343EA0E
:1025D000505311F0004F23FA02F018BF40427047E9
:1025E0004FF00000704750EA013005D111F0004073
:1025F00008BF6FF0004070474FF00000704700BF09
:102600004FEA4102B2F1E04324BFB3F5001CDCF114
:10261000FE5C0DD901F0004C4FEAC0024CEA50704C
:10262000B2F1004F40EB830008BF20F0010070477B
:1026300011F0804F21D113F13872BCBF01F000407E
:10264000704741F480114FEA5252C2F11802C2F1B0
:10265000200C10FA0CF320FA02F018BF40F0010031
:102660004FEAC1234FEAD32303FA0CFC40EA0C00E3
:1026700023FA02F34FEA4303CCE77FEA625307D120
:1026800050EA01331EBF4FF0FE4040F44000704757
:1026900001F0004040F0FE4040F40000704700BFF1
:1026A00070B50F4E0F4D761BB61018BF002405D025
:1026B000013455F8043B9847A642F9D10A4E0B4D18
:1026C000761B05F0C3FCB61018BF002406D00134F9
:1026D00055F8043B9847A642F9D170BD70BD00BFC4
:1026E0005880400058804000608040005880400082
:1026F00070B4860746D0541E002A41D0CAB20346A1
:1027000002E014F1FF343BD303F8012B9D07F8D10D
:10271000032C2ED9CDB245EA05250F2C45EA0545F7
:1027200019D903F110022646103E0F2E42F8105C14
:1027300042F80C5C42F8085C42F8045C02F11002BA
:10274000F2D8A4F1100222F00F0204F00F041032AC
:10275000032C13440DD91E462246043A032A46F898
:10276000045BFAD8221F22F003020432134404F05F
:1027700003042CB1C9B21C4403F8011B9C42FBD1D9
:1027800070BC704714460346C2E700BFF0B505466B
:1027900089B008460C4600F033F9AB6B214F049426
:1027A0000126441C04A9022203940590AC680697F4
:1027B00007960191029253B3636E13F0010FB4F9BF
:1027C0000C309AB201D1900525D5910406D4626EE1
:1027D00043F4005322F40052A3816266284601AA02
:1027E000214600F00BFC636E00280CBF0A254FF059
:1027F000FF35DA0702D4A3899B0502D5284609B024
:10280000F0BDA06D00F0A2FD284609B0F0BD28463D
:1028100000F06CFAD0E7A06D00F096FDB4F90C3032
:102820009AB2D2E7246C4000024B01461868FFF7C9
:10283000ADBF00BF7000002000290CBF02220022A3
:102840004FF4806300F000B82DE9F043614C256837
:1028500083B004460F4690461E4615B1AB6B002B65
:1028600064D0B8F1020F06D0B8F1010F00F29F80DA
:10287000002EC0F29C80636ED80734D521462846CE
:1028800000F0DCF9216B41B104F14003994202D020
:10289000284600F0CDFA00232363B4F90C3000225F
:1028A000A26162601A063AD423F44A6323F0030358
:1028B000B8F1020FA3811DD001AB6A46214628461C
:1028C00000F046FDA3891843A081002E32D1009E5E
:1028D000304600F0B5FD074600286BD0A38943F0D1
:1028E0008003A38128E0A3899905C7D4A06D00F0D7
:1028F0002BFDC3E70025616E002604F1430243F07F
:1029000002030120A660CE07A381226022616061DC
:1029100001D498053ED5284603B0BDE8F08321696F
:10292000284600F085FAB4F90C30BDE7284600F0DF
:10293000DDF996E7002FCBD0AB6B002B33D0009B9B
:10294000B4F90C2027609E421CBF42F40062A281B1
:10295000B8F1010F04BF42F00102A28192B212F05D
:102960000803276166610ED0D1071AD5656E7642DD
:10297000002315F00105A661A36009D000252846B3
:1029800003B0BDE8F083A360656E15F00105F5D1D5
:102990009305C0D4A06D00F0D9FC284603B0BDE873
:1029A000F083A660F0E7284600F0A0F9C7E74FF0F3
:1029B000FF35B0E7DDF80090B14504D0484600F09F
:1029C0003FFD074620B9B4F90C304FF0FF3592E7D0
:1029D0004E4683E770000020000000000000000069
:1029E00000000000000000000000000000000000E7
:1029F00000000000000000000000000000000000D7
:102A000090F800F06DE9024520F007016FF0000C2E
:102A100010F0070491F820F040F049804FF00004D6
:102A20006FF00700D1E9002391F840F000F10800B1
:102A300082FA4CF2A4FA8CF283FA4CF3A2FA8CF3E9
:102A40004BBBD1E9022382FA4CF200F10800A4FA50
:102A50008CF283FA4CF3A2FA8CF3E3B9D1E90423A4
:102A600082FA4CF200F10800A4FA8CF283FA4CF3DB
:102A7000A2FA8CF37BB9D1E9062301F1200182FA95
:102A80004CF200F10800A4FA8CF283FA4CF3A2FA9B
:102A90008CF3002BC6D0002A04BF04301A4612BAA9
:102AA000B2FA82F2FDE8024500EBD2007047D1E9AC
:102AB000002304F00305C4F100004FEAC50514F03B
:102AC000040F91F840F00CFA05F562EA05021CBF0C
:102AD00063EA050362464FF00004A9E7024B13B115
:102AE000024800F005B87047000000005D2D40006E
:102AF000002301461A46184601F02ABBB1F90C30F2
:102B00009AB22DE9F0410D46110780463AD46A6821
:102B100043F40063002AAB816FDDAC6A002C49D01E
:102B200000229BB2D8F80060C8F8002013F480524D
:102B300067D02A6D5F0705D569682B6B521A0BB1F8
:102B4000EB6BD21A0023E9694046A047441C3CD0F5
:102B5000B5F90C302A692A6023F400630022AB81A6
:102B6000DB046A6047D4296BC8F8006011B305F133
:102B70004003994202D0404600F05AF900202863F1
:102B8000BDE8F0812E69AEB12C682E6091070CBFB4
:102B90006B690023A41BAB600AE0234632466F6AD0
:102BA000E9694046B8470028A4EB0004064404DD68
:102BB000002CF2DC0020BDE8F081AB8943F040033B
:102BC000AB814FF0FF30BDE8F081D8F800401D2CFC
:102BD000F3D8194BE340DB4313F00103EDD1B5F912
:102BE0000C206B6022F400632969AB81DA04296050
:102BF000B9D5002CB7D12865B5E7EA6B002A8CDC83
:102C0000D8E70123E9694046A047431C024602D0A9
:102C1000AB89AC6A8EE7D8F80030002BF8D01D2BBA
:102C200001D0162B02D1C8F80060C3E7AB8943F08E
:102C30004003AB81BDE8F0810100402038B50D466E
:102C4000044608B1836BBBB1B5F90C0088B16B6E5B
:102C5000DB0701D4810517D520462946FFF74EFF33
:102C60006B6EDA07044602D4AB899B0507D5204674
:102C700038BD0446204638BD00F038F8E4E7A86DBA
:102C800000F064FB204638BDA86D00F05DFBE3E773
:102C9000014900F02BBB00BF3942400010B50023B2
:102CA00004468181C281036043608360436603619F
:102CB00043618361194608225C30FFF719FD07481C
:102CC0000749084A084B2062E4616162A262E3623C
:102CD00004F15800BDE8104000F032BBD53F400081
:102CE000F93F4000354040005540400010B50446D3
:102CF000124800F029FBA26BD2B904F53B731048CF
:102D0000C4F8E8320321C4F8E022E063C4F8E41216
:102D100060680421FFF7C2FF01220921A068FFF7C4
:102D2000BDFF02221221E068FFF7B8FF0123A36371
:102D30000248BDE8104000F009BB00BF64E9002074
:102D4000912C4000014800F0FFBA00BF78E9002054
:102D5000014800F0FBBA00BF78E9002038B50A4C02
:102D60000A4D641BA4100AD004F18043013B05EB1B
:102D70008305013C55F804399847002CF9D1BDE88A
:102D8000384005F06DB900BF708040006C80400095
:102D9000F8B5244F0C46064600F058FFBB685D6846
:102DA000C4F57E610F3125F00305294421F47F61CC
:102DB00021F00F01A1F58054B4F5805F07DB0021FD
:102DC000304601F0F5F8BB682B44984204D03046F9
:102DD00000F042FF0020F8BD6142304601F0E8F803
:102DE00001300DD0104BBA6819682D1B45F0010554
:102DF0003046091B5560196000F02EFF0120F8BD18
:102E00000021304601F0D4F8BA68831A0F2BDEDDBA
:102E1000064C0549246843F00103001B5360086019
:102E2000D5E700BFA404002018E90020AC0800206A
:102E3000002944D02DE9F0410D46804600F006FF00
:102E400055F8047C694927F00103A5F10804E2184C
:102E50008E685068B24220F003005ED0FE075060DA
:102E60000BD455F8087CE41B01F1080EA5687545E4
:102E70003B446DD0E768EF60BD6015186D68ED07E5
:102E80003ED543F001026260E350B3F5007F17D2F4
:102E9000DB08581C9A104D6851F83070A760012368
:102EA000934001EBC0022B43083AE2604B6041F8CB
:102EB0003040FC604046BDE8F04100F0CDBE7047B8
:102EC0005A0A042A52D89A0902F13907FF0002F17E
:102ED0003805C819CA59083890424FD0516821F0B6
:102EE00003018B4232D292689042F7D1C368A0604E
:102EF000E3609C60C4604046BDE8F04100F0ACBEB9
:102F000095683B4FBD42034440D0D068E86043F031
:102F1000010285606260E350B7E7FF07034407D40E
:102F200055F8082CA41A1344A068E268C2609060A7
:102F3000304A126843F00100934260608C60B9D35C
:102F40002D4B40461968FFF723FFB3E71046CDE746
:102F500011184968C90744D49168D268CA6003440B
:102F600043F0010091606060E350A3E7142A16D893
:102F700002F15C07FF0002F15B05AAE7AA1001233A
:102F80004D6893402B434B600346B0E743F001028A
:102F90004C610C61E560A5606260E3508AE7542AE9
:102FA00006D81A0B02F16F07FF0002F16E0590E7D9
:102FB000B2F5AA7F06D8DA0B02F17807FF0002F11A
:102FC000770586E740F25450824206D89A0C02F107
:102FD0007D07FF0002F17C057BE74FF47E777E25BD
:102FE00077E743F001016160136063E7A404002008
:102FF000AC040020B008002048E900209368002BB2
:1030000073D02DE9F04F8B8983B00C4619070090DF
:10301000164626D5226922B313F0020035682CD05B
:103020004FF00009B04FC846B246B84543464A463D
:1030300028BF3B460098B8F1000F50D0E169666A9E
:10304000B047002858DDDAF808301B1A8144A8EB95
:103050000008CAF80830002BE7D1002003B0BDE813
:10306000F08F2146009801F00FF8002840F03381DE
:10307000A389356813F00200D2D113F0010945D1BC
:103080004F46019637B39A05D4F8088040F1838003
:103090004745C346C0F0AB8013F4906F40F0AC805E
:1030A0002068BA465A46494600F06CFDA26823687B
:1030B000A2EB08025B44A2602360019A9368A3EB31
:1030C0000A03D144A7EB0A079360002BC5D0A3895C
:1030D000002FD8D1D5F800906F680835D2E7D5F821
:1030E0000090D5F8048008359FE7002070472146FE
:1030F0000098FFF7A3FD70B3B4F90C3043F0400320
:103100004FF0FF30A38103B0BDE8F08F8146334616
:103110004E46A8469A464D464EB380B32068236972
:103120006269B145CB4628BFB34698425F4604D991
:10313000A36813449B4500F3A68093454BDB1346DD
:10314000676AE16900982A46B847071ED4DDB9EBE3
:103150000709CCD00120DAF80830DB1B3D44F61B10
:10316000CAF80830002B3FF478AF002ED5D108F113
:10317000080313E9600098460833002EF9D0324660
:103180000A21284600F014FC002800F0A18001303C
:10319000A0EB0509C2E720682369984202D8636959
:1031A0009F425DD2B84528BFB8464246494600F026
:1031B000E9FCA3682268A3EB08034244A3602260F1
:1031C0000BB1C24679E721460098FFF737FD00288A
:1031D00092D1C24671E75A46294600F0D3FCA26854
:1031E0002368A2EB0B025B44A2602360AFE7206878
:1031F000B846BA46BB4655E762692068216902EBCA
:103200004208A0EB010A08EBD8780AF101004FEA66
:10321000680838444045424684BF804642465B05C4
:1032200044D51146009800F013F98346002855D084
:103230005246216900F00CFCA38923F4906343F00B
:103240008003A3810BEB0A00A8EB0A03C4F810B0BB
:10325000C4F814802060A360B846BA46BB4621E794
:103260006FF00041B94228BF39464A4691FBF3F15D
:103270000098666A03FB01F3E169B047B0F1000A08
:103280003FF71BAF38E71A462946019300F07AFC56
:103290002268019B00981A4422602146FFF7CEFC69
:1032A000019B00287FF428AF1F4650E7009800F0EC
:1032B000D9FC83460028C5D1009D21692846FFF727
:1032C000B7FDB4F90C300C2223F080032A6015E717
:1032D00006F1010922E74FF0FF30BFE6009A0C2308
:1032E0001360B4F90C3009E700FCFF7F2DE9F843C7
:1032F00010F538771FD0884606464FF000097D68E4
:10330000BC68013D11D4A389012B05F1FF3508D913
:10331000B4F90E3001332146304602D0C04749EAA5
:1033200000096B1C04F16804EDD13F68002FE6D161
:103330004846BDE8F883B9464846BDE8F88300BF73
:10334000704700BF704700BF704700BF704700BFA5
:1033500070B50C46B1F90E10002990B015461E4606
:1033600014DB01AA00F0CAFF00280FDB029A02F466
:103370007042A2F50052B2FA82F252094FF4806311
:103380004FF4006032602B6010B070BDA289002342
:1033900012F08000336004D0402218462A6010B03A
:1033A00070BD4FF480632B6010B070BD8A899207A6
:1033B0000B4606D501F1430201211A601A615961D9
:1033C0007047F0B583B001AB6A460C460646FFF77E
:1033D000BFFF00990546304600F03AF8B4F90C30CA
:1033E000D8B1019A154F0099F76343F08003A38188
:1033F0002060206161611AB92B43A38103B0F0BD45
:103400003046B4F90E1000F08DFFA0B1A38923F06F
:10341000030343F001031BB2EEE79A05EED423F059
:10342000030304F1430243F002030121A38122605C
:1034300022616161E2E7B4F90C30DDE7912C4000D4
:10344000024B0146186800F003B800BF700000206E
:103450002DE9F04F01F10B06162E83B0054640F220
:103460009E8036F0070600F1BD80B14200F2BA80BE
:1034700000F0ECFBB6F5FC7FC0F09382730A00F01D
:10348000B880042B00F27981B30903F1390003F10C
:10349000380EC300BF4F3B44A3F108015C68A14252
:1034A00006D10CE0002A80F2AA80E468A14206D08E
:1034B000636823F003039A1B0F2AF3DD70463C690F
:1034C000DFF8E4E2744500F0AB81636823F00303A6
:1034D0009A1B0F2A00F39081002AC7F814E0C7F85E
:1034E00010E080F29D80B3F5007F80F06181DB0801
:1034F00003F1010C99107A6857F83C80C4F80880F1
:1035000001238B4007EBCC0113430839E1607B605A
:1035100047F83C40C8F80C408210012494409C427B
:1035200000F28B801C4206D120F0030064001C4294
:1035300000F10400FAD007EBC009CC468046DCF865
:103540000C309C4507D16DE1002A80F27B81DB685D
:103550009C4500F06781596821F003018A1B0F2AFE
:10356000F2DDD3F80CC0D3F8088000939C192846EC
:1035700046F0010642F001055E60C8F80CC0CCF8C8
:1035800008807C613C61C4F80CE0C4F808E0656028
:103590005A5000F061FB009B03F108041EE0102963
:1035A00020D800F053FB102618230220794F3B440B
:1035B000A3F108025C68944200F03D816368E16811
:1035C000A66823F00303234428465A68F16042F0BA
:1035D00001028E605A6000F03FFB0834204603B0C1
:1035E000BDE8F08F00240C2320462B6003B0BDE81B
:1035F000F08F40204FF400734FF03F0E4AE7234412
:10360000E1685A68A66842F00102F16028468E60BF
:103610005A6000F021FB0834204603B0BDE8F08F6B
:10362000234428465A6842F001025A6000F014FB15
:103630000834204603B0BDE8F08FBC68636823F00F
:103640000308B04504D3A8EB06030F2B00F38580D5
:10365000DFF85891504BD9F800201B6801323344F1
:1036600004EB080A00F0558103F580530F3323F46F
:103670007F6B2BF00F0B5946284600F099FC411C3C
:10368000024600F0FC80824500F2F780434B196847
:103690005944196000F04D81D9F8000001301BBF7A
:1036A000A2EB0A0A5144C9F80020196012F0070180
:1036B00000F01581C1F10800C1F5805102440831C4
:1036C00002EB0B09C9F30B09A1EB0909494628468E
:1036D0000193009200F06CFC431C9DE80C0000F08C
:1036E0004381801A484440F001001968BA60494497
:1036F000BC425060196017D0B8F10F0F40F2FB8048
:103700006068A8F10C0222F0070204EB020E00F040
:1037100001004FF0050C10430F2A6060CEF804C082
:10372000CEF808C000F217811D4BBC681A689142A0
:1037300088BF19601B4B1A689142626888BF196084
:1037400022F003029642A2EB060301D80F2B04DC01
:10375000284600F081FA002440E7A21943F0010353
:1037600046F0010666602846BA60536000F074FABD
:103770000834204603B0BDE8F08F142B71D9542BC8
:1037800000F2A380330B03F16F0003F16E0EC30050
:1037900080E600BFA404002048E9002018E90020CA
:1037A00040E9002044E90020AC040020AC080020DF
:1037B0005A0A042A5BD9142A00F2AE8002F15C0195
:1037C000C9005B3207EB010C7958ACF1080C8C4551
:1037D00000F088804A6822F00302934273D289681D
:1037E0008C45F7D1DCF80C207B68E260C4F808C097
:1037F0009460CCF80C408FE6A11946F0010C42F021
:103800000106C4F804C0284679613961C1F80CE0AA
:10381000C1F808E04E60E25000F01EFA0834DDE620
:103820007B6879E608F1010818F0030F0CF1080C29
:103830007FF485AE2DE0DC68A34208BF02303FF480
:103840003EAEBBE619441C464A68DB6854F8086F74
:1038500042F001024A602846F3609E6000F0FCF9E5
:10386000BCE603F15C0003F15B0EC30012E69A09AB
:1038700002F13901C9003832A4E7BC4254D0BC6817
:10388000626822F003025DE759F80839994540F073
:10389000868010F0030F00F1FF30F5D17B6823EA3A
:1038A00004037B6064009C423FF6C7AE002C3FF4EB
:1038B000C4AE1C4240467FF43EAE64001C4200F1A0
:1038C0000400FAD037E68C468CE7B3F5AA7F15D80A
:1038D000F30B03F1780003F1770EC300DAE54FF440
:1038E0008051EDE67B689210012101FA02F2134348
:1038F0007B60624679E70123536029E740F2545226
:10390000934222D8B30C03F17D0003F17C0EC30077
:10391000C0E503F1100BAEE6542A29D81A0B02F1C8
:103920006F01C9006E324DE7204B19685944196088
:10393000B2E6CAF30B0000287FF4AEAE08EB0B032F
:10394000BA6843F001035360EEE67F204FF47E73C4
:103950004FF07E0E9EE504F1080128460093FFF724
:1039600067FA009B1968DFE601204FF00009BCE60A
:10397000B2F5AA7F05D8DA0B02F17801C9007732D7
:1039800020E740F254518A4205D89A0C02F17D0199
:10399000C9007C3216E74FF47E717E2212E77B6805
:1039A00080E7F00806F1080300E600BF18E90020F0
:1039B00001F0FF01102A2BDB10F0070F08D010F8E0
:1039C000013B013A8B422DD010F0070F42B3F6D1E4
:1039D000F0B441EA012141EA014122F007047FF0FD
:1039E00000070023F0E80256083C85EA010586EA54
:1039F000010685FA47F5A3FA87F586FA47F6A5FA90
:103A000087F68EB9EED1F0BC01F0FF0102F007029B
:103A100032B110F8013B013A83EA010313B1F8D146
:103A20000020704701387047002D06BF3546033827
:103A3000073815F0010F07D1013015F4807F02BF60
:103A4000013015F4C03F0130F0BC0138704700BFB1
:103A5000844641EA000313F003036DD1403A41D399
:103A600051F8043B40F8043B51F8043B40F8043B58
:103A700051F8043B40F8043B51F8043B40F8043B48
:103A800051F8043B40F8043B51F8043B40F8043B38
:103A900051F8043B40F8043B51F8043B40F8043B28
:103AA00051F8043B40F8043B51F8043B40F8043B18
:103AB00051F8043B40F8043B51F8043B40F8043B08
:103AC00051F8043B40F8043B51F8043B40F8043BF8
:103AD00051F8043B40F8043B51F8043B40F8043BE8
:103AE000403ABDD2303211D351F8043B40F8043B88
:103AF00051F8043B40F8043B51F8043B40F8043BC8
:103B000051F8043B40F8043B103AEDD20C3205D397
:103B100051F8043B40F8043B043AF9D2043208D08F
:103B2000D2071CBF11F8013B00F8013B01D30B8801
:103B300003806046704700BF082A13D38B078DD0DF
:103B400010F003038AD0C3F10403D21ADB071CBFB1
:103B500011F8013B00F8013B80D331F8023B20F81B
:103B6000023B7BE7043AD9D3013A11F8013B00F854
:103B7000013BF9D20B7803704B7843708B788370DC
:103B8000604670478842F0B50DD98B1898420AD22A
:103B90008418002A51D0224613F8014D02F8014D35
:103BA0009942F9D1F0BD0F2A48D941EA00039B0799
:103BB00046D100F1100401F11003154653F8106CC2
:103BC00044F8106C53F80C6C44F80C6C53F8086C07
:103BD00044F8086C103D53F8046C44F8046C0F2D45
:103BE00003F1100304F11004E8D8A2F1100323F04C
:103BF0000F0302F00F0E1033BEF1030F19440344FC
:103C000021D91E1F0D467446043C55F8047B46F826
:103C1000047F032CF8D8AEF1040424F00304043428
:103C20002144234402F0030262B1013B0A4411F82B
:103C3000014B03F8014F8A42F9D1F0BD0346F3E787
:103C40000346F2E7F0BD7246EEE700BF0148FFF71A
:103C50007BBB00BF68E900200148FFF777BB00BFCE
:103C600068E90020002900F095802DE9F04F0D460D
:103C7000164683B0804606F10B07FFF7E7FF55F8BD
:103C800004EC162F2EF00304A5F108093CD81022ED
:103C90001746BE423DD8944243DAC44B996809EBBB
:103CA0000400884200F0B480436823F0010101441D
:103CB0004968C9074CD51EF0010F00F09B803146C2
:103CC0004046FFF7C5FB064600283AD055F8043CAD
:103CD00023F001034B44A0F108029A4200F0218135
:103CE000221F242A00F20781132A00F2DB800346F8
:103CF0002A46116819605168596092689A6029468D
:103D00004046FFF795F81CE027F00707002F3A46DA
:103D1000BFDA00260C233046C8F8003003B0BDE8F7
:103D2000F08F2E46E31B0F2B1ED8D9F8043003F07A
:103D3000010323434C44C9F80430636843F0010392
:103D400063604046FFF788FF304603B0BDE8F08F60
:103D500023F00303E11891421FDBC36882682E46FB
:103D6000D3600C469A60DDE7D9F8042009EB07011F
:103D700002F001024C4443F001031743C9F80470F8
:103D80004B60636843F00103083163604046FFF70E
:103D90004FF8D6E71146FFF75BBB1EF0010F8ED13F
:103DA00055F8081CA9EB010ADAF8041021F0030108
:103DB0000B442344934225DBC26881685646CA609F
:103DC0009160DAF80C1056F8080F221F242AC160FF
:103DD000886000F29480132A6FD92968CAF8081005
:103DE0006968CAF80C101B2A00F2A28008350AF193
:103DF000100263E055F8083CA9EB030ADAF8041056
:103E000021F0030163189342FFF659AF5646D8E7F5
:103E1000416821F0030BA34407F11000834556DAF3
:103E20001EF0010F7FF44BAF55F8081CA9EB010AF7
:103E3000DAF8041021F003018B445845E2DC5646C1
:103E4000DAF80C1056F8080F221F242AC160886087
:103E500000F28F80132A40F28A802968CAF808107D
:103E60006968CAF80C101B2A00F28A8008350AF12A
:103E700010022968116069685160A96891600AEBB5
:103E80000701ABEB070242F0010299604A60DAF8E1
:103E9000043003F001031F434046CAF80470FFF7E3
:103EA000DBFE51E72B6803606B6843601B2A2DD84B
:103EB00000F1080305F108021BE73246296811608A
:103EC00069685160A96891601C46D1462AE709EBF0
:103ED0000701ABEB070B4BF0010299604A6055F804
:103EE000043C03F001031F43404645F8047CFFF700
:103EF000B3FE2E4628E72946FFF744FEFFE6294693
:103F000030461C46D146FFF73DFE0BE7AB688360A9
:103F1000EB68C360242A17D000F1100305F11002EA
:103F2000E7E650F8043C23F003031C442E46F9E670
:103F3000A968CAF81010E968CAF81410242A0CD02D
:103F400010350AF11802B9E72B6903616B69436107
:103F500005F1180200F11803CBE62A69CAF8182007
:103F60006A69CAF81C2018350AF12002A6E7324611
:103F70007FE7294630460193FFF704FE019B7EE769
:103F8000A968CAF81010E968CAF81410242A03D0E6
:103F900010350AF118026CE72A69CAF818206A6914
:103FA000CAF81C2018350AF1200262E7A404002098
:103FB00038B5074C0023054608462360FCF7CCFEC5
:103FC000431C00D038BD2368002BFBD02B6038BDCC
:103FD0007CE9002010B50C46B1F90E1000F0CAF9CA
:103FE000002803DB236D0344236510BDA38923F45C
:103FF0008053A38110BD00BF2DE9F0411646B1F9F1
:104000000C201F46D3050C46054607D50022022387
:10401000B1F90E1000F098F9B4F90C20B4F90E10B3
:1040200022F48052A2813B4632462846BDE8F04148
:1040300000F014B810B50C46B1F90E1000F084F978
:10404000A389421C0EBF23F4805343F480532065A0
:10405000A38110BDB1F90E1000F0DCB870B50D46AB
:10406000084C114606461A46284600232360FCF7F2
:104070009BFE431C00D070BD2368002BFBD0336037
:1040800070BD00BF7CE9002038B5304B1B68054689
:104090000C4613B19A6B002A38D0B4F90C2093B2B5
:1040A00018070CD52069A8B113F001021ED063696E
:1040B00000225B42A361A260F0B1002038BDD906A6
:1040C0003CD5580726D4206942F00803A3819BB24F
:1040D0000028E9D103F42072B2F5007FE4D028462D
:1040E0002146FFF763F9A3892069DDE7990758BFE7
:1040F0006269A2600028E0D1B4F90C301A06DDD55F
:1041000043F04003A3814FF0FF3038BD1846FEF75F
:10411000EDFDC2E7216B51B104F14003994204D097
:104120002846FEF785FEB4F90C2000232363002304
:104130002069636022F024022060C5E742F040025B
:1041400009232B604FF0FF30A28138BD70000020A2
:104150002DE9F8432C4D0646286898460F469146AF
:10416000FFF7F2F8294B1C68D4F84831002B3ED0F9
:104170005A681F2A1CDC02F1010E76B103EB8201A2
:104180000124C1F88890D3F8880194402043022E7E
:10419000C3F88801C1F8088123D00232C3F804E0D3
:1041A000286843F82270FFF7D1F80020BDE8F883B3
:1041B000174B0BB34FF4C870FFF742F90346D8B161
:1041C000D4F848210260002141600A46C4F8480141
:1041D0004FF0010EC0F88811C0F88C11002EDCD011
:1041E000CCE7D3F88C110C43C3F88C41D5E704F528
:1041F000A673C4F84831BBE72868FFF7A7F84FF06B
:10420000FF30BDE8F88300BFA004002048804000D4
:104210004134400038B5074C00230546084623606A
:10422000FCF7B6FD431C00D038BD2368002BFBD043
:104230002B6038BD7CE9002070B559B105460C46AD
:1042400010B1836B002B3CD0636ED80705D5B4F951
:104250000C302BB90026304670BDA38999053CD59A
:1042600021462846FEF74AFCE36A064633B1E16977
:10427000284698470028B8BF4FF0FF36A3891A0692
:1042800022D4216B41B104F14003994202D0284667
:10429000FEF7CEFD00232363616C21B12846FEF7B3
:1042A000C7FD00236364FEF74DFD636E0022DB074C
:1042B000A2810ED5A06DFFF745F8FEF749FD304607
:1042C00070BDFEF713FDBFE721692846FEF7B0FD7C
:1042D000D7E7A06DFFF73AF8ECE7A06DFFF734F8E9
:1042E000B4F90C30002BBBD1666E16F00106B1D1CB
:1042F000A06DFFF72BF8304670BD00BF38B50B46F8
:10430000074C05461146184600232360FCF743FD81
:10431000431C00D038BD2368002BFBD02B6038BD78
:104320007CE9002038B5074C002305460846236089
:10433000FCF736FD431C00D038BD2368002BFBD0B2
:104340002B6038BD7CE9002070B50D46084C114645
:1043500006461A46284600232360FCF723FD431C2B
:1043600000D070BD2368002BFBD0336070BD00BF50
:104370007CE9002070B50D46084C114606461A46E9
:10438000284600232360FCF737FD431C00D070BD96
:104390002368002BFBD0336070BD00BF7CE9002098
:1043A000417564696F20436F64656320496E697469
:1043B00069616C697A65640D0A00000049325343F3
:1043C00020496E697469616C697A65640D0A000040
:1043D000000000000000E0410B808CBC0800A0B988
:1043E000C7998BBC96ECD83AA3EC88BC14BF563B5B
:1043F000088A84BCA55E9E3B491B7DBC9F39CE3B91
:10440000DC3A6EBC4408FA3BE5CF5CBC2080103C33
:10441000C44549BCD13C213C041434BCE9F92E3CD0
:1044200003B91DBC138C393CF4B606BCABDD403C73
:104430004C20DFBB1DEF443CCA85B1BBA4D6453C34
:10444000468C85BB5ABD433CDF1738BB39DF3E3C49
:10445000B907D7BAC187373C9B5F1ABADE0F2E3C2B
:1044600072B9AD39C8D8223C6B7D913A5B4B163C92
:104470000640E43A8CD2083CE9C7113B5DB1F53BFC
:104480003FEA273B8788D93BCEFD343BDBE9BD3B88
:1044900040B3393B4F81A33B91EC363B73E38A3BFE
:1044A00080B22D3B2B14693BFB281F3BCFA3413B24
:1044B00087830C3B25F31F3B0FF4ED3A7143043B1C
:1044C000FE79BF3A7E37DD3A4ED78F3AD79BBD3A59
:1044D000E22D423AB0F7A83A0300D439EE3D9E3AB5
:1044E0007EBAD03860229C3AB7172DB9322AA13A49
:1044F000FC08C9B963C0AB3A33C410BA8F47BA3AA3
:104500002CD02FBA622BCB3A6E1142BA5BF0DC3A58
:104510001D7B48BAE942EE3A717244BA2201FE3A72
:1045200014B437BA95A1053BBD3624BA9EB00A3BF8
:104530001E0E0CBA54FA0D3BB89BE2B9426B0F3B0E
:10454000DADEABB9500E0F3B9AE86EB992080D3B1C
:10455000E7BF10B9C095093B11F683B8DF02053BF0
:10456000B921BBB6AE50FF3A0DC1073839C8F33A8E
:10457000D8C254384A29E83A439D54380824DD3AD1
:104580001D631138D154D33A810ECB367B3ACB3AE6
:10459000E1EF01B84D31C53A9F8C96B8F46DC13A40
:1045A000F3EFE9B883FBBF3A969F18B91FBDC03A35
:1045B000C2B331B9006FC33AF6553CB928ADC73A1A
:1045C000E38835B968F6CC3A025D1BB9C8B7D23A70
:1045D0002214DAB8E651D83A3FEC2BB80623DD3A7C
:1045E000C6D724382390E03A91D50C39A50CE23A8D
:1045F00032397C397123E13A6377B9399A7ADD3AF5
:10460000AAFAF539C4DBD63A3D7F183A2634CD3ABA
:10461000A0EA333A8A97C03AB9F64B3AA93FB13A81
:1046200008795F3A1B889F3A04746D3A5FED8B3AC4
:104630007223753ACA076E3A6806763AA3E6423A9A
:1046400089E56F3A5EDC173A1BD6623A24A7DC395B
:104650007D394F3A78588F3946B9353AEDAC14392F
:10466000BC3F173A6484FD3726DBE9396ABD72B86E
:104670009B1AA03985BEFBB8B71228393C6A22B90B
:1046800060AA8837C3092AB9421EFEB873A815B9B3
:10469000157B81B922AECEB8A7E3BAB9D9CF08B895
:1046A000C3B4E9B915E15638BA2B06BAE7A71B39E6
:1046B0002ADD10BABD26853956AE14BA3707BE3981
:1046C000F9A811BAEF9FF5399F1F08BADC98143A80
:1046D0009D53F1B97B182B3A1439C8B9EE2F3D3AE6
:1046E000860197B9A8F2493ABF1E40B96CAF503A5B
:1046F0000BEE97B8F5F6503AC0382438209F4A3A66
:10470000D68F193981C33D3A6534803974C32A3A4A
:104710007E72AC39473C123A9177CF39C104EA39FD
:104720005A9BE739B12DA839DFA6F33935734239E1
:10473000D0DDF239CECB3C38D702E53910C2C8B84B
:10474000C856CA39665573B90D92A339C07CBCB935
:1047500007B36339AE84F8B914C2DA382AF615BA49
:10476000CBA2C1B7529B2ABA5A0129B929A639BA94
:10477000F85BA0B9EBC042BA757AEDB9EDCC45BA99
:10478000CADA1CBAEEE042BA298341BA26463ABADE
:10479000B9CB63BA8F722CBA0B7581BA42021ABABE
:1047A000141D8FBA22AF03BA2CA19ABA6E90D4B955
:1047B00065DAA3BA4C509DB9A4B7AABA91B146B96B
:1047C000453DAFBA6661A1B87083B1BA72F31038D3
:1047D00014B2B1BAAB451539E2FFAFBA0D0080395A
:1047E00049AEACBAA53DB1396B04A8BA02A4DD3913
:1047F000C84DA2BA835E023ADDD49BBAA429133A0B
:1048000079E194BA5736213AB4B48DBA13A22C3A4E
:10481000ED8686BA1CA0353A710E7FBAB2743C3A66
:10482000D6B171BA7F6F413A6C2865BA12E6443A44
:10483000818C59BAA82E473A86E34EBA319B483A42
:10484000ED2045BA6E75493AAB293CBA50FB493A5E
:10485000D6D733BAC15C4A3ACCFE2BBA81BA4A3AAF
:10486000616F24BA9D254B3AF1FB1CBA7DA04B3AEF
:104870007D7B15BACB1F4C3A10CD0DBA848D4C3AC6
:1048800096D905BA1FCB4C3A9D2AFBB90BB54C3AC9
:10489000FF00EAB9C4254C3ACE4DD8B92FF94A3AAF
:1048A000013EC6B96D0F493A4610B4B9854F463A34
:1048B0007210A2B919A9423A8A9290B9FB153E3AF0
:1048C000CADA7FB9889A383A87E960B9B845323A86
:1048D000B0E844B94E302B3A71562CB94D7B233A8F
:1048E000EE8F17B91C4E1B3AB8CC06B97BD4123ADE
:1048F0003A38F4B8B63B0A3AC2C9E2B83BB0013A1A
:1049000066D0D8B87DB6F2396B8BD5B82BC1E239F9
:10491000ED04D8B803B9D3392424DFB86BC6C53940
:104920007CBDE9B830FEB83976A6F6B84763AD3934
:10493000C16402B9DAE5A239C99A09B90967993996
:10494000D59610B9ABBA9039031917B903AC8839A9
:1049500099041DB9C0018139805F22B9DF04733920
:10496000845227B942F46339FA232CB9397B54397C
:10497000E83231B95F5D443985EF36B9FA7D3339B4
:1049800011D23DB9D3E42139EE5046B922BD0F39D9
:10499000C1D750B9DDAEFA38B4BC5DB98B4AD63850
:1049A0004D3A6DB9F564B33805667FB9E33E933887
:1049B000AB168AB9F5596E38DAA895B91C0A413890
:1049C000F434A2B939102138D171AFB91C9A10381A
:1049D0000B04BDB9735911388982CAB9F3622438FE
:1049E000037AD7B9D7124A386973E3B931FC8038F2
:1049F00006F9EDB9DB69A538AA9CF6B90849D138A2
:104A0000F6FDFCB935980139886700BAA7B11C39A1
:104A100003ED00BA80F03839CC0100BAD73D5539E2
:104A20002E4EFBB9097870398BDAF3B9EEBF8439B1
:104A30003AE7E9B9B1A28F39B0CEDDB9D76A983972
:104A40001704D0B9A2B29E39EC0DC1B9B42DA23968
:104A50002881B1B914ADA2392AFAA1B90C21A03923
:104A60003F1693B9109B9A39FF6B85B9EC4C92397C
:104A70003D0A73B9E1868739A7AE5FB970697539A8
:104A8000FD7E51B9B9B0583906FB48B9AC073A397F
:104A9000C46046B915A81A3976AC49B91BA0F738D5
:104AA0006E9652B9056ABD38A79760B91FEB883872
:104AB000BDF072B968303838FC5884B9EB1BE23766
:104AC000D56390B95FE37A3764039DB983000A37F1
:104AD000B79DA9B9FE53E536AE9BB5B9EFD43137D2
:104AE000D06FC0B94146A037E49CC9B988110538D8
:104AF0001BBCD0B9A0DD4738D080D5B98D478A38E6
:104B000095BCD7B94D66B3386060D7B91F09DD3899
:104B1000B37CD4B9B1790239CE40CFB98A86143981
:104B2000E9F6C7B9EEBB23392101BFB94A542F3981
:104B300006D3B4B9FABB36393CECA9B9EE9639398B
:104B4000A3D19EB931C53739C40694B99E613139B4
:104B5000D5068AB906C12639D13E81B93E6B1839CE
:104B6000801074B996130739224B69B9B61BE73820
:104B7000607B62B9C785BD381FB95FB9BC4993383E
:104B80005AE360B9868254382CA465B90E470838B8
:104B90003C776DB9F8BE8937C0B077B906E84A36B8
:104BA00018C481B90200F5B6771288B9E9B970B7AF
:104BB000D1538EB98FE597B7951D94B9F6699DB716
:104BC000510E99B997088CB7AFD49CB9A35E50B772
:104BD000BD319FB987B1DDB60340353D0100F8BA5C
:104BE00051CBA4BB981F11BC5688623D04D2B4BC03
:104BF000B941E3BCCEA588BD33535ABC37D38EBC74
:104C0000733317BD6DE298385D50DF3D746124BC8D
:104C1000586ECEBC0F976CBE107434BEB5F27CBD1E
:104C2000E65A14BE45B703BDF73D1ABE6363DE3DC9
:104C3000595BE73CB7D9833D213A49BDD36E0FBDDF
:104C4000B974A7BD5A7A993C2BDF53BD462E133D4C
:104C5000B0E18EBD63B25DBC5AA01DBEBC23B33DA6
:104C6000655C4C3CCF103E3E179FE23D8151933C2A
:104C70009227E4BC8000A3BDB22DE3BDA6530D3D39
:104C80006CAB1EBDCE40AB3DF15D6FBCB32CB33DF4
:104C900067E1613D2F726A3D8046083CAD60A5BC6E
:104CA000B3FB04BD7E21BF3CAC4D0ABCDBB9BA3CB2
:104CB000871448BDDEBE583C201259BD9725C53D1E
:104CC000E65F463D7024D03DA92E953D740BDD3C3A
:104CD000B9520F3D45D409BDD6762EBD4B8C8A3BCB
:104CE000A7F1813C9B43483D448CB23B3F26E73AC9
:104CF000E140CC3AEF32083DEAF7333C85B6773CE9
:104D0000CBC6393CD63CE23CFBB5903CDB6C2C3C42
:104D1000398F943C0C4DA33CA76BF73C1D8813BC0A
:104D200041069BBB85A88CBC96E766BCCE60DF3B8A
:104D30004C74713BFEB4763C571D9C3ACD2B8DBA1A
:104D40004A3BFBBB6A06273CDA622FBA2B4E353C46
:104D5000C78600385122533C2BC5693B5320333C56
:104D6000D310D93B30860F3CDD8FE33A6D60023BB8
:104D7000133F5D3A5283083C10A0B63A670F933A4E
:104D80005068E1BB67B4D53BF2A051BB630E5D3CFC
:104D90002A53CC3B6075643C6DE0D03B9AE1923B7A
:104DA00002B1913BD550933B21C0D0B9CC99A139E8
:104DB000949BD1BAB990033CABFD463AF001B63BA7
:104DC0008A2F283B6EB5163C15E2953B07045F3BE6
:104DD0000AEDA43B04928F3B65EEEF3AF0B594BB2D
:104DE0000C6DA9BB88867F3BDA032D3881896C3B2B
:104DF0004C95AEB946DC903B2323F3BA3EAFC439A1
:104E000076896ABB66370C3CC5AB4D3B268D723B41
:104E1000AA9C93BA5C87B03BA4BA6B3BC6817C3B2F
:104E20005592693B4F1C653B7B24B13BE713A2BB0A
:104E3000EC3897BB5D8490BB85F99FBB2BB45EBB00
:104E40000F2730BCD60D083B083097BB7AC2923B87
:104E5000D6040DBCAAF3A83B8C5C22BBDE47243CE5
:104E6000E9AE8C396496BD3B29B1DD387842503BC0
:104E7000AFEE33BBF2BE1E3B388082BBB34A613B10
:104E80000A7C8BBBC50EF83B0CE9AE3A41D6D33B4E
:104E9000C6DD59BA891C8D3BEFD1D13A62239C3BC8
:104EA000B3B2A0385DB2E03A21A6BEB987EE443B6A
:104EB000544D8BB70C59BC3AEA39D0BAD69A9C3AC1
:104EC000D5619EBAF818AC3AE38557BB02485ABA86
:104ED00008A4CCBB86470F3B81FFB5BB5049843B40
:104EE000BC62A1BB2594DB3BAE4339BB4022DC3B1B
:104EF00055CF93BAB27B173C74138C3BEE96A63B0E
:104F00006E9FD3B706FBE93A7888E9B9444B433B37
:104F1000A6AF0CBBCF53993B22614E3BA7F7C33BD7
:104F20005194F83A9550003A19F89B3A5A4E5F3B23
:104F30002BBF6B3BEA64A1BA8CFCF2BA2B73EBBAC1
:104F4000F5F086BAA1BD17BAD8D8A1BB227D66BA42
:104F5000E03B5EBB39B39F3B90CAA03A44FC223B86
:104F600079011BBA3565C0BAE30BA4BB8D6C9D3AC1
:104F7000098E893A047F703B33FC06BB096991BBFB
:104F80007911F9BB9CE03C3B32DC08BB916D913B55
:104F90000C878CBAE8F77D3BBF021B3AC93BC93A84
:104FA0005E17FF3834B7843910A823BBA52F67BB21
:104FB00012CFE5BB25DEE83AF24D2ABBDF211C3BD0
:104FC000D136A7BB011D3D3B5817BFBAAE7C9A3BFB
:104FD0004FC323BADBB1473B0F00A83A0500303A74
:104FE000525E2FBBF4F714BBABF294BB3DD0393A01
:104FF0006EE64ABB3AE4873AA010AABB876574BA4A
:10500000EB9B0BBC4A09833B0CA55DBBE75EF53B04
:1050100016C436374E44BF3BFC55FC3A2801BD3A16
:10502000559D3CBB8C6152BA61BA77BB83CAF03ADA
:10503000734185BBA76D2A3BB38E53BB4D16563BC0
:105040004B738EBBC0679C3BF9852D3A1774CA3BE6
:10505000206E2FBA15DA593AD2C804BB698DA43B29
:10506000DD21E63A6C0E0C3BB2C4B9BAC6FFBA3ABF
:105070008DA7B2B80075E23A0346D1BA0A5E993AF2
:10508000C7DB84BAF7C6D63A7BC5CFBABDE4203BAE
:1050900072FCED3A3C80873ACC133EBB2DF310BB3B
:1050A00091F93ABBA24B343BDEE496BAC6B3A839B9
:1050B000AF5932BBCC0F963A44F923BB67EFAD3AF8
:1050C000E78FC4BA35ADFB3A2C1F34BB53D67AB93F
:1050D000ECA66FBBA680553BA47973BAF9EC083BEC
:1050E0008F07F0BAB704E83A5836F7BA37E6763A97
:1050F000A66C2ABBEDAD333BB787BAB9BAE9BF3A64
:10510000B0D42BBBC5393F3A219B1ABB8E5C123BF6
:10511000D26DCBBA9B971A3BA4E59BBACA6DDA3A1B
:105120000047AFBAE903D13A63C5DBBAB54E9E3A40
:105130002970BABA1C39FB3A0914D2BAA5E57B3AF0
:105140008F0ACEBA0FC2123B8A2A91BAC64A7F3A58
:105150004F35A3BAD7340C3B7BBF26BAF11CFA37C4
:10516000035E28BBA752DC3AFE8B01BA38349F3A63
:10517000C2F4FFBA668B9C3A942F25BA9829B53AA7
:10518000FB408FBA5942703ADB6B29BA60479039BD
:10519000DFF201BBF2195C3950F7E8BA2AC1793A5B
:1051A000F4FD92BA8BD39C3AB7ED9CBAFEA68CB9AB
:1051B000FCDD1EBB542C863A857B86BAF9FA603A30
:1051C0004A9CB2BAAD7F3E3A212B8DBA34CD8AB912
:1051D000C32017BB8733B53968EEDFBA014269399E
:1051E000C03906BB864F7B3AFFE89BBA01CDABB90D
:1051F000321142BBB8DD073AE4F5C3BA1C0ED1390F
:10520000AAB63CBBB81E2B3AF8ABBEBAA00A3A3AD3
:10521000B42D39BB22422A3A7417B4BA5DC4983A05
:10522000C7B012BB50FA043A3128B2BAC0456F3A3F
:105230009B790BBB5F14E938F1950ABBDE433A3A20
:10524000E09617BB829B803AEE5FB4BA36F2803AA2
:10525000033803BB6BEDF73999ACDDBA977C813A23
:10526000073FB3BA3F12283ACCEAE3BA3EC382B949
:10527000E7B141BB68A6833A6C1DA0BA773CB93A46
:1052800001AAD1BAF7AA523AC06657BA9068613AF1
:105290005EBF9ABA23FB3D399C6279BA059014B778
:1052A00085F3E3BA57A4D3B9811AE7BA569B0339F9
:1052B000C647B4BA40D1EE38AF8ECABA867F85BA37
:1052C000193F47BBFF4707B75980BEBAAE56E6390C
:1052D0009A0A0EBBFECF23BA91B527BB003F23B875
:1052E0005A6526BB8560053AD60AECBA605E653918
:1052F0008FC729BBF63D193960C3FCBABD44303AAB
:10530000F744F0BA829D87386B0816BB1B913DB9F4
:1053100008B625BB41EC203A0615F2BA4CB4033965
:1053200054E42DBBE07A043A8E3ADFBA8F41D33988
:10533000F7FB2CBB76BFD0396CF5CDBAA565453AE5
:10534000ABF218BBFAFFFF3449E113BBAFB4793AB3
:10535000988DE7BA63C9873A1CDB84BA85F6373A79
:1053600082A0ABBAF79A7138A955AABADDD73537FA
:105370009018B9BA784382B93F21D8BA47DB2ABA24
:105380006CA00EBB8AC38AB9889FFFBA057C01BA9C
:1053900033062DBBD6173737D066EEBAFE633B38DF
:1053A000D6B723BB1198F1B864DD09BBBAF1AF39A8
:1053B000757206BBA7A0B2394CD3D2BA01CE34382D
:1053C0008A0305BB0EA8B1B7B811E4BAE76383B985
:1053D000DEB51DBB3C36B1B8EE3FB2BCF0FF213BA1
:1053E0006BCC353C049FB0BC83533ABDB47721BC31
:1053F000F66EA0BB323292BCB803583B91C22B3D33
:105400002541F83D271628BEA6B624BED0BCC7BD90
:105410000ADA343E86C73EBE3D2800BFB7410DBF05
:105420004C1B22BF8579AF3EC841B9BD73828E3E09
:10543000E8161ABEF2967B3E8190113D5265783E89
:10544000F0A69B3DC72D063E937F5C3DFA8271BC62
:105450006C26DFBDC566713D96D9C63DA4F6A73D55
:105460009D67ECBDEC8A59BE8123C1BECF833B3E14
:105470008EDCE43CF914983E9D642BBDC06C8CBC62
:105480007784CBBE9355513E008B3CBDCFBD4B3F87
:1054900070EA2F3FD34DAA3E0CE9603E87FE29BE3D
:1054A000BB422F3E378C123E0BEE973E12C946BDD3
:1054B000A0A54B3EC3A01CBE3E27F7BB40BF4FBEBE
:1054C00083CD2FBDEE9F9D3C7358703D5BC356BC92
:1054D0004E935E3DCAA5F1BCE60E93BB47BBA0BD93
:1054E000BF04B8BC4414B83CA362773CCCAC0EBC3F
:1054F000440D703CAF16CE3CB7A2833CEEFCACBC76
:10550000EFAED03B09DD253D0572243D8B402BBC21
:105510006A0B993CA1210D3D6521953D8DADF1BCF6
:10552000C93038BC0A9EC2BC20DBE83CFF688F3B18
:1055300031186D3C14DF9ABC849E8F3BADA905BC2D
:1055400031C8273CADF0D33BC317813CE82168BB91
:10555000F72DA93C25B50A3CA94ADB3C0C0F90BCB1
:10556000CAF7313CCF62EFBB88FD543C4A7F8ABC0E
:105570000DA0E73B8F0B9CBA89F83D3C8ECA8DBCD1
:1055800068E6653A857DBB3B6952CA3C57024EBC12
:10559000F2C73CBB9D5A47BC74852D3CC1350EBA41
:1055A000D003443C36C332BC5FDC14BAB2A753BC50
:1055B000F5A1873BB446943BC16A513C350C00BC15
:1055C00055302A3C19F191BBE54D343CB46484BCA0
:1055D000046C8B3B48814FBC25CD7EBB20AE81BC8B
:1055E00018DD6E3B4DFE02393687F73AAA39CABC40
:1055F000CAC598BCEA9F37BBDD59A2BB995A3E3B4E
:1056000089BBD53A977C053C59675F3B3D9F60BBA2
:10561000BB0C013C296E053C25B1243C92B38BBCEC
:105620006BAFF0BBA49C5C3B2C01823C60B4A2BB82
:105630003A3725B9883977BCCC9310BCE5230CBC2C
:105640005FB3E0BA5F90BA3B9C446F3ADAAB0DBCF3
:10565000DE7D06BB25B4023CD7FD3E3C14153BBCA9
:1056600055EF17BC1651D1BB6B5B1CBB752472BBCD
:10567000D2A4D6BB9B099F3B28978C3B504471BA60
:105680002AB24EBB26F0983BB6943D3C5EA935BA93
:1056900049FDBD394488EDBBF17B023BD564A1BB1C
:1056A000998572BB82CFC9BB2AB7A3BBFEAF0237B5
:1056B000F9D9273B188A263B54A0D1B8F99AC8BB20
:1056C000DFAAA9BA8451833AB7FD40BB9D5AA6BB55
:1056D00095A373BA3B6A123CF3122D3C3DA902BC60
:1056E0001067F2BB9E4E07BC8033EBBBB7E522BA16
:1056F0003A0151BB2510C83B2318453AEB9478B9C1
:105700008823ECB974CA8A3B1CDB7B3A2376F9BA4E
:105710001ECB593A1526C23B34419A3B4B30C5BB90
:1057200070B4A1BB4275563B77E2AC3BBB13AFB93B
:10573000EA36B0BA9A10AD3AFE5CBC3BC09B07BAE1
:10574000A755993A71E03CBB7C581D3A52B02DBB2D
:10575000C6AE653B49F1ECB905918E392D7043BC5D
:10576000EBD536BCBE91EDBA0571F9BB37FD173BE1
:1057700082218ABB385E4B3CF9E4D93B96FCBA3BAC
:10578000C07BC33BAEE6A93BC503EB3B32846FBB9A
:10579000C7374A3B3A2C643BD24B313C76CADDBB1F
:1057A000E1B358BAC3CD90BB35B7C23B65BDDEBBD4
:1057B0009A24B7BBCBF7E7BBB7C382BAA3F4AD3922
:1057C000A1F6783A1854E1BA5D561B3B43F157BB3A
:1057D000FDBFC93AD27307BC0D0030BCFEFFEABB67
:1057E000FCA3F3BA8A19083C0BD6553BF22408BC3B
:1057F00078EB02BCB99800BAF3AC24BB791333BA86
:10580000E12C21BB5833BA3B0868AE3BEE2B66BB9C
:10581000A9347FBBDC272ABB33D29CBAAA9127BB11
:105820008B0B34BB9A0E273A55EB6DBACE9BB3BBAC
:10583000DCE210BCCC2F9C3ADCECD5BAD0F1303B8A
:105840005FC300BBE11E703B94BDE73A6AF60739BF
:105850005457193ABE259CB851990BBB9382D5BBBE
:105860007EDF03BCB7444B3B166898BA5839B43A4C
:105870004F773FBB6486993B641DD03A364DA7BA3B
:10588000ED8FA4BB6878F53A049F13BB863A8B3A38
:10589000255281BB6E420A3C0AFFD83B0F24353BA0
:1058A000AEE406BAB61A4339983DE03A4865123A72
:1058B0004EAB033AFB93F83AB5204E3B928D4DBB6D
:1058C00026CC6EBB606330BB1E84C6BB20D642BAFA
:1058D000277981BBDB021B3C0E7EA83BE0C2B23ABB
:1058E000C9B920BB07F0333BB79A713BF959383B34
:1058F0000C291A3B68228D3A761A0A3B9DD459BB73
:10590000692504BBA3A19238047B27BBF52A36BBCB
:105910004750A1BBECCA003CEBB2D23B1CF28D3A23
:10592000BE2037BBFE42CDB86EE7103A9C89C83A1C
:10593000A96484BA8B29813BF3514A3BD6B483389E
:105940004D37C3BAA516463B4E7A5F3B004405BAB5
:10595000547163BB1D503A3B658D973B9303513B9C
:105960009442AC3A9D1BAA39915CE53A39C8D2BA47
:10597000E6C05DBBDF243C3B2E15613B75A9783B3F
:105980009D38313B64624A3BC3D7D33B402BB4BA0A
:10599000007583372FD40ABB3724A43A646172BAE6
:1059A000D796B8B9925E923A86A8083B62D2D0B92F
:1059B00075E85D3AF710E03AB679293BA53C29BB7A
:1059C000DD55D5BAA039293BE662A53B80D836BA69
:1059D000E5D701BA56B41CB99266833B97E2AABADE
:1059E00000FF0ABAD671DBBA71F0493AA7BB00BB17
:1059F0004076CDBA661EF13A12586F3BE85E92BA15
:105A00007B7D94BA46CFB5384EA9603BE510ABBA62
:105A1000B1CBA6BAFB5764BAC7DD3D3BE01388BAE9
:105A200084BD2FBAA1D420BB65FD28BA6BC8ECBADF
:105A3000A3CE4ABAB331733ACD60203AB06846BBC0
:105A4000A69226BB1E4BE53A1945033B90FE30BBA0
:105A5000E2FD9FBB53C1423A9A1B7C3A3C2AA33ACF
:105A60002071FABAA73F183BC0530E3BF4A78D3AFA
:105A7000512AB1398D00593BFA5BC43B39B2B8BAEF
:105A80009DA680B9D1B3D5BA102A2B3BA4654DBBD6
:105A900047D92EBBF2F783BA7118D43A740907BB01
:105AA0001E2561BB853ADAB918A65A3A91A241BAC5
:105AB0000BF939BB4B1C9A3A2621093B56075BBAB6
:105AC0009B4666BBC12C5D3A21591F3B8A583A3A26
:105AD000D917F9BACC5AB939AAAAE13A02169BB930
