:020000040040BA
:10000000F85C002079034000750340007503400050
:1000100075034000750340007503400000000000B8
:100020000000000000000000000000007503400018
:100030007503400000000000750340007503400098
:1000400075034000750340007503400075034000D0
:1000500075034000750340007503400075034000C0
:1000600075034000D1074000000000007503400008
:1000700075034000750340007503400075034000A0
:10008000F106400075034000750340007503400011
:100090007503400075034000750340007503400080
:1000A0007503400075034000750340007503400070
:1000B00075034000750340000000000000000000D0
:1000C0000000000000000000000000000000000030
:1000D0000000000000000000000000000000000020
:1000E0000000000000000000000000000000000010
:1000F0000000000000000000000000007503400048
:10010000750340007503400010B5054C237833B9E2
:10011000044B13B10448AFF300800123237010BDDA
:10012000E809002000000000804040000C4B43B173
:100130000C480D4910B5AFF300800C48036823B993
:1001400010BD0A48036833B97047094B002BF7D03C
:10015000BDE810401847064B002BF5D0184700BFEC
:100160000000000080404000EC090020804040007A
:100170000000000008B57C4B4FF498125A60002232
:100180005A631B6A13F4807F0ED06FF07F43764969
:10019000013B0A6A12F4807F03D0002BF8D10020C3
:1001A00008BD002B00F0CC806F4B05225A631B6A00
:1001B00013F4807F0ED06FF07F436B49013B0A6AD6
:1001C00012F4807F03D0002BF8D1002008BD002B53
:1001D00000F0B880644B00225A631B6A13F4807FDE
:1001E0000ED06FF07F436049013B0A6A12F4807FB2
:1001F00003D0002BF8D1002008BD002B00F0A48014
:10020000594B38225A631B6A13F4807F0ED06FF06B
:100210007F435549013B0A6A12F4807F03D0002BCB
:10022000F8D1002008BD002B00F090804E4B012239
:100230005A631B6A13F4807F0DD06FF07F434A49E5
:10024000013B0A6A12F4807F03D0002BF8D1002012
:1002500008BD002B7CD0444B2A225A631B6A13F43E
:10026000807F0DD06FF07F433F49013B0A6A12F453
:10027000807F03D0002BF8D1002008BD002B69D06F
:10028000394B31225A631B6A13F4807F0DD06FF013
:100290007F433549013B0A6A12F4807F03D0002B6B
:1002A000F8D1002008BD002B56D02F4B0B225A63EB
:1002B0001B6A13F4807F0DD06FF07F432A49013B06
:1002C0000A6A12F4807F03D0002BF8D1002008BD09
:1002D000002B43D0244BFF225A631B6A13F4807F08
:1002E0000DD06FF07F432049013B0A6A12F4807FF2
:1002F00003D0002BF8D1002008BD002B30D01A4BC2
:10030000FF225A631B6A13F4807F0CD06FF07F4387
:100310001549013B0A6A12F4807F03D0002BF8D103
:10032000002008BDF3B102220F4B1A601A46136A6F
:1003300013F0010FFBD00D480D4B9847012008BD6D
:10034000002008BD002008BD002008BD002008BD19
:10035000002008BD002008BD002008BD002008BD09
:10036000002008BD002008BD00C600408C3E4000B3
:10037000550C4000FEE7000008B5174B174A9A429B
:1003800010D0174B144A9A420CD2013B9B1A23F00F
:10039000030304331344114951F8040B42F8040BCE
:1003A0009A42F9D10F4B104A9A420AD2013B9B1A4A
:1003B00023F0030304331344002142F8041B934247
:1003C000FBD10A4A0A4B23F07F039360094B9847FD
:1003D000094B9847FEE700BF000000208040400026
:1003E000E8090020F82A0020E809002000ED00E0DC
:1003F00000004000F11F400009054000014A024B87
:100400001A60704700127A000000002030B4029D8C
:100410004FF08044C4F80801C4F80C51C4F8180126
:10042000C4F81C51C4F80021C4F80451C4F81021C8
:10043000C4F81451074A9160D5609161D561136089
:1004400055601361556140F20113C4F82031136205
:1004500030BC70470002004070B582B01F4C656828
:1004600045F4C02545F01F056560256F25F4C025BE
:1004700025F003052567656F25F4C02525F00305E4
:100480006567256F45F01C052567656F25F01C0520
:1004900065674FF08044802525604FF4C446666050
:1004A000069E00960E4EB04765610E4A002382F804
:1004B00010334FF4803111602360236843F001034F
:1004C0002360236843F010032360236843F0040390
:1004D00023600548054B984702B070BD000E0E40E2
:1004E0000D04400000E100E0A83E4000550C400033
:1004F000044A136843F470031360BFF34F8FBFF3D4
:100500006F8F704788ED00E0F0B58DB0574B98477E
:10051000574B9847574A584B1A60584A03F521637E
:100520001A601A465649536913F0800FFBD08B6E40
:1005300013F0800FF7D0524B00229A62514A9A6210
:100540009A6E12F0020FFBD04D4B1A6B22F0700224
:100550001A639B6E13F0080F09D14FF40063484AE9
:1005600001E0013B21D0916E11F0080FF9D0444A0F
:10057000136B23F0030343F002031363936E13F032
:10058000080F09D14FF400633D4A01E0013B0CD054
:10059000916E11F0080FF9D03B4AD36923F4F05360
:1005A00043F0B44343F4C853D361384B4FF0254272
:1005B0001A604FF400425A60354B9847354B9847C4
:1005C000354B9847354B9847354B9847354B9847AF
:1005D000354B1968C1F303513448354B98474FF4F4
:1005E00080730093334B344A34493548354CA04727
:1005F0003548364B9847364B03F1200400220092D1
:100600002246012108A8334DA8474FF07A5303939F
:10061000002304934FF03E4305932F4B06932F4B3B
:1006200007930522214603A82D4B9847203C234FD2
:10063000204E0AE04FF480733A46314608A8294D0F
:10064000A847002384F8343000BF94F83430002BDE
:10065000FAD094F83530002BECD14FF48073224A55
:10066000224908A81F4DA847EBE700BFFD03400043
:10067000F104400000050004000A0E40080000A537
:1006800000040E40013F4D0E10140E4050140E4059
:1006900061094000E9084000950B400085084000D2
:1006A000C90A40007501400088ED00E0BC3E4000F2
:1006B000810C4000B80E0020B81A0020B80A0020B3
:1006C000B816002059044000C83E4000550C4000B8
:1006D000080A002089174000D7B3DDBF0000603F43
:1006E000C10D4000C50F4000B8120020C4260020F4
:1006F0002F4B93F836304BBB4FF080439B6813F081
:10070000800F44D02A4B93F835308BB929494FF0EC
:100710008043C3F818114FF48072C3F81C21C3F84A
:100720001011C3F814210122214B83F836207047A1
:1007300021494FF08043C3F818114FF48072C3F879
:100740001C21C3F81011C3F81421ECE7012B1ED1B2
:100750004FF080439B6813F0800F18D0144B93F830
:100760003530ABB9154B1B68154A9A614FF480724E
:10077000DA61144919615A6101220D4B83F8352061
:100780000B4B002283F83620012283F83420704777
:100790000A4B1B680C4A9A614FF48072DA610B496C
:1007A00019615A610022024B83F83520E8E700BF47
:1007B000080A0020B81A0020C41E002004000020EF
:1007C000B80A0020B80E0020B8120020C42600206D
:1007D00008B5264B9B69DAB2612A1CD0662A1AD06A
:1007E000DBB2303B092B21DDD2B9214B1B78BBB1E9
:1007F0001F4B1B78DBB21F4A0021D1545379DBB267
:10080000612B1CD01B4B5B79DBB2662B22D0002204
:10081000184B5A7104E0174B5A710022144B1A708E
:10082000124A136843F48073136008BD10480378BC
:10083000DBB2591CC9B201700E49CA54F0E7104628
:100840000D4B984707EE900AF8EEE77A0B4BC3ED95
:100850000E7ADCE70748084B984707EE900AF8EE57
:10086000E77A074BC3ED017AD1E700BF00020240EF
:10087000B81E0020BC1E0020E91F4000080A00200E
:1008800004000020064BD3F8E42122F00102C3F853
:10089000E421044AC3F8E4210122C3F81C21704773
:1008A00000020E400054414D28B9064A536B43F0F4
:1008B000805353637047034A136B43F080531363B1
:1008C000704700BF000E0E4028B9064A536B43F034
:1008D000006353637047034A136B43F00063136371
:1008E000704700BF000E0E4010B5184BD3F8E4203F
:1008F00022F00102C3F8E420D3F8E420144C224390
:10090000C3F8E420134AD2F8E40020F00100C2F852
:10091000E400D2F8E4102143C2F8E4104FF0FF31B4
:10092000596051601A6842F0F0421A601A6942F048
:10093000F0421A615A6B42F0F0425A630020064BB3
:1009400098470120054B984710BD00BF000E0E4090
:10095000004F495000100E40A9084000C90840004F
:100960001F4BD3F8E42022F00102C3F8E420D3F8AF
:10097000E4101C4A0A43C3F8E4201B4A1A614FF4EE
:1009800000725A6004225A641A46936E13F4007F70
:10099000FBD0134B1A6842F400721A605A6842F492
:1009A00080525A6044221A651A46936E13F4805F8F
:1009B000FBD00B4B1A6842F480521A604FF480420D
:1009C0005A6040F654129A651A46936E13F4804F9B
:1009D000FBD0034A136843F480431360704700BFA1
:1009E00000040E4000434D50001B01000A4B1B68E1
:1009F00053B1094B1B681A180849914208DB10468D
:100A0000054A106018467047054A034B1A60F0E724
:100A10004FF0FF30704700BF4C0A0020FC7F0220DF
:100A2000F85C00204FF0FF3070474FF400534B60EC
:100A300000207047012070470020704701380228CD
:100A400015D82DE9F0410E4614469AB10D46DFF84F
:100A500038800C4FD8F8000015F8011B3B68984708
:100A600000280ADBA81B013CF4D1BDE8F0814FF05F
:100A7000FF3070471046BDE8F0814FF0FF30BDE811
:100A8000F08100BFC82A0020CC2A00202DE9F041C7
:100A900080B90C469046002A0FDD8F18084E094D8C
:100AA000306821462B6898470134BC42F8D1404653
:100AB000BDE8F0814FF0FF38F9E78046F7E700BF67
:100AC000CC2A0020C42A002008B5194BD3F8902066
:100AD00042F4C062C3F890205A6E42F4C0625A6673
:100AE0005A6842F4C0625A601A6F22F4C0621A67F0
:100AF0005A6F22F4C0625A6703220E4B1A6003F544
:100B0000C063D3F8E42022F00102C3F8E4200A4ACB
:100B1000C3F8E420094A1A61094A1A6002225A6499
:100B20004FF498125A600748074B984708BD00BF1A
:100B3000000E0E4000C00040004957540101130050
:100B400024000001F83E4000550C4000044BD961E0
:100B50001A46536913F0020FFBD00020704700BF04
:100B60000002024010B403460848002200F8312F6A
:100B7000074CB3FBF1F201FB1233E35C00F8013DDB
:100B80001346002AF5D15DF8044B7047500A002047
:100B90000C3F400038B51E4B5A6842F00C025A60B8
:100BA0001A6F22F00C021A675A6F22F00C025A6771
:100BB0000122A3F541231A60164B102183F8091373
:100BC0004FF400711960144B9A60D3F8E42022F0BE
:100BD0000102C3F8E420114AC3F8E42082221A6219
:100BE0000F4A5A6050221A600E4A13600E4A0F4B89
:100BF0001A600F4D2B68002198680E4CA0472B6897
:100C000000215868A0470C480C4B984738BD00BFDE
:100C100000100E4000E100E0000202400041535588
:100C2000C0080800CC2A00204D0B4000C82A002034
:100C30003800002089214000203F400079214000F9
:100C4000034BD8611A46536913F0020FFBD070476B
:100C5000000202402DE9F04106460024064FDFF86D
:100C60001C8001E0705DC047E5B23046B8470134F2
:100C7000A842F7D8BDE8F08141234000410C400074
:100C80000FB42DE9F04182B008AB53F8044B019347
:100C90002378BBB1474DDFF82481474F07E0019B24
:100CA0001A1D01921878A847B41CB37853B1207864
:100CB00025287DD030B1A84714F8010F25282DD064
:100CC0000028F8D102B0BDE8F04104B07047019BA4
:100CD0001A1D01920A211868C047B847E4E7019B32
:100CE0001A1D019208211868C047B847DCE7019B2C
:100CF0001A1D01921868B847D6E7019B1A1D019288
:100D000010211868C047B847CEE7019B1A1D019211
:100D100010211868C0474130B847C5E726467378A8
:100D2000583B202BC0D801A252F823F00B0D4000F5
:100D3000A90C4000A90C4000A90C4000A90C4000DF
:100D4000A90C4000A90C4000A90C4000A90C4000CF
:100D5000A90C4000A90C40009F0C4000CF0C4000A3
:100D6000A90C4000A90C4000A90C4000A90C4000AF
:100D7000A90C4000A90C4000A90C4000A90C40009F
:100D8000A90C4000A90C4000DF0C4000A90C400059
:100D9000A90C4000A90C4000EF0C4000A90C400039
:100DA000A90C4000A90C4000A90C4000FB0C40001D
:100DB0002646B4E7410C4000550C4000650B40004E
:100DC0002DE9F84F5FEA92092DED048B904683469A
:100DD0008A467ED09FED7A9A00F1100401F1100549
:100DE0004E46F6EE008ABEEE008A6FF0004754EDE4
:100DF000047A67EE897AF5EEC07AF1EE10FAD4BF84
:100E0000B0EE487AB0EE687A77EE277A17EE900A5D
:100E100000F0C8FCB1EBE07F18BF87EAE17045F84D
:100E2000100C54ED037A67EE897AF5EEC07AF1EE94
:100E300010FAD4BFB0EE487AB0EE687A77EE277A2F
:100E400017EE900A00F0AEFCB1EBE07F18BF87EA26
:100E5000E17045F80C0C54ED027A67EE897AF5EEF4
:100E6000C07AF1EE10FAD4BFB0EE487AB0EE687AEC
:100E700077EE277A17EE900A00F094FCB1EBE07F52
:100E800018BF87EAE17045F8080C54ED017A67EE67
:100E9000897AF5EEC07AF1EE10FAD4BFB0EE487A56
:100EA000B0EE687A77EE877A17EE900A00F07AFC57
:100EB000B1EBE07F87EAE17378D0013E45F8043C6E
:100EC00004F1100405F1100591D14FEA0919CA4443
:100ED000CB4418F0030865D0DBED007A9FED387A3B
:100EE00067EE877AFEEE006AF5EEC07AF1EE10FA50
:100EF000B6EE007AD8BFB0EE667A77EE277A17EEB4
:100F0000900A00F04FFCB1EBE07F1CBF6FF0004097
:100F100080EAE170B8F10108CAF8000042D0DBEDC8
:100F2000017A9FED277A67EE877AFEEE006AF5EE8A
:100F3000C07AF1EE10FAB6EE007AD8BFB0EE667A5B
:100F400077EE277A17EE900A00F02CFCB1EBE07FE9
:100F50001CBF6FF0004080EAE170B8F1010FCAF8E1
:100F600004001FD0DBED027A9FED157A67EE877AD9
:100F7000FEEE006AF5EEC07AF1EE10FAB6EE007AF7
:100F8000D8BFB0EE667A77EE277A17EE900A00F0B7
:100F900009FCB1EBE07F1CBF6FF0004080EAE1701C
:100FA000CAF80800BDEC048BBDE8F88F013E45F897
:100FB000040C04F1100405F110057FF418AF84E768
:100FC0000000004F2DE9F04FAFB0067B2892D0E92A
:100FD00001470078279098082A90944603F003026E
:100FE0002A9B2291A6F11F011B011D916146751CD0
:100FF0002C93CB18C5F120002D93531E2993CDE9D6
:10100000200007F11403269304F120031C902B9277
:1010100016902593A946269B53F8142C129253F848
:10102000102C53F8081C53F8040C139253F80C2C92
:10103000259B149253F8202C159253F8108C53F8DA
:10104000182C53F804AC249153E903CB2A9B23902A
:101050000892002B00F08B83229A1E930446C5173A
:101060001032CDE900450D920C46CD17289A1D98F7
:10107000DDF870E0CDF81890CDE9024510324FEA66
:10108000EA730E921A93CDF828B0CDF810A0CDF8DF
:101090005C801090DDE902891798179C0D9DACFBD0
:1010A00008AB4FEAEC760CFB09F3A0FB080106FB4A
:1010B00008335A461A4404FB0913194655F8107CA4
:1010C0001C97CC17129987FB0101159FB846139FF7
:1010D000C7FB0801089FB846149F13EB0A03C7FB20
:1010E0000801DDE900890D930A9B93465F46A3FB47
:1010F00008AB03FB09BB0D9BCDF824B044EB0707FD
:101100001B1847EB0104049F1A980D954A4607FBEC
:1011100002F7049A414600FB0177A2FB0101394422
:101120005F46FF171BEB000B41EB0707109A069970
:101130001BEB030344EB070703FA02F207FA01F083
:1011400023FA0EFE0746169C104340EA0E02DDE924
:10115000028923FA04F404928B400E9A10932743D9
:10116000049B42F8107C55F80C0C4FEAE37E03FB1D
:1011700009F7109BA3FB08AB034655F8080C089031
:10118000049A18934446A2FB0401CDE91A010EFB10
:10119000047708461099019A38441B9001FB09B75F
:1011A000DDE9009ADDE91AAB1C981997ACFB0945FB
:1011B0000CFB02F2CDE90A4506FB092217EB0A04F3
:1011C0004FEAE7768046159F1398129D88FB000131
:1011D000B846149FC5FB0301C7FB08010B9B179F73
:1011E000DDE9008913440B935A460A9BA7FB08AB21
:1011F00007FB09B846EB0202241842EB01064246FF
:1012000018EB03080B9B4FEAE27242EB03031A460A
:1012100018EB040846EB0202069EA6F1200002FA33
:1012200006FC08FA00F0C6F12001DDE9023428FAD4
:1012300001F14CEA000C4CEA010C08FA06F1179196
:1012400008990CFB04F7179C4FEAEC76894606FBDD
:10125000037789FB05011F96A4FB0345019E049BB0
:1012600003FB06FB189EB146139EC6FB0901009EB8
:10127000A3FB069ACDE90A9A82461C9881461498E7
:101280000EFB06BE8B46C0FB09AB0298ACFB00010F
:101290000B463B440B9F7744CDE904010B9717990C
:1012A000039F059301FB0757049B01993D46E817EF
:1012B000FF18059D109B45EB0000A3FB064503FBB3
:1012C0000153DDE90A5617EB0A0740EB0B004FEA22
:1012D000E37A5B194AEB060ADF19069E169B4AEB76
:1012E000000000FA06F127FA03F4049128FA03F843
:1012F0002143B2400E9C42EA080244F80C2CA6F1AD
:101300002003049A44F8081C07FA03F31A430D9BC0
:101310000492C6F1200053F8042C049B159227FA7E
:1013200000F00343049307FA06F3DDE902450A934C
:10133000049BDF1738461A972F4603FB07F70A9BD3
:101340001299139EA3FB04AB82FB0145DDE9022346
:101350000499A1FB028900FB027748463844CDE995
:1013600010890899119018460A9B149AC6FB0145EA
:1013700003FB00B8189E17994046A946A046C2FB39
:101380000689DDE900231F9E0CFB03FEACFB024532
:1013900006FB02EE109A4FEAE07C8218009847465E
:1013A000C846A1FB009A019801FB00A611994CEBDD
:1013B000010CD01975444CEB080CF317361945EBAA
:1013C00003033218069E159F0D9D43EB0C0C0CFA7F
:1013D00006F0169B1D9E22FA03F302FA06F1034360
:1013E00040EA010C2098069E22FA00F4F9173846CC
:1013F00005F110070E9D0D9745F8043C05F110030B
:101400000E9302FA06F31D9A089E17931092DDF8C8
:1014100084E01E9F4FEAE678013F4CEA040C354613
:1014200003460C4646461E977FF434AECDE902349F
:101430002C9A229BDDF81890DDF810A0DDF85C8076
:10144000DDF828B0CDF870E01344CDE90E01229309
:101450002D9B0A932B9B002B00F05B81229B249AEF
:101460001B68D5171F4614464FEAEC710CFB05F3B9
:10147000CDE9044502FB0133A8FB02451091ACFB0A
:101480000212CDE90212039A0598239C0D971A4483
:10149000129B039208FB0051384680FB03231598EA
:1014A000074613982546C0FB0723E617CDE9062318
:1014B000CDE90056089D029B039ADDE90667AE461A
:1014C000149DC5FB0E67DDE90045CDE90667239E47
:1014D000069CCB184FEAE17142EB01014FEAEA703A
:1014E0000AFB05F2374606FB00223046ABFB0767D6
:1014F0001B190BFB057E079C169E1C9DAAFB00ABCF
:10150000774644EB010193441EEB0A0E4FEAE77263
:1015100042EB0B021D9C1EEB030E42EB01010EFA87
:1015200004F301FA09F02EFA06F201460A9C184368
:101530002EFA05F311431843DDE90E56069021609B
:101540000D9C2999A2464FEAE47B0EFA09FECDE9EB
:1015500002AB002900F0F980DDE904AB229D00FB1D
:101560000BF16E680E96C51724981795AEFB0023F5
:1015700000FB051104460698129AA0FB04450D4491
:101580000EFB0B310B46D81786FB02230D9EB3468C
:10159000139EC6FB0B239B46159B1F46149B92462E
:1015A000C3FB07AB109B091945EB00001F46DDE9A3
:1015B0000045239BCDE908AB089AA8FB03AB08FBC9
:1015C00005B48918A3462246099C0CFB05F640EB9E
:1015D000040403FB07662046ACFB03453544D317E0
:1015E0001BEB040245EB030351181D9A1C9E169C2D
:1015F0000A9D43EB000000FA09FA01FA02F3504693
:1016000021FA04F24AEA030A01FA09FB21FA06F375
:101610000E9910434FEAE17868600D462999012937
:101620004AEA030A464600F09680249A2299129CC0
:1016300089681091ABFB0278CDE90278DDE9047886
:1016400003990AFB08F34FEAEA700BFB081102FB4F
:101650000030AAFB02784044CDE9047805900E984A
:10166000109B0746139883FB0423C0FB0723239892
:10167000069CAEFB0078CDE908780198049F04FB36
:1016800000F49846C817149BC91917460D9AC3FB56
:101690000278CDE90278019F179A239BBC46099FE7
:1016A0000EFB0C7E059FCDF824E047EB0000029F67
:1016B0009446C91903FB0C44039F1A46069B47EB4B
:1016C0000000A3FB0223774623441EEB020E4FEAE1
:1016D000E77443EB04041D9A1EEB010E44EB00007B
:1016E0000EFA02F300FA09FC169C60464CEA030C61
:1016F0001C9B2EFA03F32EFA04F24CEA030C0A9C0C
:10170000109B1043A060D9171846CDE902010EFACC
:1017100009F8DDE90212259B43E9081243E9065660
:1017200043F8108C43F804AC43E903CB20332593F2
:10173000289B269A2293279B1432013B26922793BB
:101740007FF469AC2FB0BDE8F08FC346E246F046A7
:10175000DDF818C0DDE7DDE90212D846CDE9025612
:10176000D4460D46F346DDF818A01646D1E7159B82
:101770001946DA17089B1D46DE17289B0A93CDE908
:101780000E12CDE9021265E610B504469DF8080078
:10179000A26021704A0120730021184600F050FC1D
:1017A000606010BD07EE900AF5EEC07AF1EE10FA17
:1017B00001D400F009B808B580F0004000F004F84A
:1017C000404261EB410108BDD0B500F087F900222D
:1017D0000E4B06460F4600F0D5F900F0E5FB044637
:1017E00000F05AF900220A4B00F0CCF902460B46F1
:1017F0003046394600F012F800F0D6FB23460022AE
:1018000042EA000210461946D0BD00BF0000F03D7C
:101810000000F04181F0004102E000BF83F000438E
:1018200030B54FEA41044FEA430594EA050F08BF7B
:1018300090EA020F1FBF54EA000C55EA020C7FEA3F
:10184000645C7FEA655C00F0E2804FEA5454D4EBBC
:101850005555B8BF6D420CDD2C4480EA020281EA86
:10186000030382EA000083EA010180EA020281EABE
:101870000303362D88BF30BD11F0004F4FEA013110
:101880004FF4801C4CEA113102D0404261EB41011F
:1018900013F0004F4FEA03334CEA133302D05242A5
:1018A00063EB430394EA050F00F0A780A4F1010461
:1018B000D5F1200E0DDB02FA0EFC22FA05F280189B
:1018C00041F1000103FA0EF2801843FA05F3594181
:1018D0000EE0A5F120050EF1200E012A03FA0EFC00
:1018E00028BF4CF0020C43FA05F3C01851EBE3712A
:1018F00001F0004507D54FF0000EDCF1000C7EEB47
:1019000000006EEB0101B1F5801F1BD3B1F5001F84
:101910000CD349085FEA30004FEA3C0C04F10104A3
:101920004FEA445212F5800F80F09A80BCF1004FCC
:1019300008BF5FEA500C50F1000041EB045141EA4E
:10194000050130BD5FEA4C0C404141EB010111F44F
:10195000801FA4F10104E9D191F0000F04BF0146FA
:101960000020B1FA81F308BF2033A3F10B03B3F1D8
:1019700020020CDA0C3208DD02F1140CC2F10C0268
:1019800001FA0CF021FA02F10CE002F11402D8BFC6
:10199000C2F1200C01FA02F120FA0CFCDCBF41EA92
:1019A0000C019040E41AA2BF01EB0451294330BD61
:1019B0006FEA04041F3C1CDA0C340EDC04F114043E
:1019C000C4F1200220FA04F001FA02F340EA030015
:1019D00021FA04F345EA030130BDC4F10C04C4F15B
:1019E000200220FA02F001FA04F340EA030029463B
:1019F00030BD21FA04F0294630BD94F0000F83F485
:101A0000801306BF81F480110134013D4EE77FEA67
:101A1000645C18BF7FEA655C29D094EA050F08BFB3
:101A200090EA020F05D054EA000C04BF1946104694
:101A300030BD91EA030F1EBF0021002030BD5FEAD8
:101A4000545C05D14000494128BF41F0004130BD00
:101A500014F580043CBF01F5801130BD01F0004554
:101A600045F0FE4141F470014FF0000030BD7FEAC7
:101A7000645C1ABF194610467FEA655C1CBF0B46C2
:101A8000024650EA013406BF52EA033591EA030FD9
:101A900041F4002130BD00BF90F0000F04BF0021D1
:101AA000704730B54FF4806404F132044FF0000504
:101AB0004FF0000150E700BF90F0000F04BF00217D
:101AC000704730B54FF4806404F1320410F00045E3
:101AD00048BF40424FF000013EE700BF42004FEADE
:101AE000E2014FEA31014FEA02701FBF12F07F435B
:101AF00093F07F4F81F06051704792F0000F14BF58
:101B000093F07F4F704730B54FF4607401F000459B
:101B100021F0004120E700BF50EA010208BF7047F2
:101B200030B54FF000050AE050EA010208BF7047E7
:101B300030B511F0004502D5404261EB41014FF450
:101B4000806404F132045FEA915C3FF4DCAE4FF054
:101B500003025FEADC0C18BF03325FEADC0C18BF3B
:101B6000033202EBDC02C2F1200300FA03FC20FA8C
:101B700002F001FA03FE40EA0E0021FA02F11444D9
:101B8000C1E600BF70B54FF0FF0C4CF4E06C1CEAEE
:101B900011541DBF1CEA135594EA0C0F95EA0C0F63
:101BA00000F0DEF82C4481EA030621EA4C5123EAD6
:101BB0004C5350EA013518BF52EA033541F4801105
:101BC00043F4801338D0A0FB02CE4FF00005E1FBB8
:101BD00002E506F00042E0FB03E54FF00006E1FB02
:101BE00003569CF0000F18BF4EF0010EA4F1FF0445
:101BF000B6F5007F64F5407404D25FEA4E0E6D4185
:101C000046EB060642EAC62141EA55514FEAC52095
:101C100040EA5E504FEACE2EB4F1FD0C88BFBCF511
:101C2000E06F1ED8BEF1004F08BF5FEA500E50F1C2
:101C3000000041EB045170BD06F0004646EA010188
:101C400040EA020081EA0301B4EB5C04C2BFD4EBBA
:101C50000C0541EA045170BD41F480114FF0000EB3
:101C6000013C00F3AB8014F1360FDEBF002001F021
:101C7000004170BDC4F10004203C35DA0C341BDC9B
:101C800004F11404C4F1200500FA05F320FA04F06D
:101C900001FA05F240EA020001F0004221F00041A1
:101CA00010EBD37021FA04F642EB06015EEA430E14
:101CB00008BF20EAD37070BDC4F10C04C4F1200544
:101CC00000FA04F320FA05F001FA04F240EA0200F7
:101CD00001F0004110EBD37041F100015EEA430EC8
:101CE00008BF20EAD37070BDC4F1200500FA05F2E8
:101CF0004EEA020E20FA04F301FA05F243EA020367
:101D000021FA04F001F0004121FA04F220EA020075
:101D100000EBD3705EEA430E08BF20EAD37070BDBB
:101D200094F0000F0FD101F00046400041EB01019B
:101D300011F4801F08BF013CF7D041EA060195F07D
:101D4000000F18BF704703F00046520043EB030337
:101D500013F4801F08BF013DF7D043EA0603704724
:101D600094EA0C0F0CEA135518BF95EA0C0F0CD02F
:101D700050EA410618BF52EA4306D1D181EA030175
:101D800001F000414FF0000070BD50EA410606BF6F
:101D90001046194652EA430619D094EA0C0F02D1B4
:101DA00050EA013613D195EA0C0F05D152EA0336F9
:101DB0001CBF104619460AD181EA030101F0004117
:101DC00041F0FE4141F470014FF0000070BD41F060
:101DD000FE4141F4780170BD70B54FF0FF0C4CF43A
:101DE000E06C1CEA11541DBF1CEA135594EA0C0F59
:101DF00095EA0C0F00F0A7F8A4EB050481EA030EA6
:101E000052EA03354FEA013100F088804FEA03338C
:101E10004FF0805545EA131343EA12634FEA02225A
:101E200045EA111545EA10654FEA00260EF000411B
:101E30009D4208BF964244F1FD0404F5407402D26D
:101E40005B084FEA3202B61A65EB03055B084FEAFE
:101E500032024FF480104FF4002CB6EB020E75EBFB
:101E6000030E22BFB61A754640EA0C005B084FEA23
:101E70003202B6EB020E75EB030E22BFB61A7546A0
:101E800040EA5C005B084FEA3202B6EB020E75EBEB
:101E9000030E22BFB61A754640EA9C005B084FEA63
:101EA0003202B6EB020E75EB030E22BFB61A754670
:101EB00040EADC0055EA060E18D04FEA051545EA5F
:101EC00016754FEA06164FEAC30343EA52734FEA08
:101ED000C2025FEA1C1CC0D111F4801F0BD141EA81
:101EE00000014FF000004FF0004CB6E711F4801FE6
:101EF00004BF01430020B4F1FD0C88BFBCF5E06FC6
:101F00003FF6AFAEB5EB030C04BFB6EB020C5FEAD5
:101F1000500C50F1000041EB045170BD0EF0004E2A
:101F20004EEA113114EB5C04C2BFD4EB0C0541EA5C
:101F3000045170BD41F480114FF0000E013C90E659
:101F400045EA060E8DE60CEA135594EA0C0F08BF1D
:101F500095EA0C0F3FF43BAF94EA0C0F0AD150EA1C
:101F600001347FF434AF95EA0C0F7FF425AF1046AF
:101F700019462CE795EA0C0F06D152EA03353FF4D7
:101F8000FDAE1046194622E750EA410618BF52EA54
:101F900043067FF4C5AE50EA41047FF40DAF52EA28
:101FA00043057FF4EBAE12E74A0011D212F500129E
:101FB00011D20DD56FF47873B3EB62520ED44FEAA1
:101FC000C12343F0004343EA505323FA02F0704721
:101FD0004FF00000704750EA013002D14FF0FF305F
:101FE00070474FF0000070470A22002100F0AABAA3
:101FF00070B50F4E0F4D761BB61018BF002405D0DC
:10200000013455F8043B9847A642F9D10A4E0B4DCE
:10201000761B02F023F8B61018BF002406D0013456
:1020200055F8043B9847A642F9D170BD70BD00BF7A
:1020300068404000684040007040400068404000F8
:1020400070B4860746D0541E002A41D0CAB2034657
:1020500002E014F1FF343BD303F8012B9D07F8D1C4
:10206000032C2ED9CDB245EA05250F2C45EA0545AE
:1020700019D903F110022646103E0F2E42F8105CCB
:1020800042F80C5C42F8085C42F8045C02F1100271
:10209000F2D8A4F1100222F00F0204F00F04103263
:1020A000032C13440DD91E462246043A032A46F84F
:1020B000045BFAD8221F22F003020432134404F016
:1020C00003042CB1C9B21C4403F8011B9C42FBD190
:1020D00070BC704714460346C2E700BFF0B5054622
:1020E00089B008460C4600F02BF9AB6B214F0494E5
:1020F0000126441C04A9022203940590AC680697AB
:1021000007960191029253B3636E13F0010FB4F975
:102110000C309AB201D1900525D5910406D4626E97
:1021200043F4005322F40052A3816266284601AAB8
:10213000214600F0ADFC636E00280CBF0A254FF06D
:10214000FF35DA0702D4A3899B0502D5284609B0DA
:10215000F0BDA06D00F048FE284609B0F0BD28464D
:1021600000F00EFBD0E7A06D00F03CFEB4F90C309F
:102170009AB2D2E7C43E4000024B01461868FFF70E
:10218000ADBF00BF3800002000290CBF0222002292
:102190004FF4806300F000B82DE9F043614C2568EE
:1021A00083B004460F4690461E4615B1AB6B002B1C
:1021B00064D0B8F1020F06D0B8F1010F00F29F8091
:1021C000002EC0F29C80636ED80734D52146284685
:1021D00000F07EFA216B41B104F14003994202D034
:1021E000284600F06FFB00232363B4F90C30002273
:1021F000A26162601A063AD423F44A6323F003030F
:10220000B8F1020FA3811DD001AB6A4621462846D2
:1022100000F0ECFDA3891843A081002E32D1009E6E
:10222000304600F05BFE074600286BD0A38943F0E0
:102230008003A38128E0A3899905C7D4A06D00F08D
:10224000D1FDC3E70025616E002604F1430243F08F
:1022500002030120A660CE07A38122602261606193
:1022600001D498053ED5284603B0BDE8F083216926
:10227000284600F027FBB4F90C30BDE7284600F0F3
:102280007FFA96E7002FCBD0AB6B002B33D0009BAF
:10229000B4F90C2027609E421CBF42F40062A28168
:1022A000B8F1010F04BF42F00102A28192B212F014
:1022B0000803276166610ED0D1071AD5656E764294
:1022C000002315F00105A661A36009D0002528466A
:1022D00003B0BDE8F083A360656E15F00105F5D18C
:1022E0009305C0D4A06D00F07FFD284603B0BDE883
:1022F000F083A660F0E7284600F042FAC7E74FF007
:10230000FF35B0E7DDF80090B14504D0484600F055
:10231000E5FD074620B9B4F90C304FF0FF3592E7E0
:102320004E4683E738000020000000000000000057
:10233000000000000000000000000000000000009D
:1023400090F800F06DE9024520F007016FF0000CF5
:1023500010F0070491F820F040F049804FF000049D
:102360006FF00700D1E9002391F840F000F1080078
:1023700082FA4CF2A4FA8CF283FA4CF3A2FA8CF3B0
:102380004BBBD1E9022382FA4CF200F10800A4FA17
:102390008CF283FA4CF3A2FA8CF3E3B9D1E904236B
:1023A00082FA4CF200F10800A4FA8CF283FA4CF3A2
:1023B000A2FA8CF37BB9D1E9062301F1200182FA5C
:1023C0004CF200F10800A4FA8CF283FA4CF3A2FA62
:1023D0008CF3002BC6D0002A04BF04301A4612BA70
:1023E000B2FA82F2FDE8024500EBD2007047D1E973
:1023F000002304F00305C4F100004FEAC50514F002
:10240000040F91F840F00CFA05F562EA05021CBFD2
:1024100063EA050362464FF00004A9E72DE9F84F8F
:10242000DDF828900F46804616461D468A4600E095
:10243000A2465446484614F801BB00F0CBFC584471
:10244000427812F00802F3D1BBF12D0F4FD0BBF14F
:102450002B0F04BF94F800B00AF102041DB1102D37
:1024600056D0AC4604E0BBF1300F60D00A25AC4634
:10247000002A0CBF6FF000494FF000490021B9FB62
:10248000FCFE08460CFB1E9A05E029D00CFB003030
:10249000012114F801BBABF13003092B05D9ABF1D5
:1024A0004103192B0BD8ABF137039D420FDDB1F17E
:1024B000FF3FEED08645E8D24FF0FF31E9E7ABF1C0
:1024C0006103192B03D8ABF157039D42EFDC4B1C82
:1024D00013D002B1404246B1C1B93760BDE8F88FB0
:1024E0009A45D3DA4FF0FF31D3E7BDE8F88F94F87F
:1024F00000B001220AF10204B0E72223C8F800303C
:10250000EEB1671E48463760BDE8F88F8146F8E7B0
:10251000BBF1300FA5D1237803F0DF03582BA0D1F6
:102520004FF0100C94F801B065460234A0E7237810
:1025300003F0DF03582BF3D00825AC4698E7484654
:10254000BDE8F88F30B5084C084B25686C6B83B03C
:10255000002C08BF1C46009413460A460146284634
:10256000FFF75CFF03B030BD380000206C04002092
:10257000024B13B1024800F005B87047000000009C
:10258000F1274000002301461A46184601F056BBC9
:10259000B1F90C309AB22DE9F0410D461107804691
:1025A0003AD46A6843F40063002AAB816FDDAC6AF9
:1025B000002C49D000229BB2D8F80060C8F8002057
:1025C00013F4805267D02A6D5F0705D569682B6BBD
:1025D000521A0BB1EB6BD21A0023E9694046A047AF
:1025E000441C3CD0B5F90C302A692A6023F40063FE
:1025F0000022AB81DB046A6047D4296BC8F8006015
:1026000011B305F14003994202D0404600F05AF957
:1026100000202863BDE8F0812E69AEB12C682E60E1
:1026200091070CBF6B690023A41BAB600AE0234633
:1026300032466F6AE9694046B8470028A4EB0004B7
:10264000064404DD002CF2DC0020BDE8F081AB89FB
:1026500043F04003AB814FF0FF30BDE8F081D8F884
:1026600000401D2CF3D8194BE340DB4313F001036A
:10267000EDD1B5F90C206B6022F400632969AB81C0
:10268000DA042960B9D5002CB7D12865B5E7EA6B23
:10269000002A8CDCD8E70123E9694046A047431CA7
:1026A000024602D0AB89AC6A8EE7D8F80030002B26
:1026B000F8D01D2B01D0162B02D1C8F80060C3E75B
:1026C000AB8943F04003AB81BDE8F08101004020BD
:1026D00038B50D46044608B1836BBBB1B5F90C00A3
:1026E00088B16B6EDB0701D4810517D520462946DA
:1026F000FFF74EFF6B6EDA07044602D4AB899B05E9
:1027000007D5204638BD0446204638BD00F038F8CD
:10271000E4E7A86D00F068FB204638BDA86D00F026
:1027200061FBE3E7014900F02BBB00BF253D400002
:1027300010B5002304468181C28103604360836039
:102740004366036143618361194608225C30FFF7E9
:1027500077FC07480749084A084B2062E461616238
:10276000A262E36204F15800BDE8104000F036BBFD
:10277000A53A4000C93A4000053B4000253B4000D7
:1027800010B50446124800F02DFBA26BD2B904F537
:102790003B731048C4F8E8320321C4F8E022E06338
:1027A000C4F8E41260680421FFF7C2FF0122092186
:1027B000A068FFF7BDFF02221221E068FFF7B8FF13
:1027C0000123A3630248BDE8104000F00DBB00BF29
:1027D000DC2A002025274000014800F003BB00BF91
:1027E000F02A0020014800F0FFBA00BFF02A0020C4
:1027F00038B50A4C0A4D641BA4100AD004F180437A
:10280000013B05EB8305013C55F804399847002C42
:10281000F9D1BDE8384001F02BBC00BF804040003A
:102820007C404000F8B5244F0C46064600F076FF89
:10283000BB685D68C4F57E610F3125F0030529444E
:1028400021F47F6121F00F01A1F58054B4F5805F80
:1028500007DB0021304601F013F9BB682B44984296
:1028600004D0304600F060FF0020F8BD61423046E1
:1028700001F006F901300DD0104BBA6819682D1B14
:1028800045F001053046091B5560196000F04CFF0A
:102890000120F8BD0021304601F0F2F8BA68831A31
:1028A0000F2BDEDD064C0549246843F00103001BB5
:1028B00053600860D5E700BFD8050020840A0020D7
:1028C000E0090020002944D02DE9F0410D46804662
:1028D00000F024FF55F8047C694927F00103A5F1B5
:1028E0000804E2188E685068B24220F003005ED0FF
:1028F000FE0750600BD455F8087CE41B01F1080E6C
:10290000A56875453B446DD0E768EF60BD6015185C
:102910006D68ED073ED543F001026260E350B3F508
:10292000007F17D2DB08581C9A104D6851F83070A0
:10293000A7600123934001EBC0022B43083AE260F9
:102940004B6041F83040FC604046BDE8F04100F08B
:10295000EBBE70475A0A042A52D89A0902F1390785
:10296000FF0002F13805C819CA59083890424FD003
:10297000516821F003018B4232D292689042F7D124
:10298000C368A060E3609C60C4604046BDE8F0415D
:1029900000F0CABE95683B4FBD42034440D0D068AA
:1029A000E86043F0010285606260E350B7E7FF072B
:1029B000034407D455F8082CA41A1344A068E2680D
:1029C000C2609060304A126843F001009342606038
:1029D0008C60B9D32D4B40461968FFF723FFB3E74E
:1029E0001046CDE711184968C90744D49168D268E8
:1029F000CA60034443F0010091606060E350A3E7C4
:102A0000142A16D802F15C07FF0002F15B05AAE761
:102A1000AA1001234D6893402B434B600346B0E757
:102A200043F001024C610C61E560A5606260E35017
:102A30008AE7542A06D81A0B02F16F07FF0002F149
:102A40006E0590E7B2F5AA7F06D8DA0B02F1780797
:102A5000FF0002F1770586E740F25450824206D823
:102A60009A0C02F17D07FF0002F17C057BE74FF431
:102A70007E777E2577E743F001016160136063E7AD
:102A8000D8050020E0050020E4090020B40A002059
:102A90009368002B73D02DE9F04F8B8983B00C46DF
:102AA00019070090164626D5226922B313F00200BA
:102AB00035682CD04FF00009B04FC846B246B84533
:102AC00043464A4628BF3B460098B8F1000F50D015
:102AD000E169666AB047002858DDDAF808301B1A49
:102AE0008144A8EB0008CAF80830002BE7D1002089
:102AF00003B0BDE8F08F2146009801F03BF80028B4
:102B000040F03381A389356813F00200D2D113F06D
:102B1000010945D14F46019637B39A05D4F808808C
:102B200040F183804745C346C0F0AB8013F4906FFB
:102B300040F0AC802068BA465A46494600F08AFD0B
:102B4000A2682368A2EB08025B44A2602360019A9A
:102B50009368A3EB0A03D144A7EB0A079360002B09
:102B6000C5D0A389002FD8D1D5F800906F6808355B
:102B7000D2E7D5F80090D5F8048008359FE700200B
:102B8000704721460098FFF7A3FD70B3B4F90C30ED
:102B900043F040034FF0FF30A38103B0BDE8F08F56
:102BA000814633464E46A8469A464D464EB380B3BC
:102BB000206823696269B145CB4628BFB346984275
:102BC0005F4604D9A36813449B4500F3A680934550
:102BD0004BDB1346676AE16900982A46B847071E2F
:102BE000D4DDB9EB0709CCD00120DAF80830DB1BC3
:102BF0003D44F61BCAF80830002B3FF478AF002E96
:102C0000D5D108F1080313E9600098460833002E77
:102C1000F9D032460A21284600F032FC002800F0A4
:102C2000A1800130A0EB0509C2E720682369984222
:102C300002D863699F425DD2B84528BFB846424674
:102C4000494600F007FDA3682268A3EB080342444D
:102C5000A36022600BB1C24679E721460098FFF7D6
:102C600037FD002892D1C24671E75A46294600F046
:102C7000F1FCA2682368A2EB0B025B44A260236014
:102C8000AFE72068B846BA46BB4655E76269206898
:102C9000216902EB4208A0EB010A08EBD8780AF19F
:102CA00001004FEA680838444045424684BF8046E8
:102CB00042465B0544D51146009800F017F983465B
:102CC000002855D05246216900F02AFCA38923F43C
:102CD000906343F08003A3810BEB0A00A8EB0A0387
:102CE000C4F810B0C4F814802060A360B846BA4697
:102CF000BB4621E76FF00041B94228BF39464A463A
:102D000091FBF3F10098666A03FB01F3E169B047B8
:102D1000B0F1000A3FF71BAF38E71A462946019386
:102D200000F098FC2268019B00981A44226021461A
:102D3000FFF7CEFC019B00287FF428AF1F4650E729
:102D4000009800F0F7FC83460028C5D1009D21695A
:102D50002846FFF7B7FDB4F90C300C2223F08003AE
:102D60002A6015E706F1010922E74FF0FF30BFE6C0
:102D7000009A0C231360B4F90C3009E700FCFF7FC4
:102D80002DE9F84310F538771FD0884606464FF0F6
:102D900000097D68BC68013D11D4A389012B05F1B0
:102DA000FF3508D9B4F90E3001332146304602D040
:102DB000C04749EA00096B1C04F16804EDD13F6883
:102DC000002FE6D14846BDE8F883B9464846BDE83D
:102DD000F88300BFD0F8EC00704700BF704700BF19
:102DE000704700BF704700BF704700BF70B50C460A
:102DF000B1F90E10002990B015461E4614DB01AA49
:102E000000F0F2FF00280FDB029A02F47042A2F5F4
:102E10000052B2FA82F252094FF480634FF400601C
:102E200032602B6010B070BDA289002312F08000C8
:102E3000336004D0402218462A6010B070BD4FF4B1
:102E400080632B6010B070BD8A8992070B4606D54F
:102E500001F1430201211A601A6159617047F0B50E
:102E600083B001AB6A460C460646FFF7BFFF0099E8
:102E70000546304600F03AF8B4F90C30D8B1019A62
:102E8000154F0099F76343F08003A3812060206110
:102E900061611AB92B43A38103B0F0BD3046B4F988
:102EA0000E1000F0B5FFA0B1A38923F0030343F097
:102EB00001031BB2EEE79A05EED423F0030304F1FD
:102EC000430243F002030121A38122602261616178
:102ED000E2E7B4F90C30DDE725274000024B01465C
:102EE000186800F003B800BF380000202DE9F04F4B
:102EF00001F10B06162E83B0054640F29E8036F097
:102F0000070600F1BD80B14200F2BA8000F006FC75
:102F1000B6F5FC7FC0F09382730A00F0B880042BF2
:102F200000F27981B30903F1390003F1380EC300CF
:102F3000BF4F3B44A3F108015C68A14206D10CE0FD
:102F4000002A80F2AA80E468A14206D0636823F0D8
:102F500003039A1B0F2AF3DD70463C69DFF8E4E2B5
:102F6000744500F0AB81636823F003039A1B0F2ABA
:102F700000F39081002AC7F814E0C7F810E080F24F
:102F80009D80B3F5007F80F06181DB0803F1010CC7
:102F900099107A6857F83C80C4F8088001238B4068
:102FA00007EBCC0113430839E1607B6047F83C40F4
:102FB000C8F80C408210012494409C4200F28B809F
:102FC0001C4206D120F0030064001C4200F1040002
:102FD000FAD007EBC009CC468046DCF80C309C45A3
:102FE00007D16DE1002A80F27B81DB689C4500F00F
:102FF0006781596821F003018A1B0F2AF2DDD3F89B
:103000000CC0D3F8088000939C19284646F00106AE
:1030100042F001055E60C8F80CC0CCF808807C6105
:103020003C61C4F80CE0C4F808E065605A5000F058
:103030007BFB009B03F108041EE0102920D800F060
:103040006DFB102618230220794F3B44A3F10802A0
:103050005C68944200F03D816368E168A66823F0F3
:103060000303234428465A68F16042F001028E604F
:103070005A6000F059FB0834204603B0BDE8F08FD9
:1030800000240C2320462B6003B0BDE8F08F4020C5
:103090004FF400734FF03F0E4AE72344E1685A684B
:1030A000A66842F00102F16028468E605A6000F086
:1030B0003BFB0834204603B0BDE8F08F234428468C
:1030C0005A6842F001025A6000F02EFB0834204694
:1030D00003B0BDE8F08FBC68636823F00308B04517
:1030E00004D3A8EB06030F2B00F38580DFF858917B
:1030F000504BD9F800201B680132334404EB080A16
:1031000000F0558103F580530F3323F47F6B2BF0D0
:103110000F0B5946284600F0B3FC411C024600F054
:10312000FC80824500F2F780434B196859441960CE
:1031300000F04D81D9F8000001301BBFA2EB0A0A54
:103140005144C9F80020196012F0070100F0158100
:10315000C1F10800C1F580510244083102EB0B09AE
:10316000C9F30B09A1EB09094946284601930092CE
:1031700000F086FC431C9DE80C0000F04381801A9F
:10318000484440F001001968BA604944BC425060AC
:10319000196017D0B8F10F0F40F2FB806068A8F1FA
:1031A0000C0222F0070204EB020E00F001004FF0C7
:1031B000050C10430F2A6060CEF804C0CEF808C09A
:1031C00000F217811D4BBC681A68914288BF1960D4
:1031D0001B4B1A689142626888BF196022F0030293
:1031E0009642A2EB060301D80F2B04DC284600F020
:1031F0009BFA002440E7A21943F0010346F00106C0
:1032000066602846BA60536000F08EFA08342046A3
:1032100003B0BDE8F08F142B71D9542B00F2A380BA
:10322000330B03F16F0003F16E0EC30080E600BFA5
:10323000D8050020B40A0020840A0020AC0A00202F
:10324000B00A0020E0050020E00900205A0A042A04
:103250005BD9142A00F2AE8002F15C01C9005B3236
:1032600007EB010C7958ACF1080C8C4500F0888014
:103270004A6822F00302934273D289688C45F7D1E1
:10328000DCF80C207B68E260C4F808C09460CCF8DD
:103290000C408FE6A11946F0010C42F00106C4F87B
:1032A00004C0284679613961C1F80CE0C1F808E032
:1032B0004E60E25000F038FA0834DDE67B6879E6CB
:1032C00008F1010818F0030F0CF1080C7FF485AE2B
:1032D0002DE0DC68A34208BF02303FF43EAEBBE6FF
:1032E00019441C464A68DB6854F8086F42F0010232
:1032F0004A602846F3609E6000F016FABCE603F1CF
:103300005C0003F15B0EC30012E69A0902F1390179
:10331000C9003832A4E7BC4254D0BC68626822F0CD
:1033200003025DE759F80839994540F0868010F0AE
:10333000030F00F1FF30F5D17B6823EA04037B60C3
:1033400064009C423FF6C7AE002C3FF4C4AE1C4262
:1033500040467FF43EAE64001C4200F10400FAD007
:1033600037E68C468CE7B3F5AA7F15D8F30B03F14B
:10337000780003F1770EC300DAE54FF48051EDE6F3
:103380007B689210012101FA02F213437B606246CE
:1033900079E70123536029E740F25452934222D83F
:1033A000B30C03F17D0003F17C0EC300C0E503F113
:1033B000100BAEE6542A29D81A0B02F16F01C9008E
:1033C0006E324DE7204B196859441960B2E6CAF3D2
:1033D0000B0000287FF4AEAE08EB0B03BA6843F095
:1033E00001035360EEE67F204FF47E734FF07E0EB4
:1033F0009EE504F1080128460093FFF763FA009B5D
:103400001968DFE601204FF00009BCE6B2F5AA7F9B
:1034100005D8DA0B02F17801C900773220E740F2D3
:1034200054518A4205D89A0C02F17D01C9007C32C0
:1034300016E74FF47E717E2212E77B6880E7F00882
:1034400006F1080300E600BF840A002082B049B1FB
:103450005AB16BB113780B601278101C18BF0120A1
:1034600002B0704701A9002AF3D1104602B070479C
:103470006FF00100F4E700BF000000000000000052
:1034800001F0FF01102A2BDB10F0070F08D010F815
:10349000013B013A8B422DD010F0070F42B3F6D119
:1034A000F0B441EA012141EA014122F007047FF032
:1034B00000070023F0E80256083C85EA010586EA89
:1034C000010685FA47F5A3FA87F586FA47F6A5FAC5
:1034D00087F68EB9EED1F0BC01F0FF0102F00702D1
:1034E00032B110F8013B013A83EA010313B1F8D17C
:1034F0000020704701387047002D06BF354603385D
:10350000073815F0010F07D1013015F4807F02BF95
:10351000013015F4C03F0130F0BC0138704700BFE6
:10352000844641EA000313F003036DD1403A41D3CE
:1035300051F8043B40F8043B51F8043B40F8043B8D
:1035400051F8043B40F8043B51F8043B40F8043B7D
:1035500051F8043B40F8043B51F8043B40F8043B6D
:1035600051F8043B40F8043B51F8043B40F8043B5D
:1035700051F8043B40F8043B51F8043B40F8043B4D
:1035800051F8043B40F8043B51F8043B40F8043B3D
:1035900051F8043B40F8043B51F8043B40F8043B2D
:1035A00051F8043B40F8043B51F8043B40F8043B1D
:1035B000403ABDD2303211D351F8043B40F8043BBD
:1035C00051F8043B40F8043B51F8043B40F8043BFD
:1035D00051F8043B40F8043B103AEDD20C3205D3CD
:1035E00051F8043B40F8043B043AF9D2043208D0C5
:1035F000D2071CBF11F8013B00F8013B01D30B8837
:1036000003806046704700BF082A13D38B078DD014
:1036100010F003038AD0C3F10403D21ADB071CBFE6
:1036200011F8013B00F8013B80D331F8023B20F850
:10363000023B7BE7043AD9D3013A11F8013B00F889
:10364000013BF9D20B7803704B7843708B78837011
:10365000604670478842F0B50DD98B1898420AD25F
:103660008418002A51D0224613F8014D02F8014D6A
:103670009942F9D1F0BD0F2A48D941EA00039B07CE
:1036800046D100F1100401F11003154653F8106CF7
:1036900044F8106C53F80C6C44F80C6C53F8086C3C
:1036A00044F8086C103D53F8046C44F8046C0F2D7A
:1036B00003F1100304F11004E8D8A2F1100323F081
:1036C0000F0302F00F0E1033BEF1030F1944034431
:1036D00021D91E1F0D467446043C55F8047B46F85C
:1036E000047F032CF8D8AEF1040424F0030404345E
:1036F0002144234402F0030262B1013B0A4411F861
:10370000014B03F8014F8A42F9D1F0BD0346F3E7BC
:103710000346F2E7F0BD7246EEE700BF0148FFF74F
:1037200061BB00BFE02A00200148FFF75DBB00BF7E
:10373000E02A0020002900F095802DE9F04F0D4689
:10374000164683B0804606F10B07FFF7E7FF55F8F2
:1037500004EC162F2EF00304A5F108093CD8102222
:103760001746BE423DD8944243DAC44B996809EBF0
:103770000400884200F0B480436823F00101014452
:103780004968C9074CD51EF0010F00F09B803146F7
:103790004046FFF7ABFB064600283AD055F8043CFC
:1037A00023F001034B44A0F108029A4200F021816A
:1037B000221F242A00F20781132A00F2DB8003462D
:1037C0002A46116819605168596092689A602946C2
:1037D0004046FFF777F81CE027F00707002F3A462E
:1037E000BFDA00260C233046C8F8003003B0BDE82D
:1037F000F08F2E46E31B0F2B1ED8D9F8043003F0B0
:10380000010323434C44C9F80430636843F00103C7
:1038100063604046FFF788FF304603B0BDE8F08F95
:1038200023F00303E11891421FDBC36882682E4630
:10383000D3600C469A60DDE7D9F8042009EB070154
:1038400002F001024C4443F001031743C9F804702D
:103850004B60636843F00103083163604046FFF743
:1038600031F8D6E71146FFF741BB1EF0010F8ED1AC
:1038700055F8081CA9EB010ADAF8041021F003013D
:103880000B442344934225DBC26881685646CA60D4
:103890009160DAF80C1056F8080F221F242AC16034
:1038A000886000F29480132A6FD92968CAF808103A
:1038B0006968CAF80C101B2A00F2A28008350AF1C8
:1038C000100263E055F8083CA9EB030ADAF804108B
:1038D00021F0030163189342FFF659AF5646D8E72B
:1038E000416821F0030BA34407F11000834556DA29
:1038F0001EF0010F7FF44BAF55F8081CA9EB010A2D
:10390000DAF8041021F003018B445845E2DC5646F6
:10391000DAF80C1056F8080F221F242AC1608860BC
:1039200000F28F80132A40F28A802968CAF80810B2
:103930006968CAF80C101B2A00F28A8008350AF15F
:1039400010022968116069685160A96891600AEBEA
:103950000701ABEB070242F0010299604A60DAF816
:10396000043003F001031F434046CAF80470FFF718
:10397000DBFE51E72B6803606B6843601B2A2DD880
:1039800000F1080305F108021BE7324629681160BF
:1039900069685160A96891601C46D1462AE709EB25
:1039A0000701ABEB070B4BF0010299604A6055F839
:1039B000043C03F001031F43404645F8047CFFF735
:1039C000B3FE2E4628E72946FFF744FEFFE62946C8
:1039D00030461C46D146FFF73DFE0BE7AB688360DF
:1039E000EB68C360242A17D000F1100305F1100220
:1039F000E7E650F8043C23F003031C442E46F9E6A6
:103A0000A968CAF81010E968CAF81410242A0CD062
:103A100010350AF11802B9E72B6903616B6943613C
:103A200005F1180200F11803CBE62A69CAF818203C
:103A30006A69CAF81C2018350AF12002A6E7324646
:103A40007FE7294630460193FFF704FE019B7EE79E
:103A5000A968CAF81010E968CAF81410242A03D01B
:103A600010350AF118026CE72A69CAF818206A6949
:103A7000CAF81C2018350AF1200262E7D805002098
:103A800038B5074C0023054608462360FCF7AEFF17
:103A9000431C00D038BD2368002BFBD02B6038BD01
:103AA000F42A002010B50C46B1F90E1000F0D8F938
:103AB000002803DB236D0344236510BDA38923F491
:103AC0008053A38110BD00BF2DE9F0411646B1F926
:103AD0000C201F46D3050C46054607D500220223BD
:103AE000B1F90E1000F0A6F9B4F90C20B4F90E10DB
:103AF00022F48052A2813B4632462846BDE8F0417E
:103B000000F022B810B50C46B1F90E1000F092F991
:103B1000A389421C0EBF23F4805343F480532065D5
:103B2000A38110BDB1F90E1000F0EAB821B1FF2A4F
:103B300004D80A7001207047084670478A23036042
:103B40004FF0FF30704700BF70B50D46084C11466E
:103B500006461A46284600232360FCF76FFF431CE5
:103B600000D070BD2368002BFBD0336070BD00BF58
:103B7000F42A002038B5304B1B6805460C4613B1BB
:103B80009A6B002A38D0B4F90C2093B218070CD5E0
:103B90002069A8B113F001021ED0636900225B42C4
:103BA000A361A260F0B1002038BDD9063CD558070A
:103BB00026D4206942F00803A3819BB20028E9D1F2
:103BC00003F42072B2F5007FE4D028462146FFF7C7
:103BD0003BF9A3892069DDE7990758BF6269A260B4
:103BE0000028E0D1B4F90C301A06DDD543F04003CB
:103BF000A3814FF0FF3038BD1846FEF7C1FDC2E784
:103C0000216B51B104F14003994204D02846FEF7DC
:103C100059FEB4F90C20002323630023206963605C
:103C200022F024022060C5E742F0400209232B6005
:103C30004FF0FF30A28138BD380000202DE9F84355
:103C40002C4D0646286898460F469146FFF7CAF85D
:103C5000294B1C68D4F84831002B3ED05A681F2AE3
:103C60001CDC02F1010E76B103EB82010124C1F8E4
:103C70008890D3F8880194402043022EC3F888012D
:103C8000C1F8088123D00232C3F804E0286843F861
:103C90002270FFF7A9F80020BDE8F883174B0BB39B
:103CA0004FF4C870FFF71AF90346D8B1D4F8482189
:103CB0000260002141600A46C4F848014FF0010E3D
:103CC000C0F88811C0F88C11002EDCD0CCE7D3F8F6
:103CD0008C110C43C3F88C41D5E704F5A673C4F8E6
:103CE0004831BBE72868FFF77FF84FF0FF30BDE8A9
:103CF000F88300BF68040020403F4000DD2E4000F4
:103D000038B5074C0023054608462360FCF78AFEB9
:103D1000431C00D038BD2368002BFBD02B6038BD7E
:103D2000F42A002070B559B105460C4610B1836BDA
:103D3000002B3CD0636ED80705D5B4F90C302BB9F5
:103D40000026304670BDA38999053CD521462846FA
:103D5000FEF71EFCE36A064633B1E1692846984740
:103D60000028B8BF4FF0FF36A3891A0622D4216B72
:103D700041B104F14003994202D02846FEF7A2FD6A
:103D800000232363616C21B12846FEF79BFD0023CD
:103D90006364FEF721FD636E0022DB07A2810ED56E
:103DA000A06DFFF71DF8FEF71DFD304670BDFEF754
:103DB000E7FCBFE721692846FEF784FDD7E7A06D41
:103DC000FFF712F8ECE7A06DFFF70CF8B4F90C3030
:103DD000002BBBD1666E16F00106B1D1A06DFFF7C6
:103DE00003F8304670BD00BF38B50B46074C05469A
:103DF0001146184600232360FCF717FE431C00D031
:103E000038BD2368002BFBD02B6038BDF42A00207E
:103E100038B5074C0023054608462360FCF70AFE28
:103E2000431C00D038BD2368002BFBD02B6038BD6D
:103E3000F42A002070B50D46084C114606461A4675
:103E4000284600232360FCF7F7FD431C00D070BD1B
:103E50002368002BFBD0336070BD00BFF42A002024
:103E600070B50D46084C114606461A4628460023F2
:103E70002360FCF70BFE431C00D070BD2368002BB1
:103E8000FBD0336070BD00BFF42A00204175646927
:103E90006F20436F64656320496E697469616C6962
:103EA0007A65640D0A0000004932534320496E6967
:103EB0007469616C697A65640D0A00006670752C1E
:103EC0002025640D0A0000000D0A426F6172645FD4
:103ED000496E6974207375636365737366756C0DE1
:103EE0000A4E6F77207374617274696E6720707206
:103EF0006F6772616D0D0A0054574920496E6974ED
:103F000069616C697A65640D0A00000030313233F2
:103F100034353637383941424344454600000000C5
:103F20005541525420496E697469616C697A6564BF
:103F30002077697468207072696E74660D000000E5
:103F40004000002043000000504F5349580000003B
:103F5000000000002E000000002020202020202053
:103F60002020282828282820202020202020202029
:103F70002020202020202020208810101010101039
:103F80001010101010101010100404040404040485
:103F9000040404101010101010104141414141411F
:103FA0000101010101010101010101010101010101
:103FB0000101010110101010101042424242424211
:103FC00002020202020202020202020202020202D1
:103FD0000202020210101010200000000000000079
:103FE00000000000000000000000000000000000D1
:103FF00000000000000000000000000000000000C1
:1040000000000000000000000000000000000000B0
:1040100000000000000000000000000000000000A0
:104020000000000000000000000000000000000090
:104030000000000000000000000000000000000080
:104040000000000000000000000000000000000070
:10405000000000000000000000000000F8B500BFF4
:10406000F8BC08BC9E467047712540002D014000F9
:10407000F8B500BFF8BC08BC9E4670470901400077
:1040800000127A000002004000007A4425643A09D8
:1040900020673A2567200920663A25662009206CAA
:1040A000693A256C69200D0A00000000000000003C
:1040B0000000000000007A444000002000000000E2
:1040C000000000002C03002094030020FC030020CB
:1040D00000000000000000000000000000000000E0
:1040E00000000000000000000000000000000000D0
:1040F00000000000000000000000000000000000C0
:1041000000000000000000000000000000000000AF
:10411000000000000000000000000000000000009F
:10412000000000000000000000000000000000008F
:10413000000000000000000000000000000000007F
:10414000000000000000000000000000000000006F
:10415000000000000000000000000000000000005F
:10416000000000000000000001000000000000004E
:104170000E33CDAB34126DE6ECDE05000B00000013
:10418000000000000000000000000000000000002F
:10419000000000000000000000000000000000001F
:1041A000000000000000000000000000000000000F
:1041B00000000000000000000000000000000000FF
:1044E0000000000000000000D02A0020430000006F
:1044F00000000000000000000000000000000000BC
:104500000000000000000000000000004300000068
:10451000000000000000000000000000000000009B
:104520000000000000000000000000004300000048
:10453000000000000000000000000000000000007B
:104540000000000000000000000000004300000028
:10455000000000000000000000000000000000005B
:104560000000000000000000000000004300000008
:10457000000000000000000000000000000000003B
:1045800000000000000000000000000043000000E8
:10459000000000000000000000000000000000001B
:1045A00000000000000000000000000043000000C8
:1045B00000000000000000000000000000000000FB
:1045C0000000000000000000000000002D3B400043
:1045D0004D34400000000000583F4000543F400070
:1045E000503F4000503F4000503F4000503F40008F
:1045F000503F4000503F4000503F4000503F40007F
:10460000503F4000FFFFFFFFFFFFFFFFFFFFFFFFE7
:10461000FFFF000001004153434949000000000032
:10462000000000000000000000000000000000008A
:104630000000000000004153434949000000000011
:10464000000000000000000000000000000000006A
:10465000000000000000000000000000000000005A
:10466000D8050020D8050020E0050020E005002046
:10467000E8050020E8050020F0050020F0050020F6
:10468000F8050020F80500200006002000060020A4
:104690000806002008060020100600201006002052
:1046A0001806002018060020200600202006002002
:1046B00028060020280600203006002030060020B2
:1046C0003806002038060020400600204006002062
:1046D0004806002048060020500600205006002012
:1046E00058060020580600206006002060060020C2
:1046F0006806002068060020700600207006002072
:104700007806002078060020800600208006002021
:1047100088060020880600209006002090060020D1
:104720009806002098060020A0060020A006002081
:10473000A8060020A8060020B0060020B006002031
:10474000B8060020B8060020C0060020C0060020E1
:10475000C8060020C8060020D0060020D006002091
:10476000D8060020D8060020E0060020E006002041
:10477000E8060020E8060020F0060020F0060020F1
:10478000F8060020F806002000070020000700209F
:10479000080700200807002010070020100700204D
:1047A00018070020180700202007002020070020FD
:1047B00028070020280700203007002030070020AD
:1047C000380700203807002040070020400700205D
:1047D000480700204807002050070020500700200D
:1047E00058070020580700206007002060070020BD
:1047F000680700206807002070070020700700206D
:10480000780700207807002080070020800700201C
:1048100088070020880700209007002090070020CC
:104820009807002098070020A0070020A00700207C
:10483000A8070020A8070020B0070020B00700202C
:10484000B8070020B8070020C0070020C0070020DC
:10485000C8070020C8070020D0070020D00700208C
:10486000D8070020D8070020E0070020E00700203C
:10487000E8070020E8070020F0070020F0070020EC
:10488000F8070020F807002000080020000800209A
:104890000808002008080020100800201008002048
:1048A00018080020180800202008002020080020F8
:1048B00028080020280800203008002030080020A8
:1048C0003808002038080020400800204008002058
:1048D0004808002048080020500800205008002008
:1048E00058080020580800206008002060080020B8
:1048F0006808002068080020700800207008002068
:104900007808002078080020800800208008002017
:1049100088080020880800209008002090080020C7
:104920009808002098080020A0080020A008002077
:10493000A8080020A8080020B0080020B008002027
:10494000B8080020B8080020C0080020C0080020D7
:10495000C8080020C8080020D0080020D008002087
:10496000D8080020D8080020E0080020E008002037
:10497000E8080020E8080020F0080020F0080020E7
:10498000F8080020F8080020000900200009002095
:104990000809002008090020100900201009002043
:1049A00018090020180900202009002020090020F3
:1049B00028090020280900203009002030090020A3
:1049C0003809002038090020400900204009002053
:1049D0004809002048090020500900205009002003
:1049E00058090020580900206009002060090020B3
:1049F0006809002068090020700900207009002063
:104A00007809002078090020800900208009002012
:104A100088090020880900209009002090090020C2
:104A20009809002098090020A0090020A009002072
:104A3000A8090020A8090020B0090020B009002022
:104A4000B8090020B8090020C0090020C0090020D2
:104A5000C8090020C8090020D0090020D009002082
:084A6000FFFFFFFF0000020050
:0400000500400000B7
:00000001FF
